:020000040000FA
:10000000A8090020F50000000F0100001101000008
:1000100000000000000000000000000000000000E0
:1000200000000000000000000000000013010000BC
:100030000000000000000000150100001701000092
:1000400019010000190100001D0400001901000041
:100050001901000000000000A101000019010000CA
:100060001901000019010000190100001901000028
:100070001901000019010000190100001901000018
:100080001901000019010000E5020000190100003B
:1000900019010000190100001901000019010000F8
:1000A000190100001901000000000000000000001C
:1000B0000000000000000000000000000000000040
:1000C0000348854600F05AF80048004769090000D7
:1000D000A8090020401E00BF00BF00BF00BF00BF36
:1000E00000BF00BF00BF00BF00BF00BF00BFF1D115
:1000F000704700000321094802680A43026008486B
:1001000002680A4302600748804707480047FEE745
:10011000FEE7FEE7FEE7FEE7FEE7000024050040FD
:10012000540500407D030000C100000003460B435E
:100130009B0703D009E008C9121F08C0042AFAD29D
:1001400003E00B780370401C491C521EF9D2704723
:1001500030B50B46014600202022012409E00D465F
:10016000D5409D4205D31D469540491B25469540E7
:1001700040191546521E002DF1DC30BD064C0125FC
:10018000064E05E0E36807CC2B430C3C984710343F
:10019000B442F7D3FFF798FF281500004815000078
:1001A000F0B50025FF2489B0013401262F460195C2
:1001B000204600F0ABFF002808D04348406830429A
:1001C00004D042480021201835430160241D7600E8
:1001D0007F1CA4B2042FEBD3FF207D3000F096FFEC
:1001E000002807D03A4800210160400705433948FC
:1001F00000690190384C280712D0012700262F42B1
:100200000AD03648B200111808690969C004C00E46
:100210008903A258890F90477F00761C042EEED3E5
:10022000002D2FDA0020421E264620360590307D14
:1002300000278506AD0E41B2491C23D00121A940FB
:10024000114200911ED080090390284600F092FAD6
:10025000800020580490002802D10398032811D16F
:1002600003980099032802D10598084305901C4A79
:10027000A80080180068019A8003800F114203D003
:10028000022803D009B0F0BD0328FBD1039903294C
:1002900006D1022815D00221284600F027FF0127A9
:1002A0000498002803D0049A284603999047002F09
:1002B000E8D00848006901998842E3D00190059A86
:1002C000B5E70321E8E7000000630040006000405C
:1002D0007C61004000050050500100200065004096
:1002E00000070050FEB52148FF2102680131204F70
:1002F000204C0025204E002A0CD06268D207D20F75
:1003000008D005606A461180F8689070726801999B
:1003100000989047FF23154A0533121D10680028E6
:1003200011D06068022108420DD015606846038034
:10033000B96941800E4840308168684681807268A2
:10034000019900989047FF200849093008310A6850
:10035000002A0AD063680422134206D00D60694661
:1003600008807268019900989047FEBD0021014005
:1003700000250140002301402000002010B500F0BE
:10038000CFFA002805D01F491D484860C8131E49F0
:1003900088611E48018CC9B201290BD1828C1207D9
:1003A00008D1028D1206120F042A03D1828D120683
:1003B000120F0AD0012921D1818C09071ED1018D8C
:1003C0000906090F0A2904D007E0114A01219160AA
:1003D000F5E7828D1206120F05D00D290ED1808D02
:1003E0000006000F0AD10B480168012904D00A4910
:1003F000016001680129FCD1C021416110BD0000EC
:10040000DFFF07C000050040006C0040C00F00F097
:100410000006004000EC06407593000010B500F0A7
:10042000B5FF10BD0FB410B503A9044B044A0298E0
:1004300000F018F810BC08BC04B018478B08000086
:100440002800002002E008C8121F08C1002AFAD1C3
:1004500070477047002001E001C1121F002AFBD144
:1004600070470000FFB58DB00446002506E0252842
:100470000AD0109A0F999047641C6D1C20780028B0
:10048000F5D1284611B0F0BD00270121484A009758
:1004900000E00743641C23780846203B9840104244
:1004A000F7D120782E2817D1042007436078641CE8
:1004B0002A280CD10E98641C02C800910E900BE003
:1004C00000990A22514330394018641C009020786A
:1004D000014630390929F3D920780028D1D0642881
:1004E00008D0692806D075281ED0109A0F99904719
:1004F0006D1C5BE00A200E99019001C90E91002845
:1005000002DA40422D2102E0390504D52B216A464A
:100510001172012103E0F90704D02021F7E70BAEA7
:100520000B910DE00021FAE70A200E99019001C914
:100530000E91F7E70199FFF70BFE3031761E31700F
:100540000028F7D103A8801B20300190780701D53F
:10055000009801E0012000900199884201DD401AD5
:1005600000E000200027009006E002A8109AC05D7D
:100570000F9990476D1C7F1C0B988742F5DB04E0B8
:10058000109A30200F9990476D1C0099481E0090DA
:100590000029F5DC05E03078109A761C0F99904719
:1005A0006D1C0199481E01900029F4DC641C65E76C
:1005B00009280100BFF34F8F04490348C860BFF307
:1005C0004F8F00BFFDE700000400FA0500ED00E0DA
:1005D0000EB50021029000916A4601910148FFF793
:1005E000E9FF0EBD0140000010B58268C368934268
:1005F00003D000F037F9002010BD052010BD002900
:1006000006D0002A02D0531E134203D0092070479F
:100610000E2070470160838000218160C160084620
:10062000704710B58268C3689A1A83889A4203D8C3
:1006300000F022F9002010BD042010BD70B5044662
:10064000224888B01E460D0042601CD0A888296848
:1006500082B21F48FFF7D3FF002815D1A889A968E7
:1006600082B21B481030FFF7CAFF00280CD12022AD
:1006700018496846FFF75AFDA068069020790028BF
:1006800004D0012103E0072008B070BD00216846B6
:10069000017506776079002800D00E2069464875FC
:1006A000E0780290A0780390207801906078009024
:1006B0000949684600F0A2FB0028E5D100F028FCBB
:1006C00002480121401C00F0FDFBDDE7180000207E
:1006D00030010020D0140000DD12000010B50146EA
:1006E0000A48FFF79EFF04000ED100F0B7FC002877
:1006F0000AD107490548FFF777FF002804D10121F7
:10070000034800F05FFC0446204610BD4001002075
:10071000180000200022D243830004490428CA5054
:1007200002D30818203002747047000050010020E6
:10073000F0B50025ED43002A02D00023042601E095
:10074000042305260A4C04E09F00E7597F1C04D0CF
:100750005B1CB342F8D32846F0BD5DB22618357550
:100760009E00A151002AF6D1E11820310874F2E769
:100770005001002002490918142008567047000053
:100780005001002070B51A4D041E04DD6878002861
:1007900007D0641E05E0002C03DA6878002800D03A
:1007A000641C6868FF26F53600280CD0696811A023
:1007B000FFF738FE1F480020C046304600F03CF9E5
:1007C0000020FFF705FFA868A0420DD0AA682146C7
:1007D00019A0FFF727FE17480020C046304600F05A
:1007E0002BF90020FFF7F4FE0020687070BD0000B8
:1007F000000000200A4552524F523A206D5F61635B
:100800006364626C726561642077617320657870DF
:10081000656374656420746F206861766520766115
:100820006C75652030206275742069732025750A07
:1008300000000000280000200A4552524F523A2082
:100840006D5F616363726561642073686F756C646A
:1008500020626520256420627574206973202564F8
:100860000A000000826883881A4003689A5C0A7054
:100870008168491C81607047C26883881A40036898
:100880009954C168491CC160704710B50446C0B294
:10089000FFF724FF204610BD10B51F4C60680028EC
:1008A00007DD6078002804D06068401E60601B4847
:1008B00016E06068002808DA6078002805D06068D3
:1008C000401C60601548001D0AE0A06800280BD09D
:1008D0006078002808D0A068401EA0600F4808304B
:1008E0002178405C207001E0002060702078C00713
:1008F00003D0052000F006FA02E0052000F0AEF972
:100900002078800703D5062000F0FCF910BD0620F2
:1009100000F0A4F910BD00000C000020C01400007D
:100920001048018CC9B2012917D1818C090714D153
:10093000018D09060A0F03D1828D1206120F0ED007
:10094000090F012903D1828D1206120F07D0032946
:1009500003D1808D0006000F01D0002070470120D8
:1009600070470000C00F00F0F0B5254A8BB007CAF1
:1009700003AB07C323480690234802240890E001F4
:100980000125099007950323204A06A903A8FFF72C
:1009900055FE002801D0FFF71BFE1D49002000F086
:1009A000D9F9002801D0FFF713FE0A200290194858
:1009B0004068C0B200F0F0FB17A0FFF733FD114E06
:1009C000B61E2F466743384600F012FC00F0B2F91D
:1009D00000E020BF30780028FBD015A0FFF722FDF3
:1009E00014480020C046002030703846FFF7CAFE89
:1009F0000298641C8442E4D901246D42E1E70000BE
:100A0000B41400000200002030000020C9120000D1
:100A10006D11000000250140514445432074657369
:100A200074696E6720737461727465640A000000F3
:100A30002A0000002800002031B5054C04E0401ECB
:100A400000902046FFF746FB00980028F7D138BDFC
:100A5000E70300008207D30EFF229A408907090EA0
:100A600010B5994000280BDA03071B0F083B9C08C0
:100A70000C4BA400E318DC6994430C43DC6107E0F1
:100A80008408094BA400E418236893430B432360B4
:100A9000C106C90E01208840044908600449086065
:100AA00010BD000000ED00E000E400E080E200E0A6
:100AB00000E100E0F3B581B00F46019800F03EFB85
:100AC000012400281E4E019817D0FFF753FE80190D
:100AD0002030007C8009032802D0012806D007E0DE
:100AE0001848006901998C40204201D1022100E0A0
:100AF0000321019800F0FAFAFEBD00F02BFB00285C
:100B0000FAD00198FFF736FE05468100C81D0E4A4F
:100B1000F93089180A6980B222430A610B494018EA
:100B200000210160002FE7D00198FFF723FE80002D
:100B300030580028E0D00648AC404460FEBD0000BC
:100B4000500100200005005000650040006000409A
:100B500000630040FEB5044623480E4600191421E8
:100B600041560027C8171346401C01D0082738E01B
:100B7000F27819462046FFF7DBFD0546401C2FD0D2
:100B8000B078002807D01948A10009180868022287
:100B90009043086007E000217378204600910A46E0
:100BA000019100F063FAF078002810D01048AA00F4
:100BB0001018317802690F4B1A400261E206D20C1C
:100BC0008907890B0A4301690A43026109E0064863
:100BD000327840192030017C92011143017400E009
:100BE00004273846FEBD00005001002000070050D9
:100BF00000650040FFE0FCFF70B5124D687D0028E5
:100C000001D0082070BD0F4900202039421E0B186A
:100C1000401CC0B21A752028F9D300242046FFF7E3
:100C200079FD641CE4B2052CF8D303210620FFF7FC
:100C300011FF01200449C0074860012068750020A9
:100C400070BD000070010020006300400248407D3C
:100C5000002800D001207047700100200121814050
:100C60000148C1607047000000050050FEB5044611
:100C700020480D460019142141560026491C01D078
:100C8000082633E0A97800291DD001220021204642
:100C9000FFF74EFD411C14D0830017482A7818181E
:100CA00069780369154F3B4003610369E706FF0C50
:100CB0009207920BC907C90A3B430A4313430361D6
:100CC00004E0042612E00121C94301756A7801207D
:100CD000A0400B49012A0BD0C860002100910B46AF
:100CE000012201912046114600F0C0F93046FEBDB8
:100CF0008860F2E75001002000650040FFE0ECFF53
:100D000000050050012181400148816070470000CA
:100D100000050050044900200860044901200860D3
:100D2000034908707047000000250140042001407D
:100D3000200000200449012008600449086004499B
:100D4000022008707047000000250140002001408B
:100D500020000020F8B5244E04463078002801D049
:100D60000820F8BD002C00D1204C002925D071604E
:100D70001F4D6078A8600021E06800F09BF9002119
:100D8000606800F097F90021A06800F093F9201D39
:100D900007C828626962EA61154920694031086024
:100DA000207D68601348012102680A430260607D6B
:100DB0000F46002803D0AF6203E00720F8BD0020F3
:100DC000A86221780420082901D029610620A17D8C
:100DD000002900D0384308494860E17D1220FFF720
:100DE00039FE37700020F8BD20000020F01400000C
:100DF000002501400022014000230140F3B52A4CA8
:100E00000746E07E81B0002801D00820FEBD002FFB
:100E100000D1264F01263878314681402448816030
:100E2000386800F058F90021786800F04BF9214D3E
:100E3000B8696862787D397D0843E86603CFE86069
:100E40006961387B083F01280FD10021B86800F0A4
:100E500039F9387B3146814015488160F86800F0E7
:100E60003AF9F968B868A960286102986060396940
:100E7000216000280ED0FF230F481D33397F002248
:100E8000C250FF234533C2500D4A0C485060022027
:100E9000FFF7E0FD042028600020E0752076A075B3
:100EA000E676A076FEBD000088010020081500004F
:100EB0000005005000250040002000408000020096
:100EC00000230040F8B5104B81245E680022A40086
:100ED0000E4D002E00D0AC60DF7D002F0BD01A7EAF
:100EE000002A04D0002E00D06C601120F8BD1861DB
:100EF0000122197604E0D9750024D8605C761C764E
:100F000000F012F8F8BD0000880100200023004026
:100F100010B5044CA07E002803D100F0A1F90120F7
:100F2000A07610BD88010020F8B5234DA87E10439F
:100F300001D100F095F96868204C002805D0812087
:100F40001F49800048600020F8BDFF204530002187
:100F50002150FF212531204600F0E2F80546FF210F
:100F60000931204600F0DCF80746FF2145312046D4
:100F700000F0D6F80646394631432943E9D02846E1
:100F8000304306D100F042F90B48C17D407E8142DA
:100F9000DFD800210848002DC17501D00320F8BD1D
:100FA000002E01D00F20F8BD817E0120002901D044
:100FB0002060C8E76060C6E788010020002000408C
:100FC0000023004010B5034600F048F8002801D087
:100FD000112010BD034A002091759360908200F0AB
:100FE00003F810BD88010020F8B50026194FFF2531
:100FF0001D357E510120B86000F040F9164C616843
:10100000002910D022E0FF2701372946114800F0BF
:1010100087F8002802D1A08AB842F6D1A08AB84247
:1010200001D000F02BF9A08AA17D8842EBD3A18AE0
:10103000C81FF9380CD0074F2946384600F070F821
:101040000028F9D00120F8600020A0753046F8BDD6
:101050000F26F9E700200040880100200248807D2B
:10106000002800D0012070478801002030B55200D0
:101070000A439900039C0A432102049D0A43290460
:101080000A43024980004018026030BD000700504A
:1010900030B552000A439900039C0A432102049D83
:1010A0000A4329040A43024980004018026030BD07
:1010B00000070050024A89008000801801607047D4
:1010C000000700501CB500220B4600921146019209
:1010D000FFF7DEFF1CBD1CB5002100910B4601226D
:1010E00001911146FFF7D4FF1CBD000082000648A5
:1010F0001018026803231B049A4302600268090463
:101100000A4302607047000000070050034940187E
:101110000068012800D000207047000000600040F7
:101120004058002800D00120704703221202801886
:101130004068084000D001207047000004490818AA
:1011400014214156042901DB01207047002070471B
:10115000500100200449081814214156042901D2E5
:1011600001207047002070475001002013B56846E9
:101170000088C11FFD390BD1694606488988416046
:10118000694602228A5E826001210170FFF7C2FD7A
:101190001CBD0000000000201CB504461248694632
:1011A000C06800900020019003204870FFF74EFDBA
:1011B000002801D1FFF720FD002C02D10220694652
:1011C00008700A4A69460420FFF7C4FC0121042084
:1011D000FFF770FC01A90620FFF748FD01A90520D3
:1011E000FFF744FD1CBD0000C0140000990800007A
:1011F00000B5002100F002F800BD0000024A506076
:1012000091600120507070470C00002030B50A48F2
:10121000FF21C57D0022094C0931094B002D625088
:1012200007D09969437EC268D154417E491C4176FA
:1012300030BD986930BD00008801002000200040CA
:10124000002500401FB501236A4613701072034841
:10125000019106C8684690471FBD00008801002024
:10126000FF220548253200218150FF22093281509A
:10127000012101607047000000200040FF21074865
:101280001D31002242500648828A8168895C828A28
:10129000521C82820348C161704700000020004058
:1012A00088010020002500401FB500216A4611700A
:1012B0001072044882680192817506C8684690479A
:1012C0001FBD00008801002010B50178022901D05F
:1012D000012902D14068FFF77BF910BD7CB5017888
:1012E000284D01290AD002292FD000292CD12946C6
:1012F0002548FFF779F9002833D036E040680178B7
:1013000021481038FFF78DF91F4C103C002805D0FC
:1013100001216A4611700190684608E0A068E16802
:10132000081A012805D100206946087068466968D6
:101330008847A068E168081AA188884204D8114843
:101340000121401CFFF7BEFD7CBD02216A461170E1
:10135000C06801900B480121401CFFF7B3FD6846AF
:101360000CE001210748FFF72DFE07488168C0689F
:101370008842E9D103206946087068466968884751
:101380007CBD00001800002040010020F0B5454D54
:10139000012185B049022846FFF7C7FE0127002634
:1013A000414C002824D0FF2125312846FFF7B8FE04
:1013B00000281DD0FF2025302E5081203B49800081
:1013C0008860A07E002800D16F600221684601700D
:1013D0003749086808600390E17D68460172E0685B
:1013E0000190E675267606CC6846083C90472BE0CF
:1013F00004212846FFF799FE002825D0FF21093156
:101400002846FFF78DFE00281ED0FFF7FFFEE07D87
:10141000617E884218D1207E002808D0627EE16873
:10142000E0752069E0602676667610460AE0A07EC8
:10143000002800D16F6081201C4980008860E6751B
:10144000607EE168FFF7FEFEFF211D312846FFF7B1
:1014500067FE00280DD0A18AA07D814202D2FFF74D
:101460000DFF06E0FF211D316E50002801D0FFF76F
:101470001BFFFF2145312846FFF752FE00280ED002
:10148000FF2045302E50A07E002800D02F60E07D48
:10149000002804D0E675607EE168FFF7D3FE05B052
:1014A000F0BD000000200040880100200023004023
:1014B000802400400B09080A0100000000E0D70169
:1014C0000103000202000301030201000200000107
:1014D000090000000B0000000A00000008000000E6
:1014E000000000000000000000E0D7010300000041
:1014F00000070000010000000200000003000000DF
:10150000FF01000001000003090000000B000000C3
:101510000A000000080000000000000000000000B9
:1015200000E0D70103000000481500000000002083
:101530003000000044040000781500003000002056
:1015400078090000540400000001000000000000C1
:10155000000000000000000000000000000000008B
:10156000000000000000000000000000000000007B
:08157000000000000024F4005B
:04000005000000C136
:00000001FF
