:020000040000FA
:10000000A84000208D040000950400009704000023
:10001000990400009B0400009D0400000000000003
:100020000000000000000000000000009F0400002D
:10003000A104000000000000A3040000A5040000CB
:10004000A7040000A7040000FD080000A7040000AA
:10005000A7040000A7040000A7040000A7040000F4
:10006000A7040000A7040000A7040000A7040000E4
:10007000A7040000A7040000A7040000A7040000D4
:10008000A7040000A7040000A7040000A7040000C4
:10009000A7040000A7040000A7040000A7040000B4
:1000A000A7040000A7040000A7040000A7040000A4
:1000B000A7040000A70400000000000000000000EA
:1000C000A7040000A7040000A7040000A704000084
:1000D000A7040000C1050000A70400000000000004
:1000E0000000000000000000000000000000000010
:1000F0000000000000000000000000000000000000
:1001000000000000000000000000000000000000EF
:1001100000000000000000000000000000000000DF
:10040000DFF80CD000F0AAF80048004755110000B2
:10041000A8400020401E00BF00BF00BF00BF00BFBB
:1004200000BF00BF00BF00BF00BF00BF00BF00BFD4
:1004300000BF00BF00BF00BF00BF00BF00BF00BFC4
:1004400000BF00BF00BF00BF00BF00BF00BF00BFB4
:1004500000BF00BF00BF00BF00BF00BF00BF00BFA4
:1004600000BF00BF00BF00BF00BF00BF00BF00BF94
:1004700000BF00BF00BF00BF00BF00BF00BF00BF84
:1004800000BF00BF00BFC5D17047000006488047CD
:1004900006480047FEE7FEE7FEE7FEE7FEE7FEE769
:1004A000FEE7FEE7FEE7FEE791060000010400001C
:1004B00040EA01039B0703D009E008C9121F08C0E6
:1004C000042AFAD203E011F8013B00F8013B521E66
:1004D000F9D27047D2B201E000F8012B491EFBD2DD
:1004E00070470022F6E710B513460A46044619463F
:1004F000FFF7F0FF204610BD2DE9F05F0546002014
:1005000092469B4688460646814640241BE0284684
:1005100041464746224600F042F853465A46C01A22
:10052000914110D311461846224600F029F82D1AA1
:1005300067EB01084F4622460120002100F020F819
:1005400017EB00094E41201EA4F10104DFDC4846F0
:1005500031462A464346BDE8F09F0000064C074D51
:1005600006E0E06840F0010394E807009847103483
:10057000AC42F6D3FFF748FF881C0000A81C00001F
:10058000202A04DB203A00FA02F100207047914053
:10059000C2F1200320FA03F3194390407047202A48
:1005A00004DB203A21FA02F00021704721FA02F31D
:1005B000D040C2F120029140084319467047000024
:1005C0002DE9F041304D002637464FF48A71284618
:1005D00001F04CF92D4C4FF0000890B1C5F8148192
:1005E000E06870B1D5F84015814203D1E18800EB95
:1005F000810700E00746C5F84075607940F00400C7
:1006000060714FF48271284601F030F9A8B1C5F845
:100610000481A06888B1D5F83815814202D1E188FB
:1006200000EB8100C5F83805617941F00201617184
:100630000A0701D5CA0711D006466079C10711D053
:10064000810709D5410707D520F006006071010731
:1006500010D520F008006071BDE8F08121F008009D
:100660006071EAE756EA0700F6D0E288394630467C
:10067000236805E0D5F84015D5F83805E2882368E9
:10068000BDE8F041184700000050024078200020EB
:1006900070B58D480023021D0178101D0124062924
:1006A00007D115782D0704D10578C5F30315032D5F
:1006B00002D0062904D00FE0854E844D75670EE008
:1006C00015782D0708D10578C5F30315032D06D03D
:1006D000042D04D0052D02D0062909D010E04FF0DA
:1006E0008055D5F844527B4EC5F34235356002E063
:1006F00015782D0704D10578C5F30315032D02D015
:10070000062906D011E0744D2E6826F080762E6002
:100710000EE015782D0708D10578C5F30315032DD4
:1007200006D0042D04D0052D02D006290AD011E0F0
:100730004FF08045C5F80C31C5F81031654D2D1FBF
:100740002B6002E015782D0704D10578C5F3031559
:10075000032D02D0062905D00CE05E4A0321643245
:1007600011600AE015782D0704D10578C5F303154B
:10077000032D02D006290DD06AE0584A05211160E8
:10078000564978310C60554908310B603F21121DE4
:10079000116002E0117809075AD10078C0F3031004
:1007A000052855D14E4800684E4908604C48001D48
:1007B0000068091D08604A4808300068091D086083
:1007C00047480C300068091D086045481030006833
:1007D000091D0860424814300068091D086040483F
:1007E000183000683F49203108603D481C300068DF
:1007F000091D08603A4820300068091D0860384823
:1008000024300068091D0860354828300068091D3B
:10081000086033482C300068091D086030483030CB
:1008200000683049403108602D4834300068091DA7
:1008300008602B4838300068091D086028483C30A3
:100840000068091D0860264840300068091D0860DE
:1008500021487438016841F470010160BFF34F8F83
:10086000BFF36F8F4FF01021D1F80002002803DB97
:10087000D1F80402002822DA1B4A14601B480468DD
:10088000002CFCD01524C1F800420568002DFCD0D6
:10089000C1F8044201680029FCD0136001680029F6
:1008A000FCD0BFF34F8F0C48F0380168104A01F4B8
:1008B000E06111430160BFF34F8F00BFFDE70E49B8
:1008C0000C48086070BD0000E00F00F00DF0ADBAFC
:1008D00000C007403C050040FCED00E01056004021
:1008E0000404001020C5004004E5014000E401407C
:1008F0000400FA050090D003140000200348007F94
:1009000008B101F01BB901F095B800008820002063
:100910000FB4054B10B503A9044A029800F018F86B
:1009200010BC5DF814FB000047110000100000200F
:1009300002E008C8121F08C1002AFAD170477047A8
:10094000002001E001C1121F002AFBD17047000006
:100950002DE9FF4F8DB00F460546002606E02528FD
:100960000BD0DDE90F1290476D1C761C287800280B
:10097000F5D111B03046BDE8F08F0024A246A14663
:100980000122EC4900E0044315F8013F203B02FA44
:1009900003F00842F7D128782A2810D06FF02F02F0
:1009A0002878A0F13001092914D80AEB8A0102EB5A
:1009B000410144F0020400EB010A6D1CF0E701CF95
:1009C0005FEA000A03D544F40054CAF1000A44F077
:1009D00002046D1C28782E2817D115F8010F44F059
:1009E00004042A280ED06FF02F022878A0F13001DD
:1009F00009290AD809EB890102EB410100EB010941
:100A00006D1CF2E757F8049B6D1C28786C280FD0FA
:100A100006DC4C2817D068280DD06A2814D104E0D1
:100A2000742810D07A280FD10DE044F400140AE0A5
:100A300044F4801401E044F440146978814202D106
:100A400004F580146D1C6D1C2A786E2A1FD00CDCF6
:100A5000632A31D004DC002A8BD0582A11D1A3E0BC
:100A6000642A68D0692A0CD165E0732A2ED004DC90
:100A70006F2A73D0702A04D19BE0752A6FD0782A30
:100A80006ED01046DDE90F129047761C50E1C4F39A
:100A90000250022806D0032809D0042801CF09D02B
:100AA000066045E101CFF117C0E9006140E101CFE7
:100AB00006803DE106703BE117F8040B8DF800005D
:100AC00000208DF80100EB46012003E057F804BB3D
:100AD0004FF0FF3061074FF0000102D40DE008F144
:100AE0000101884649450FDA8045F8DB1BF80810FC
:100AF0000029F4D108E008F1010188468142FADBBF
:100B00001BF808100029F6D1DDE90F23AAEB080035
:100B10008146214600F036F9304400EB080604E037
:100B2000DDE90F121BF8010B9047B8F10108F7D26D
:100B300021464846F7E00A21C4F302534FF0000B68
:100B40000891022B04D001CFC117032B09D00AE072
:100B5000FF1D27F00707F7E8020108E032E01FE079
:100B600020E000B2C117042B01D140B2C117031E0F
:100B700071F1000307DA4FF0000CD0EB0C006CEBC6
:100B800001012D2302E0230504D52B238DF8243009
:100B9000012303E0E30701D02023F7E7984658E05C
:100BA0000A2110E010210EE010204FF0000B0890F9
:100BB0000CE010214FF0000B44F004044FF0080942
:100BC000089103E008214FF0000B0891C4F3025391
:100BD000022B04D001CF0021032B06D006E0FF1D1D
:100BE00027F00707F7E8020103E080B2042B00D1E9
:100BF000C0B24FF0000823072BD5702A07D0DDF8CC
:100C000020C08CF0100C5CEA0B0C05D00EE04023E9
:100C10008DF82430012308E050EA010306D0302388
:100C20008DF824308DF8252002239846DDF820C069
:100C30008CF0080C5CEA0B0C0BD150EA010301D1DB
:100C4000630706D530238DF824304FF00108A9F151
:100C50000109582A04D038A20B9208AA0A920BE084
:100C60003AA2F9E75B46089AFFF746FC0B9B9B5CB0
:100C70000A9A521E0A92137050EA0102F2D10A989F
:100C8000ADEB000000F1200B600702D524F48034A6
:100C900001E04FF00109D94502DDA9EB0B0000E0AE
:100CA000002000EB0B0141440890AAEB010AE0038D
:100CB00006D4DDE90F232146504600F063F80644D0
:100CC0004FF0000908E009A911F80900DDE90F1249
:100CD000904709F10109761CC145F4DBE0030CD50E
:100CE000DDE90F232146504600F04CF8064404E0AD
:100CF000DDE90F1230209047761C0899481E0890B5
:100D00000029F5DC08E00A980A990078491C0A9144
:100D1000DDE90F129047761CBBF10001ABF1010B2E
:100D2000F1DC21465046DDE90F2300F019F80644B6
:100D30006D1C1BE60928010030313233343536375B
:100D40003839616263646566000000003031323317
:100D500034353637383941424344454600000000B7
:100D60002DE9F041044600251E461746880404D4A8
:100D700005E039462020B0476D1C641EF9D5284691
:100D8000BDE8F0812DE9F041044600251E4690465D
:100D9000C80301D5302700E02027880404D505E0EA
:100DA00041463846B0476D1C641EF9D52846BDE85B
:100DB000F081000003494FF4F01008600020091F83
:100DC0000860FEE70C0500500EB500210091CDE94A
:100DD00001106A4644F20100FFF7ECFF0EBD10B5AA
:100DE0008268C368934203D000F09AF9002010BDD6
:100DF000052010BD29B112B1531E134203D00920A2
:100E000070470E2070470160838000218160C160BF
:100E10000846704710B58268C3689A1A83889A4258
:100E200003D800F087F9002010BD042010BD000099
:100E300070B50446234888B01E460D00426035D088
:100E4000A888296882B22048FFF7D4FF00282ED155
:100E5000A889A96882B21C481030FFF7CBFF002890
:100E600025D1202219496846FFF722FBA068069089
:100E7000207900B101208DF814008DF81C60607994
:100E800000B10E208DF81500E0780290A078039054
:100E900020780190607800900D49684600F0D8FAFB
:100EA000002804D19DF81D0018B104E0072008B007
:100EB00070BD00F05DFB03480121401C00F012FBF7
:100EC000F5E700000800002058200020341C000036
:100ED0008D19000010B501460948FFF79BFF04007B
:100EE0000CD100F073FC48B906490548FFF777FFBD
:100EF00020B90121034800F0E1FB0446204610BD63
:100F000068200020080000202DE9F0410446007808
:100F1000184F012606FA00F03860206800F09CFCAB
:100F20000021606800F085FC1348144D007FA06923
:100F3000C5F82405607D217D0843C5F86C05D4E91A
:100F40000001C5F80C05C5F81415207D01280FD146
:100F50000021A06800F06DFC207B86403E60E068C8
:100F600000F07AFCD4E90201C5F80815C5F81005AF
:100F7000BDE8F081080500508820002000200040D6
:100F80002DE9F047164D2A78521C2A70154EEA7842
:100F90004FF000084FF40037341DA6F1040A4FF457
:100FA00080292AB900F020F890F00100E8700AD0FA
:100FB0003760C4F80080DAF8000029EA00013160E7
:100FC00000F4802009E0C6F80090C4F80080DAF848
:100FD00000008743376000F400302060BDE8F087F0
:100FE0000000002008050050F8B5184C0F460646D2
:100FF000217817A0FFF78CFC002520E006EB850088
:1010000036F825104288607808B101B99AB10020FD
:101010006070E088431E401C9BB21FFA80FCE08099
:10102000994201D1624508D00BA0CDF800C0FFF76E
:101030006FFC0020F8BD401E60706D1CADB2BD425B
:10104000DCD30EA0FFF764FC0120F8BD00000020F7
:101050002533753A20000000253034782F253034B0
:10106000782C2065787065637465643A2025303487
:10107000782F253034780D0A000000004F4B0D0A00
:10108000000000002DE9F04107468179007879B130
:10109000002100F0C5FB7878002100F0C1FBBE788C
:1010A0004FF0FF34FF2E09D0304600F0CBFB06E0B6
:1010B00000F0C8FB787800F0C5FBF0E72646FD7825
:1010C000FF2D03D0284600F0BDFB00E0254638790F
:1010D000FF2803D00446002100F0A2FB074839781E
:1010E0007A78C0F86415C0F86825C0F86065C0F863
:1010F0007055C0F86C45BDE8F0810000005002401A
:1011000070B515460C4610B11146FFF739FF002C9B
:1011100005D029462046BDE8704000F0BDBB70BD3B
:10112000826883881A4003689A5C0A708168491C47
:1011300081607047C26883881A4003689954C16807
:10114000491CC160704710B50446C0B2FFF7C2FE2B
:10115000204610BD002001218CB0032401FA00F2CA
:1011600012F4C02F04D0820002F1A042C2F800475E
:10117000401C2028F2D32A4B0DF1240C0DCB8CE817
:101180000D002848CDE90501274807904FF48070ED
:1011900008900623254A05A909A8FFF749FE08B1CA
:1011A000FFF712FE22A0FFF7B3FB1D4914220C31FA
:1011B0006846FFF77DF94FF0406003908DF81040CE
:1011C0002249684600F074F808B1FFF7FDFD154CA0
:1011D0001F4FA41E4FF47A694FF47A7A00254FF41A
:1011E000C02607F104084FF4FA7BCC22494619487F
:1011F000FFF770F92570002352461749154800F093
:10120000ABF808B1FFF7E0FD20781428FCD300F01C
:1012100007F93E60C8F80050584600F01FF8E4E7B0
:10122000141C000002000020180000208919000092
:101230000D0A493253206C6F6F706261636B2065D9
:1012400078616D706C650D0A0000000001110000EE
:101250000805005018010020B810002031B540F2F8
:10126000E73404E0401E00902046FFF7D3F80098D2
:101270000028F7D138BD4907090E002806DA00F02A
:101280000F0202F1E02282F8141D03E000F1E022D7
:1012900082F8001400F01F020121914040098000F3
:1012A00000F1E020C0F88012C0F800117047000083
:1012B0002DE9F047254D04468A46287910B10820CB
:1012C000BDE8F08704B9224C4FF00009A67994F8E4
:1012D000078094F808C0627AA77A217CE36886B90F
:1012E000012A02D0022A03D00BE0012928D008E00D
:1012F00031B3022924D0042922D0062920D008297C
:101300001ED01448C0F80465C0F82485C0F820C574
:10131000C0F81C25C0F82875C0F8181501268BB137
:10132000C0F81435C0F810652046FFF7ABFEC5F8CD
:1013300000A061792520FFF79EFF2E710020BFE7F6
:101340000720BDE7C0F81095EEE7000078200020E8
:10135000541C0000005002402DE9F0472E4C074677
:101360009A46207991460E464FEA5208012802D04B
:101370000820BDE8F0871FB1384600F061F860B181
:101380001EB1304600F05CF838B1244DC5F85085E8
:10139000C5F838751FB1012002E01020E9E70020F0
:1013A000C5F80805C5F84065300000D00120C5F833
:1013B0000C05C4E90276A4F806806179304641F054
:1013C0000801424661715FEACA7306D02FB120B1AD
:1013D00021F0060141F0010101E021F001016171FC
:1013E0000126C5F800650221217150B16179C90754
:1013F00003D04946FFF775F803E001462368002053
:1014000098470020C5F80401C5F814012220C5F84A
:1014100004032E600020ACE778200020005002403A
:1014200005482221C0F80813012141600022C0F8BC
:1014300000250248017170470050024078200020CA
:101440000121B1EB507F01D101207047002070478E
:101450002DE9F0411E4C07460D46E07E10B10820F4
:10146000BDE8F08107B91B4F787F20773846FFF73A
:101470004BFD6560386920602800174E4FF000056D
:1014800016D0397F207F48B1C6F81051C6F82051D8
:10149000C6F82451C6F84451104804E0C6F81C515F
:1014A000C6F844510E48C6F804030220FFF7E3FED5
:1014B000207F08B1082000E00420C6F80005E5758B
:1014C0002576A5750120E076A5760020C8E7000006
:1014D00088200020681C000000200040100302004B
:1014E000800002002DE9F0411F4B1C7F3CB14FF4FE
:1014F0000052B2EB104F02D01020BDE8F081D3F8BB
:1015000004C00022194D4FF404764FF40177BCF16A
:10151000000F05D014B1C5F8086301E0C5F80873E1
:1015200093F817E0BEF1000F10D01A7E52B1BCF153
:10153000000F05D014B1C5F8046301E0C5F80473C9
:101540001120DAE718610122197604E0D975002527
:10155000D8605D761D761CB1BDE8F04100F066B83C
:10156000BDE8F04100F014B88820002000200040C1
:1015700010B5064C207F002806D1A07E002803D19C
:1015800000F0D2F90120A07610BD000088200020D4
:101590002DE9F05F234DA87E104301D100F0C4F97E
:1015A000214C686830B14FF40170C4F80403002086
:1015B000BDE8F09F4FF000094FF4A27AC4F84491BF
:1015C0004FF4927BA8465946204600F054F9054650
:1015D0004FF48471204600F04EF9074651462046EC
:1015E00000F049F9064647EA06012943EBD055EADF
:1015F000060007D100F070F998F8171098F8190054
:101600008142E0D888F817900DB10320D0E70EB1E1
:101610000F20CDE798F81A10012009B12060C6E725
:101620006060C4E788200020002000402DE9F05FC2
:10163000204C00264FF48873C4F810614FF4A27553
:10164000C4F84461C4F83405C4F838158AB1D4F834
:10165000000240F02000C4F80002DFF85C80D8F8F7
:10166000040048B14FF40470C4F804030020BDE83E
:10167000F09F01202060F0E79A46A9464FF4927B44
:101680005146204600F002F905464946204600F042
:10169000FDF807465946204600F0F8F83D4305435B
:1016A000EED088F8176008B10320E0E7002FDDD006
:1016B0000F20DCE700200040882000202DE9F047C3
:1016C000204D0246287F38B14FF40050B0EB124F46
:1016D00002D01020BDE8F08700F078F808B11120A2
:1016E000F8E7A9750023AA60AB82287F28B3164CBF
:1016F00000264FF490709846C4F820314FF4AC7334
:10170000C4F85881C4F84425C4F848150121A160E3
:10171000696881B9824699465146204600F0B6F87C
:1017200007464946204600F0B1F80743F4D000B11F
:101730000F2685F816803046CCE7BDE8F04700F06C
:1017400005B8000088200020002000402DE9F05F4F
:101750001C4F00254FF48E7A2E46C7F81C514FF0CF
:101760000108C7F8088000F0EBF8174CB81561685D
:1017700079B123E05F465146484600F07CF810B945
:10178000A08AB842F7D1A08AB84204D000F0D8F8B5
:1017900001E08346B946A08AA17D8842EAD3A08AA7
:1017A000584501D10F2508E04F465146384600F014
:1017B00062F80028F9D0C7F80C80A6752846BDE865
:1017C000F09F000000200040882000200248807D1B
:1017D000002800D0012070478820002030B541EA61
:1017E0004201DDE9034541EA8301800041EA042129
:1017F00000F1A04041EA0541C0F8001730BD30B506
:1018000041EA4201DDE9034541EA8301800041EA02
:10181000042100F1A04041EA0541C0F8001730BDA5
:101820001CB500220B46009211460192FFF7D6FF2D
:101830001CBD1CB500220B46009211460192FFF719
:10184000DEFF1CBD1CB5002100910B460122019159
:101850001146FFF7C3FF1CBD1CB5002100910B46CC
:10186000012201911146FFF7CAFF1CBD4058002814
:1018700000D0012070474058002800D00120704758
:10188000D0F80403084000D00120704740580028D9
:1018900000D001207047000030B50E4B1A785C78FC
:1018A000224307D102225A704CF6FE229A80DA8037
:1018B0000022DA7000240AE09D886A1C9A806D1E5E
:1018C00020F8245000EB8405641C6A80A4B28C428A
:1018D000F2D330BD0000002009480A490022C37D30
:1018E000C1F8082143B1D1F81815437EC268D1541C
:1018F000417E491C41767047D1F8180570470000B9
:1019000088200020002000401FB501228DF808002B
:1019100004488DF800200191D0E9001268469047F4
:101920001FBD00008820002004480021C0F82411B9
:10193000C0F808110121016070470000002000403C
:10194000064A0020C2F81C010548838A8168C95CE8
:10195000838A5B1C8382C2F81C15704700200040FC
:10196000882000201FB500218DF8080005488DF85B
:101970000010826801928175D0E900126846904794
:101980001FBD000088200020704700007CB5017852
:10199000264D012909D002292CD0002929D1294618
:1019A0002348FFF71CFA80B334E0406801782048F0
:1019B0001038FFF72FFA1E4C103C20B101218DF892
:1019C0000010019007E0A068E168081A012805D11D
:1019D00000208DF80000696868468847A068E168C3
:1019E000081AA188884204D810480121401CFFF73A
:1019F00079FD7CBD02218DF80010C06801900B4874
:101A00000121401CFFF76EFD0CE0FFE701210748B4
:101A1000FFF754FE06488168C0688842E9D1032078
:101A20008DF800006968684688477CBD0800002082
:101A3000682000202DE9FF413E4D4FF400712846FB
:101A4000FFF71EFF01273C4C4FF40178002600B33E
:101A50004FF492712846FFF70EFFD0B1C5F824610C
:101A6000C5F80883A07E00B96F6002208DF80000E1
:101A7000D5F88004C5F880040390E07D8DF8080057
:101A8000E0680190E6752676D4E900126846904732
:101A900024E004212846FFF7F3FEF8B14FF48471E7
:101AA0002846FFF7E8FEC8B1FFF716FFE07D617E2C
:101AB000884213D1227E3AB1607EE168E2752269E4
:101AC000E2602676667607E0A07E00B96F60C5F812
:101AD0000883E675607EE168FFF716FF4FF48E71AC
:101AE0002846FFF7C8FE58B1A18AA07D814202D2E4
:101AF000FFF726FF04E0C5F81C6108B1FFF732FFCD
:101B00004FF4A2712846FFF7B6FE00280FD0C5F8A3
:101B10004461A07E00B12F60E07D002807D0E6750B
:101B2000607EE16804B0BDE8F041FFF7EDBEBDE8BE
:101B3000FF81000000200040882000207FB5334C4A
:101B40004FF492712046FFF7A1FE314D0026B0B14F
:101B5000C4F8246102208DF80000D4F88004C4F891
:101B600080040390D4F83C058DF80800E8680190E3
:101B7000EE752E76D5E90012684690471FE04FF4C7
:101B800088712046FFF782FEC8B1C4F81061D4F80E
:101B90003C05E97DC0B2814211D12A7E5AB1E96883
:101BA000D4F8003223F02003C4F80032EA752A6921
:101BB000EA602E7601E0EE75E968FFF7A5FE4FF4C6
:101BC000A2712046FFF762FE50B1C4F84461E87D7F
:101BD00030B1EE75D4F83C05E968C0B2FFF794FE69
:101BE0004FF490712046FFF751FE00280CD0C4F846
:101BF0002061A87D002807D0D4F84C0504B0C0B2FD
:101C0000BDE87040FFF7AEBE7FBD00000020004081
:101C100088200020080605070100000000E0D70129
:101C20001617FF1819020000000100000000002034
:101C30000600000006000000080000000700000089
:101C40000500000000000000000000000000D601B8
:101C5000060000001617FF1819020000000100001E
:101C60000000002006000000060000000800000040
:101C70000700000005000000000000000000000058
:101C80000000D60106000000A81C00000000002093
:101C90001800000030090000C01C000018000020DF
:101CA000904000004009000000000000000000001B
:101CB0000000000000000000000000000090D003C1
:0400000500000401F2
:00000001FF
