:020000040000FA
:1000000008200020150400001D0400001F0400004B
:10001000210400002304000025040000000000006B
:1000200000000000000000000000000027040000A5
:1000300029040000000000002B0400002D04000033
:100040002F0400002F0400002F0400002F040000E4
:100050002F0400002F0400002F0400002F040000D4
:100060002F0400002F0400002F0400002F040000C4
:100070002F0400002F0400002F0400002F040000B4
:100080002F0400002F0400002F0400002F040000A4
:100090002F0400002F0400002F0400002F04000094
:1000A0002F0400002F0400002F0400002F04000084
:1000B0002F0400002F0400000000000000000000DA
:1000C0002F0400002F0400002F0400002F04000064
:1000D0002F0400002F0400002F0400000000000087
:1000E0000000000000000000000000000000000010
:1000F0000000000000000000000000000000000000
:1001000000000000000000000000000000000000EF
:1001100000000000000000000000000000000000DF
:10040000DFF80CD000F018F800480047E7060000BD
:10041000082000200648804706480047FEE7FEE720
:10042000FEE7FEE7FEE7FEE7FEE7FEE7FEE7FEE7A4
:100430005D04000001040000064C074D06E0E06882
:1004400040F0010394E8070098471034AC42F6D31B
:10045000FFF7DAFFE80600000807000070B58D48D6
:100460000023021D0178101D0124062907D11578EB
:100470002D0704D10578C5F30315032D02D00629F5
:1004800004D00FE0854E844D75670EE015782D077A
:1004900008D10578C5F30315032D06D0042D04D02B
:1004A000052D02D0062909D010E04FF08055D5F86F
:1004B00044527B4EC5F34235356002E015782D0776
:1004C00004D10578C5F30315032D02D0062906D003
:1004D00011E0744D2E6826F080762E600EE01578BF
:1004E0002D0708D10578C5F30315032D06D0042D7B
:1004F00004D0052D02D006290AD011E04FF0804526
:10050000C5F80C31C5F81031654D2D1F2B6002E088
:1005100015782D0704D10578C5F30315032D02D0F6
:10052000062905D00CE05E4A0321643211600AE01E
:1005300015782D0704D10578C5F30315032D02D0D6
:1005400006290DD06AE0584A0521116056497831D4
:100550000C60554908310B603F21121D116002E00B
:10056000117809075AD10078C0F30310052855D136
:100570004E4800684E4908604C48001D0068091D3F
:1005800008604A4808300068091D086047480C3078
:100590000068091D0860454810300068091D0860A2
:1005A000424814300068091D08604048183000684F
:1005B0003F49203108603D481C300068091D086033
:1005C0003A4820300068091D086038482430006827
:1005D000091D0860354828300068091D0860334847
:1005E0002C300068091D0860304830300068304900
:1005F000403108602D4834300068091D08602B48E0
:1006000038300068091D086028483C300068091D22
:100610000860264840300068091D08602148743889
:10062000016841F470010160BFF34F8FBFF36F8F1A
:100630004FF01021D1F80002002803DBD1F80402AA
:10064000002822DA1B4A14601B480468002CFCD0E6
:100650001524C1F800420568002DFCD0C1F8044201
:1006600001680029FCD0136001680029FCD0BFF3A9
:100670004F8F0C48F0380168104A01F4E0611143D3
:100680000160BFF34F8F00BFFDE70E490C480860C3
:1006900070BD0000E00F00F00DF0ADBA00C00740E3
:1006A0003C050040FCED00E0105600400404001042
:1006B00020C5004004E5014000E401400400FA05C3
:1006C0000090D0030000002002E008C8121F08C1FB
:1006D000002AFAD170477047002001E001C1121FC3
:1006E000002AFBD17047FEE7080700000000002049
:1006F00004000000C80600000C07000004000020F1
:0C07000004200000D80600000090D00388
:020000041000EA
:041080007856341258
:0400000500000401F2
:00000001FF
