:020000040000FA
:1000000028080020D5000000EF000000F1000000EB
:1000100000000000000000000000000000000000E0
:10002000000000000000000000000000F3000000DD
:100030000000000000000000F5000000F7000000D4
:1000400031010000F9000000F9000000F900000093
:10005000F900000000000000F9000000F9000000B5
:10006000F9000000F9000000F9000000890100001B
:10007000F9000000F9000000F9000000F90000009C
:10008000F9000000F9000000F9000000F90000008C
:10009000F9000000F9000000F9000000F90000007C
:1000A000F9000000F900000000000000000000005E
:1000B0000000000000000000000000000000000040
:1000C0000348854600F022F8004800473503000049
:1000D000280800200321094802680A4302600848F2
:1000E00002680A4302600748804707480047FEE766
:1000F000FEE7FEE7FEE7FEE7FEE70000240500401E
:10010000540500409D010000C1000000064C01257F
:10011000064E05E0E36807CC2B430C3C98471034AF
:10012000B442F7D3FFF7D0FFF40600001407000035
:10013000F8B5FF20013000F041F9002401250F4EF1
:100140000F4F002808D00F4804600120B0607D7276
:100150000021381D00F0B6F8FF20053000F02EF920
:1001600000280AD00748001D04600220B060BD725C
:1001700003480121103000F0A5F8F8BD000300404D
:10018000100000200001004010B5042200210248A8
:1001900000F030FA10BD000000B0004010B500F0D3
:1001A0009FF8002805D01F491D484860C8131E4904
:1001B00088611E48018CC9B201290BD1828C1207BB
:1001C00008D1028D1206120F042A03D1828D120665
:1001D000120F0AD0012921D1818C09071ED1018D6E
:1001E0000906090F0A2904D007E0114A012191608C
:1001F000F5E7828D1206120F05D00D290ED1808DE4
:100200000006000F0AD10B480168012904D00A49F1
:10021000016001680129FCD1C021416110BD0000CD
:10022000DFFF07C000050040006C0040C00F00F079
:100230000006004000EC06407593000002E008C88C
:10024000121F08C1002AFAD170477047002001E050
:1002500001C1121F002AFBD170470000BFF34F8F6E
:1002600004490348C860BFF34F8F00BFFDE700009B
:100270000400FA0500ED00E00EB5002102900091A7
:100280006A4601910148FFF7E9FF0EBD01400000F9
:1002900000B500F005F800BD00B500F009F800BD9C
:1002A00072B602480168491C0160704708000020CE
:1002B00003490868401E086000D162B6704700001C
:1002C0000800002070B50D4604462068002805D0BF
:1002D00001682160416828468847F6E770BD000044
:1002E0001048018CC9B2012917D1818C090714D19A
:1002F000018D09060A0F03D1828D1206120F0ED04E
:10030000090F012903D1828D1206120F07D003298C
:1003100003D1808D0006000F01D00020704701201E
:1003200070470000C00F00F002680A60002A0160F8
:1003300070470000002001211C4C034603220D469B
:1003400085406D02AD0F02D085002D192A60401C3A
:100350002028F4D30321164849058160C36000F0CA
:1003600035F8002801D0FFF787FF002000F04CF897
:10037000104A0021104800F0FDF8002801D0FFF7D6
:100380007BFF01210C4800F083F901231822002192
:10039000094800F099F8002801D0FFF76DFF0648E2
:1003A00000F0DCF840BF20BF20BFFBE70007005093
:1003B00000050050CD060000E40600000121890779
:1003C00040180068002800D00120704770B50C4C20
:1003D000207A002801D0852070BD00256560256049
:1003E00025610849FF20E56008610648012640387C
:1003F00086610321284600F037F82672284670BD32
:10040000100000204005004070B504460020FFF7B2
:100410003FFF124DA87A002805D0002C16D0616845
:100420000120884712E0002C04D00C4821461030EF
:10043000FFF77AFFE868002808D1094908600949F0
:100440000220486006490120FC390860E868401C29
:10045000E8600020FFF720FF70BD000010000020C2
:1004600004010040000300408207D30EFF229A409F
:100470008907090E10B5994000280BDA03071B0FF6
:10048000083B9C080C4BA400E318DC6994430C4324
:10049000DC6107E08408094BA400E4182368934357
:1004A0000B432360C106C90E01208840044908603F
:1004B0000449086010BD000000ED00E000E400E029
:1004C00080E200E000E100E0F0B5012424048C406B
:1004D0008E003146FF3141318FB2032501682D0274
:1004E00049199C468C64016849198C601102427953
:1004F000090A5300D318174A9A18527805231B0289
:10050000002A026814D0B218D21811640268D218F6
:100510005268531A8A4201D20F495B1841794A0046
:100520008A180C4951188978994204DD0D20F0BDD4
:10053000B218D21811646146002905D00168002262
:10054000CA51016849194C60006840194464002090
:10055000F0BD000000000020FFFFFF000168012245
:100560000A604079022142008018014A1154704704
:100570000000002070B50D460446002A06D06079C0
:100580001A4980000A50002D02D006E0072070BDF5
:10059000607906214843164945186079134E410099
:1005A0004018361F305C002801D0082070BD0420A0
:1005B000A9782056FFF758FF0522216812022888E3
:1005C00089188860617928794A00891889194870E2
:1005D0006179E8784A008918891988706179012061
:1005E0004A0089187054002070BD000004000020EB
:1005F000EC060000F7B5044682B0FF2041300090C1
:100600000125032089002D040027000226180191EE
:1006100016E0706828420DD000982058002809D0B4
:10062000B564B560009800212150184A0199F8B2CC
:100630005158884700986D00001D80B27F1C0090C3
:1006400004988742E5D3FF2071680130C907C90FBC
:1006500009D02158002906D0002121500B490198CA
:10066000095804208847FF200530726802210A4299
:1006700009D02158002906D00021215003490198B2
:1006800009580520884705B0F0BD0000040000208F
:1006900030B5FF2401340122036800251D510323D6
:1006A00004681B02E4186264002902D00068C018C4
:1006B000426030BD0121044A814050680B468343AB
:1006C00093600840D06070470005005010B50028C6
:1006D00005D0042802D11520FFF7ECFF10BD16202D
:1006E000FAE7000000B000400B000400FF0F030019
:1006F00000000000140700000000002010000000AF
:100700003C02000024070000100000201808000030
:100710004C0200000000000000000000000000008B
:040720000024F400BD
:04000005000000C136
:00000001FF
