:0200000270008C
:10A00000807F002051DE070079DE07007BDE07003D
:10A010007DDE07007FDE070081DE07000000000014
:10A0200000000000000000000000000001C907005F
:10A0300085DE07000000000087DE070089DE0700DC
:10A040008BDE07008BDE07008BDE07008BDE070050
:10A050008BDE07008BDE07008BDE07008BDE070040
:10A060008BDE07008BDE07008BDE07008BDE070030
:10A070008BDE07008BDE07008BDE07008BDE070020
:10A080006DDD070071B107008BDE07008BDE070076
:10A0900029B207008BDE0700D9DC07008BDE070042
:10A0A0008BDE07008BDE07008BDE07008BDE0700F0
:10A0B0008BDE07008BDE07000000000000000000C0
:10A0C0008BDE07008BDE07008BDE07008BDE0700D0
:10A0D0008BDE07008BDE07008BDE07000000000030
:10A0E0000000000000000000000000000000000070
:10A0F0000000000000000000000000000000000060
:10A10000000000000000000000000000000000004F
:10A11000000000000000000000000000000000003F
:10A4000010B5054C237833B9044B13B10448AFF3AE
:10A4100000800123237010BD782C00200000000074
:10A4200030DF0700084B10B51BB108480849AFF3EF
:10A4300000800848036803B910BD074B002BFBD010
:10A44000BDE81040184700BF0000000030DF0700E3
:10A450007C2C0020742C002000000000154B002BE9
:10A4600008BF134B9D46A3F5803A00218B460F464B
:10A470001348144A121A00F065F80F4B002B00D055
:10A4800098470E4B002B00D0984700200021040075
:10A490000D000D48002802D00C48AFF3008000F0FA
:10A4A0002BF82000290002F0BBFA00F011F800BFE1
:10A4B00000000800807F0020000000000000000075
:10A4C000782C0020BC3400200000000000000000B8
:10A4D00008B5074B044613B10021AFF30080054BCC
:10A4E0001868836A03B19847204600F033F800BF2C
:10A4F00000000000F0DE070070B50E4B0E4CE41AB1
:10A50000A41000251E46A54204D056F825309847D1
:10A510000135F8E703F0DEFC084C094BE41AA410FF
:10A5200000251E46A54204D056F82530984701352F
:10A53000F8E770BD6C2C00206C2C0020702C0020E3
:10A540006C2C002002440346934202D003F8011B06
:10A55000FAE77047FEE700BF1FB50021039001AA8C
:10A5600044F20100ADF80410029100F063FC05B064
:10A570005DF804FB70DF704771DF704773DF704771
:10A5800074DF704776DF70477ADF70477CDF704793
:10A590007FDF704786DF7047837842781B0443EA89
:10A5A00002230278C078134343EA00607047A7DFB4
:10A5B0007047A8DF7047A9DF7047AADF704767DFE1
:10A5C00070470C2813D8DFE800F014121212121290
:10A5D00009120712120D0B0002207047032070476A
:10A5E0000420704704290CBF052006207047062070
:10A5F000704701207047FFF7AFBFFFF7ADBF10B541
:10A60000044608460321FFF7DCFF032102462046EB
:10A6100003F068F818B1BDE81040FFF79DBF10BD0A
:10A6200010B5124B90B09B798DF80630044641F27C
:10A630003053002102A83822ADF80430FFF782FF22
:10A6400002238DF8083001230021ADF8103002A854
:10A6500001AB8DF80A108DF80B40059302F039FD1F
:10A6600008B1FFF779FF10B010BD00BFA82C002083
:10A67000032810B514461AD0042826D149B1134B2B
:10A6800018884FF6FF7398421FD01321FFF77AFF07
:10A6900016E0104601F00EFF08B1FFF75DFF0C4B0E
:10A6A0001B68A34211D10B480321012206E0084692
:10A6B0000121FFF786FF02460648012103F012F848
:10A6C00018B1BDE81040FFF747BF10BD602C002057
:10A6D000982C0020A82C00202DE9F0472D4B1E7847
:10A6E0008AB09A46002E52D12B4C31462046182271
:10A6F000FFF728FF294B1D788DB3DFF8A480314682
:10A70000102202A808F10709FFF71CFF484602A91A
:10A71000102203F0BBFB0127054640B90520FFF7D7
:10A720007FFF2770C4F80480257225821FE001ABEB
:10A7300004200693CDF80090CDF804808DF81C70AD
:10A740008DF82470CDF820D0FFF76AFF0223237222
:10A7500006ABE360282326702382668208E0062089
:10A76000FFF75EFF282325706560257223826582CE
:10A770000948FFF703FF08B1FFF7EEFE4FF0A043D3
:10A780004FF08052C3F80C2501238AF800300AB03C
:10A79000BDE8F087952C0020242D0020942C00206B
:10A7A000DE2C0020F0B50446B1B002F079FD8348FC
:10A7B000214602F0CBFF2388142B00F0BC801ED86A
:10A7C000102B2CD008D8022B40F0F5807C4B0021B8
:10A7D0001888FFF7F4FEE8E0112B31D0132B40F07E
:10A7E000EA80784B03AC9A79186899888DF8222012
:10A7F0000790DA1DADF82010173326463FE0512BA5
:10A8000000F0838005D81A2B00F0A4801B2B60D0A9
:10A81000D1E0522B00F09E80552B51D0CBE04FF071
:10A82000A0434FF00052C3F80C254FF08052C3F8FC
:10A830000825634BA2881A80634B00221A70BAE085
:10A840008023ADF82430614B5D4C32221A604FF00A
:10A85000A0434FF00052C3F80825208810A909AA88
:10A860000123FFF7AAFE08B1FFF776FE584B1B78CD
:10A870000BB9FFF731FF4FF6FF7323809BE01068A1
:10A880005168254603C508329A422C46F7D1514BF0
:10A8900009AA03F11807154618685968144603C435
:10A8A0000833BB422246F7D11868454B2060188810
:10A8B000494A1596852110AB1495FFF769FE74E09F
:10A8C000A379002B77D13E4B13211888FFF75AFE4E
:10A8D0006BE0237A002B6ED13B4A13703B4B196817
:10A8E0000139196071B910AC20461422FFF72AFE15
:10A8F00005238DF84030149B009394E80F0001F07D
:10A900002DF858E0FFF7E8FE55E0A379002B52D070
:10A91000A27B043A022A4ED8022B18BF01238DF8DD
:10A9200040304FF4C173ADF84430254B10A918885E
:10A93000FFF73FFE39E0234A258A518DA08802F1B6
:10A9400018038D420CBF1946002107320023FFF780
:10A9500021FE2AE01A4B1C884FF6FF75AC4228D026
:10A960001E4B19782046E1B11D4908220123FFF74B
:10A9700022FE0146D0B920460A460223FFF71BFEFD
:10A98000A0B920460C212A46FFF711FE43F202032C
:10A99000984210D008280ED043F20403984204D104
:10A9A00009E00A460B46FFF706FE20B1FFF7D4FD8B
:10A9B00001E00820FAE731B0F0BD00BFA82C00206C
:10A9C000602C0020DE2C0020952C0020642C002020
:10A9D0003C2D0020F62C0020D82C0020942C0020A8
:10A9E000122D0020564A5748002310B51370564ABE
:10A9F00013704FF0A0430322C3F87027C3F87427E5
:10AA00004FF08052C3F808254FF0005288B0C3F8C9
:10AA1000082503F04DF9002840F090804B4801F0E4
:10AA2000B5FA01F00BFD002840F08880484801F09D
:10AA300079FF18B9474B01221A7011E001A8FFF7FE
:10AA40009BFD08B1FFF788FD9DF80530002001331C
:10AA500001A98DF80530FFF78DFD08B1FFF77CFDEA
:10AA60009DF800303C48012262F3030308AC62F316
:10AA7000071304F8203D03F024FA374982B2204638
:10AA8000FFF784FD08B1FFF767FD01A80021082248
:10AA9000FFF758FD0C23ADF804301823ADF806304D
:10AAA0000023ADF8083001A84FF4C873ADF80A30A0
:10AAB000FFF76AFD08B1FFF74FFD002101A80C2246
:10AAC000FFF740FD0823ADF80430244B02932448DF
:10AAD000244B039301A902F043FC08B1FFF73CFDAE
:10AAE0001C2201A80021FFF72DFD40F6CD420023D6
:10AAF00002924FF4804201930392ADF81230032288
:10AB00008DF81430069301A8174B8DF81020079389
:10AB100002F08AFB08B1FFF71FFD144A13780321E6
:10AB200003F0F00361F306136FF3C71313700723E9
:10AB3000537010239370FFF7CFFD002008B010BDB5
:10AB40003C2D0020A5A70700A42C002071A607001B
:10AB5000DE2C0020942C0020F4DE0700D1AB07008F
:10AB6000A82C0020F7A50700FBA50700D82C002083
:10AB700010B5144B01221A70134B18884FF6FF734F
:10AB8000984206D01321FFF7FDFC98B1FFF7E4FCD3
:10AB900010E00E4B1A781C4662B1FFF7F1FC08B1C9
:10ABA000FFF7DAFC4FF0A0434FF08052C3F80825BE
:10ABB0000023237002F06EFB08B1FFF7CDFC0020EC
:10ABC00010BD00BF3C2D0020602C0020952C0020E3
:10ABD000F0B50B7889B005460C46092B00F21781B9
:10ABE000DFE813F027002E0041000A0013002000C8
:10ABF0000001080145000E0101F0C6FA0421FFF72B
:10AC0000E0FC0421024628462AE0FFF7B1FF08B124
:10AC1000FFF7A2FC01F0DCFA002800F0F88001F058
:10AC2000EFFAF4E0FFF7A4FF0028F8D0FFF794FC58
:10AC3000F5E7784B01221A704B681A78764B14E0CE
:10AC4000744B02261E704B681B78012B40F0DF808E
:10AC500001F048FA3146FFF7B4FC02462846314677
:10AC600002F040FDD0E06B4B03221A70CFE0694B3D
:10AC70001E78022E2ED0032E56D0012E40F0C78013
:10AC800004AF002110223846FFF75CFC624B0C2217
:10AC90001B788DF8103001A80021FFF753FC237AB0
:10ACA000029703220C2B0192D8D164682046FFF74B
:10ACB00073FC0590201DFFF76FFC069004F108005F
:10ACC000FFF76AFC079001A801F066F9002800F080
:10ACD0009E80BFE70B7A13F0030212D0C2F1040684
:10ACE00000215818C0B2676801314FF0000EB14220
:10ACF00007F800E0F5D10133C2F1030252FA83F301
:10AD000023720123049363680693237A04A89B08A3
:10AD1000059301F007FA002879D00221FFF751FCD2
:10AD20000221024628469BE7087A830703D028467B
:10AD30003146324694E7394E0190314601F092FB9C
:10AD4000014678B96168019A306803F0AFF801985C
:10AD500001F0ECFB014628B901A9304601F0F4FBF3
:10AD6000014608B128463AE004230493019B9B085E
:10AD7000059304A83368069301F07AF9074640B9B1
:10AD8000274A217A13680B441360264B32681A60F5
:10AD90003DE0092819D1224A217A13681944224B2F
:10ADA00011601B78002B32D0204A1388013B9BB2E4
:10ADB000138014465BBB284602F058FC08B1FFF72D
:10ADC000CBFB1B4B1B88238021E0306801F072FB1A
:10ADD000014610B12846FFF712FC28463946FFF716
:10ADE0000EFC14E0104B01221A70114A8B8813805C
:10ADF0000E4A03E00C4A002313700D4A138006E04C
:10AE0000074B196802F0F6FB08B1FFF7A5FB09B084
:10AE1000F0BD00BFA42C0020DD2C0020A02C0020C1
:10AE2000202D0020982C00201C2D00209C2C002080
:10AE30001A2D0020BFF34F8F0549064BCA6802F454
:10AE4000E0621343CB60BFF34F8F00BFFDE700BF4D
:10AE500000ED00E00400FA0510B512F0030411D172
:10AE6000094B1A604B1CDB009BB21A44074B1A605B
:10AE7000074B1C70074B1C70074B1880074B198041
:10AE8000204610BD072010BD402D0020442D00207D
:10AE90004B2D00204A2D0020482D00204C2D002055
:10AEA0002DE9F3472B4D2B888B4206460C4617465F
:10AEB0004AD302A84FF0000800F8018D00F0AEFC64
:10AEC000254B264A18781178CBB2254909888B4240
:10AED00038BF0133C0B238BF5FFA83F880450AD06B
:10AEE00092F800801378DBB28B423ABF0133DBB2B9
:10AEF0000023137001E04FF6FF789DF8070000F083
:10AF0000B3FC4FF6FF73984520D0DFF85CA0DAF869
:10AF100000304FEAC80903EB090243F8387086B1E4
:10AF20007CB1104B28881B68314600FB0830224654
:10AF300002F0BCFFDAF8003099440020A9F8044080
:10AF400005E00020908002E0092000E0042002B02B
:10AF5000BDE8F087482D00204A2D00204B2D002011
:10AF60004C2D0020442D0020402D002038B51149E3
:10AF7000114A0B7812789A421BD010480A780B7845
:10AF80000088DBB2984286BF0133DBB200230B702E
:10AF90000B4B1D880B4B18680B4BD2B21B6811B2C0
:10AFA00003EBC10405FB020053F83130A188984738
:10AFB000DDE738BD4A2D00204B2D00204C2D002010
:10AFC000482D0020442D0020402D00204378827819
:10AFD0000133DBB29A4208BF002302789A421FBFB6
:10AFE0000B70437803EB4302436814BF03EBC200CA
:10AFF00000207047EFF30583C3F30803BBB1103B98
:10B000005AB2002AABBF02F1604303F00F0303F50D
:10B010006143094AACBF93F80033D35C5B09DBB2F0
:10B02000022B06D0062B0CBF012002207047022005
:10B0300070470020704700BF14ED00E0494B4FF40B
:10B040000032C3F8802003F1C04303F53C534FF4B2
:10B050008032C3F848230121C3F808232F22596006
:10B060001046013800BF00BF00BF00BF00BF00BFD7
:10B0700000BF00BF00BF00BF00BF00BF00BF00BFD8
:10B0800000BF00BF00BF00BF00BF00BF00BF00BFC8
:10B0900000BF00BF00BF00BF00BF00BF00BF00BFB8
:10B0A00000BF00BF00BF00BF00BF00BF00BF00BFA8
:10B0B00000BF00BF00BF00BF00BF00BF00BF00BF98
:10B0C00000BF00BF00BF00BF00BF00BF00BF00BF88
:10B0D00000BF00BF00BF00BFC3D199602249002359
:10B0E0000B601046013800BF00BF00BF00BF00BFAB
:10B0F00000BF00BF00BF00BF00BF00BF00BF00BF58
:10B1000000BF00BF00BF00BF00BF00BF00BF00BF47
:10B1100000BF00BF00BF00BF00BF00BF00BF00BF37
:10B1200000BF00BF00BF00BF00BF00BF00BF00BF27
:10B1300000BF00BF00BF00BF00BF00BF00BF00BF17
:10B1400000BF00BF00BF00BF00BF00BF00BF00BF07
:10B1500000BF00BF00BF00BF00BFC3D1034A1370D0
:10B16000704700BF00E100E0502D0020702D00204E
:10B1700070B52549254B0022C1F84021C1F8442172
:10B18000C1F84821C1F84C21C1F80021C1F80421BF
:10B190001B68002B36D01E48D1F8041504680C1B20
:10B1A00024F07F4415461A68944216D3A41A154415
:10B1B0001A7CDE6972B100221A74164A126832B122
:10B1C00058699969904728B1FFF7C6F902E05A69B2
:10B1D000986990470EB13346E5E70F4B0F4A19784F
:10B1E00013788B4205D10133DBB2022B08BF002359
:10B1F000137012780A4B43F822500A4B4FF4801216
:10B20000C3F8002170BD00BF00100140542D002084
:10B21000502D0020582D0020642D0020652D002089
:10B22000682D002000E100E02DE9F74F884C894AA5
:10B2300089492368019309781378994210D0013322
:10B24000DBB2022B08BF002313701278834B53F834
:10B250002210019BCB1823F07F432360012001E0E3
:10B26000002108467E4BD4F800C0D3F800907D4BF7
:10B270001B7800937C4B009CD3F800A07B4B1E787E
:10B280004B46013CE4B2FF2C30D022B20AEBC20E96
:10B290001AF832209EF801709742F2D002EB420772
:10B2A000DEF804509EF802B005EBC708013215F82D
:10B2B0003770D2B2934508BF0022022F02D0032F6D
:10B2C000E8D10DE0D8F804709B469846B8F1000F1D
:10B2D000E0D0B84500F09581C346D8F81C80F5E76A
:10B2E000002BD7D000271F74DB69F9E75C4C584F5F
:10B2F0005E4A23601670C7F800C0BE46264620B9D5
:10B30000B3EB090318BF01231DE000208446C3B13D
:10B310001C68A14203D2611A3360196012E0DF6831
:10B32000D3F81C80091BA44400241C603FB1019C7D
:10B33000D861644424F07F445C609F6018464346B3
:10B34000E5E7336001234849D6F800800968DEF854
:10B35000009092F800A00191424600994D1EE9B27A
:10B36000FF29009100F086800199009C01EBC40741
:10B37000114610B10246C06924E03A787C789442C4
:10B3800063D002EB420C97F802B07E680132D2B271
:10B3900093453A7008BF387006EBCC0416F83C6051
:10B3A0006268012E4FD1167C002E4CD1A5685560E5
:10B3B000E56895602569D56064699461BAF1000F0C
:10B3C00000D056605668DFF8A8C0C9EB060424F028
:10B3D0007F446445D2F808C001D8644408E0C6EB55
:10B3E000090424F07F44A4458CBFC4EB0C04002462
:10B3F000146001260024546094601674D4610029FE
:10B40000B6D016680C68A64203D8A61B0E60D161A0
:10B41000AEE78B460C46D4F800C0664509D9CCEBA4
:10B420000606D4F81CC0A346BCF1000F07D0644642
:10B43000F1E7C6EB0C0CC4F800C0A4465C461660ED
:10B44000C2F81CC0E2610A4692E70A4685E700BFDF
:10B45000502D0020642D0020652D0020682D002037
:10B46000542D00205C2D0020602D0020662D002032
:10B47000FEFF7F006E4942450A6002D1002B00F0BA
:10B48000BA80002A00F0B5806A49DEF80030D1F8B1
:10B490000445694D17682878E21A22F07F4203328A
:10B4A00000284BD14FF48030C1F84403C1F80403A5
:10B4B00062484FF40036C0F88061066001260E60D5
:10B4C0002F20013800BF00BF00BF00BF00BF00BF7A
:10B4D00000BF00BF00BF00BF00BF00BF00BF00BF74
:10B4E00000BF00BF00BF00BF00BF00BF00BF00BF64
:10B4F00000BF00BF00BF00BF00BF00BF00BF00BF54
:10B5000000BF00BF00BF00BF00BF00BF00BF00BF43
:10B5100000BF00BF00BF00BF00BF00BF00BF00BF33
:10B5200000BF00BF00BF00BF00BF00BF00BF00BF23
:10B5300000BF00BF00BF00BFC3D12E70BA422CBFF6
:10B540009A18DA1922F07F43C1F84035D1F8042562
:10B550003848121B22F07F421B1B033223F07F432B
:10B560009A4248D9D0F80435C0F840352F20013828
:10B5700000BF00BF00BF00BF00BF00BF00BF00BFD3
:10B5800000BF00BF00BF00BF00BF00BF00BF00BFC3
:10B5900000BF00BF00BF00BF00BF00BF00BF00BFB3
:10B5A00000BF00BF00BF00BF00BF00BF00BF00BFA3
:10B5B00000BF00BF00BF00BF00BF00BF00BF00BF93
:10B5C00000BF00BF00BF00BF00BF00BF00BF00BF83
:10B5D00000BF00BF00BF00BF00BF00BF00BF00BF73
:10B5E00000BF00BFC3D1154B4FF40032C3F8002198
:10B5F00001E0FFF723FD124B00221A7003B0BDE8F3
:10B60000F08FBB4507D1DB692BB9DFF828C00126D5
:10B61000CCF808609C46D7F80080FF69CBF81C7016
:10B62000002F3FF437AE3D68A844C7F8008031E6EC
:10B63000542D002000100140702D002000E100E09A
:10B64000662D00202DE9F0411E46930780460F46E7
:10B65000144639D11E4D0AB92A6035E0FFF7EEFCD9
:10B660001C4A1D4B16602C60032204F1180507EBE1
:10B6700047061A70964029462246002355601370EB
:10B680005370977008328A423544F6D1134A1360DA
:10B69000134A1370134A1370134A4FF48011C020D9
:10B6A000C2F8801182F81403116001F18041A1F504
:10B6B0006F21C1F8088582F811030C4AD1F80415EE
:10B6C00011601846BDE8F0810720BDE8F08100BF99
:10B6D000602D0020582D00205C2D0020542D0020CE
:10B6E000642D0020652D002000E100E0502D002099
:10B6F000074B1B684BB132B128B10368187C20B9E5
:10B7000059745A617047072070470820704700BF7E
:10B71000602D00202DE9F3411B4B1C6805460E46A9
:10B7200017466CB360B3042928D9436943B3437CFB
:10B73000012B0CBF88464FF00008FFF75BFC04EBC1
:10B74000C00420460DF10701FFF740FCA0B1012322
:10B7500003700E4B4560D3F8043583609DF80730C5
:10B76000C660C0F8108047616370094B4FF48012C7
:10B77000C3F80021002004E0042002E0072000E0DC
:10B78000082002B0BDE8F081602D002000100140CB
:10B7900000E100E073B5124B1D680646EDB1E0B163
:10B7A0004369D3B100240474FFF724FC05EBC00502
:10B7B00028460DF10701FFF709FC60B10223037071
:10B7C0009DF8073046606B70064B4FF48012C3F84B
:10B7D0000021204602E0042000E0082002B070BDF5
:10B7E000602D002000E100E0082910B5044602D0D9
:10B7F0000020FEF7B1FE23686068BDE810401847DE
:10B8000007B5054A8DE8030068460821FFF748FBA5
:10B8100003B05DF804FB00BFE9B7070070B5EFF3B4
:10B82000108572B60D4A9468012394B993600C4B4D
:10B830000C49D3F88060314011600A49C3F8801088
:10B84000D3F8841051604FF0FF32C3F884200470A5
:10B8500000E0037005B962B670BD00BFB0340020CF
:10B8600000E100E0FC06FFBC10B5084B9A685AB135
:10B8700050B9EFF3108272B605491C680C605C6821
:10B880004C60986002B962B610BD00BFB0340020B1
:10B8900000E100E048DF704711DF704713DF7047B9
:10B8A000064B1878012803D1012904BF0221197021
:10B8B00012B11046FEF750BE704700BF712D002038
:10B8C00008B5084B084AC3F80026FFF7E3FF08B1A4
:10B8D000FEF742FEFFF74AFB044B1B78023B022BAC
:10B8E000EFD808BD000001403546526E712D002092
:10B8F00008B509481C2100F0CEFF08B1FEF72CFE68
:10B90000054806491C22002300F0B2FF18B1BDE82B
:10B910000840FEF721BE08BD742D00207C2D0020BC
:10B9200007B50368013301D1002014E001A800F03D
:10B9300043F9019B1A78012AF6D1588830B143F2B5
:10B94000080299681068002200F05AF9019B5B8890
:10B950001B1A5842584103B05DF804FB84B02DE92E
:10B96000F34108AC84E80F009DF82040BDF8228028
:10B97000099F0A9E0B9D01A800F01EF944B9374BA0
:10B980000122FF21A3F802809D601A70197142E024
:10B99000012C13D1314BF2192A449A60A5221A7056
:10B9A000FF221A710C9AA3F80280DF601E615D61AC
:10B9B0009A612B4B1C70FFF79BFF49E0032C0DD1C4
:10B9C000019A264B11781970518892689A60AA22C0
:10B9D00059801A71DF601E615D611BE0022C1DD170
:10B9E000019A1E4B1178A52903BF00225A809A6044
:10B9F00019700DBFFF22518892681A7018BF9A60A3
:10BA00004FF0FF021A714FF0000218BF5980DA6040
:10BA10001A615A610122124B1A70CCE7052C06D12B
:10BA2000FFF7A6F808B1FEF797FD03220EE0042CFD
:10BA300009D10A4B00229A605A80FF221A70019A9B
:10BA400012791A71B7E7062C02D10422044B1A703E
:10BA500002B0BDE8F04104B0704700BF7C2D00206B
:10BA6000712D00201FB5002101A80C22FEF76AFDF0
:10BA7000074B019300F0C4FE30B906494FF4FE2392
:10BA800001A84B6000F0E0FE05B05DF804FB00BFCC
:10BA9000A1B80700742D002010B500F01FFA28B9D6
:10BAA000FEF7A0FF0446FFF70BFF204610BD000085
:10BAB00010B5FFF7F1FE08B1FEF74EFD0D4B19680A
:10BAC000002301229A400A4218BF0A4803F10103E9
:10BAD00018BFC0F88020202BF3D143F2080420685F
:10BAE000FFF7DCFE08B1FEF737FD2068BDE8104027
:10BAF00000F068B800E100E007B501A800F05CF8CC
:10BB0000019B1A78A52A05D01879A0F1AA035842FA
:10BB1000584100E0012003B05DF804FB10B500F0CF
:10BB20000AFC40B1642000F02FFD00F077FB38B133
:10BB3000FEF712FD04E000F0D8FB0028F2D110BDA2
:10BB400000F0F9FB08B1FEF707FD00F0ABFB04467F
:10BB500008B1FEF701FD204610BD10B588B003AC5A
:10BB6000204600211422FEF7EDFC02238DF80C3054
:10BB70000023009394E80F00FFF7F0FEFFF7A0FE0C
:10BB8000002008B010BD13B5044601A800F014F859
:10BB9000019B1A7822705A8862809A68A2601A798A
:10BBA0002271DA68E2601A6922615A6962619B69EE
:10BBB000A36102B010BD0000014B0360704700BFDD
:10BBC00000F0070070B50346186880F308885868CD
:10BBD000FF2464B2EFF30585002D01D1A64600478E
:10BBE0002546064621273FBAF0B40024002500264A
:10BBF0000027F0B4F92040B2004700BF70BD00BF7D
:10BC00000AB1138801E04FF6FF73014488420ED059
:10BC100010F8012B5BBA9BB25340C3F3031253409D
:10BC200083EA03339BB2DAB283EA4213EEE71846A3
:10BC3000704718DF704770470129F8B50D46144664
:10BC40001F4602D003290CD01AE0114B1B78052B9C
:10BC500016D1104B1B689BB1114604203A469847F9
:10BC60000EE00B4E3378022B0AD10B4B5B689847E2
:10BC7000084B35701E681EB1284621463A46B0472B
:10BC800024B12046BDE8F840FEF766BCF8BD00BF11
:10BC9000A02D0020982D0020E82D002000B5084B95
:10BCA00089B001221A7005238DF80C30079B009390
:10BCB00003AB0FCBFFF752FE09B05DF804FB00BFEA
:10BCC000AC2D002000B589B003238DF80C300A4B51
:10BCD0001B88ADF80E30094B5A6804929A68DB68ED
:10BCE0000693079B0093059203AB0FCBFFF736FE3D
:10BCF000002009B05DF804FB9E2D0020D82D002007
:10BD000000B589B001238DF80C300B4B1B88ADF8C2
:10BD10000E3043F208031A68084B59680491996879
:10BD2000DB6806930591009203AB0FCBFFF716FE7D
:10BD3000002009B05DF804FB9E2D0020D82D0020C6
:10BD400010B588B003AC204600211422FEF7FAFBA0
:10BD500004238DF80C300023009394E80F00FFF7C4
:10BD6000FDFD08B010BD000008B50C4B0C48186074
:10BD70000C4B02221A7043F208031968494221F45D
:10BD8000FF5121F01F0101F5F021490800F083FD6A
:10BD900018B1BDE80840FEF7DFBB08BD742E0020D7
:10BDA000B02D0020A02D002008B5084B08481860D1
:10BDB000084B02221A70084B196800F06CFD18B18C
:10BDC000BDE80840FEF7C8BB08BD00BF742E0020C8
:10BDD000A42D0020A02D00207C2E002030B5154C75
:10BDE0001548E16889B000F056FD08B1FEF7B4FBD4
:10BDF000124B11485968E268002300F039FD0546EE
:10BE0000A0B903AC294614222046FEF79BFB0C4B3D
:10BE10008DF80C501B88ADF80E30064BDB6806938E
:10BE2000079B009394E80F00FFF798FD284609B0A0
:10BE300030BD00BFD82D0020A42D0020B02D002043
:10BE40009E2D002010B50C4B1B7883B90B48FFF7D3
:10BE5000A1FC08B1FEF780FB08484FF470110022E6
:10BE6000FFF758FC044620B1FEF776FB01E00820FE
:10BE700010BD204610BD00BFAC2D0020B82D002005
:10BE8000F0B585B005461F469608032368460C4664
:10BE90008DE8280002910396FFF7CBFEE0B1B4F5E0
:10BEA000805F11D8012368468DE82800029403962C
:10BEB000FFF7BFFE80B9032368468DE8280002948F
:10BEC0000396FFF7B6FE07E0E81BE11B3A463B4648
:10BED000FFF7D6FF0028E5D005B0F0BD7FB5002103
:10BEE0000C2201A8FEF72EFB1E4B01931E4B1F4D8B
:10BEF0001F4C00261E701F4B01A829461E8000F013
:10BF0000A3FC034608B1267029E043F208021A4E4A
:10BF10001168696095E8030086E803001168174816
:10BF20004A4222F4FF5222F01F0202F5F02201EBF6
:10BF3000520272601946124AFFF7DAFB08B1FEF7A7
:10BF40000BFB10484FF470110022FFF7E3FB08B120
:10BF5000FEF702FB0C4B002018600123237004B095
:10BF600070BD00BF39BC07009C2D0020A42D00200F
:10BF7000A02D00209E2D0020B02D0020FCDE07000B
:10BF80009DBC0700B82D0020782E0020014B1860C2
:10BF9000704700BF982D002038B54368294C0FCB5F
:10BFA00084E80F0021784B0701D58D0742D16268E4
:10BFB000244B90073ED1986885073BD1DB689C07EE
:10BFC00038D10244204D1A44B0F5E04F2A6033D8EE
:10BFD00043F2080311F0010F1B680AD0C3F5F023E8
:10BFE0009A4229D8194B1A4A1A601A4A5A601A4AB0
:10BFF00012E05B4223F4FF5323F01F0303F5F02309
:10C00000B2EB530F18D8114B144A1A60144A5A60F5
:10C010008A074CBF134A144A9A60144B1B78012BB1
:10C020000CD1FFF70FFF044650B9084B28681B6876
:10C03000984705E0062038BD0C2038BD082038BDE3
:10C04000204638BDD82D00207C2E0020E82D002071
:10C05000A9BD070041BD070001BD070069BD07007C
:10C0600037BC0700C5BC0700DDBD0700A02D0020C0
:10C07000F8B5064640B383689B0727D1154B1B785C
:10C08000052B25D1144C4268144F236895003A685B
:10C090002B44934204D94FF0FF3323600C20F8BDAA
:10C0A000FFF7D0FEA8B90E4BB168186823682A467E
:10C0B00000F0DEFB68B920682A18386822608242E6
:10C0C00014BF09200020F8BD0E20F8BD1020F8BDD7
:10C0D0000820F8BDA02D0020782E00207C2E002006
:10C0E000742E002070B50B4B1C687CB90A4E337857
:10C0F000042B0BD1094D0A48297800F049F910B9F1
:10C100000523337003E02C70044600E00824204629
:10C1100070BD00BF782E0020A02D00209C2D002097
:10C12000F42D0020F8B5144B1A78032A074602D0E4
:10C13000042A02D018E004221A70104B1C689CB923
:10C14000FFF780FE90B90E4E7D683378AD005A1926
:10C15000802A0DD80B48B96818442A4601F0A6FE7B
:10C1600033781D44357004E0082402E0044600E002
:10C1700009242046F8BD00BFA02D0020782E002005
:10C180009C2D0020F42D002038B50D4C2378052B74
:10C1900014D10C4B0C4D1A682B689A420ED1062311
:10C1A0002370FFF74FFE50B9084B29681B68586889
:10C1B00000F034F918B90723237038BD082038BDC2
:10C1C000A02D0020782E00207C2E0020742E002030
:10C1D00010B5084B1B78072B0AD10748FFF7DAFA8E
:10C1E00008B1FEF7B9F9054BBDE810409B68184748
:10C1F000082010BDA02D0020B82D0020E82D002023
:10C2000000B589B006238DF80C30079B009303AB73
:10C210000FCBFFF7A3FB09B05DF804FBF0B58DB0C1
:10C2200005A8FFF7B0FC089C002C38D00B9E04F545
:10C230008053B34227D943F20803A6F580551B6803
:10C24000A3424FEA550508D36A00901902F58051C0
:10C250002B46A21AFFF714FE20E005F580530127B4
:10C2600001A80197029303930497FFF7E2FCA8B992
:10C270004FF4805301A80197029303930497FFF7AB
:10C28000D8FC58B9E0E701230193A4084FF4805388
:10C2900001A8029603930494FFF7CBFC04462046C2
:10C2A0000DB0F0BD00B58DB005A8FFF76CFC099886
:10C2B000C0B1089A62B943F208031A68534223F4E2
:10C2C000FF5323F01F0303F5F02302EB530301E0B8
:10C2D0000B9B134480080022039001A80192029353
:10C2E000FFF7A7FC0DB05DF804FB00B58DB005A805
:10C2F000FFF749FC0998D8B1089A62B943F20803DC
:10C300001A68534223F4FF5323F01F0303F5F0236D
:10C3100002EB530301E00B9B1344032280080192BC
:10C3200004904FF4F02201A802920393FFF781FCDE
:10C330000DB05DF804FB10B58CB005A8FFF723FC29
:10C34000089A12B30B9802F5805383420FD943F237
:10C3500008031B68934217D3A0F580535B085C0069
:10C36000204404F58051121BFFF78AFD0AE00323E5
:10C37000019303904FF48053920801A80293049212
:10C38000FFF757FC024600E00E2210460CB010BD2D
:10C390000B2910B5044601D8092010BD038900EB14
:10C3A00043030A33C21A0A44D2B21948012A02705E
:10C3B000F2D921448B42EFD81946164801F076FD98
:10C3C000154B1A884FF6FF718A4202D0218891429C
:10C3D00019D15B884FF6FF72934202D062889A426D
:10C3E00011D134F8081F00238B420CD234F8022FED
:10C3F0004FF6FE70824208D043F20C0001330088F1
:10C400008242F1D101E00B2010BD002010BD00BF21
:10C410008A2E0020802E00208010001008B50022F7
:10C42000FFF7EEFB044A5178137843EA0123984260
:10C4300014BF0B20002008BD802E0020064B074AA9
:10C4400000201870064B1A6008225A609860D86065
:10C450001861586198617047C82F00208C2E002009
:10C46000AC2F002030B5E9B1114B5C6800220A60A6
:10C47000D4B120281AD8D8681D680130013CD86092
:10C4800018695C60242404FB00540C60012101FA4B
:10C4900000F499690130214300F0070018619961A7
:10C4A000104630BD0E2030BD042030BD0C2030BD04
:10C4B000AC2F0020F0B51C4B9A6892B35D691E68E2
:10C4C000AA1A02F007021146242404FB0164A042C8
:10C4D0000ED10D46012101FA05F09969414099619B
:10C4E00000209F68D3F818E0D3F804C039460BE069
:10C4F000013101F00701A942E6D11020F1E769B14D
:10C500006A1C013902F00702012606FA02F20CEB5E
:10C51000070412EA0E0FA4EB0104F0D099605C60EE
:10C52000F0BD0420F0BD00BFAC2F002005490B6911
:10C53000013B03F007020B68242101FB0233186260
:10C5400000207047AC2F002030B5B0B1A9B10D4B21
:10C55000DA68A2B1013ADA609A681D6801329A601D
:10C560005A69242404FB02540132046002F00702D9
:10C57000206A5A610860002030BD0E2030BD0420C2
:10C5800030BD00BFAC2F002082B00190019B002B7A
:10C5900041D0019B013B019340F2E730013800BFDD
:10C5A00000BF00BF00BF00BF00BF00BF00BF00BF93
:10C5B00000BF00BF00BF00BF00BF00BF00BF00BF83
:10C5C00000BF00BF00BF00BF00BF00BF00BF00BF73
:10C5D00000BF00BF00BF00BF00BF00BF00BF00BF63
:10C5E00000BF00BF00BF00BF00BF00BF00BF00BF53
:10C5F00000BF00BF00BF00BF00BF00BF00BF00BF43
:10C6000000BF00BF00BF00BF00BF00BF00BF00BF32
:10C6100000BFC3D1BAE702B07047000000284FEA5C
:10C620004111BFBF00F00F020E4BC9B29954A8BF11
:10C6300000F1604300F01F024FEA5010A8BF03F55D
:10C6400061434FEA8000A8BFC9B200F16040A8BFB3
:10C6500083F8001300F5614001239340C0F8803156
:10C660000360704714ED00E029DF704728DF704752
:10C6700037B50B46024608465C6850F80C5F0978EF
:10C680000094034C5B6954F82540A04703B030BDCB
:10C69000C030002038B5184C2378182202FB034222
:10C6A00002F108001379C568012B0DD0032B21D1AD
:10C6B0004FF080531869114B80B2B5FBF0F5186844
:10C6C0002844FFF7D3FF11E00C4B91691B68926877
:10C6D00040681B03D21AB2F5805F284419441844FD
:10C6E00034BF92084FF48062FFF7BEFF18B90123F0
:10C6F000A37038BD0F2038BDCC2F0020D0300020D3
:10C7000070B5144D6E780A2E21D02C783444E4B2E2
:10C71000092C88BF0A3C4FF0180688BFE4B206FB1C
:10C72000045404F110062071A26103C9A360049BA4
:10C73000E360AB7886E803000BB1002003E0FFF76D
:10C74000A9FF1128F9D06B7801336B7070BD0420FC
:10C7500070BD00BFCC2F002038B5274B9A781D46FE
:10C76000002A48D0002402289C7002D0032833D02D
:10C7700038BD1B782149182000FB03500A688068E7
:10C780000132B0EB023F0A601BD86A780C60013AB4
:10C790006A705A1CD2B2182404FB0354092A88BFB9
:10C7A000A3F10902211D00202A70FFF761FF234633
:10C7B000002243F8082F032122719960DA60A261F8
:10C7C0005A606B780C4CB3B1A378A3B9FFF762FF42
:10C7D00088B1112806D138BD1A78182101FB023121
:10C7E0000D2003E02378182101FB03410431BDE84B
:10C7F0003840FFF73DBF38BDCC2F0020D03000209F
:10C800000D4B00221A600D4B1A705A709A7003F18A
:10C81000F002002003211871986019615861986135
:10C82000D86018339342F4D1054B1860054B18605B
:10C8300058609860704700BFD0300020CC2F002097
:10C84000CC300020C0300020074A1368032B1FBFE4
:10C850000B60591C1160054A1DBF016842F8231086
:10C8600000200420704700BFCC300020C0300020E2
:10C8700073B51546CA180A43920706460C4607D1F7
:10C880000093314622462B460120FFF739FF00E096
:10C89000102002B070BD13B5002204460B46009272
:10C8A00021460320FFF72CFF02B010BD70B50D46E6
:10C8B00000BB0968E1B1114CA14211D0631A3B2BB6
:10C8C0000AD801F13C03481E834209D013F80169DC
:10C8D0005A1A22445670F7E720463C2201F0E6FA45
:10C8E00006483C210022FFF78BF90023A08702E0D5
:10C8F0000E2300E001232B6070BD00BF807F00206D
:10C90000074A6FF002039E4502D1EFF3098101E06F
:10C91000EFF308818869A0F102000078104700BF9A
:10C92000ADC8070038B50546A8B10D4C3C212046DE
:10C930000022FFF765F9A38F83420ED1234604F14D
:10C940003C0253F8041B45F8041B9342F9D1013013
:10C95000A087002038BD0E2038BD0B2038BD00BF99
:10C96000807F002013DF704718DF7047704700009A
:10C9700010B58AB00446002101A81022FDF7E2FD9F
:10C98000022301931A4B186800902CB101A8FFF7FD
:10C99000EBFF08B1FDF7E0FD4FF4F020FFF7E2FFF9
:10C9A00008B1FDF7D9FD68461249134B482201F042
:10C9B00041F908B1FDF7D0FD0120014605AA01F0BB
:10C9C0009DF908B1FDF7C8FD9DF8203005A843F09A
:10C9D00001038DF8203001F0A9F908B1FDF7BCFD85
:10C9E000064801F06FF908B1FDF7B6FD0AB010BDB9
:10C9F00000DF0700EC3300205DDD070001CA0700FF
:10CA0000FFF7AABE08B508201421044AFEF724FA4D
:10CA100018B1BDE80840FDF79FBD08BD9C3200205D
:10CA20007FB54FF08043D3F81C55A5F1B1025542B4
:10CA3000554115B10022C3F81C254FF0A043032235
:10CA4000C3F87827C3F87027C3F87427474B1B68CF
:10CA5000B3F5F02F02D00020FDF77EFD4FF080539C
:10CA60001B69B3F5805F02D00020FDF775FD002043
:10CA700005213F4A3F4BFEF7E5FD08B1FDF76CFD90
:10CA80003D4B3E4CC3F80046FEF7ECFFFFF734F891
:10CA900085F00106D8B14FF0A0434FF08042C3F8B3
:10CAA0000C25FFF73BF808B1FDF756FD3046FFF7C0
:10CAB0005FFFFFF7A7FFFFF750F808B1FDF74CFD48
:10CAC0004FF0A0434FF08042C3F8082504E0304601
:10CAD000FFF74EFFFFF796FF294A07CA01AB83E82D
:10CAE00007001846274901F053F908B1FDF734FD56
:10CAF000254801F085F908B1FDF72EFD01F072F926
:10CB00001D4BC3F800465DB14FF0A0454FF0804685
:10CB1000C5F80C65FEF7C0FF48B1FDF71DFD06E046
:10CB200043F208031868FEF7FBFE10B9ECE7C5F8FE
:10CB3000086543F208052868FEF7F2FE40B1FEF7EB
:10CB4000DBFF28B90C4BC3F800462868FEF7B0FF9E
:10CB5000BFF34F8F0D490E4BCA6802F4E0621343D6
:10CB6000CB60BFF34F8F00BFFDE700BF1410001074
:10CB7000D430002001B80700000001403546526E55
:10CB800004DF07006DC90700AD34002000ED00E0B0
:10CB90000400FA0571DF704772DF704779DF704774
:10CBA0007DDF704765DF70472DE9F04F85B00024C9
:10CBB0000E9DBDF83CA02E880191834690461F46ED
:10CBC000A146BBF80020914535DADBF8042052F885
:10CBD000290003900DF10B0103A80022FFF7E2FFEB
:10CBE000002835D19DF80B20424521D12A88002C00
:10CBF00014BF0021022102EB08000144514526DC4C
:10CC000044B9013292B29DF804302A80BB542A887C
:10CC100001322A802A8803A80DF10B013A44FFF75C
:10CC2000C1FFA8B92A889DF80B100A442A80012464
:10CC300009F10109C5E744B12A88013A921B92B271
:10CC4000FF2A04D8BA55002002E0204600E00C205C
:10CC500005B0BDE8F08F2DE9F341089DBDF82440F3
:10CC6000009517460194022280461E46FFF79CFF5E
:10CC700050B940463946102233460895099402B00F
:10CC8000BDE8F041FFF790BF02B0BDE8F0812DE9AB
:10CC9000F043002316881380436B85B007460D468A
:10CCA00014469BB1022E1A7840F20D8202230B70BB
:10CCB000238801339BB211212380E9542388013357
:10CCC0009BB22380EA542388013323803A6B22B934
:10CCD00097F82E20002A41D01CE0238803F112018E
:10CCE000B14200F2F0811121E954238801339BB253
:10CCF00010212380E954238801332380531821888D
:10CD000013F8010D68542188934201F1010121803B
:10CD1000F5D1DDE72388D91CB14200F2D48102218C
:10CD2000E954238801339BB21C202380E8542388D4
:10CD300001339BB2013A2380032A00F2C681DFE867
:10CD400002F002040608002204E0012202E0E95495
:10CD500001E00322EA5423880133238097F82D3021
:10CD60001BB9BB78002B4CD02AE023880933B3428F
:10CD700000F2A98102A8FFF70DFF002840F0A6816C
:10CD800023880822EA54238801339BB21B22238084
:10CD9000EA542088013080B22080062228440DF118
:10CDA000090101F083F823889DF8082006339BB21F
:10CDB000238002B10122EA54238801332380D0E783
:10CDC00023880433B34200F27E8102A8FFF7E6FE17
:10CDD000002840F07B8123880322EA542388013312
:10CDE0009BB219222380EA542388BDF8082001331E
:10CDF0009BB2E9182380EA54120A4A70238802334E
:10CE00002380FA78A2B12388D91CB14200F25B8159
:10CE10000221E954238801339BB201212380E95484
:10CE200023880B449BB22380EA5423880B4423803D
:10CE30007B68ABB11A782388D91CB14200F24381D8
:10CE40000221E954238801339BB20A212380E9544B
:10CE5000238801339BB22380EA5423880133238043
:10CE60003B8913B93B8AC3B10BE08DE8500007F151
:10CE70000800022106222B46FFF7EDFE0028F1D024
:10CE800024E18DE8500007F11000032107222B4612
:10CE9000FFF7E1FE002840F019813B8B5BB18DE884
:10CEA000500007F11800142115222B46FFF7D3FE7E
:10CEB000002840F00B813A6A002A46D0B4F800E01E
:10CEC0000EF10603B34200F2FE801188052940F2FC
:10CED000FC806FF4486C01EB0C039BB24FF27D3C7D
:10CEE000634540F2F2805388052B40F2EE806FF4E8
:10CEF0004860181880B2604540F2E7804FF6FF7036
:10CF0000814204D0834202D0994200F2DE800523A0
:10CF100005F80E30238801339BB212212380E95497
:10CF2000238801339BB223801188E954E818090A49
:10CF30004170238802339BB223805288EA54E91857
:10CF4000120A4A70238802332380D7F82480B8F16C
:10CF5000000F31D0B8F8043021881A1D0A44B242BB
:10CF600000F2B1809A1CFE2A00F2AD8003336B54AC
:10CF7000238801339BB2FF222380EA5423880133A4
:10CF80009BB22380B8F80020EA54E918120A4A70CC
:10CF90002088023080B22080B8F8042062B1D8F82E
:10CFA0000810002900F09180284400F07FFF2288BB
:10CFB000B8F804301344238097F82C3023B938781C
:10CFC000002800F083803FE0BB6A002B7DD04FF04B
:10CFD000000997F82C205FFA89F39A42EFD90C20C8
:10CFE000B96A00FB03F201EB0208B8F8043003F160
:10CFF000020EBEF1FE0F69D8208803332B5423881C
:10D0000001339BB216202380E854238801339BB25E
:10D0100023808A5AEA54E918120A4A70208802309A
:10D0200080B22080B8F804205AB1D8F8081000293E
:10D030004BD0284400F03AFF2288B8F8043013445B
:10D04000238009F10109C4E73B88012B3DD02288E8
:10D0500002F1020EB64536D8012804D17B7802339E
:10D060001344B3422FD8023EB61A04A9B6B221F82F
:10D07000086D05EB0E00FFF793FD38BB3B78022BE4
:10D0800004D1BDF80830B3420CD907E0012B05D11B
:10D090007B78B34202D8ADF8083001E0ADF8086003
:10D0A000082100E00921BDF80820FE2A0BD82388BA
:10D0B0000132EA54238801339BB22380E954238848
:10D0C0001A44228002E00C2000E0072005B0BDE8F1
:10D0D000F08330B593B01F230D46ADF80430ADF8A2
:10D0E000063020B1C3785B0714D4072022E0ADF8E6
:10D0F000040004461DB1EB78002BF6D111E0ADF829
:10D1000006502A4620469DF804109DF80630FFF789
:10D1100043FD0FE002A901AAFFF7B9FD50B902AC27
:10D12000E8E728460AA90DF10602FFF7B0FD08B9A5
:10D130000AAAE7E713B030BD75DF704776DF7047A6
:10D140007ADF70477BDF704737B5154B18884FF68D
:10D15000FF73984222D0134A134D1378297B013371
:10D16000DBB2994213702C4606D31049FFF7E4FF57
:10D17000A0B1AB698BB911E0002313702B7C33B1E4
:10D180003B21FFF7DBFF10B1AB6903B1984763693F
:10D1900023B102A8002200F8042D984703B030BD47
:10D1A0007C3400203E340020403400207E340020B7
:10D1B00073B5174B174A5B881188174C174D994266
:10D1C0000DD852889A420AD3636923B102A801227A
:10D1D00000F8042D984700232B7002B070BD2A7808
:10D1E0002AB16369002BF6D002A80022F0E70C48B0
:10D1F00061680678A3680B48002E18BF1946FEF731
:10D2000089FA0028E7D0A369002BE3D1E3E700BF48
:10D21000363400207E340020403400203434002096
:10D220003E3400205C34002070B5054606460FCD24
:10D23000114C0FC495E80700104B84E8070000224A
:10D240001A7032680E489AB11368036053684360DD
:10D25000FFF776FF78B90B4B0B484FF6FF721A8039
:10D260000A4B0B4A00211970BDE87040FEF740BA26
:10D27000FFF768FFEEE770BD403400203434002033
:10D280007E3400207C34002010DF07003E34002074
:10D2900049D107000148FEF77DBA00BF5C34002089
:10D2A00010B50388112B18D002D8102B05D010BD53
:10D2B000122B34D0502B1ED010BD1E4B82881A80EA
:10D2C00000F1180303CB1C4A1C4B10605160002274
:10D2D0001A701B4BDB8963BB27E0164B19484FF6CE
:10D2E000FF721A80154B00221A70FEF753FA00B332
:10D2F000134B9B690FE0124CC288E3899A4218D104
:10D30000038A022B15D1837CDB070ED40D48FEF770
:10D3100041FA70B1A36963B1BDE81040184700F14C
:10D32000080303CB044A10605160BDE81040FFF7CA
:10D330003FBF10BD7C340020363400203E34002036
:10D34000403400205C340020A0DF7047A2DF70472B
:10D35000A5DF7047A6DF7047A8DF704763DF70471F
:10D360002DE9F0470F4694B00546002800F03681BD
:10D37000002900F033814B68002B00F02F814FF61D
:10D38000FF730380994B04AA03F1100696461868B0
:10D390005968144603C40833B3422246F7D114AE89
:10D3A00041F2305370460DF10A0126F8483DFFF76F
:10D3B000D5FF002840F01481012031462A1DFFF7D7
:10D3C000C3FF0446002840F00C819DF80A30AB7181
:10D3D00021461C220DA8FDF7B5F89DF834300E94B7
:10D3E00043F004038DF8343001AEAB798DF80E3084
:10D3F000214641F232530322304610941194129484
:10D400001394ADF80C30FDF79DF89DF8043064F3EB
:10D41000030364F307138DF804309DF805304FF0D3
:10D42000010A6AF303036AF307138DF805309DF8C8
:10D4300006306AF3420364F3C30364F30413DBB2FC
:10D4400043EA0A032146142208A88DF806300DF19C
:10D450000C08FDF777F84FF01409A888ADF82840BC
:10D460000DA908AA05F10803ADF82A400C94CDF8DF
:10D4700020800996ADF82C90FFF768FF044600283D
:10D4800040F0AF8021461C220DA8FDF75BF89DF807
:10D4900034300E9443F018038DF83430AB798DF8A6
:10D4A0000E30214641F2315303223046109411943C
:10D4B00012941394ADF80C30FDF744F89DF8043045
:10D4C00064F3030364F307138DF804309DF805300B
:10D4D0006AF303036AF307138DF805309DF80630ED
:10D4E0006AF3420364F3C303DBB243F01103214642
:10D4F0004A4608A88DF80630FDF724F81723ADF842
:10D500002C30A888ADF828400DA908AA05F1100311
:10D51000ADF82A400C94CDF820800996FFF716FF4D
:10D52000044600285DD121461C220DA8FDF70AF80B
:10D530009DF834300E9443F002038DF83430AB790B
:10D540008DF80E30214641F23453032230461094B8
:10D55000119412941394ADF80C30FCF7F3FF9DF87E
:10D5600004306AF303036AF307138DF804309DF85F
:10D57000053064F3030364F307138DF805309DF859
:10D5800006306AF3420364F3C30364F30413DBB2AB
:10D5900043EA0A0321464A4608A88DF80630FCF7FC
:10D5A000D1FF0223ADF82830ADF82C30A888ADF8B3
:10D5B0002A400DA908AA05F12003CDF8208009967C
:10D5C0000C97FFF7C3FE044658B97B68AB62BB6893
:10D5D00003B1EB62064B01221A7002E00E2400E058
:10D5E0000446204614B0BDE8F08700BF14DF0700F2
:10D5F0008634002070B5054686B070B302884FF6B9
:10D60000FF739A422BD0174B1B7843B3164CC1F3D0
:10D610000720E1702071C1F30740090E0723102293
:10D6200001266071A17102A800216370ADF8063077
:10D630002270A670FCF786FF2B8AADF80830002315
:10D64000ADF80C3028888DF80A600DF1060302A9A8
:10D6500004930594FFF77EFE02E00E2000E0082010
:10D6600006B070BD863400208734002030B50546F2
:10D6700087B068B302884FF6FF739A422AD0174BDF
:10D680001B783BB3164C11232370C1F30723617041
:10D69000A370C1F30743090EE3702171052302A8AB
:10D6A00000211022ADF80630FCF74CFF2B8AADF8B4
:10D6B000083001238DF80A300023ADF80C3028889B
:10D6C00005940DF1060302A90493FFF743FE02E05F
:10D6D0000E2000E0082007B030BD00BF86340020D7
:10D6E0008734002030B5044687B030B300884FF649
:10D6F000FF73984223D0134B1B7803B3124D1023B2
:10D7000069700321ADF80610AA7002A81A4600211C
:10D710002B70FCF717FF238AADF8083001238DF832
:10D720000A300023ADF80C30208805950DF1060372
:10D7300002A90493FFF70EFE02E00E2000E008208D
:10D7400007B030BD863400208734002070B50D4608
:10D7500088B00446002800F0C280002900F0BF8095
:10D76000826A002A00F0BB800B88112B1BD004D8E2
:10D77000102B40F0B4808B8817E0502B02D0512B37
:10D7800015D0ACE0C9880389994240F0A8800823ED
:10D790008DF81030123535F8023C8DF818300595AB
:10D7A00004A990479BE04FF6FF73238097E08B79A5
:10D7B000022B40F094800A89038A9A4240F08F80BD
:10D7C0008B7B043B022B40F28A809DF8163043F09D
:10D7D00001038DF816300B8AADF818304B8AADF87E
:10D7E0001A30022601F114030822002101A88DF845
:10D7F00010600793FCF7A6FE00232088A18AADF8ED
:10D80000046001AAADF80630CDF808D0FFF7A0FDFE
:10D81000064618B1E36A2BB1984703E09DF8003043
:10D82000DB0708D440F2FD132088ADF8143004A9BA
:10D83000FFF792FD4FE0ADF8140004A92088FFF730
:10D840008BFD002847D1297D4B1E072B3FD8DFE8F1
:10D8500003F0040E1D1F21233C256B8A8DF8046004
:10D86000012B02D82046012109E0012309E06A8A40
:10D8700001239A428DF8043003D820460221062263
:10D8800027E015358DF80C30029519E0022315E0DC
:10D89000032313E0042311E005230FE06B8A022B1E
:10D8A00002D82046082113E0AA7D6B7D43EA0223BB
:10D8B000ADF808300BB9072300E006238DF80430DB
:10D8C000A36A204601A9984709E00923F6E7204604
:10D8D0000322FFF707FF10B1E36A03B1984708B0CE
:10D8E00070BD0000944B1B78062B0AD1934B1B682C
:10D8F0001A0706D1924B1B6803F0F003302B00F09F
:10D90000AA808D4B1B78062B0FD18C4B1B681B07F5
:10D910000BD18B4B1B6803F0F002302A00F09F8084
:10D9200003F0E003402B00F09A80834B1B78062B1A
:10D930000AD1824B1B68180706D1814B1B6803F084
:10D94000F003302B00F092807B4B1B78062B0FD11D
:10D950007A4B1B6819070BD1794B1B6803F0F00257
:10D96000302A00F0898003F0E003402B00F084802F
:10D97000714B1B78062B09D1704B1B681A0705D118
:10D980006F4B1B6803F0F003302B7FD06A4B1B7882
:10D99000062B0AD1694B1B6813F00F0305D1684AA7
:10D9A000126802F0F002302A74D0634B1B78062B09
:10D9B00009D1624B1B681B0705D1614B1B6803F043
:10D9C000F003502B70D05F4AD2F8883043F47003D4
:10D9D000C2F88830BFF34F8FBFF36F8F4FF0102323
:10D9E000D3F80022002A03DBD3F80432002B2EDA0E
:10D9F000554B0122C3F80425D3F80024002AFBD09C
:10DA00004FF010221521C2F80012D3F80024002A8A
:10DA1000FBD04FF010231522C3F804224A4BD3F851
:10DA20000024002AFAD00022C3F80425D3F80024E9
:10DA3000002AFBD0BFF34F8F4249444BCA6802F41F
:10DA4000E0621343CB60BFF34F8F00BFFDE7404B55
:10DA5000404A1A607047404B404A1A6051E7404BB9
:10DA6000404A1B68C3F3423313605EE73E4AD36803
:10DA700023F08073D36067E74FF080430022C3F840
:10DA80000C21C3F81021C3F8382571E7374B032266
:10DA90001A607BE7364A0521116001219167936086
:10DAA000344B3F221A6080E74FF08052324BD2F85D
:10DAB0000414C3F82015D2F80814C3F82415D2F8BA
:10DAC0000C14C3F82815D2F81014C3F82C15D2F88A
:10DAD0001414C3F83015D2F81814C3F83415D2F85A
:10DAE0001C14C3F84015D2F82014C3F84415D2F81A
:10DAF0002414C3F84815D2F82814C3F84C15D2F8EA
:10DB00002C14C3F85015D2F83014C3F85415D2F8B9
:10DB10003414C3F86015D2F83814C3F86415D2F879
:10DB20003C14C3F86815D2F84014C3F86C15D2F849
:10DB30004424C3F8702546E7E00F00F0E40F00F03E
:10DB4000E80F00F000ED00E000E001400400FA05FD
:10DB5000682C00200090D00374C007400DF0ADBACF
:10DB6000440200103C050040F0ED00E0A00500403C
:10DB7000105600401456004000C0004052DF70476D
:10DB800010DF704760DF704761DF704708B5FDF751
:10DB900051F908BD2DE9F341214B1B78002B3BD0F7
:10DBA000204B214E1C683568B4FA84F4B5FA85F52B
:10DBB00064096D0998466DBB01A8FFF7DFFF0528D2
:10DBC00007D010B1FCF7C8FC04E03368019898470F
:10DBD00000E00125E4B9154B02A91B8821F8043D9A
:10DBE000134B1F683846FFF7CFFF0528044609D0BE
:10DBF00018B1FCF7B1FC002405E0D8F80030384635
:10DC0000984700E00124002DD6D0002CD3D003E0AB
:10DC100015B9D1E7002CDED002B0BDE8F08100BF1D
:10DC20008E3400209C340020983400209034002052
:10DC30009434002010B5C9B18C0717D1154C216060
:10DC400015490A80154A16491360FFF799FFB0B9C4
:10DC5000144B154901221A7091F816335B099A1E6C
:10DC6000052A0ED8043B012B02D80AE007230EE058
:10DC70000E4A936843B1136843F48003136003466C
:10DC800005E042F2020302E04FF480020A60184607
:10DC900010BD00BF9434002090340020A034002038
:10DCA0008DDB07008E34002000E100E0B03400205E
:10DCB00018B1034B1860002070470E20704700BF5A
:10DCC0009C34002018B1034B1860002070470E20D0
:10DCD000704700BF9834002008B5074B1B682BB174
:10DCE000984738B1BDE80840FCF736BCBDE80840AD
:10DCF000FFF750BF08BD00BFA034002070B5144628
:10DD000005460E46104600211422FCF71BFC022398
:10DD10002380237B2672002262F300032261237397
:10DD200065720DB10123A372002070BD07B5054BCC
:10DD3000019302A9019B41F8083DFFF723FF03B0BF
:10DD40005DF804FB002C002008B511B10020FCF7A1
:10DD500003FCBDE80840FFF71DBF0000002001469E
:10DD6000014AFDF79DB800BF49DD0700054BD3F818
:10DD70000433DB0705D5044B00221A60034B1B68F4
:10DD8000184770470000014000010140A8340020FE
:10DD900010B5104A1160104A14780346BCB901212D
:10DDA00011700E4A0E49002808BF13464FF47A70CE
:10DDB0001A78C1F80C255A68D203B2FBF0F2C1F808
:10DDC00004251020197AFEF729FC204610BD0820F2
:10DDD00010BD00BFA8340020AC34002024DF0700B1
:10DDE00000000140044B0122C3F804231A60034BD6
:10DDF00002221A70704700BF00000140AC340020BE
:10DE000037B5054602A8002400F8014DFDF706FDD0
:10DE10000D4A1368072B9FBF591C0C482B701160CB
:10DE20009FBFD0F80825012101FA03F3134398BFDF
:10DE3000C0F808359DF8070088BF0424FDF714FDDD
:10DE4000204603B030BD00BFA434002000000140D4
:10DE50000649074A074B9B1A03DD043BC858D050BC
:10DE6000FBDCFFF73FFDFCF7F9FA00003CDF0700A1
:10DE7000002C0020782C0020FEE7FEE7FEE7FEE7FE
:10DE8000FEE7FEE7FEE7FEE7FEE7FEE710B50A4421
:10DE9000441E914208D014F8013F0878834201D013
:10DEA000181A10BD0131F4E7002010BD10B5431E53
:10DEB0000A44914204D011F8014B03F8014FF8E7EE
:10DEC00010BD034613F8012B002AFBD1181A0138A4
:10DED00070470000F8B500BFF8BC08BC9E4670470C
:10DEE000F8B500BFF8BC08BC9E4670474300000070
:10DEF000002C00204466755461726700B82D002024
:10DF0000010000070100000060EA000002000000BC
:10DF10005C34002023D1BCEA5F782315DEEF1212B7
:10DF2000000000000100000060EA000002000000A4
:04DF300000000000ED
:08DF340028C5FF7F0100000079
:10DF3C0000000000000000000000000000000000D5
:10DF4C0000000000000000000000000000000000C5
:10DF5C00ECDE0700000000000000000000000000E4
:10DF6C0000000000000000000000000000000000A5
:10DF7C000000000000000000000000000000000095
:10DF8C000000000000000000000000000000000085
:10DF9C00FFFF0000320000000090D00325A4070012
:08DFAC0001A4070000000000C1
:020000020000FC
:020000041000EA
:041014000080070051
:0410180000E00700ED
:040000037000DE515A
:00000001FF
