:020000040000FA
:1000000090080020150100002F01000031010000C0
:1000100000000000000000000000000000000000E0
:10002000000000000000000000000000330100009C
:100030000000000000000000350100003701000052
:1000400039010000390100003901000039010000C8
:1000500039010000000000007101000039010000BA
:10006000390100008D030000390100003901000052
:100070003901000039010000390100003901000098
:1000800039010000C50200003901000039010000FB
:10009000E5020000390100003901000039010000CB
:1000A00039010000390100000000000000000000DC
:1000B0000000000000000000000000000000000040
:1000C0000348854600F042F8004800473108000028
:1000D00090080020401E00BF00BF00BF00BF00BF4F
:1000E00000BF00BF00BF00BF00BF00BF00BFF1D115
:1000F00070470000401E00BF00BF00BF00BF00BF30
:1001000000BF00BF00BF00BF00BF00BF00BFF1D1F4
:10011000704700000321094802680A43026008484A
:1001200002680A4302600748804707480047FEE725
:10013000FEE7FEE7FEE7FEE7FEE7000024050040DD
:1001400054050040ED020000C1000000064C0125EE
:10015000064E05E0E36807CC2B430C3C984710346F
:10016000B442F7D3FFF7B0FFF40C0000140D000009
:10017000F0B50025FF248BB0013401262F460195F0
:10018000204600F06BFC002808D047484068304209
:1001900004D046480021201835430160241D760014
:1001A0007F1CA4B2042FEBD3FF207D3000F056FC5F
:1001B000002807D03E4800210160400705433D4824
:1001C000006901903C4C280712D0012700262F42DD
:1001D0000AD03A48B200111808690969C004C00E73
:1001E0008903A258890F90477F00761C042EEED316
:1001F000002D57DA00200590401E4DE0A119403136
:1002000008788506AD0E42B2521C39D00121A940B2
:10021000089A0091114233D080090390284600F0DB
:100220007DF9800020580490002802D1039803280B
:1002300026D103980099032802D105980843059018
:100240001F4AA80080180068019A8003800F11429D
:1002500002D0022802D013E0032811D10399032908
:1002600007D102281CD00221284600F0E7FB7F1CA2
:10027000FFB20498002803D0049A284603999047B7
:10028000761C042EBAD3002F0CD00A4800690199BD
:10029000884207D00190059800273E460890ADE7B8
:1002A0000321E1E70BB0F0BD0063004000600040B7
:1002B0007C610040000500503C00002000650040CB
:1002C0000007005010B506490020086048608860AB
:1002D000C860034940390860486000F0C3FC10BDA5
:1002E0004011014010B500F053FC10BD10B500F0F6
:1002F00091F9002805D01F491D484860C8131E49C0
:1003000088611E48018CC9B201290BD1828C120769
:1003100008D1028D1206120F042A03D1828D120613
:10032000120F0AD0012921D1818C09071ED1018D1C
:100330000906090F0A2904D007E0114A012191603A
:10034000F5E7828D1206120F05D00D290ED1808D92
:100350000006000F0AD10B480168012904D00A49A0
:10036000016001680129FCD1C021416110BD00007C
:10037000DFFF07C000050040006C0040C00F00F028
:100380000006004000EC064075930000F8B50E4CE6
:1003900004270025BE03A8003146A940FF304130A4
:1003A0002258002A0BD003221202A21852680A42D5
:1003B00005D000212150054A5168126890476D1CF4
:1003C000EDB2BD42E7D3F8BD0090004084000020AC
:1003D00002E008C8121F08C1002AFAD1704770470E
:1003E000002001E001C1121F002AFBD1704700006C
:1003F000084C0020A060E0607D26F60017253046FE
:1004000000F040FA616828468843A0602940E16016
:10041000F5E70000000500500EB5002102900091A4
:100420006A4601910148FFF7E3FF0EBD014000005D
:10043000FF38412808D105494878002801D1022019
:100440000870886849680847704700000C00002061
:1004500010B5054A0021054800F092FA002802D1A3
:10046000034A0121117010BD31040000EC0C0000A2
:100470000C000020FFB581B00F00054606D0012D0D
:1004800006D0002D06D0072005B0F0BD0E20FBE7FA
:10049000012601E0FF260136164C2078002802D004
:1004A000032802D007E00820EEE700F027F8002834
:1004B00001D0FFF7B1FF2078022802D10E4800F0EA
:1004C0001FFA657067600498A060012000903346B1
:1004D00000210948039A00F03BFA207802280648D8
:1004E00005D000F027FA032020700020CCE700F0B0
:1004F000A1FAF8E70C000020EC0C000010B5054C48
:100500002078032804D1044800F090FA02202070DB
:10051000002010BD0C000020EC0C0000024909185E
:1005200020200856704700003C000020F8B5234802
:10053000C16800293ED00E6821494C680769C0781F
:10054000E11B0D022D0AED1C002814D101201D4ACB
:10055000000450601B4A403A50601B49400008604C
:100560001A4908601A49012008602F20FFF7C2FDD0
:1005700012490120C870B54200D23546E819000280
:100580000F4B000A403318600D4A5168001B091BCD
:100590000902090A0002000AC91C814209D95068EF
:1005A00018602F20FFF7A6FD01200749400480397D
:1005B0000860F8BD00F05CFAF8BD000018000020EB
:1005C000001501404013014080E200E000E100E03E
:1005D0000010014010B50E4900234A788C78A242E1
:1005E00012D0521CD2B24A70022A00D14B704A7803
:1005F000074B920018339A580260086910180002DD
:10060000000A0861012010BD0360002010BD000039
:10061000180000201048018CC9B2012917D1818C23
:10062000090714D1018D09060A0F03D1828D120624
:10063000120F0ED0090F012903D1828D1206120F5D
:1006400007D0032903D1808D0006000F01D00020C0
:100650007047012070470000C00F00F010B50C4A31
:100660000C4653680146994391601840D060094890
:10067000282141600A2181600023074A074920465A
:10068000FFF7F8FE002801D0FFF7C6FE10BD0000FE
:10069000000500500000002050C30000E50A0000E3
:1006A000F8B52C49C8680A690C780F7989688646BC
:1006B000944600913EE00099E20055182A7836E011
:1006C000182353436968521CC918AB78D2B29342BD
:1006D00000D100220B78022B02D0032B27D123E07C
:1006E0004E680346014603E0B14204D00B46C96997
:1006F00000291CD0F8E7002919D08B4208D1C06925
:10070000002805D1144F0126BE600026B4460127FB
:100710000E68C969D961002909D00B689B190B6063
:1007200005E00174C06900E000210028F9D1697872
:100730009142C5D12146641EE4B20029BBD10549CE
:1007400062460A61C8600F71704501D00120F8BD92
:100750000020F8BD1800002000100140F8B5044644
:1007600031480026C168009107784EE02E48F90014
:1007700080680D1843E0002C02D02046E4691FE099
:100780002878182141436A68401CC0B2511828706B
:10079000AA78904200D12E700A784868012A30D198
:1007A000027C002A2DD18A684260CA6882600A6988
:1007B000C260496981611C490979002900D04660FD
:1007C000194943680A699C46991A0902174B090A94
:1007D000994202D28268891807E06146511A0902DB
:1007E0008268090A8A4202D9511A016000E0066053
:1007F0004660012186600174C66100F013FA002C86
:10080000B9D1287869788842BAD138467F1EFFB2BC
:100810000028ABD10448C1680098814201D0012072
:10082000F8BD0020F8BD000018000020FFFF7F0089
:10083000FFF70EFE002801D0FFF7EEFD002001219A
:100840000E4C034603220D4685406D02AD0F02D0CB
:1008500085002D192A60401C2028F4D30321084864
:100860004905C16083607D20C00000F00BF80020C6
:1008700000F020F920BF40BF20BFFBE70007005079
:100880000005005031B5054C04E0401E00902046A4
:10089000FFF720FC00980028F7D138BDE7030000DF
:1008A0008207D30EFF229A408907090E10B599409E
:1008B00000280BDA03071B0F083B9C080C4BA40015
:1008C000E318DC6994430C43DC6107E08408094BBE
:1008D000A400E418236893430B432360C106C90EA8
:1008E00001208840044908600449086010BD0000E8
:1008F00000ED00E000E400E080E200E000E100E064
:1009000000680121C160704770B5012424048C4047
:10091000032605683602AD19002B01D06C6000E09B
:10092000AC600068890008180521090240180264BB
:1009300070BD0000016801220A6000790C2250435A
:10094000024A0221801801727047000084000020D2
:10095000F0B5FF25023504688D40FF34FF340234C2
:10096000059E2768AF4327600468FF34FF340234D4
:1009700025681D4325603346FFF7C6FFF0BD000024
:1009800070B504460D4600790C21264B4143CE1824
:10099000317A002901D0082070BD002A02D0002D34
:1009A00002D004E0072070BD1F49C0004518326026
:1009B000686870600020034606E08100FF3122680D
:1009C00041315350401CC0B261798142F5D8206852
:1009D000E978000B40B2FFF763FF052021680002B1
:1009E00009186A784B68D2075B085B00D20F134383
:1009F0004B602268A9781218936889079B089B00AE
:100A0000890F0B43936021682A780818016912073F
:100A100009090901120F1143016101203072002000
:100A200070BD000084000020E40C0000006801217B
:100A300041607047006801210160704782000648EC
:100A40001018026803231B049A4302600268090419
:100A50000A43026070470000000700500349401835
:100A60000068012800D000207047000000600040AE
:100A700070B501240B49600408600B494010886080
:100A8000094940398860094D6C602F20FFF732FB1F
:100A9000AC60074D00242F202C61FFF72BFBEC707E
:100AA00070BD000080E100E04013014000100140F3
:100AB0001800002010B50A4908700878002805D0F1
:100AC000012807D00878FFF7A7FC10BD00210120FE
:100AD000400501E001218805FFF7C0FD10BD0000C1
:100AE0000000002010B5264803780A222549002B73
:100AF00003D0012B1FD0007818E043685B1E4360D1
:100B000017D083685B1E836008D182604868012229
:100B10005205134683438B601040C86000231A4A75
:100B20001A491846FFF7A6FC002801D0FFF774FC0D
:100B300010BD012021E043685B1E43600DD0836837
:100B40005B1E8360F4D182604868012292051346DF
:100B500083438B601040C86010BD03204005C8600F
:100B600000208860FFF7CAFC002801D0FFF754FC82
:100B70007D20C000FFF786FE0020FFF79BFF10BD21
:100B8000000000200005005050C30000E50A0000EE
:100B9000FEB51F4C00252769E06802906846FFF704
:100BA00019FD0190FFF77CFD06460198002822D030
:100BB00000230098E16817E00E680A46864202D9D1
:100BC000301A086012E0801BF31800261660D66801
:100BD000D169B446002E07D0FE183602360A566098
:100BE00066469660D56115460029E5D12846E16044
:100BF000FFF7B4FD06E02846FFF7B0FD002801D15D
:100C0000002E02D00298FFF791FC00202071FEBD5B
:100C1000180000200120024900050860704700000C
:100C200000E200E010B50E4BD968002906D002683A
:100C30000C68A24204D8A21A0A60C161D86010BD33
:100C40000B4604E00B46C969121B002904D00C684E
:100C50009442F7D3A41A0C600260C161D86110BD40
:100C600018000020F8B51D4DEC68002C34D01C484D
:100C7000002740682969401A0602360A2068B042F7
:100C800018D8361AC7192246107CE46900280FD0FC
:100C9000002010746B69002B07D091695069984748
:100CA000002805D0FFF7B8FB02E05169906988473A
:100CB000002CE3D16978A878814206D1401CC0B2EB
:100CC000A870022801D10020A87004490006800DF8
:100CD00018310F50FFF79EFFF8BD000018000020EC
:100CE00000150140040000030000000000900040D7
:100CF00000040000140D0000000000203C00000073
:100D0000D0030000500D00003C00002054080000FB
:100D1000E0030000000000000000000000000000F0
:100D200000000000000000000000000000000000C3
:100D300000000000000000000000000000000000B3
:100D40000000000000000000000000000024F4008B
:04000005000000C136
:00000001FF
