:020000040000FA
:10000000A0200020050500000D0500000F050000E0
:100010001105000013050000150500000000000098
:1000200000000000000000000000000017050000B4
:1000300019050000000000001B0500001D05000060
:100040001F0500001F0500001F0500001F05000020
:100050001F0500001F0500004D0500001F050000E2
:100060001F0500006D0900001F0500001F050000AE
:100070001F0500001F0500001F0500001F050000F0
:100080001F050000D90600001F0500001F05000025
:10009000FD0600001F0500001F0500001F050000F1
:1000A0001F0500001F0500001F0500001F050000C0
:1000B0001F0500001F0500000000000000000000F8
:1000C0001F0500001F0500001F0500001F050000A0
:1000D0001F0500001F0500001F05000000000000B4
:1000E0000000000000000000000000000000000010
:1000F0000000000000000000000000000000000000
:1001000000000000000000000000000000000000EF
:1001100000000000000000000000000000000000DF
:10040000DFF80CD000F090F800480047CD0D000058
:10041000A0200020401E00BF00BF00BF00BF00BFE3
:1004200000BF00BF00BF00BF00BF00BF00BF00BFD4
:1004300000BF00BF00BF00BF00BF00BF00BF00BFC4
:1004400000BF00BF00BF00BF00BF00BF00BF00BFB4
:1004500000BF00BF00BF00BF00BF00BF00BF00BFA4
:1004600000BF00BF00BF00BF00BF00BF00BF00BF94
:1004700000BF00BF00BF00BF00BF00BF00BF00BF84
:1004800000BF00BF00BFC5D170470000401E00BFC5
:1004900000BF00BF00BF00BF00BF00BF00BF00BF64
:1004A00000BF00BF00BF00BF00BF00BF00BF00BF54
:1004B00000BF00BF00BF00BF00BF00BF00BF00BF44
:1004C00000BF00BF00BF00BF00BF00BF00BF00BF34
:1004D00000BF00BF00BF00BF00BF00BF00BF00BF24
:1004E00000BF00BF00BF00BF00BF00BF00BF00BF14
:1004F00000BF00BF00BF00BF00BF00BF00BFC5D12D
:10050000704700000648804706480047FEE7FEE7C0
:10051000FEE7FEE7FEE7FEE7FEE7FEE7FEE7FEE7B3
:100520000107000001040000064C074D06E0E068EA
:1005300040F0010394E8070098471034AC42F6D32A
:10054000FFF762FF40120000601200002DE9FC5F1F
:100550000025DFF83491A8464FF4807601242F4619
:10056000304600F02FFD38B1D9F80403204203D003
:10057000304600F01DFD2543361D64007F1CB6B2D9
:10058000082FEDD34FF4BE74204600F01BFD38B1A8
:10059000204600F00DFD3D4845F00045D0F80080B4
:1005A0003B4E15F0FF0F14D0012700242F420CD032
:1005B00009EB8401D1F81005D1F81015C0F304201F
:1005C00056F82420C1F3014190477F00641C082C99
:1005D000ECD3002D56DA00200190401E4CE070193B
:1005E00010F8501F90F9000021F0C004401C38D0D2
:1005F000012000FA04FA1AEA090F32D04FEA911BDF
:10060000204600F07BFA56F82000009010B9BBF1AC
:10061000030F26D15146BBF1030F02D101980843C5
:100620000190A00000F1A040D0F800071AEA080FDE
:10063000C0F3014002D0022802D012E0032810D1FA
:10064000BBF1030F07D102281AD00221204600F087
:10065000A1FC7F1CFFB2009818B1009A59462046B1
:1006600090476D1C042DBAD3002F0BD007480068AB
:10067000404507D080460198002781463D46AEE7B9
:100680000321E3E7BDE8FC9F006000401005005037
:100690003C00002000F01F02012191404009800031
:1006A00000F1E020C0F88012704700F01F02012125
:1006B00091404009800000F1E020C0F8001170472F
:1006C00000F01F02012191404009800000F1E0206C
:1006D000C0F800127047000007480021C0F8401120
:1006E000C0F84411C0F84811C0F84C11C0F800110E
:1006F000C0F8041100F05ABD0010014000F0F2BC37
:1007000070B58D480023021D0178101D01240629B3
:1007100007D115782D0704D10578C5F30315032DEE
:1007200002D0062904D00FE0854E844D75670EE097
:1007300015782D0708D10578C5F30315032D06D0CC
:10074000042D04D0052D02D0062909D010E04FF069
:100750008055D5F844527B4EC5F34235356002E0F2
:1007600015782D0704D10578C5F30315032D02D0A4
:10077000062906D011E0744D2E6826F080762E6092
:100780000EE015782D0708D10578C5F30315032D64
:1007900006D0042D04D0052D02D006290AD011E080
:1007A0004FF08045C5F80C31C5F81031654D2D1F4F
:1007B0002B6002E015782D0704D10578C5F30315E9
:1007C000032D02D0062905D00CE05E4A03216432D5
:1007D00011600AE015782D0704D10578C5F30315DB
:1007E000032D02D006290DD06AE0584A0521116078
:1007F000564978310C60554908310B603F21121D74
:10080000116002E0117809075AD10078C0F3031093
:10081000052855D14E4800684E4908604C48001DD7
:100820000068091D08604A4808300068091D086012
:1008300047480C300068091D0860454810300068C2
:10084000091D0860424814300068091D08604048CE
:10085000183000683F49203108603D481C3000686E
:10086000091D08603A4820300068091D08603848B2
:1008700024300068091D0860354828300068091DCB
:10088000086033482C300068091D0860304830305B
:1008900000683049403108602D4834300068091D37
:1008A00008602B4838300068091D086028483C3033
:1008B0000068091D0860264840300068091D08606E
:1008C00021487438016841F470010160BFF34F8F13
:1008D000BFF36F8F4FF01021D1F80002002803DB27
:1008E000D1F80402002822DA1B4A14601B4804686D
:1008F000002CFCD01524C1F800420568002DFCD066
:10090000C1F8044201680029FCD013600168002985
:10091000FCD0BFF34F8F0C48F0380168104A01F447
:10092000E06111430160BFF34F8F00BFFDE70E4947
:100930000C48086070BD0000E00F00F00DF0ADBA8B
:1009400000C007403C050040FCED00E010560040B0
:100950000404001020C5004004E5014000E401400B
:100960000400FA050090D003380000202DE9F0477C
:1009700000250E4C04274FF4A078BE034FEA05096A
:1009800008EB850006FA05F122584AB1D4F8042391
:100990000A4205D044F80090054A51681268904711
:1009A0006D1CEDB2BD42EBD3BDE8F0870090004076
:1009B0009400002002E008C8121F08C1002AFAD1E2
:1009C00070477047002001E001C1121F002AFBD1CF
:1009D00070470000094C00202060251D2860271F5B
:1009E0004FF47A781326404600F01AFA386826EA5F
:1009F0000001216000F013002860F4E708050050B2
:100A00000EB500210091CDE901106A4644F20100C3
:100A1000FFF7E0FF0EBD0000B0F5A07F07D104494D
:100A2000487808B902200870886849680847704704
:100A30000C00002010B5054A0021054800F052FACC
:100A4000002802D1034A0121117010BD190A0000CB
:100A5000381200000C0000202DE9F843984691461A
:100A60000F00054605D0012D05D035B10720BDE8A2
:100A7000F8830E20FBE7012601E04FF48076154C49
:100A8000207810B1032802D006E00820EFE700F03C
:100A900025F808B1FFF7B4FF2078022802D10E48EC
:100AA00000F0E7F96570C4E9017801200090334651
:100AB0004A460021084800F0FFF92078022806483D
:100AC00005D000F0EBF9032020700020CFE700F004
:100AD0005DFAF8E70C0000203812000010B5054C54
:100AE0002078032804D1044800F04CFA022020703A
:100AF000002010BD0C0000203812000002490844FC
:100B000090F93000704700003C0000202DE9F05FB4
:100B10002648C168F1B3DFF898B00E688146DBF86B
:100B200000400769C078E11B21F07F45ED1CB0B99A
:100B3000DFF880804FF48030C8F84403C8F804031D
:100B40001120FFF7A7FD1120FFF7AFFD4FF0010ABD
:100B5000C8F800A02F20FFF799FC89F803A0B54240
:100B600000D23546124BE8193C3320F07F40186024
:100B7000DBF800105A46091B21F07F41001B20F0D2
:100B80007F40C91C81420FD9106818602F20FFF7E1
:100B90007DFC00E004E0BDE8F05F1120FFF790BDB0
:100BA000BDE8F05F00F016BABDE8F09F1800002025
:100BB00004150140001001400E4910B54A788C78A8
:100BC0000023A24212D0521CD2B24A70022A00D193
:100BD0004B70084A4B78183252F82320026008699B
:100BE000104420F07F400861012010BD0360002008
:100BF00010BD00001800002010B50C460E490A6810
:100C00000D4B20EA02011B1D19601040191D0860E0
:100C10000A48282141600A21816000234CF25032A9
:100C200007492046FFF718FF002803D0BDE8104011
:100C3000FFF7E6BE10BD00000405005000000020D4
:100C4000391000002DE9F047DFF8ACA0DAF80C000D
:100C50009AF8004080469AF80460DAF80890DAF8CA
:100C600010703AE009EBC4052A7833E002EB420148
:100C70006B68521C03EBC101AB78D2B2934200D136
:100C800000220B78022B02D0032B23D11FE0D1F8D6
:100C900004C00346014603E0614503D00B46C96921
:100CA000C1B1F9E7B1B18B4205D1C06918B9134F91
:100CB0000126BE600027D1F800C0C969D96149B1D9
:100CC0000B6863440B6005E00174C06900E000211B
:100CD0000028F9D169789142C8D1641EE4B2C1D22A
:100CE000CAE903078AF80460404502D00120BDE844
:100CF000F0870020FBE700001800002000100140F2
:100D00002DE9F04705462F48002680460778D0F8A1
:100D10000C904BE0D8F8080000EBC70440E002D08C
:100D20002846ED691EE02078616800EB4002401C17
:100D3000C0B201EBC2012070A278904200D12670AF
:100D40000A784868012A2DD1027C5ABB8A68426021
:100D5000CA6882600A69C2604969816198F80410B2
:100D600001B146604268D8F81030DFF85CC0D11A93
:100D700021F07F41614502D28268114406E0991A50
:100D8000826821F07F418A4202D9511A016000E055
:100D900006604660012186600174C66100F0E8F9D2
:100DA000002DBCD1207861788842BCD17F1EFFB273
:100DB000B0D2D8F80C10494502D00120BDE8F08728
:100DC0000020FBE718000020FFFF7F00FFF732FE46
:100DD00008B1FFF715FE00200122032102FA00F3FB
:100DE00013F4C02F04D0830003F1A043C3F800170D
:100DF000401C2028F2D309494FF4C020086000208D
:100E0000091F08604FF47A7000F00AF8002000F023
:100E1000FFF820BF40BF20BFFBE700000C050050DB
:100E200031B540F2E73404E0401E00902046FFF761
:100E3000F1FA00980028F7D138BD4907090E0028BB
:100E400006DA00F00F0202F1E02282F8141D03E03E
:100E500000F1E02282F8001400F01F02012191400D
:100E60004009800000F1E020C0F88012C0F80011B5
:100E7000704700680121C160704730B54FF480347D
:100E800005688C4013B1C5F8044301E0C5F8084378
:100E9000006800EB8100C0F8402530BD01680122E8
:100EA0000A600079034A00EB400002EB8000022157
:100EB0000172704794000020F0B40468049E40F270
:100EC0000115D4F800728D40AF43C4F80072046875
:100ED000D4F800521D43C4F800523346F0BCFFF76B
:100EE000CCBF00002DE9F041044600790D46234BAC
:100EF00000EB400103EB8106317A11B10820BDE817
:100F0000F0810AB115B104E00720F8E71C4901EBB4
:100F1000C005326068687060002003464FF4A07717
:100F200006E000BF226807EB80015350401CC0B2AE
:100F300061798142F6D82068E978000B40B2FFF76A
:100F40007CFF20686978D0F8042561F30102C0F8BD
:100F500004252068A978D0F8082561F30102C0F8BB
:100F6000082520682978D0F8102561F30302C0F81D
:100F70001025012030720020C1E7000094000020FD
:100F800030120000006801214160704700680121B3
:100F900001607047800000F5E06000F1A040026849
:100FA00022F440320260026842EA01410160704767
:100FB000034908B50844002101600068009008BD9D
:100FC0000060004002494058012800D000207047CE
:100FD0000060004070B5012670044FF0E02100254C
:100FE000C1F88001084C4010C4F84803C4F8080355
:100FF00066602F20FFF74AFAA660044C2F20256177
:10100000FFF744FAE57070BD0010014018000020A1
:1010100008490870087820B1012806D00878FFF741
:10102000EFBC00214FF4003001E001218804FFF7FC
:10103000E3BD00000000002070B528480578284C6A
:101040000A23221D111D1DB1012D22D000781AE0A6
:1010500045686D1E45601AD085686D1E856008D193
:10106000836020684FF400338343136000F4003042
:10107000086000234CF25032AFF243011846FFF7EC
:10108000EBFC002816D0BDE87040FFF7B9BC01208A
:1010900020E045686D1E45600DD085686D1E856039
:1010A00008D1836020684FF480238343136000F4E9
:1010B0008020086070BD4FF4C020086000201060E0
:1010C000FFF70CFD08B1FFF79BFC4FF47A70FFF7B8
:1010D000A7FE0020BDE87040FFF79ABF0000002087
:1010E000040500502DE9F84F204C00256846D4E94E
:1010F00003B6FFF761FD8046FFF7A4FD0746A9464A
:10110000B8F1000F25D00023009ACC46E06819E022
:1011100007680146974202D9BA1A026014E0C1F882
:1011200000C0D1F80C80D21BC8693B448A46B8F194
:10113000000F07D0F71827F07F47C1E90178CAF8F8
:101140001C500D460028E3D1E0602846FFF7D8FD8B
:1011500004E02846FFF7D4FD00B917B15846FFF761
:10116000D5FC84F80490BDE8F88F0000180000203A
:101170000D4B10B5D96831B102680C68A24204D891
:10118000A21A0A60C161D86010BD0B4603E00B468D
:10119000C969121B21B10C689442F8D3A41A0C60DF
:1011A0000260C161D86110BD180000202DE9F04136
:1011B0001D4DEC68002C35D01C48002700682969BB
:1011C000B846401A20F07F462068B04215D8224623
:1011D000361A0744E469107C68B182F810806B69A4
:1011E00033B1D2E90501984728B1FFF709FC02E0C5
:1011F000D2E905108847002CE6D16978A8788142A9
:1012000006D1401CC0B2A870022801D185F8028026
:101210000548A978183040F82170BDE8F041142045
:10122000FFF74EBABDE8F081180000200415014018
:1012300004000006000000000090004000040000D0
:1012400060120000000000203C000000B409000013
:101250009C1200003C00002064200000C409000033
:10126000000000000000000000000000000000007E
:10127000000000000000000000000000000000006E
:10128000000000000000000000000000000000005E
:0C12900000000000000000000090D003EF
:0400000500000401F2
:00000001FF
