:020000040000FA
:1000000080220020050500000D0500000F050000FE
:100010001105000013050000150500000000000098
:1000200000000000000000000000000017050000B4
:1000300019050000000000001B0500001D05000060
:10004000B10500001F0500001F0500001F0500008E
:100050001F0500001F0500001F0500001F05000010
:100060001F0500001F0500001F0500001F05000000
:100070001F0500001F0500001F0500001F050000F0
:100080001F050000110600001F0500001F050000ED
:10009000350600001F0500001F0500001F050000B9
:1000A0001F0500001F0500001F0500001F050000C0
:1000B0001F0500001F0500000000000000000000F8
:1000C0001F0500001F0500001F0500001F050000A0
:1000D0001F0500001F0500001F05000000000000B4
:1000E0000000000000000000000000000000000010
:1000F0000000000000000000000000000000000000
:1001000000000000000000000000000000000000EF
:1001100000000000000000000000000000000000DF
:10040000DFF80CD000F090F800480047A10E000083
:1004100080220020401E00BF00BF00BF00BF00BF01
:1004200000BF00BF00BF00BF00BF00BF00BF00BFD4
:1004300000BF00BF00BF00BF00BF00BF00BF00BFC4
:1004400000BF00BF00BF00BF00BF00BF00BF00BFB4
:1004500000BF00BF00BF00BF00BF00BF00BF00BFA4
:1004600000BF00BF00BF00BF00BF00BF00BF00BF94
:1004700000BF00BF00BF00BF00BF00BF00BF00BF84
:1004800000BF00BF00BFC5D170470000401E00BFC5
:1004900000BF00BF00BF00BF00BF00BF00BF00BF64
:1004A00000BF00BF00BF00BF00BF00BF00BF00BF54
:1004B00000BF00BF00BF00BF00BF00BF00BF00BF44
:1004C00000BF00BF00BF00BF00BF00BF00BF00BF34
:1004D00000BF00BF00BF00BF00BF00BF00BF00BF24
:1004E00000BF00BF00BF00BF00BF00BF00BF00BF14
:1004F00000BF00BF00BF00BF00BF00BF00BFC5D12D
:10050000704700000648804706480047FEE7FEE7C0
:10051000FEE7FEE7FEE7FEE7FEE7FEE7FEE7FEE7B3
:100520003906000001040000064C074D06E0E068B3
:1005300040F0010394E8070098471034AC42F6D32A
:10054000FFF762FFEC1200000C13000000F01F0226
:10055000012191404009800000F1E020C0F88012A4
:10056000704700F01F02012191404009800000F116
:10057000E020C0F80011704700F01F0201219140F7
:100580004009800000F1E020C0F8001270474907E0
:10059000090E002806DA00F00F0000F1E02080F8D4
:1005A000141D704700F1E02080F80014704700002F
:1005B0002DE9F0414FF48077384600F0A7FC012484
:1005C000124EA50750B1384600F0A7FC0120C5F82F
:1005D000080374720021301D00F042FA4FF4827754
:1005E000384600F093FC00280DD0384600F095FC0A
:1005F0000220C5F80803B472BDE8F04103480121A8
:10060000103000F02DBABDE8F08100006C0200202F
:1006100007480021C0F84011C0F84411C0F8481143
:10062000C0F84C11C0F80011C0F8041100F0E2BD90
:100630000010014000F07ABD70B58D480023021D06
:100640000178101D0124062907D115782D0704D142
:100650000578C5F30315032D02D0062904D00FE059
:10066000854E844D75670EE015782D0708D1057805
:10067000C5F30315032D06D0042D04D0052D02D09B
:10068000062909D010E04FF08055D5F844527B4E32
:10069000C5F34235356002E015782D0704D10578A1
:1006A000C5F30315032D02D0062906D011E0744DC1
:1006B0002E6826F080762E600EE015782D0708D182
:1006C0000578C5F30315032D06D0042D04D0052DA0
:1006D00002D006290AD011E04FF08045C5F80C3150
:1006E000C5F81031654D2D1F2B6002E015782D07E0
:1006F00004D10578C5F30315032D02D0062905D0D2
:100700000CE05E4A0321643211600AE015782D077F
:1007100004D10578C5F30315032D02D006290DD0A9
:100720006AE0584A05211160564978310C605549F4
:1007300008310B603F21121D116002E0117809079A
:100740005AD10078C0F30310052855D14E480068EF
:100750004E4908604C48001D0068091D08604A4861
:1007600008300068091D086047480C300068091D02
:100770000860454810300068091D08604248143080
:100780000068091D08604048183000683F49203162
:1007900008603D481C300068091D08603A48203058
:1007A0000068091D0860384824300068091D086089
:1007B000354828300068091D086033482C3000682F
:1007C000091D086030483030006830494031086009
:1007D0002D4834300068091D08602B483830006807
:1007E000091D086028483C300068091D086026483B
:1007F00040300068091D086021487438016841F4E0
:1008000070010160BFF34F8FBFF36F8F4FF0102166
:10081000D1F80002002803DBD1F80402002822DA14
:100820001B4A14601B480468002CFCD01524C1F836
:1008300000420568002DFCD0C1F80442016800297F
:10084000FCD0136001680029FCD0BFF34F8F0C4827
:10085000F0380168104A01F4E06111430160BFF310
:100860004F8F00BFFDE70E490C48086070BD0000C7
:10087000E00F00F00DF0ADBA00C007403C050040AD
:10088000FCED00E0105600400404001020C50040BC
:1008900004E5014000E401400400FA050090D003A3
:1008A0002800002002E008C8121F08C1002AFAD15F
:1008B00070477047002001E001C1121F002AFBD1E0
:1008C00070470000BFF34F8F05480168054A01F4E7
:1008D000E06111430160BFF34F8F00BFFDE70000EF
:1008E0000CED00E00400FA050EB500210091CDE901
:1008F00001106A4644F20100FFF7E4FF0EBD00005C
:10090000074B9B6823B12AB120B10068037C1BB15F
:1009100008207047072070474174426100207047EB
:10092000040000202DE9F0478046994614460F4602
:1009300090074FF0000634D11C4D8CB300F0D8FB6B
:100940000320C5F81490287004F11800002107EB6B
:100950004703AC6004EBC102491C167056709770D7
:10096000506000EBC3000329F4DBEE606E70AE70E4
:100970001420FFF7EBFD06211420FFF708FE1420DA
:10098000FFF7EFFD0A49C1F8008006211120FFF7AB
:10099000FEFD0748001F006828610020BDE8F087C1
:1009A00001E00720FAE7AE60FBE70000040000204A
:1009B000081501402DE9F843DFF870900D46174601
:1009C000D9F80810044651B34CB3052D02D20720C4
:1009D000BDE8F883606910B3607C012821D000264F
:1009E00000F04AFCD9F80810804601EBC8006946BF
:1009F00000F061FCB8B1012100F8041B0C4910C0E3
:100A0000096880E8E200D9F8081001EBC8009DF8F9
:100A1000001041701420FFF7AFFD0020D8E7082038
:100A2000D6E72E46DCE70420D2E7000004000020D1
:100A30000415014000F002B800F008B872B6024890
:100A40000168491C016070472400002003490868C0
:100A5000401E086000D162B67047000024000020EC
:100A600070B50D4604462068002805D00168216055
:100A7000416828468847F6E770BD00002DE9F05F21
:100A80002648C168F1B3DFF898B00E688146DBF8FC
:100A900000400769C078E11B21F07F45ED1CB0B92B
:100AA000DFF880804FF48030C8F84403C8F80403AE
:100AB0001120FFF74BFD1120FFF753FD4FF0010A06
:100AC000C8F800A02F20FFF7E1FC89F803A0B54289
:100AD00000D23546124BE8193C3320F07F401860B5
:100AE000DBF800105A46091B21F07F41001B20F063
:100AF0007F40C91C81420FD9106818602F20FFF772
:100B0000C5FC00E004E0BDE8F05F1120FFF734BD54
:100B1000BDE8F05F00F0ECBABDE8F09F04000020F3
:100B200004150140001001400E4910B54A788C7838
:100B30000023A24212D0521CD2B24A70022A00D123
:100B40004B70084A4B78183252F82320026008692B
:100B5000104420F07F400861012010BD0360002098
:100B600010BD00000400002002680A60002A016035
:100B7000704700000278C1680AB1044A01E0034AE4
:100B8000121F116000214170704700000C050050D9
:100B90000278C1680AB1044A01E0034A121D1160DB
:100BA0000121417070470000080500502DE9F04711
:100BB000DFF8ACA0DAF80C009AF8004080469AF80A
:100BC0000460DAF80890DAF810703AE009EBC4052E
:100BD0002A7833E002EB42016B68521C03EBC1013F
:100BE000AB78D2B2934200D100220B78022B02D014
:100BF000032B23D11FE0D1F804C00346014603E0D4
:100C0000614503D00B46C969C1B1F9E7B1B18B4267
:100C100005D1C06918B9134F0126BE600027D1F86D
:100C200000C0C969D96149B10B6863440B6005E034
:100C30000174C06900E000210028F9D1697891426F
:100C4000C8D1641EE4B2C1D2CAE903078AF80460BD
:100C5000404502D00120BDE8F0870020FBE70000FE
:100C600004000020001001402DE9F04705462F4800
:100C7000002680460778D0F80C904BE0D8F80800A2
:100C800000EBC70440E002D02846ED691EE0207862
:100C9000616800EB4002401CC0B201EBC201207051
:100CA000A278904200D126700A784868012A2DD196
:100CB000027C5ABB8A684260CA6882600A69C26064
:100CC0004969816198F8041001B146604268D8F81A
:100CD0001030DFF85CC0D11A21F07F41614502D2AB
:100CE0008268114406E0991A826821F07F418A42A5
:100CF00002D9511A016000E0066046600121866059
:100D00000174C66100F058FA002DBCD120786178DA
:100D10008842BCD17F1EFFB2B0D2D8F80C10494532
:100D200002D00120BDE8F0870020FBE7040000208E
:100D3000FFFF7F003EB500248DF80040DC208DF8D9
:100D400001004FF40030019030480290304A69466B
:100D5000304800F069F808B1FFF7C6FD14212D48AE
:100D600000F05AF808B1FFF7BFFD8DF80040C82029
:100D70008DF801004FF4802001902448244A001D82
:100D8000029024486946203000F04EF808B1FFF781
:100D9000ABFD20489621203000F03EF808B1FFF767
:100DA000A3FD8DF8004064208DF801004FF4002071
:100DB00001901648164A083002901648694640309D
:100DC00000F032F808B1FFF78FFD124814214030CF
:100DD00000F022F808B1FFF787FD0E48816800F0A7
:100DE0004DF808B1FFF780FD0A482030816800F017
:100DF00045F808B1FFF778FD06484030816800F0FB
:100E00003DF8002801D0FFF76FFD3EBDE012000065
:100E1000091000000C02002082788A4201D20720CB
:100E20007047C1700020704770B582610446087831
:100E30004E6820704868A0604868E0604878A070FC
:100E4000886800250C4A2946E061FFF759FD002813
:100E500011D103204EB1F10704D0A90001F1A04146
:100E6000C1F8000776086D1CF4E72046FFF782FE04
:100E700001202071002070BD6910000070B504468B
:100E8000022020710D462046E160FFF773FE00202E
:100E9000A5602075204600F0E7F8002070BD000036
:100EA00000F050F808B1FFF71FFD002000F064F8D3
:100EB0000023144A04211846FFF734FD08B1FFF758
:100EC00013FDFFF737FF104C4FF4FA75A078E17867
:100ED000401AC1B20C48FFF79FFF08B1FFF704FDAD
:100EE000284600F022F8A078E178401AC1B20648FE
:100EF000FFF792FF08B1FFF7F7FC284600F015F85E
:100F0000E4E700008C0000204C02002000F180404B
:100F10000068002800D00120704708B500F180402B
:100F2000002101600068009008BD31B540F2E7344F
:100F300004E0401E00902046FFF76CFA009800285D
:100F4000F7D138BD70B50A4C207A08B1852070BD44
:100F5000002565602560074825610126E56006607B
:100F60000621284600F034F82672284670BD00009D
:100F70006C0200201805004070B504460020FFF701
:100F800059FD114DA87A20B1B4B16168012088479C
:100F900012E024B10C4821461030FFF7E5FDE86867
:100FA00050B94FF48270FFF7B8FF02204107C1F833
:100FB0000403064901200860E868401CE860BDE8B9
:100FC00070400020FFF738BD6C0200200800004090
:100FD0004907090E002806DA00F00F0202F1E022AC
:100FE00082F8141D03E000F1E02282F8001400F002
:100FF0001F02012191404009800000F1E020C0F86B
:101000008012C0F80011704770B581680025154C3A
:10101000B1F5003F16D0B1F5802F22D16188491C6F
:1010200089B26180B1F5C87F1BD98178C278891AED
:10103000C9B2FFF7F1FE6580002812D0BDE870400C
:10104000FFF752BC2188491C89B22180B1F5FA7F93
:1010500007D98178C278891AC9B2FFF7DDFE2580E9
:10106000EAE770BD000000202DE9F04101260446AA
:101070000671007D052760B12046FFF77BFD00204B
:101080002075A078E178411A11FB00F007EB2020D1
:101090001BE0A16909B120468847E578A078A842FD
:1010A00003D12046FFF774FD0DE020464DB1FFF758
:1010B0006FFDA07810FB05F007EB1020206126756E
:1010C00004E0FFF757FDA078401D2061207901283A
:1010D0000BD1E069216922460068FFF76BFC00280C
:1010E00003D0BDE8F041FFF7FFBBBDE8F081000091
:1010F00070B5012670044FF0E0210025C1F8800191
:10110000084C4010C4F84803C4F8080366602F2058
:10111000FFF7BCF9A660044C2F202561FFF7B6F954
:10112000E57070BD00100140040000202DE9F84F6B
:10113000204C00256846D4E903B6FFF7F5FC80464D
:10114000FFF734FD0746A946B8F1000F25D000236C
:10115000009ACC46E06819E007680146974202D938
:10116000BA1A026014E0C1F800C0D1F80C80D21B9A
:10117000C8693B448A46B8F1000F07D0F71827F03A
:101180007F47C1E90178CAF81C500D460028E3D119
:10119000E0602846FFF768FD04E02846FFF764FD9D
:1011A00000B917B15846FFF769FC84F80490BDE810
:1011B000F88F0000040000200D4B10B5D96831B144
:1011C00002680C68A24204D8A21A0A60C161D86001
:1011D00010BD0B4603E00B46C969121B21B10C6818
:1011E0009442F8D3A41A0C600260C161D86110BDAA
:1011F000040000202DE9F0411D4DEC68002C35D095
:101200001C48002700682969B846401A20F07F462C
:101210002068B04215D82246361A0744E469107C8B
:1012200068B182F810806B6933B1D2E90501984743
:1012300028B1FFF759FB02E0D2E905108847002CDE
:10124000E6D16978A878814206D1401CC0B2A87066
:10125000022801D185F802800548A978183040F8A5
:101260002170BDE8F0411420FFF786B9BDE8F08198
:101270000400002004150140EFF30580C005C00DF7
:1012800013D0103840B2002806DA00F00F0000F149
:10129000E02090F8140D03E000F1E02090F8000445
:1012A0004009022803D0062803D0022070470020FE
:1012B00070470120704742788378521CD2B2934223
:1012C00000D100220378934201D1002070470A70B8
:1012D0004168407800EB400001EBC000704700001F
:1012E0002C0000204C0000206C0000200C1300009B
:1012F000000000202C000000A408000038130000AB
:101300002C00002054220000B4080000000000005F
:1013100000000000000000000000000000000000CD
:1013200000000000000000000000000000000000BD
:08133000000000000090D00352
:0400000500000401F2
:00000001FF
