:020000021000EC
:10C00000000001207DF50200A5F50200A7F5020061
:10C01000A9F50200ABF50200ADF50200000000003A
:10C020000000000000000000000000001DA602004B
:10C03000B1F5020000000000B3F50200B5F5020002
:10C04000B7F50200B7F502005D060200A5EC01009D
:10C05000B7F50200B7F5020081F401007DEE0200A1
:10C0600005F502001DF5020035F50200B7F50200E6
:10C07000B7F50200B7F50200B7F50200B7F5020008
:10C080002DA7020059D60100B7F50200B7F502004E
:10C0900095D60100B7F502004D840200B7F5020005
:10C0A000B7F50200B7F502004DF5020065F5020094
:10C0B000B7F50200B7F50200000000000000000024
:10C0C000B7F50200B7F50200B7F50200B7F50200B8
:10C0D000B7F50200B7F50200B7F502000000000056
:10C0E0000000000000000000000000000000000050
:10C0F0000000000000000000000000000000000040
:10C10000000000000000000000000000000000002F
:10C11000000000000000000000000000000000001F
:10C4000010B5054C237833B9044B13B10448AFF38E
:10C4100000800123237010BDB02B0020000000001D
:10C42000F4100300084B10B51BB108480849AFF3DE
:10C4300000800848036803B910BD074B002BFBD0F0
:10C44000BDE81040184700BF00000000F4100300D2
:10C45000B42B00206C2B002000000000154B002B9B
:10C4600008BF134B9D46A3F5803A00218B460F462B
:10C470001348144A121A00F065F80F4B002B00D035
:10C4800098470E4B002B00D0984700200021040055
:10C490000D000D48002802D00C48AFF3008000F0DA
:10C4A0002BF82000290007F0C3F900F011F800BFB5
:10C4B0000000080000000120000000000000000053
:10C4C000B02B0020443C00200000000000000000D1
:10C4D00008B5074B044613B10021AFF30080054BAC
:10C4E0001868836A03B19847204600F033F800BF0C
:10C4F00000000000AC0D030070B50E4B0E4CE41AAA
:10C50000A41000251E46A54204D056F825309847B1
:10C510000135F8E714F03CFC084C094BE41AA41070
:10C5200000251E46A54204D056F82530984701350F
:10C53000F8E770BD642B0020642B0020682B0020DE
:10C54000642B002002440346934202D003F8011BEF
:10C55000FAE77047FEE700BF00B589B001900023FD
:10C560008DF81F3052E02E4B1A689DF81F30DB000B
:10C5700013440693069B1B781A46012393400593A8
:10C58000284B1A68059B1340002B3AD0059BDA43D1
:10C59000244B1B681340234A1360069B1B781846E4
:10C5A00002F05EFF03468DF81330069B1B781A4697
:10C5B000012393401A461C4B1B6813409DF813201F
:10C5C000069909788A4093421BD19DF81330069A48
:10C5D0005278012A0CBF01220022D2B293420CBF32
:10C5E00001230023DBB20393069B5B68002B08D07A
:10C5F000069B5B68069A1178039AD2B208461146E8
:10C6000098479DF81F3001338DF81F30074B1B787A
:10C610009DF81F209A42A6D309B05DF804FB00BF25
:10C62000CC2B0020FC2B0020F82B0020D02B00204E
:10C6300000B585B001900B468DF80330019B0122B7
:10C6400002FA03F303931E4B184601F025F90290FA
:10C65000029B002B00D030E01A4B1A68039B13405A
:10C66000002B23D1019802F0FBFE0346002B06D0DD
:10C67000154B1A68039B1343134A136006E0039B90
:10C68000DA43114B1B6813400F4A13600D4B1A68B5
:10C69000039B13430B4A1360094A0C4B1B6810465B
:10C6A0001946002201F0C0F8029006E0039BDA432D
:10C6B000044B1B681340034A136005B05DF804FB8C
:10C6C000D82B0020FC2B0020F82B0020D42B00209E
:10C6D00000B589B003900B4601928DF80B30019B99
:10C6E000042B01D8072352E002F0DEFD034683F05D
:10C6F0000103DBB2002B07D002F096FD0790079BE9
:10C70000002B01D0079B42E0234A039B1360234A7E
:10C710009DF80B301370224A019B1360214B0022BD
:10C720001A60214B00221A6024E09DF80B30DB00D8
:10C73000039A1344069303238DF8143000238DF8D5
:10C74000153000238DF8163000238DF81730069B26
:10C750009B788DF81530069B1B781A4605AB104662
:10C760001946124A02F0ACFD0790079B002B01D03E
:10C77000079B0CE09DF80B305A1E8DF80B20002B08
:10C78000D3D10B4800210B4A01F006F803461846A6
:10C7900009B05DF804FB00BFCC2B0020D02B00209B
:10C7A000D42B0020F82B0020FC2B002031C60100E8
:10C7B000B00D030059C5010000B583B000230193FB
:10C7C0000CE00C4B1A68019BDB0013441B781846E5
:10C7D000012102F0CFFD019B01330193064B1B7831
:10C7E0001A46019B9A42ECD80023184603B05DF824
:10C7F00004FB00BFCC2B0020D02B002000B587B05D
:10C8000001900023ADF80C3000230493019B0593A5
:10C8100003AB44F2010000211A46AFF3008007B0D9
:10C820005DF804FB84B00190019B9B680393019B1E
:10C83000DA68039BD31A184604B0704782B001909F
:10C840000B468DF80330019B1A68019BDB68019948
:10C8500089880B4013449DF803201A70019BDB6804
:10C860005A1C019BDA6002B0704700BF84B003908D
:10C870000B460192ADF80A30039B1A68039B996836
:10C88000BDF80A300B44039989880B4013441A7889
:10C89000019B1A7004B0704700B583B001900091FD
:10C8A00001980021009AFFF7E1FF019B9B685A1C49
:10C8B000019B9A6003B05DF804FB00BF84B0039055
:10C8C00002911346ADF80630029B002B01D10E23D6
:10C8D0001DE0BDF80630002B07D0BDF806305A1E0B
:10C8E000BDF806301340002B01D009230FE0039B55
:10C8F000029A1A60BDF80630013B9AB2039B9A80F7
:10C90000039B00229A60039B0022DA6000231846F2
:10C9100004B0704700B583B001900B468DF803302A
:10C920000198FFF77FFF0246019B9B889A4207D838
:10C930009DF8033001981946FFF780FF002300E0BF
:10C940000423184603B05DF804FB00BF00B583B0B4
:10C95000019000910198FFF765FF0346002B05D079
:10C9600001980099FFF798FF002300E0052318467F
:10C9700003B05DF804FB00BF82B00190019BDA6850
:10C98000019B9A600023184602B0704782B00346AC
:10C990008DF8073007499DF907305B099DF807209E
:10C9A00002F01F02012000FA02F241F8232002B037
:10C9B000704700BF00E100E082B003468DF8073009
:10C9C00007499DF907305B099DF8072002F01F0217
:10C9D000012000FA02F2203341F8232002B0704710
:10C9E00000E100E082B003468DF8073007499DF969
:10C9F00007305B099DF8072002F01F02012000FAB2
:10CA000002F2403341F8232002B0704700E100E019
:10CA100082B003468DF8073007499DF907305B095E
:10CA20009DF8072002F01F02012000FA02F2603395
:10CA300041F8232002B0704700E100E082B00346D5
:10CA400000918DF807309DF90730002B0CDA0C4966
:10CA50009DF8073003F00F03043B009AD2B2520155
:10CA6000D2B20B441A7609E006499DF90730009AC4
:10CA7000D2B25201D2B20B4483F8002302B0704705
:10CA800000ED00E000E100E082B003468DF80730E1
:10CA90009DF90730002B0BDA0B4A9DF8073003F0A5
:10CAA0000F03043B13441B7EDBB25B09DBB208E0DF
:10CAB000064A9DF90730134493F80033DBB25B0953
:10CAC000DBB2184602B0704700ED00E000E100E084
:10CAD00082B00190019B03F00303002B0CBF0123E4
:10CAE0000023DBB2184602B0704700BF00B585B026
:10CAF000EFF305830193019BC3F308030393039BA7
:10CB0000002B0BD0039B103B0293029BDBB25BB26A
:10CB10001846FFF7B9FF0346DBB200E00F231846C3
:10CB200005B05DF804FB00BF00B583B00190054A75
:10CB3000019BC2F8083511200621FFF77FFF03B0E3
:10CB40005DF804FB0010014000B583B02C4B4FF49E
:10CB50008032C3F844232A4B4FF48032C3F80423B5
:10CB60001120FFF755FF1120FFF710FF244B012282
:10CB70001A602F230193019B1846013800BF00BFA4
:10CB800000BF00BF00BF00BF00BF00BF00BF00BFAD
:10CB900000BF00BF00BF00BF00BF00BF00BF00BF9D
:10CBA00000BF00BF00BF00BF00BF00BF00BF00BF8D
:10CBB00000BF00BF00BF00BF00BF00BF00BF00BF7D
:10CBC00000BF00BF00BF00BF00BF00BF00BF00BF6D
:10CBD00000BF00BF00BF00BF00BF00BF00BF00BF5D
:10CBE00000BF00BF00BF00BF00BF00BF00BF00BF4D
:10CBF000C3D1044B01221A7003B05DF804FB00BFDF
:10CC000000100140202C002000B583B01120FFF758
:10CC1000D3FE4C4B4FF48032C3F84823494B4FF4BA
:10CC20008032C3F80823474B01225A602F23009318
:10CC3000009B1846013800BF00BF00BF00BF00BF07
:10CC400000BF00BF00BF00BF00BF00BF00BF00BFEC
:10CC500000BF00BF00BF00BF00BF00BF00BF00BFDC
:10CC600000BF00BF00BF00BF00BF00BF00BF00BFCC
:10CC700000BF00BF00BF00BF00BF00BF00BF00BFBC
:10CC800000BF00BF00BF00BF00BF00BF00BF00BFAC
:10CC900000BF00BF00BF00BF00BF00BF00BF00BF9C
:10CCA00000BF00BF00BF00BF00BFC3D1254B0122A2
:10CCB0009A60254B00221A602F230193019B18468E
:10CCC000013800BF00BF00BF00BF00BF00BF00BFF2
:10CCD00000BF00BF00BF00BF00BF00BF00BF00BF5C
:10CCE00000BF00BF00BF00BF00BF00BF00BF00BF4C
:10CCF00000BF00BF00BF00BF00BF00BF00BF00BF3C
:10CD000000BF00BF00BF00BF00BF00BF00BF00BF2B
:10CD100000BF00BF00BF00BF00BF00BF00BF00BF1B
:10CD200000BF00BF00BF00BF00BF00BF00BF00BF0B
:10CD300000BF00BF00BFC3D1044B00221A7003B074
:10CD40005DF804FB001001400C2C0020202C00207A
:10CD5000024BD3F804351846704700BF001001405D
:10CD600082B001900091019A009BD31A23F07F4377
:10CD7000184602B0704700BF82B00190024A019B82
:10CD8000C2F8403502B070470010014086B00190F3
:10CD9000274B1B68002B03D1254A019B136045E0FC
:10CDA000019B1A68224B1B681B689A4210D8204BC3
:10CDB0001B681F4A12681168019A12688A1A1A6061
:10CDC0001B4B1A68019BDA61194A019B13602DE025
:10CDD000019B1B680393164B1B680593144B1B6840
:10CDE000049309E0049B1B68039AD31A0393049BE2
:10CDF0000593049BDB690493049B002B04D0049BE4
:10CE00001A68039B9A42EDD3049B002B05D0049B28
:10CE10001A68039BD21A049B1A60019B039A1A603A
:10CE2000019B049ADA61059B019ADA6106B07047AA
:10CE3000082C002086B00190204B1B680593059BB1
:10CE4000049309E0049A019B9A4200D107E0049BF5
:10CE50000593049BDB690493049B002BF2D1049B94
:10CE6000002B00D128E0059A049B9A4211D1134B64
:10CE70001B68DB69114A1360104B1B68002B08D13B
:10CE80000F4B01229A600F4B00221A600E4B0122B9
:10CE90001A70049B1B680393049BDA69059BDA6193
:10CEA000059BDB690493049B002B05D0049B1A6847
:10CEB000039B1A44049B1A6006B07047082C00209C
:10CEC000001001400C2C0020212C002008B511205E
:10CED000FFF788FD08BD00BF08B51420FFF782FDED
:10CEE00008BD00BF00B585B00190104B1B68002B3A
:10CEF00013D00E4B1B68019A5169019A926908463A
:10CF0000114698470390039B0293029B002B03D08A
:10CF10000298FFF773FC06E005E0019B5B69019A4C
:10CF200092691046984705B05DF804FB1C2C002060
:10CF300000B585B02A4B1B68002B4DD00023019310
:10CF4000FFF706FF0246274B1B6810461946FFF7FE
:10CF500007FF0290224B1B6803931EE0039B1A6895
:10CF6000029B9A4200D91BE0039B1B68029AD31ACA
:10CF70000293039B1B68019A13440193039B009344
:10CF8000039BDB690393009B1B7C002B05D0009B5C
:10CF900000221A740098FFF7A5FF039B002BDDD138
:10CFA000114B1A78114B1B789A420CD10F4B1B78FE
:10CFB0000133DAB20D4B1A700C4B1B78022B02D1E5
:10CFC0000A4B00221A70094B1B781946084A019B2C
:10CFD00042F82130FFF780FF05B05DF804FB00BF89
:10CFE000082C00200C2C0020182C0020192C0020CC
:10CFF000102C002082B00190184B1A78184B1B7827
:10D000009A4223D0154B1B780133DAB2134B1A70B6
:10D01000124B1B78022B02D1104B00221A700F4BBF
:10D020001B781A460F4B53F82220019B1A60019B74
:10D030001A680D4B1B6813440B4A13600A4B1B689C
:10D0400023F07F43084A1360012303E0019B002281
:10D050001A600023184602B0704700BF182C002049
:10D06000192C0020102C00200C2C002000B587B0BB
:10D07000304B1B680493304B1B788DF8173046E01B
:10D080002E4B1A689DF81730DB0013440393039B63
:10D090001B788DF8163034E0039B59689DF81620F4
:10D0A00013465B001344DB000B4402939DF81630DB
:10D0B00001338DF81630039B9B789DF816209A4219
:10D0C00002D100238DF81630029B1B78022B02D070
:10D0D000032B10D014E0029B5B681846FFF7AAFEF2
:10D0E0000FE0144B1B680193019B00221A74019BF3
:10D0F000DB69104A13600F4B1B68002BF1D100E075
:10D1000000BF039B5B789DF816209A42C4D19DF81E
:10D1100017305A1E8DF81720002BB1D1054B1A6815
:10D12000049B9A4214BF01230023DBB2184607B0C8
:10D130005DF804FB082C0020002C0020042C0020AB
:10D1400088B00390029101920023079338E01F4BAF
:10D150001B680693069B1A68039B9A4206D9069B96
:10D160001A68039BD21A069B1A602DE0069B1B6867
:10D17000039AD31A0393069B1B68079A13440793D9
:10D18000069B00221A60114B1B680593069BDB6906
:10D190000E4A1360069BDB68002B11D0029A079B96
:10D1A000134423F07F42069B5A60069BDA68069B75
:10D1B0009A60019B1A68069BDA61019B059A1A60C6
:10D1C000024B1B68002BC2D108B07047082C00200E
:10D1D00000B589B001905A4B1B680593594B1B78D9
:10D1E0008DF81F3098E0584B1A689DF81F30DB000F
:10D1F0001344049385E0019B002B05D0019B06930B
:10D20000069BDB6901933CE0049B5A68049B1B78F6
:10D2100019460B465B000B44DB0013440393049B4D
:10D220001B780133DAB2049B1A70049B1A78049BB2
:10D230009B789A4202D1049B00221A70039B5B6880
:10D240000693039B1B78012B03D1069B1B7C002BB1
:10D2500000D056E0039B9A68069B5A60039BDA68ED
:10D26000069B9A60039B1A69069BDA60039B5A69C6
:10D27000069B9A61354B1B78002B02D0069B00223F
:10D280005A60069B5A68324B1B68D31A23F07F43BF
:10D29000304A93420ED8069B5A682D4B1B681046A5
:10D2A0001946FFF75DFD0246069B9B681A44069BE4
:10D2B0001A6017E0264B1A68069B5B6810461946F1
:10D2C000FFF74EFD0290069B9A68029B9A4206D990
:10D2D000069B9A68029BD21A069B1A6002E0069B84
:10D2E00000221A60069B00225A60069B00229A6068
:10D2F000069B01221A74069B0022DA610698FFF74A
:10D3000045FD019B002B7FF476AF049B1A78049BAC
:10D310005B789A427FF46FAF9DF81F305A1E8DF8EC
:10D320001F20002B7FF45FAF054B1A68059B9A42C4
:10D3300014BF01230023DBB2184609B05DF804FBDB
:10D34000082C0020002C0020042C0020212C002080
:10D350000C2C0020FEFF7F0010B588B00190464BDA
:10D360001B68002B00F08380434B1B681B680793EE
:10D37000FFF7EEFC0690414B1B6805930698059954
:10D38000FFF7EEFC0346033304933D4B1B7883F019
:10D390000103DBB2002B01D0FFF7D6FB049A079BF9
:10D3A000934238BF1346059A13440593059B23F017
:10D3B0007F4305930598FFF7DFFCFFF7C9FC039057
:10D3C00003980699FFF7CCFC0346DC1C05980699E8
:10D3D000FFF7C6FC03469C4248D9FFF7B9FC034659
:10D3E0001846FFF7C9FC2F230293029B1846013809
:10D3F00000BF00BF00BF00BF00BF00BF00BF00BF35
:10D4000000BF00BF00BF00BF00BF00BF00BF00BF24
:10D4100000BF00BF00BF00BF00BF00BF00BF00BF14
:10D4200000BF00BF00BF00BF00BF00BF00BF00BF04
:10D4300000BF00BF00BF00BF00BF00BF00BF00BFF4
:10D4400000BF00BF00BF00BF00BF00BF00BF00BFE4
:10D4500000BF00BF00BF00BF00BF00BF00BF00BFD4
:10D4600000BF00BFC3D1FFF731FD02E001E0FFF7CD
:10D47000CBFB08B010BD00BF082C00200C2C0020F6
:10D48000202C002000B587B0002301931B4B1B68A4
:10D4900004931B4B1B6803936B461846FFF7AAFDCA
:10D4A00003468DF80B30FFF7E1FD03468DF817308A
:10D4B0009DF80B30002B09D0009A01AB104604995F
:10D4C0001A46FFF73DFE01238DF81730019B1846E1
:10D4D000FFF77EFE0346002B02D001238DF81730A4
:10D4E0009DF81730002B02D00398FFF735FF054B4E
:10D4F00000221A7007B05DF804FB00BF0C2C00205E
:10D50000082C0020212C002082B001900B468DF8C1
:10D510000330019B9DF803205A7002B0704700BF92
:10D5200084B001900091019B5B7801338DF80F303E
:10D53000019B9B789DF80F209A4202D100238DF821
:10D540000F30019B1B789DF80F209A4201D10023D8
:10D550000FE0009B9DF80F201A70019B5A68019BF9
:10D560005B7819460B465B000B44DB0013440293C7
:10D57000029B184604B0704700B587B00390029133
:10D58000019200931B4B1A68039BDB001A440DF1B8
:10D59000130310461946FFF7C3FF0590059B002BA8
:10D5A00001D1042321E0059B01221A70059B029AF8
:10D5B0005A60FFF7CDFB0246059B9A60059B019AD6
:10D5C000DA60059B009A1A61059B089A5A61094B1B
:10D5D0001A68039BDB001A449DF813301046194665
:10D5E000FFF792FFFFF778FC0023184607B05DF8BD
:10D5F00004FB00BF042C002000B585B00190009111
:10D60000144B1A68019BDB001A440DF10B03104602
:10D610001946FFF785FF0390039B002B01D10423DC
:10D6200013E0039B02221A70039B009A5A60094B75
:10D630001A68019BDB001A449DF80B30104619460E
:10D64000FFF762FFFFF748FC0023184605B05DF8BE
:10D6500004FB00BF042C002008B50D4B0022C3F8CA
:10D6600040210B4B0022C3F84421094B0022C3F890
:10D670004821074B0022C3F84C21054B0022C3F878
:10D680000021034B0022C3F80421FFF751FC08BD21
:10D690000010014008B5FFF7F5FE08BD00B587B0E2
:10D6A0000390019200930B468DF80B300198FFF721
:10D6B0000FFA034683F00103DBB2002B01D00723EE
:10D6C00057E0019B002B04D12C4B00221A6007234A
:10D6D0004FE0FFF799FA2A4A009B1360294B032277
:10D6E0001A70264A019B1360019B18330193002393
:10D6F00005931FE0214B1A68059BDB00134404933C
:10D70000049B00221A70049B00225A70049B9DF80F
:10D710000B209A70049B019A5A609DF80B201346C7
:10D720005B001344DB001A46019B13440193059BE5
:10D7300001330593059B022BDCDD134B00221A609D
:10D74000124B00221A70124B00221A701420FFF79D
:10D750005FF914200621FFF771F91420FFF716F97D
:10D760000398FFF7E1F9FFF7F3FA0246094B1A6055
:10D770000023184607B05DF804FB00BF042C00200E
:10D780001C2C0020002C0020082C0020182C00202D
:10D79000192C00200C2C002086B003900B4601921F
:10D7A0008DF80B30134B1B68002B01D108231EE0B2
:10D7B000019B002B01D1072319E0039B002B01D112
:10D7C000072314E0039B1B681B7C002B01D008235C
:10D7D0000DE0039B1B680593059B00221A74059BB3
:10D7E0009DF80B205A74059B019A5A610023184634
:10D7F00006B07047042C002000B583B0FFF776F91F
:10D800000346022B02D0062B03D005E00023019330
:10D8100005E00123019302E00223019300BF019B75
:10D82000184603B05DF804FB00B589B0059004917B
:10D830000392059B0793174B1B68002B01D108230C
:10D8400023E0059B002B01D108231EE0049B042B41
:10D8500001D8072319E0079B5B69002B01D108233E
:10D8600013E0079B5B7C012B01D1049B00E00023AC
:10D870000693FFF7C1FF0246039B009310460799EA
:10D88000049A069BFFF778FE0346184609B05DF838
:10D8900004FB00BF042C002000B585B00190019B63
:10D8A00003930F4B1B68002B01D1082313E0019B4E
:10D8B000002B03D0039B5B69002B01D108230AE0F6
:10D8C000039B00221A74FFF797FF0346184603993B
:10D8D000FFF792FE0346184605B05DF804FB00BF53
:10D8E000042C0020F0B482B00190019B186880F3F2
:10D8F00008885868FF2464B2EFF30585002D01D134
:10D90000A64600472546064621273FBAF0B4002424
:10D91000002500260027F0B4F92040B2004700BFE0
:10D9200002B0F0BC704700BF00B583B00190019811
:10D93000FFF7D8FF03B05DF804FB00BFAADF704714
:10D94000184600BF82B003468DF8073007499DF99D
:10D9500007305B099DF8072002F01F02012000FA42
:10D9600002F2203341F8232002B0704700E100E0CA
:10D9700082B003468DF8073007499DF907305B09EF
:10D980009DF8072002F01F02012000FA02F2603326
:10D9900041F8232002B0704700E100E044DF704707
:10D9A000184600BF11DF7047184600BF13DF7047ED
:10D9B000184600BF00DF7047184600BF704700BF21
:10D9C00000B583B00E4B1B6800930023019311E058
:10D9D000019B012202FA03F31A46009B1340002B1D
:10D9E00005D0019BDBB25BB21846FFF7ABFF019B92
:10D9F00001330193019B1F2BEAD903B05DF804FBAF
:10DA000000E100E030B593B00346ADF806300023E6
:10DA10000593BDF80630184640490AF0CDF811903C
:10DA2000119B002B77D106AB3C48194609F022FB2D
:10DA30001190119B002B55D1119B1093109B002B23
:10DA400002D01098FEF7DAFE0A9B354A10331868A8
:10DA5000106099889B79918093710A9A304B0733B3
:10DA6000146850689168D2681C6058609960DA60E8
:10DA7000069A2B4B03F11804154628686968AA68B2
:10DA8000EB680FC42B7C2370069A254B2A33123285
:10DA9000106851681860596012891A812048FFF790
:10DAA00089FF1190119B0F930F9B002B02D00F98B1
:10DAB000FEF7A4FE012305930423039305AB04930F
:10DAC0000023029302AB1548194609F031F8119072
:10DAD000119B0E930E9B002B03D00E98FEF78EFE2B
:10DAE00019E018E00D480E4909F03AFA1190119B1F
:10DAF0000D930D9B002B02D00D98FEF77FFE08487A
:10DB0000FFF758FF1190119B0C930C9B002B02D038
:10DB10000C98FEF773FE13B030BD00BF602C0020E0
:10DB2000242C002000B589B00346ADF80630082348
:10DB3000ADF80E30BDF806200DF10E031046214958
:10DB40001A460123FFF7FAFE07901F4B1B68984700
:10DB5000B120FFF723FF0790079B0693069B002B3E
:10DB600002D00698FEF74AFEFFF71CFF0790079BBE
:10DB70000593059B002B02D00598FEF73FFE4FF062
:10DB800010235B691846FFF711FF0790079B04936A
:10DB9000049B002B02D00498FEF730FEBDF806303F
:10DBA0001846FFF72FFF1620FFF7E2FEFFF708FFEA
:10DBB0004FF010235B691846FFF7B6FE09B05DF819
:10DBC00004FB00BF582C0020E420002000B585B0E5
:10DBD00001900091009B1B78002B05D1019B1B88B5
:10DBE0001846FFF79FFF0EE001980121032207F07E
:10DBF000CFFF0390039B0293029B002B02D002985D
:10DC0000FEF7FCFD00BF05B05DF804FB82B001909B
:10DC1000024A019B136002B0704700BFE42000205D
:10DC200000B585B003468DF807300DF1070318469F
:10DC3000074909F045F90390039B0293029B002BCF
:10DC400002D00298FEF7DAFD05B05DF804FB00BFD4
:10DC5000602C002000B587B0039002910192002350
:10DC6000059309E0029B5A1C02921B78184600F0AB
:10DC700069F9059B01330593059A019B9A42F1DBF3
:10DC8000019B184607B05DF804FB00BF00B585B0E6
:10DC900003900291019200BF029800F031F903460F
:10DCA000052BF9D00123184605B05DF804FB00BF31
:10DCB00084B00190019B9B680393019BDA68039BEE
:10DCC000D31A184604B0704700B587B00190009190
:10DCD000019B1B78012B31D1019B5B681B7831487C
:10DCE0001946FEF717FE0590059B002B0AD001236D
:10DCF0008DF80C30059B04932B4B1B6803AA104630
:10DD000098470DE02748FFF7D3FF0346012B07D1C3
:10DD100000238DF80C30244B1B6803AA104698474B
:10DD20002048FFF7C5FF02461E4B9B889A4204D845
:10DD30001E48012102F026FA31E030E0019B1B78F9
:10DD4000022B0FD102238DF80C30019BDB6804936A
:10DD50001648012102F016FA134B1B6803AA10465D
:10DD600098471CE0019B1B78002B18D110481149E3
:10DD7000FEF7ECFD0346002B03D10E48012102F013
:10DD80007FF80B48FFF794FF0346002B07D10323CE
:10DD90008DF80C30044B1B6803AA1046984707B057
:10DDA0005DF804FB702C0020642C00206C2C0020FB
:10DDB000802C0020682C002030B58FB00390029199
:10DDC00001928DF80330394A019B1360029B002BAE
:10DDD00001D1072366E0029B1A68029B5B689BB235
:10DDE000334811461A46FEF769FD0D900D9B002B36
:10DDF00001D00D9B56E0029B9A68029BDB689BB2A8
:10DE00002C4811461A46FEF759FD0D900D9B002B2C
:10DE100001D00D9B46E0284B05AC1D460FCD0FC42D
:10DE200095E80F0084E80F00039B9B680B93039B0E
:10DE30001B79002B14BF01230023DBB28DF828309F
:10DE40009DF803308DF83030039B5B79002B01D0B7
:10DE50000E2300E000238DF82930039BDB78079325
:10DE6000039B9B780893039B1B780693039B5B782B
:10DE7000059305AB1846114901F0F2FE0D900D9B7C
:10DE8000002B01D00D9B0DE09DF8313083F0010394
:10DE9000DBB2002B01D002F0FBF90948012102F0AE
:10DEA00071F9034618460FB030BD00BF642C002046
:10DEB000702C0020802C0020B40D0300C9DC010070
:10DEC0006C2C002000B583B00B48FEF755FD019087
:10DED000019B002B01D0019B09E00848FEF74CFD97
:10DEE0000190019B002B01D0019B00E0002318460C
:10DEF00003B05DF804FB00BF702C0020802C0020D4
:10DF000000B585B001900D48FFF7D2FE02460B4BDD
:10DF10009B889A4209D10A48012102F033F9039003
:10DF2000039B002B01D0052304E004480199FEF770
:10DF30000DFD0346184605B05DF804FB702C00206B
:10DF40006C2C002000B585B003468DF807309DF895
:10DF5000073010481946FEF7DDFC0390039B002BA9
:10DF600013D101F0C1FF034683F00103DBB2002BA4
:10DF70000BD008480849FEF7E9FC0346002B04D102
:10DF80000548012101F07CFF0390039B184605B072
:10DF90005DF804FB802C0020682C002084B00190E8
:10DFA00043E0019B013B019340F2E7330393039B62
:10DFB0001846013800BF00BF00BF00BF00BF00BF50
:10DFC00000BF00BF00BF00BF00BF00BF00BF00BF59
:10DFD00000BF00BF00BF00BF00BF00BF00BF00BF49
:10DFE00000BF00BF00BF00BF00BF00BF00BF00BF39
:10DFF00000BF00BF00BF00BF00BF00BF00BF00BF29
:10E0000000BF00BF00BF00BF00BF00BF00BF00BF18
:10E0100000BF00BF00BF00BF00BF00BF00BF00BF08
:10E0200000BF00BF00BF00BFC3D1019B002BB8D110
:10E0300004B0704782B001900B468DF803309DF814
:10E040000330019A134401221A6002B0704700BFE6
:10E0500082B001900B46ADF80230BDF80230019A53
:10E06000134400221A6002B0704700BF82B00190D2
:10E070000B46ADF80230BDF80230019A13441B681C
:10E08000002B14BF01230023DBB2184602B07047F7
:10E0900082B001900091019B009AC3F8042302B062
:10E0A000704700BF82B001900091019B009AC3F8B5
:10E0B000082302B0704700BF82B00190019B052287
:10E0C000C3F8002502B0704784B00390029101921A
:10E0D000039B029AC3F80825039B019AC3F80C25F9
:10E0E00004B0704782B001900091019B009AC3F880
:10E0F000242502B0704700BF84B00190019BD3F883
:10E10000C4340393019B039AC3F8C424039B1846A9
:10E1100004B0704782B001900B468DF803309DF833
:10E120000320019BC3F8882502B0704782B001909C
:10E13000019BD3F81835DBB2184602B0704700BF18
:10E1400082B001900B468DF803309DF80320019BAF
:10E15000C3F81C2502B0704782B001900091019B6A
:10E16000009AC3F8002202B0704700BF84B001904B
:10E17000019B1B0B8DF80F309DF80F305BB21846DA
:10E1800004B0704782B001904FF0A042019B012182
:10E1900001FA03F3C2F8083502B0704782B001906B
:10E1A0004FF0A042019B012101FA03F3C2F80C35A4
:10E1B00002B0704782B001904FF0A043D3F8102511
:10E1C000019B22FA03F303F00103184602B07047E3
:10E1D00000B589B0019000914FF0A042009B1B68F0
:10E1E00003F5E07340F20C6142F823104FF0A042B7
:10E1F000009B5B6803F5E07340F20C6142F823106A
:10E20000009B1B681846FFF7BDFF009B5B68184624
:10E21000FFF7B8FF4FF0A042009B1B6803F5E073C7
:10E2200040F20D6142F823104FF0A042009B5B6862
:10E2300003F5E07340F20D6142F8231004230593C7
:10E24000059B1846013800BF00BF00BF00BF00BFDC
:10E2500000BF00BF00BF00BF00BF00BF00BF00BFC6
:10E2600000BF00BF00BF00BF00BF00BF00BF00BFB6
:10E2700000BF00BF00BF00BF00BF00BF00BF00BFA6
:10E2800000BF00BF00BF00BF00BF00BF00BF00BF96
:10E2900000BF00BF00BF00BF00BF00BF00BF00BF86
:10E2A00000BF00BF00BF00BF00BF00BF00BF00BF76
:10E2B00000BF00BF00BF00BF00BFC3D10023079352
:10E2C00099E0009B5B681846FFF774FF0346002B3C
:10E2D00004D0079B002B00D1DBE090E0009B1B6883
:10E2E0001846FFF75BFF04230393039B184601388E
:10E2F00000BF00BF00BF00BF00BF00BF00BF00BF26
:10E3000000BF00BF00BF00BF00BF00BF00BF00BF15
:10E3100000BF00BF00BF00BF00BF00BF00BF00BF05
:10E3200000BF00BF00BF00BF00BF00BF00BF00BFF5
:10E3300000BF00BF00BF00BF00BF00BF00BF00BFE5
:10E3400000BF00BF00BF00BF00BF00BF00BF00BFD5
:10E3500000BF00BF00BF00BF00BF00BF00BF00BFC5
:10E3600000BF00BFC3D1009B1B681846FFF70AFF20
:10E3700004230493049B1846013800BF00BF00BF6C
:10E3800000BF00BF00BF00BF00BF00BF00BF00BF95
:10E3900000BF00BF00BF00BF00BF00BF00BF00BF85
:10E3A00000BF00BF00BF00BF00BF00BF00BF00BF75
:10E3B00000BF00BF00BF00BF00BF00BF00BF00BF65
:10E3C00000BF00BF00BF00BF00BF00BF00BF00BF55
:10E3D00000BF00BF00BF00BF00BF00BF00BF00BF45
:10E3E00000BF00BF00BF00BF00BF00BF00BFC3D160
:10E3F000079B01330793079B082B7FF762AF009BB6
:10E400005B681846FFF7CAFE04230693069B18466E
:10E41000013800BF00BF00BF00BF00BF00BF00BF8A
:10E4200000BF00BF00BF00BF00BF00BF00BF00BFF4
:10E4300000BF00BF00BF00BF00BF00BF00BF00BFE4
:10E4400000BF00BF00BF00BF00BF00BF00BF00BFD4
:10E4500000BF00BF00BF00BF00BF00BF00BF00BFC4
:10E4600000BF00BF00BF00BF00BF00BF00BF00BFB4
:10E4700000BF00BF00BF00BF00BF00BF00BF00BFA4
:10E4800000BF00BF00BFC3D1009B5B681846FFF709
:10E4900079FE09B05DF804FB00B587B003900291E6
:10E4A00001920093039B1B791A4613469B00134469
:10E4B000DB00344A13440593059B93F82230002B6C
:10E4C00001D0082359E0029B002B05D1039B1B7947
:10E4D0001B012D4A13440293059B019A1A60059B68
:10E4E000009A5A60059B00229A60059B002283F8DF
:10E4F0002520059B002283F8242003980299FFF72A
:10E5000067FE4FF0A042029B1B6803F5E07340F2E8
:10E510000C6142F823104FF0A042029B5B6803F5A8
:10E52000E07340F20C6142F82310039B1B680493D4
:10E53000029B1A68029B5B68049811461A46FFF713
:10E54000C3FD029B9B6804981946FFF7CBFD059B12
:10E550001B68002B0CD0039B1B681846FFF706FEB8
:10E5600003461A46029B1B7B1046194600F0F6FB39
:10E57000059B012283F822200023184607B05DF88E
:10E5800004FB00BF902C0020D40D030000B585B023
:10E590000190019B1B791A4613469B001344DB0034
:10E5A000074A13440393019B1B6802930298FFF7E9
:10E5B00083FD039B022283F8222005B05DF804FB53
:10E5C000902C002000B585B0039002910093134673
:10E5D0008DF80730009B1B789DF807209A4210D9D0
:10E5E000009B1B781A46029B13441B78039819461C
:10E5F000FFF7A6FD009B1B780133DAB2009B1A706F
:10E600000DE09DF81830002B05D003981C21FFF772
:10E6100011FD002304E003981421FFF70BFD0123F3
:10E62000184605B05DF804FB10B584B00390029164
:10E63000009313468DF80730009B1B789DF8072048
:10E640009A4227D9009B1B781A46029B9C18039874
:10E65000FFF76CFD03462370009B1B780133DAB291
:10E66000009B1A70009B1B781A469DF80730013BEF
:10E670009A4204D103980221FFF76EFD06E0009B49
:10E680001B789DF807209A4200D103E003982021CF
:10E69000FFF7D0FC04B010BD00B589B0059004911F
:10E6A00003920293049B1B78002B05D1039B1B78DC
:10E6B0009DF828209A4203D101238DF81F3002E0F3
:10E6C00000238DF81F30049B1B78002B0FD005987A
:10E6D0004FF49271FFF7BCFC05984FF48E71FFF771
:10E6E000B7FC05984FF48471FFF7B2FC72E005980F
:10E6F0004FF49271FFF7BAFC0346002B0CD005983B
:10E700004FF49271FFF7A4FC05981421FFF792FCD7
:10E71000049B01221A705DE005984FF48E71FFF79B
:10E72000A5FC0346002B2BD005984FF48E71FFF704
:10E730008FFC05984FF49271FFF798FC0346002B6D
:10E740000CD005984FF49271FFF782FC05981421C4
:10E75000FFF770FC049B01221A703BE09DF8282013
:10E760009DF82C30009305980299039BFFF72AFF30
:10E77000034683F00103DBB2002B2BD000233DE0E6
:10E7800005984FF48471FFF771FC0346002B21D0EC
:10E7900005984FF48471FFF75BFC05984FF4927174
:10E7A000FFF764FC0346002B0CD005984FF49271E0
:10E7B000FFF74EFC05981421FFF73CFC049B012257
:10E7C0001A7007E09DF82830059802991A46039BB5
:10E7D000FFF72AFF9DF81F30002B0ED005984FF44D
:10E7E0008271FFF743FC0346002B06D005984FF4D7
:10E7F0008271FFF72DFC002300E00123184609B0C9
:10E800005DF804FB10B588B00590049103928DF873
:10E810000B300023079304984FF48271FFF718FC24
:10E8200004984FF49271FFF713FC04984FF48E7123
:10E83000FFF70EFC04984FF48471FFF709FC04986D
:10E840000021FFF789FC059B002283F82620059B09
:10E85000002283F8232004982021FFF7EBFB049883
:10E860000821FFF7E7FB059B03F126049DF80B2029
:10E870009DF828300093049803992346FFF7A2FEE1
:10E88000059B1B68002B0AD0059B40F286229A60EC
:10E89000059B9B6804981946FFF7FAFB1AE000BF36
:10E8A000059B03F12301059B03F126029DF80B3024
:10E8B00000939DF8283001930498039BFFF7ECFE2A
:10E8C0000346002BECD1059B93F82330002B01D09D
:10E8D00003230793079B184608B010BD00B589B005
:10E8E0000590049103928DF80B3000230793049850
:10E8F0004FF48271FFF7ACFB04984FF49271FFF76D
:10E90000A7FB04984FF48E71FFF7A2FB04984FF415
:10E910008471FFF79DFB059B002283F82620059B51
:10E92000002283F823209DF80B30012B04D104989A
:10E930000221FFF711FC03E004980121FFF70CFC12
:10E9400004982021FFF776FB04980021FFF772FB63
:10E95000059B1B68002B0AD0059B40F286229A601B
:10E96000059B9B6804981946FFF792FB19E000BFCE
:10E97000059B03F12301059B03F126029DF80B3053
:10E980000093002301930498039BFFF785FE034641
:10E99000002BEDD1059B93F82330002B01D00323EE
:10E9A0000793079B184609B05DF804FB10B588B0C3
:10E9B00005900491039202930023079304984FF06B
:10E9C000FF31FFF76FFB059B93F82430DBB2002B80
:10E9D00007D0059B9B6804981946FFF759FB112344
:10E9E00064E0029B03F00403002B0CBF012300230F
:10E9F000DAB2059B83F82420029B03F00803002B66
:10EA000001D0062352E0059B029A9A61059B039A66
:10EA10000C3307CA83E80700039B9A78059B83F8A9
:10EA20002020039B5A68059BDA61039B5B7804985E
:10EA30001946FFF76FFB039B1B78012B20D0039B2C
:10EA40001B78002B04D1029B03F02003002B01D084
:10EA5000012300E0002303F00103DAB2059B83F8F1
:10EA60002120039B5A68039B9C78059B93F82130D7
:10EA70000093059804992346FFF7C4FE07900CE025
:10EA8000059B002283F82120039B5A68039B9B78F7
:10EA900005980499FFF722FF0790059B1B68002B40
:10EAA00003D1059B002283F82420079B184608B059
:10EAB00010BD00BF00B587B0039002910192002302
:10EAC0000593039B1B791A4613469B001344DB00F6
:10EAD0000B4A13440493019B03F00303002B01D062
:10EAE000062309E0039B1B6804981946029A019BC0
:10EAF000FFF75CFF0590059B184607B05DF804FB27
:10EB0000902C002000B589B0039001921A460B4664
:10EB10008DF80B3013468DF80A3005AB00221A60D1
:10EB2000043300221A60043300221A6004339DF873
:10EB30000B308DF815309DF80A308DF81630019B9A
:10EB400006939DF82830002B01D0202300E00023FD
:10EB500005AA039811461A46FFF7ACFF034618466C
:10EB600009B05DF804FB00BF30B58BB00390029193
:10EB7000029B03F12301029B03F12605029BDC6942
:10EB8000029B93F82020029B93F82130009201937E
:10EB900003982A462346FFF77FFD0346002B00D04B
:10EBA0007EE0029B93F8233083F00103DBB2002B5D
:10EBB0003FD0029B1B7B022B03D0029B1B7B032BB2
:10EBC00037D1029BDA69029B1B699A4231D1029BC1
:10EBD0005A69029BDA61029BDA7B029B83F8202050
:10EBE000029B9B6903F02003002B14BF0123002329
:10EBF000DAB2029B83F82120029B1B7B032B0ED1F0
:10EC0000029BDA69029B93F82040029B93F8213023
:10EC10000093029803992346FFF7F4FD40E0029B1E
:10EC2000DA69029B93F8203002980399FFF756FEA9
:10EC300036E0029A06AB0C3207CA83E80700029B53
:10EC400093F82330002B16D00398FFF755FA09905C
:10EC5000099B03F00203002B03D001238DF814302D
:10EC600008E0099B03F00403002B03D002238DF876
:10EC7000143003E002E000238DF81430029B0022E0
:10EC800083F82420029B9B6903F00403002B07D127
:10EC9000029B1B68029A526805A9084611469847CC
:10ECA0000BB030BD08B502480249FFF75DFF08BD53
:10ECB00000300040902C002082B003468DF80730D1
:10ECC00007499DF907305B099DF8072002F01F02F4
:10ECD000012000FA02F241F8232002B0704700BF81
:10ECE00000E100E082B003468DF8073007499DF946
:10ECF00007305B099DF8072002F01F02012000FA8F
:10ED000002F2603341F8232002B0704700E100E0D6
:10ED100082B0034600918DF807309DF90730002B33
:10ED20000CDA0C499DF8073003F00F03043B009AFE
:10ED3000D2B25201D2B20B441A7609E006499DF9CB
:10ED40000730009AD2B25201D2B20B4483F80023AA
:10ED500002B0704700ED00E000E100E000B583B0D4
:10ED600003460A468DF8073013468DF806309DF8A5
:10ED700006309DF9072010461946FFF7C9FF9DF997
:10ED800007301846FFF7AEFF9DF907301846FFF72A
:10ED900093FF03B05DF804FB00B583B00346ADF804
:10EDA0000630BDF80630184600F026F803461B680A
:10EDB000012B0CBF01230023DBB2184603B05DF822
:10EDC00004FB00BF00B585B00346ADF80630BDF8C2
:10EDD0000630184600F010F803461A460023136068
:10EDE000BDF80630184600F007F803461B68039389
:10EDF000039B05B05DF804FB82B00346ADF8063016
:10EE0000BDF8063003F1804303F5C043184602B055
:10EE1000704700BF82B00190024A019BC2F80433E0
:10EE200002B070470060004082B00190034BD3F8FD
:10EE30000423019B1340184602B070470060004055
:10EE400082B001900749074A019B03F5A27352F86B
:10EE5000233043F00102019B03F5A27341F8232004
:10EE600002B070470060004084B0039002911346E6
:10EE70008DF807301449144A039B03F5A27352F826
:10EE8000233023F4473323F44073039A02F5A2722C
:10EE900041F822300C480C4A039B03F5A27352F848
:10EEA0002320029B1B0203F4F8519DF807301B043A
:10EEB00003F440330B431A43039B03F5A27340F85A
:10EEC000232004B0704700BF0060004082B0019072
:10EED000054A019B03F5A27352F8233003F4F8535B
:10EEE0001B0A184602B070470060004082B00190D3
:10EEF000064A019B03F5A27352F8233003F4403312
:10EF00001B0CDBB2184602B0704700BF0060004027
:10EF100082B00190084611461A4603468DF8033028
:10EF20000B468DF8023013468DF801304FF0A041AA
:10EF30009DF803209DF802305B001A439DF80130D4
:10EF40009B001A439DF808301B021A439DF80C30B1
:10EF50001B041A43019B03F5E07341F8232002B020
:10EF6000704700BF10B584B003900B468DF80B308E
:10EF70009DF80B4000230093002301930398002188
:10EF800000222346FFF7C4FF04B010BD84B00190F7
:10EF90004FF0A042019B03F5E07352F8233023F0B9
:10EFA000020303934FF0A041019B03F5E073039A22
:10EFB00041F8232004B0704782B001900B468DF8D1
:10EFC00003304FF0A0414FF0A042019B03F5E073E6
:10EFD00052F8233023F44032019B03F5E07341F8EB
:10EFE00023204FF0A0414FF0A042019B03F5E073B6
:10EFF00052F823309DF8032012041A43019B03F5B5
:10F00000E07341F8232002B0704700BF82B0019046
:10F010004FF0A043D3F81025019B22FA03F303F02D
:10F020000103184602B070474FF0A043D3F81035E3
:10F030001846704782B001904FF0A042019B03F543
:10F04000E07352F8233003F440331B0CDBB2184654
:10F0500002B0704782B001900C4A019B13444033C8
:10F060001B785BB2002B09DB084A019B1344403339
:10F070001B785BB2072B01DC012300E0002303F0C7
:10F080000103DBB2184602B0704700BFB82C002065
:10F0900082B00190064A019B134440331B785BB257
:10F0A000072BCCBF01230023DBB2184602B0704708
:10F0B000B82C002082B00190054A019B13444033D4
:10F0C0001B78DB43DBB2DB09DBB2184602B07047CA
:10F0D000B82C002084B00390029101928DF8033087
:10F0E000029BD9B20E4A039B134440330A461A705E
:10F0F0000B49029B019A41F823209DF8033083F0CD
:10F100000103DBB2002B08D0029B083B039AD1B26B
:10F11000034A13440A4683F8602004B0704700BFD6
:10F12000B82C002082B00190034A019B1344403365
:10F13000FF221A7002B07047B82C002082B00190F4
:10F14000044A019B134440331B785BB2184602B05B
:10F15000704700BFB82C002082B00190034A019B89
:10F1600052F82330184602B0704700BFB82C002078
:10F1700000B589B00390029113468DF80730FF2344
:10F180008DF81F309DF80730002B01D0002300E0E0
:10F19000082305939DF80730002B01D0082300E0D9
:10F1A00010230493059B069314E0104A069B52F823
:10F1B0002330B3F1FF3F0AD19DF807300398069939
:10F1C000029AFFF787FF069B8DF81F3006E0069B2B
:10F1D00001330693069A049B9A42E6D39DF81F30AA
:10F1E0005BB2184609B05DF804FB00BFB82C0020E4
:10F1F00082B003468DF807309DF80730094A4FF07A
:10F20000FF3142F823109DF80730072B07D99DF8EE
:10F210000730083B034A1344FF2283F8602002B002
:10F22000704700BFB82C002000B583B01D4B93F889
:10F230006830002B01D0082330E000238DF8073020
:10F2400009E09DF807301846FFF76CFF9DF807307E
:10F2500001338DF807309DF807301F2BF1D90023BB
:10F260008DF8073009E09DF807301846FFF7C0FF1A
:10F270009DF8073001338DF807309DF807300F2BCC
:10F28000F1D906200621FFF769FD4FF00040FFF796
:10F29000C1FD044B012283F868200023184603B007
:10F2A0005DF804FBB82C0020044B93F86830002B69
:10F2B00014BF01230023DBB218467047B82C00208E
:10F2C00000B587B003900291019200230593039843
:10F2D000FFF7F0FE0346002B02D00823059342E01F
:10F2E000029BDB78039801991A46FFF741FF03461A
:10F2F0008DF813309DF91330B3F1FF3F31D0029BED
:10F300009B78002B03D00398FFF740FE05E0029B9B
:10F310005B7803981946FFF725FE029BDB78002BEC
:10F3200009D09DF91320029B1B78104603991A46B9
:10F33000FFF79AFD17E09DF91330083B9DF9132064
:10F34000083A0B490A4492F86010029A1278920126
:10F35000D2B20A43D1B2064A13440A4683F8602067
:10F3600001E004230593059B184607B05DF804FBF4
:10F37000B82C002000B587B001900B468DF8033003
:10F380000198FFF785FE0346002B33D00198FFF765
:10F39000D5FE0346083B314A134493F860308DF89C
:10F3A00016309DF816309B098DF815309DF81530F4
:10F3B000032B0FD1FFF738FE0146019B012202FA11
:10F3C00003F30B40002B01D0032300E002238DF850
:10F3D000173008E09DF81530012B01D1022300E021
:10F3E00003238DF817309DF8173001981946FFF761
:10F3F000E3FD30E00198FFF72DFE0346002B2AD0F5
:10F400000198FFF79BFE03460493049B9BB2403395
:10F410009BB29B00ADF80E30049B1846FFF710FD21
:10F42000BDF80E301846FFF7CDFC9DF80330002BD9
:10F4300011D00198FFF782FE03461846FFF78CFEB5
:10F440000290029B002B06D00122049B02FA03F3D8
:10F450001846FFF7DFFC07B05DF804FBB82C00206E
:10F4600000B583B001900198FFF7D0FD0346002B53
:10F4700014BF01230023DBB2184603B05DF804FB80
:10F4800000B593B000231193002310934FF48073C1
:10F49000ADF83A3001230D9300230F9321E0BDF81E
:10F4A0003A301846FFF778FC0346002B0ED00D9833
:10F4B000FFF7BAFC0346002B08D0BDF83A301846D7
:10F4C000FFF780FC119A0D9B134311930D9B5B007A
:10F4D0000D93BDF83A300433ADF83A300F9B013349
:10F4E0000F930F9B072BDAD94FF4BE70FFF754FC34
:10F4F0000346002B0AD04FF4BE70FFF763FC119B4C
:10F5000043F000431193FFF78FFD1090119BDBB286
:10F51000002B26D001230D9300230F931EE00D9A9C
:10F52000119B1340002B13D00F98FFF7CFFC0990CD
:10F530000F98FFF7DBFC03468DF823300F98FFF799
:10F540000BFE07909DF82320079B099811469847CA
:10F550000D9B5B000D930F9B01330F930F9B072BAC
:10F56000DDD9119B002B80F2A38000238DF833306E
:10F5700000230B934FF0FF330A9300238DF83330B1
:10F5800000230F9379E04C4A0F9B134460331B78A0
:10F590008DF81B309DF81B3023F0C0030593464ABD
:10F5A0000F9B134460331B785BB2B3F1FF3F61D014
:10F5B000059B0A9A22FA03F303F00103002B59D0AA
:10F5C0009DF81B309B098DF813300598FFF7B6FDA9
:10F5D00003461846FFF7C0FD0390039B002B03D1A1
:10F5E0009DF81330032B45D1059B012202FA03F34A
:10F5F0000D939DF81330032B03D10B9A0D9B1343EE
:10F600000B930598FFF716FD03468DF80B300D9A06
:10F61000109B1340002B03D09DF80B30022B08D019
:10F620000D9A109B1340002B24D19DF80B30032B17
:10F6300020D19DF81330032B13D19DF80B30022BF2
:10F6400001D1032300E002238DF80A309DF80A302F
:10F6500005981946FFF7B0FC9DF8333001338DF85B
:10F660003330039B002B05D09DF81320039B059896
:10F67000114698470F9B01330F930F9B072B82D99D
:10F680009DF83330002B0ED0FFF7CEFC0190019A8D
:10F69000109B9A4203D100238DF8333003E0019B85
:10F6A00010930B9B0A939DF83330002B7FF465AFCA
:10F6B00013B05DF804FB00BFB82C002082B00190AD
:10F6C0000B46ADF80230BDF80230019A1344002217
:10F6D0001A6002B0704700BF82B001900B46ADF8CF
:10F6E0000230BDF80230019A13441B68002B14BF8E
:10F6F00001230023DBB2184602B0704782B00190AC
:10F700000091019B009AC3F8042302B0704700BF28
:10F7100082B001900091019BD3F80423009B134019
:10F72000002B14BF01230023DBB2184602B0704740
:10F7300082B001900091019B009AC3F8082302B0A7
:10F74000704700BF84B00190019BD3F880340393CD
:10F75000019B039AC3F88024039B184604B07047AA
:10F7600082B00190019B0422C3F8002502B07047CB
:10F7700084B0039002910192039B029AC3F80C2576
:10F78000039B019AC3F8142504B0704784B003901A
:10F7900002910192039B029AC3F80825039B019AE8
:10F7A000C3F8102504B0704782B00190019BD3F8D4
:10F7B0001835DBB2184602B0704700BF82B0019026
:10F7C0000B468DF803309DF80320019BC3F81C25E0
:10F7D00002B0704782B001900B468DF803309DF85F
:10F7E0000330019A134401221A6002B0704700BF2F
:10F7F00082B001900B468DF8033013468DF802302D
:10F800009DF803209DF802301343DBB21A46019B9A
:10F81000C3F86C2502B0704782B001900091019B43
:10F82000009AC3F8242502B0704700BF82B001904F
:10F830000B46ADF80230BDF80230019A13440022A5
:10F840001A6002B0704700BF82B001900B46ADF85D
:10F850000230BDF80230019A13441B68002B14BF1C
:10F8600001230023DBB2184602B0704782B001903A
:10F870000091019BD3F80022009B1A43019BC3F81F
:10F88000002202B0704700BF82B001900091019B3E
:10F89000D3F80022009BDB431A40019BC3F80022EF
:10F8A00002B0704782B001900091019B009AC3F8AA
:10F8B000042302B0704700BF82B001900091019B09
:10F8C000009AC3F8082302B0704700BF84B00190CB
:10F8D000019BD3F880340393019B039AC3F88024DF
:10F8E000039B184604B0704782B00190019B082228
:10F8F000C3F8002502B0704784B0039002910192D2
:10F90000039B029AC3F80C25039B019AC3F81425A4
:10F9100004B0704784B0039002910192039B029A55
:10F92000C3F80825039B019AC3F8102504B070475B
:10F9300082B001900B468DF803309DF80330019A98
:10F94000134401221A6002B0704700BF82B00190D8
:10F950000B468DF8033013468DF802309DF80320D6
:10F960009DF802301343DBB21A46019BC3F86C25A5
:10F9700002B0704782B001900091019B009AC3F8D9
:10F98000242502B0704700BF84B003900291134653
:10F990008DF80730029A039BC3F844259DF8072091
:10F9A000039BC3F8482504B0704700BF82B00190A4
:10F9B000019BD3F84C35184602B0704784B00390D1
:10F9C000029113468DF80730029A039BC3F8342541
:10F9D0009DF80720039BC3F8382504B0704700BF8B
:10F9E00082B00190019BD3F83C35184602B07047B5
:10F9F00082B00190084611461A4603468DF803303E
:10FA00000B468DF8023013468DF801304FF0A041BF
:10FA10009DF803209DF802305B001A439DF80130E9
:10FA20009B001A439DF808301B021A439DF80C30C6
:10FA30001B041A43019B03F5E07341F8232002B035
:10FA4000704700BF00B585B00390002300930023EA
:10FA500001930398012101220023FFF7C9FF05B09C
:10FA60005DF804FB10B584B003900B468DF80B30A5
:10FA70009DF80B400023009300230193039800217D
:10FA800000222346FFF7B4FF04B010BD82B00190FE
:10FA90004FF0A042019B012101FA03F3C2F808359F
:10FAA00002B0704700B583B00190019B1B681846F7
:10FAB000FFF7ECFF019B1B681846FFF7C3FF019B94
:10FAC0005B6818460021FFF7CDFF394B1B7F002BE9
:10FAD00035D0019B9B6937481946FFF74BFF019BC7
:10FAE0005A7D019B1B7D334811461A46FFF72EFFB6
:10FAF000019B1A68019B5B682E4811461A46FFF766
:10FB0000FBFE019B1B7D012B4ED1019B9B68184680
:10FB10000021FFF7A7FF019BDB681846FFF7B6FF40
:10FB2000019BDB681846FFF78DFF019BDA68019B9C
:10FB30009B68204811461A46FFF7ECFE34E0019B13
:10FB40009B691C481946FFF767FE019B5A7D019B84
:10FB50001B7D184811461A46FFF74AFE019B1A689A
:10FB6000019B5B68134811461A46FFF701FE019B93
:10FB70001B7D012B18D1019B9B6818460021FFF7C4
:10FB800071FF019BDB681846FFF780FF019BDB6874
:10FB90001846FFF757FF019BDA68019B9B680548F1
:10FBA00011461A46FFF7F2FD03B05DF804FB00BFF3
:10FBB000242D00200020004000B583B003468DF8BE
:10FBC00007301A4B1B7F002B18D019484FF488714F
:10FBD000FFF72CFE16484FF49071FFF727FE1448EC
:10FBE0004FF49271FFF722FE11484FF4A271FFF714
:10FBF0001DFE0F480F49FFF755FE0DE00C484FF46E
:10FC00008E71FFF75BFD0A484FF4A271FFF756FDB6
:10FC100007480949FFF772FD9DF807300220194691
:10FC2000FFF79CF803B05DF804FB00BF242D002013
:10FC300000200040100302008000020008B5064BBF
:10FC40001B7F002B03D00548FFF74EFE02E0034860
:10FC5000FFF786FD08BD00BF242D002000200040D6
:10FC600000B583B0019000911B4BDB7E002B01D0CF
:10FC700008232DE0019B002B01D1184B0193019B20
:10FC80005A7F154B1A770198FFF70CFF124A009B19
:10FC90005360019B1B69104A13600F4B5B68002B7C
:10FCA00004D0019B1B7F1846FFF786FFFFF7C6FFB6
:10FCB000094B0022DA75084B00221A76064B002207
:10FCC0009A75054B0122DA76034B00229A760023BF
:10FCD000184603B05DF804FB242D0020E40D03005A
:10FCE00000B583B00E484FF48E71FFF7E7FC0D4B63
:10FCF0009B680C4A928A92B213441B788DF80730A5
:10FD0000084B9B8A9BB201339AB2064B9A829DF8AC
:10FD1000073003481946FFF751FD03B05DF804FBB7
:10FD200000200040242D002000B583B00023019363
:10FD300029484FF48E71FFF7C1FC27480821FFF7CF
:10FD400049FDFFF7CDFF254B5B68002B3ED119E045
:10FD500000BF21484FF48E71FFF7BEFC034683F0CD
:10FD60000103DBB2002B05D01C4B9B8A9BB2B3F581
:10FD7000807FEED1194B9B8A9BB2B3F5807F01D077
:10FD8000FFF7AEFF154B9B8A9AB2144B9B7D9BB23B
:10FD90009A42DDD3114B9B8A9BB2B3F5807F02D18F
:10FDA0000F2301930FE000BF0B484FF48E71FFF754
:10FDB00093FC034683F00103DBB2002BF4D1064829
:10FDC0000C21FFF707FD054B00229A75019B184691
:10FDD00003B05DF804FB00BF00200040242D00208C
:10FDE00000B583B00023019323484FF49071FFF7CF
:10FDF0001DFD21484FF4AC71FFF718FD1F4B9A68A9
:10FE00001E4B9B7D1C4811461A46FFF7BDFD1A4844
:10FE10000821FFF78DFD194B5B68002B26D1164892
:10FE20004FF49071FFF710FD03468DF80330124830
:10FE30004FF4AC71FFF708FD03468DF802309DF8D2
:10FE4000033083F00103DBB2002B06D09DF80230B3
:10FE500083F00103DBB2002BE1D19DF80230002BCF
:10FE600001D00F230193054B00229A75019B184680
:10FE700003B05DF804FB00BF00200040242D0020EB
:10FE800000B583B001900B468DF80330154B1B7FF6
:10FE9000002B07D0019B1B0C1B04B3F1005F01D0AA
:10FEA00010231BE000F020F80346002B01D01123A3
:10FEB00014E00C4A9DF8033093750A4A019B936045
:10FEC000084B00229A82074B1B7F002B03D0FFF7C1
:10FED00087FF034602E0FFF727FF0346184603B0FB
:10FEE0005DF804FB242D0020044B9B7D002B14BFE8
:10FEF00001230023DBB21846704700BF242D0020E9
:10FF000008B507484FF49271FFF7D8FB04484FF447
:10FF10008471FFF7D3FB02480021FFF75BFC08BDAB
:10FF20000020004010B5124BDB7D002B08D111489A
:10FF30004FF48471FFF7C2FB0E48FFF735FC16E063
:10FF40000C484FF48471FFF7B9FB094BDB68084A92
:10FF5000527ED2B29C180748FFF726FC0346237056
:10FF6000034B5B7EDBB20133DAB2014B5A7610BD34
:10FF7000242D00200020004000B585B001900B46E4
:10FF80008DF8033013468DF802303F4B9B7E83F093
:10FF90000103DBB2002B08D09DF8023083F001038F
:10FFA000DBB2002B01D0FFF7ABFF374B5B68002BB8
:10FFB0005FD136484FF4A271FFF780FB33484FF40E
:10FFC0009271FFF789FB03468DF80F302F484FF4ED
:10FFD0008471FFF781FB03468DF80E302B484FF4F8
:10FFE000A271FFF779FB03468DF80D309DF80E30B6
:10FFF00083F00103DBB2002B0DD09DF80D3083F0B0
:020000022000DC
:100000000103DBB2002B06D09DF80F3083F0010313
:10001000DBB2002BD2D19DF80F30002B0CD19DF814
:100020000D30002B08D1FFF77DFF174BDA7D164B03
:100030005B7EDBB29A42C1D8134B0022DA759DF881
:100040000F30002B01D0032319E09DF80D30002B59
:1000500001D00F2313E00C4B9B7E002B04D00B48E8
:100060000021FFF7B7FB09E008480421FFF7B2FBC6
:1000700004E006484FF40171FFF740FB00231846E7
:1000800005B05DF804FB00BF242D002000200040D7
:1000900000B585B001900B468DF8033013468DF8FE
:1000A000023036484FF48871FFF7C0FB33484FF4F5
:1000B000A271FFF7BBFB9DF80330304801991A4647
:1000C000FFF77CFC9DF8023083F00103DBB2002BCC
:1000D00004D02A480021FFF72BFC03E02748202109
:1000E000FFF7C4FB264B5B68002B3CD123484FF441
:1000F0008871FFF7A9FB03468DF80F301F484FF4B6
:10010000A271FFF7A1FB03468DF80E301B484FF498
:100110009271FFF799FB03468DF80D309DF80F3073
:1001200083F00103DBB2002B0DD09DF80E3083F07D
:100130000103DBB2002B06D09DF80D3083F00103E4
:10014000DBB2002BD2D10E4B0022DA759DF80D30B8
:10015000002B01D003230CE09DF80E30002B01D0C2
:100160000F2306E004E005484FF40471FFF79AFB03
:100170000023184605B05DF804FB00BF00200040D6
:10018000242D002000B585B001900B468DF803307A
:100190003D4B1B7F002B07D0019B1B0C1B04B3F1B5
:1001A000005F01D010236AE000238DF80F30364B3A
:1001B0005B68002B0ED0344B1B7F002B05D03348DF
:1001C0004FF40471FFF778FB04E030484FF40171FD
:1001D000FFF7AEFA2C4BDB7D002B1BD02A4B1B7E8E
:1001E000002B14D0284B5B68002B0ED0264B1B7FB6
:1001F000002B05D025484FF40471FFF753FB04E0B2
:1002000022484FF40171FFF779FA112337E00123F7
:100210008DF80F309DF80F3083F00103DBB2002B17
:100220000DD0194A9DF80330D375174A019BD3604E
:10023000154B00225A76144B00221A7606E0124A19
:10024000019B1361104A9DF8033013760E4B1B7F00
:10025000002B0AD09DF803209DF80F30019811461D
:100260001A46FFF715FF034609E09DF803209DF8A5
:100270000F30019811461A46FFF77EFE03461846D6
:1002800005B05DF804FB00BF242D002000200040D5
:1002900008B5084B1B7F002B0BD1064B9B7E83F0D0
:1002A0000103DBB2002B04D0FFF72AFE014B012231
:1002B0009A7608BD242D002000B587B00346009132
:1002C0008DF8073001238DF808309DF807308DF840
:1002D0001030009B0393054B5B68044A126802A927
:1002E00008461146984707B05DF804FB242D00200E
:1002F00000B587B003468DF8073000238DF808302D
:100300009DF807308DF81030084B9B680393074B1E
:1003100000229A75054B5B68044A126802A90846D8
:100320001146984707B05DF804FB00BF242D00205C
:1003300000B587B06F484FF40071FFF7E9F9034645
:10034000002B3AD06B484FF49271FFF7C5F9034682
:10035000002B32D067484FF49271FFF7AFF9654830
:100360004FF40171FFF7E4F9634B9B7E83F00103C7
:10037000DBB2002B03D05F480421FFF72BFA0223E6
:100380008DF800305B48FFF7DDF9034603935A4BC5
:10039000DB7D8DF80830584BDB680193564B00220B
:1003A000DA75554B00221A76534B5B68524A126835
:1003B000694608461146984753E04E480421FFF726
:1003C000A7F90346002B4CD04A484FF48471FFF73D
:1003D00083F90346002B44D0FFF7A4FD464BDA7D9A
:1003E000454B5B7EDBB29A423BD1434B1B7E002BDD
:1003F0001BD0414BDB6805933F4B5B7E8DF8133080
:100400003D4B1A7E3C4BDA753B4B1B693A4AD36035
:10041000394B00221A76384B00225A769DF8133059
:1004200018460599FFF748FF1BE0334B9B7E83F08E
:100430000103DBB2002B03D02E480421FFF7CAF9D9
:100440002C484FF40171FFF773F92B4B0022DA753A
:10045000294B5B7EDAB2284BDB6810461946FFF762
:100460002BFF24484FF48E71FFF736F90346002B1B
:1004700018D0214B9B8A9AB21F4B9B7D9BB29A420C
:1004800002D2FFF72DFC0DE01A484FF48E71FFF7F2
:1004900015F9194B9B7D002B04D0174B9B7D1846FB
:1004A000FFF726FF13484FF4A271FFF715F9034633
:1004B000002B1CD00F484FF4A271FFF7FFF80E4B32
:1004C0009B7E002B03D00B480021FFF783F90A4BDA
:1004D000DB7D002B0BD0084B0022DA75064B5B7ED0
:1004E000DAB2054BDB6810461946FFF7E5FE07B0A8
:1004F0005DF804FB00200040242D002000B587B0EB
:1005000054484FF49271FFF79FF90346002B25D012
:1005100050484FF49271FFF789F902238DF80030AB
:100520004C48FFF7D3F9034603934A48FFF758FABC
:100530000346DBB28DF80830474BDB680193464B2E
:100540000022DA75444B00221A76434B5B68424A1C
:100550001268694608461146984740E03D484FF406
:100560008871FFF771F90346002B38D039484FF4F2
:100570008871FFF75BF93748FFF732FA03468DF8C9
:100580001730354BDB7D9DF817209A4227D1324B2F
:100590001B7E002B18D0304BDB6804932D482021A4
:1005A000FFF772F92C4B1A7E2B4BDA752A4B1B691D
:1005B000294AD360284B00221A769DF81730184636
:1005C0000499FFF779FE0AE0234B0022DA75224BEB
:1005D000DB689DF8172010461946FFF76DFE1D4891
:1005E0004FF4A271FFF730F90346002B16D01948DB
:1005F0004FF4A271FFF71AF9174BDB7D002B0DD0DA
:10060000154B0022DA751348FFF7EAF90346DAB210
:10061000114BDB6810461946FFF74EFE0D484FF4AC
:100620009071FFF711F90346002B10D009484FF4E1
:100630009071FFF7FBF8084B9B7D002B07D0054816
:10064000FFF7B4F90346DBB21846FFF751FE07B0D7
:100650005DF804FB00200040242D002008B5054B68
:100660001B7F002B02D0FFF749FF01E0FFF760FE80
:1006700008BD00BF242D002082B0EFF3108300934B
:10068000009B019372B6019B184602B0704700BFF1
:1006900062B6704700B585B00190FFF7EDFF03909B
:1006A000164B9B68002B1BD1144B01229A60144BF4
:1006B000D3F88020134B1340104A1360104B114A9B
:1006C000C3F880200E4BD3F884300C4A53600C4B97
:1006D0004FF0FF32C3F88420019B00221A7002E021
:1006E000019B01221A70039B002B01D1FFF7D0FF61
:1006F0000023184605B05DF804FB00BF243C002031
:1007000000E100E0FC06FFBC00B585B003468DF8B3
:100710000730104B9B68002B16D09DF80730002B3C
:1007200012D1FFF7A9FF03900B4A0A4B1B68136015
:10073000094A084B5B685360064B00229A60039B92
:10074000002B01D1FFF7A4FF0023184605B05DF888
:1007500004FB00BF243C002000E100E000B583B0B2
:1007600001900198FFF796FF03B05DF804FB00BF0E
:1007700000B583B003468DF807309DF80730184662
:10078000FFF7C2FF03B05DF804FB00BF4FF08053DA
:100790001B699BB21846704700B583B04FF0102319
:1007A0005B690193019BB3F1FF3F07D0FFF7EEFFB9
:1007B00003461A46019BB3FBF2F302E04FF080536D
:1007C0005B69184603B05DF804FB00BF82B001907E
:1007D000019B03F00303002B0CBF01230023DBB2BA
:1007E000184602B0704700BF29DF7047184600BFA7
:1007F00028DF7047184600BF08B50C4B1B78184619
:1008000000F040FA094B5B78013BDAB2074B5A70B3
:10081000064B1B780133DAB2044B1A70034B1B787A
:100820001E2B02D1014B00221A7008BD442D00205E
:1008300008B50A4B1B781A4613469B0013449B00CD
:10084000064A134404330020194600F0EBFAFFF780
:10085000D3FF002000F044F908BD00BF442D002064
:1008600008B5044B00221A60034B00221A6000F006
:10087000CFFA08BDB82F0020D42F002000B583B0D8
:1008800001900A4B1B781A4613469B0013449B00A9
:10089000064A134404330198194600F0C3FA0420B1
:1008A00000F01EF903B05DF804FB00BF442D0020EA
:1008B00000B583B00190019B002B0DD0112B06D108
:1008C000074B1B6843F00803054A136005E00198D5
:1008D000FFF7D4FF00BF00E000BF03B05DF804FBEA
:1008E000DC2F002000B585B003900291019203989F
:1008F0000299019AFFF778FF03461846FFF7D8FFE1
:1009000005B05DF804FB00BF30B583B0274B1B7802
:100910001A4613469B0013449B00244A1344043395
:100920000193019B5C88FFF731FF03469C4224D969
:10093000019B5B881C46FFF729FF0346E31A0093DF
:10094000019BDB68019A92881A44009B13441D4660
:10095000019B1A69009BD418FFF718FF03469B08F8
:100960009BB2284621461A46FFF7BCFFFFF70EFF51
:1009700003461A460E4B1A6015E0019BDB68019A8C
:10098000928813441946019B1A69019B5B889B0856
:100990009BB2084611461A46FFF7A4FF019B5B88ED
:1009A0001A46034B1A6003B030BD00BF442D00202F
:1009B000D42F002008B5FFF7A7FF08BD10B584B0FD
:1009C000274B1B6823F00103254A1360254B1B7836
:1009D0001A4613469B0013449B00224A13440433D7
:1009E0000393039BDB680293FFF7D0FE03461A468E
:1009F000029BB3FBF2F301931B4A019B1360039B21
:100A00005B881A46029B13445C1EFFF7BFFE034639
:100A1000B4FBF3F30093019A009B9A4206D1104B6A
:100A20001B6843F002030E4A136005E00C4B1B6881
:100A300023F002030A4A13600C4B1B68002B09D1F8
:100A4000074B1B6803F00203002B03D1022000F0C8
:100A500009F902E0002000F005F904B010BD00BF64
:100A6000DC2F0020442D0020B42F0020AC2F0020CC
:100A700000B583B001900198FFF7BAFE034618460F
:100A8000FFF716FF03B05DF804FB00BF08B5034B8A
:100A90001B681846FFF7ECFF08BD00BFB42F00200D
:100AA00008B50E4B1B78032B16D801A252F823F081
:100AB000C10A0200C70A0200CD0A0200D30A0200DE
:100AC000FFF7CEFE09E0FFF775FF06E0FFF776FFC0
:100AD00003E0FFF7DBFF00E000BF08BDA82F002008
:100AE00000B583B003468DF80730044A9DF80730FF
:100AF0001370FFF7D5FF03B05DF804FBA82F0020AB
:100B000010B5FFF749FE03465C1EFFF73FFE0346A4
:100B100003FB04F4FFF73AFE0346B4FBF3F3184675
:100B2000FFF7A6FF10BD00BF38B5FFF735FE03463F
:100B30005C1EFFF72BFE034603FB04F31D46FFF785
:100B400025FE03461A46084B1B6803FB02F31C46AE
:100B5000FFF71CFE03469B089BB2284621461A4617
:100B6000FFF7C0FE38BD00BFB42F002008B5034B0F
:100B70001B681846FFF77CFF08BD00BFB42F00209C
:100B800030B585B01E4B1B781A4613469B001344A4
:100B90009B001B4A134404330393039BDB680293BB
:100BA000039B5B881A46029B1344039A92889C1805
:100BB000FFF7ECFD0346B4FBF3F203FB02F3E31A89
:100BC0000193039B5B881A46029B1344039A928805
:100BD00013441D46FFF7E0FD03465C1EFFF7D6FDFC
:100BE000034603FB04F2019B13441A46054B1B68A2
:100BF000284611461A46FFF775FE05B030BD00BF06
:100C0000442D0020B02F002038B50D4B1B685C1E12
:100C1000FFF7BCFD034603FB04F31D46FFF7BCFDD5
:100C200003465C1EFFF7B2FD034603FB04F31A46BE
:100C3000044B1B68284611461A46FFF753FE38BD81
:100C4000B42F0020AC2F002008B5044B1B781A46A7
:100C5000034B53F82230984708BD00BFA92F00204E
:100C6000040E030000B583B003468DF80730044A34
:100C70009DF807301370FFF7E7FF03B05DF804FB42
:100C8000A92F002082B001901D49019A13469B00B4
:100C900013449B000B4400221A711949019A134610
:100CA0009B0013449B000B440022DA801449019AF4
:100CB00013469B0013449B000B44083302225A60E6
:100CC0000F49019A13469B0013449B000B440833C1
:100CD00000229A600A49019A13469B0013449B0024
:100CE0000B44103300225A600549019A13469B00B9
:100CF00013449B000B4400221A8102B0704700BFCE
:100D0000442D002000B583B00A4B00221A70094B15
:100D100000225A700023019305E00198FFF7B2FF0B
:100D2000019B01330193019B1D2BF6D903B05DF8A4
:100D300004FB00BF442D002000B587B00291019252
:100D40001A4603468DF80F301346ADF80C302E4B83
:100D50005B781E2B51D02C4B1B781A462A4B5B78A4
:100D600013440493049B1D2B02D9049B1E3B049344
:100D70002549049A13469B0013449B000B449DF89D
:100D80000F201A712049049A13469B0013449B00BC
:100D90000B441033019A5A601B49049A13469B0076
:100DA00013449B000B440833029A043392E8030077
:100DB00083E803001449049A13469B0013449B00E4
:100DC0000B44BDF80C20DA800F49049A13469B00AF
:100DD00013449B000B44BDF820201A810A4B5B781A
:100DE0000133DAB2084B5A70084B1B78002B01D143
:100DF00000F090FB0023059301E004230593059B7D
:100E0000184607B05DF804FB442D0020A82F0020F1
:100E100008B5034B5B78002B01D000F07BFB08BDCD
:100E2000442D002030B587B003900291029B1B78BF
:100E30008DF81730029B9A680C4913465B001344E7
:100E40009B000B441B680493029B03F10801029B67
:100E50001D69074B1B689DF817200093049C0846EA
:100E60001146039A2B46A04707B030BDBC2F002087
:100E7000D82F002010B584B0184B1B781A461346A3
:100E80009B0013449B00154A134404330293029BB6
:100E9000DB680193029B5B881A46019B1344029A0C
:100EA000928813445C1EFFF771FC0346B4FBF3F316
:100EB00000930B4B1B68002B08D00A4B1A68009B51
:100EC0009A4203D101238DF80F3002E000238DF800
:100ED0000F309DF80F30184604B010BD442D00208F
:100EE000B02F0020B42F002000B583B00B4B1B782F
:100EF0001A4613469B0013449B00084A13440433CC
:100F00000193019B1B78042B02D0FFF791FC01E0B9
:100F100000F0F6FA03B05DF804FB00BF442D00209A
:100F200008B5FFF7E1FF08BD10B584B01B4B1B7877
:100F30001A4613469B0013449B00184A134404337B
:100F40000293029BDB680193029B5B881A46019B1C
:100F50001344029A928813445C1EFFF717FC034661
:100F6000B4FBF3F300930E4B1A68009B9A4208D32C
:100F70000B4B1A68009B9A4207D10A4B1B68002B47
:100F800003D101238DF80F3002E000238DF80F30DC
:100F90009DF80F30184604B010BD00BF442D00204E
:100FA000B42F0020B02F002008B5064B1B6823F09B
:100FB0000803044A1360044B1B781846FFF752FEDF
:100FC00008BD00BFDC2F0020A92F002008B5194B59
:100FD0001B6803F00803002B28D1FFF74BFF0346E3
:100FE000002B0CD0144B00221A60124B1B6843F0EC
:100FF0000103104A13600020FFF734FE18E0FFF7EA
:1010000093FF0346002B06D00B4B00221A600220F0
:10101000FFF728FE0CE0094B1B68002B03D00320D0
:10102000FFF720FE04E0FFF77BFF01E0FFF7BCFFC6
:1010300008BD00BFDC2F0020AC2F0020B02F002007
:1010400008B5064B1B6803F00803002B02D1FFF71D
:1010500067FF01E0FFF7A8FF08BD00BFDC2F0020FD
:1010600008B51D4B1B6803F00803002B30D11B4B48
:101070001B680133194A1360194B1B68002B03D0FE
:101080000420FFF7EFFD25E0FFF74EFF0346002B9E
:1010900003D00220FFF7E6FD1CE0124B1B68002B7B
:1010A00013D00D4B1B6803F00103002B09D10A4B31
:1010B0001B6843F00103084A13600020FFF7D2FDCC
:1010C00008E00320FFF7CEFD04E0FFF729FF01E071
:1010D000FFF76AFF08BD00BFDC2F0020B42F0020FF
:1010E000AC2F0020B02F002008B50C4B1B6803F07C
:1010F0000803002B0FD1094B1B6803F00203002BE0
:1011000005D0064B1B6843F00103044A136002201C
:10111000FFF7A8FD01E0FFF747FF08BDDC2F002027
:1011200008B5064B1B6803F00803002B03D1012010
:10113000FFF798FD01E0FFF737FF08BDDC2F002027
:1011400008B5044B1B781A46034B53F822309847D6
:1011500008BD00BFA92F0020180E030008B5064BDC
:101160001B6823F00803044A1360044B1B781846DD
:10117000FFF7B6FC08BD00BFDC2F0020A82F002021
:1011800008B50F4B1B6803F00803002B15D10D4B5E
:101190001B6801330B4A1360FFF7C6FE034683F05A
:1011A0000103DBB2002B02D0FFF79EFE07E0064BE7
:1011B0001B781846FFF794FC01E0FFF7CFFF08BD4E
:1011C000DC2F0020B42F0020A82F002000B583B012
:1011D000144B1B6803F00803002B1DD1124B1B7826
:1011E0001A4613469B0013449B000F4A13440433D2
:1011F0000193019B5A880D4B1B689BB2D31A9AB27C
:10120000019B5A80019B5B88002B02D1FFF710FBEA
:1012100004E0FFF779FB01E0FFF7A0FF03B05DF802
:1012200004FB00BFDC2F0020442D0020D42F002021
:1012300008B5094B1B78022B0AD0032B05D0012BD4
:1012400000D008E0FFF7C2FF05E0FFF799FF02E0DA
:10125000FFF776FF00BF08BDA82F002008B50F4B91
:101260001B6801330D4A13600C4B1B68B3F57A7F82
:101270000FD00B4B1B78022B05D0094B1B7818465F
:10128000FFF72EFC08E0074B1B781846FFF7EAFC37
:1012900002E00D20FFF7F2FA08BD00BFB82F0020D2
:1012A000A82F0020A92F002000B583B00190104B7B
:1012B0001B78002B18D00E4B1B78042B14D0019BED
:1012C000022B02D0032B03D00EE0FFF7B1FF0BE09F
:1012D000084B1B6803F00803002B02D1FFF7BEFF89
:1012E00001E0FFF7A5FF00BF03B05DF804FB00BFFE
:1012F000A82F0020DC2F002010B584B003460A463A
:10130000ADF806301346ADF80430FFF73FFA034658
:101310001A46BDF80430B3FBF2F39BB20393FFF718
:1013200035FA03461A46BDF80630B3FBF2F39BB21A
:101330000293039A029B9A4208D1BDF80420BDF89B
:101340000630D31A9B080C4A136013E0FFF71EFA0D
:1013500003461C46FFF71AFA03461A46BDF8063044
:10136000B3FBF2F102FB01F29B1A9BB2E31A9B085A
:10137000014A136004B010BDB02F002010B588B032
:101380005A4B1B781A4613469B0013449B00574A3E
:10139000134404330793079BDB680693079B9A6803
:1013A000534913465B0013449B000B4408331B88CE
:1013B000ADF81630079B9A684D4913465B001344FD
:1013C0009B000B4408335B88ADF81430079B9A6888
:1013D000474913465B0013449B000B445B6804932E
:1013E000FFF7D4F903461A46069BB3FBF2F102FB62
:1013F00001F29B1A002B0CBF012300238DF80F3044
:10140000BDF81630BDF8142002FB03F31A46049B06
:1014100013440293079B5B881A46069B1344079A62
:10142000928813440193334B00221A609DF80F30C9
:10143000002B06D0079B5C88FFF7A8F903469C4267
:101440000FD09DF80F30002B07D0019A029B9A42D3
:1014500003D1079B9B88002B03D0079B9B68032B22
:101460000CD1FFF793F903461A46069BB3FBF2F340
:10147000214A13600320FFF733FB35E0079B9B886D
:101480001A46069BD418FFF781F90346B4FBF3F222
:1014900003FB02F3E31A9B08184A1360FFF776F97F
:1014A00003461A46019BB3FBF2F102FB01F29B1AC1
:1014B000002B0CBF012300238DF80330019A029BFF
:1014C0009A420ED09DF8033083F00103DBB2002B6B
:1014D00007D0019B9AB2029B9BB210461946FFF7B8
:1014E0000BFF0220FFF7FCFA08B010BD442D0020CE
:1014F000BC2F0020B02F0020B42F0020AC2F0020E4
:1015000008B50120FFF7ECFA08BD00BF08B5FFF7EA
:1015100035FF08BD00B583B0124B1B781A46134641
:101520009B0013449B000F4A134404330193019B17
:101530005B881A460C4B1A60019B1B78032B07D063
:10154000042B08D0012B00D008E0FFF7D9FF05E0FD
:10155000FFF714FF02E0FFF7D9FF00BF03B05DF80B
:1015600004FB00BF442D0020D82F002010B582B00E
:10157000FFF7C8FB264B00221A80FFF70DF9034640
:10158000DC1EFFF703F9034603FB04F3214A136053
:10159000214B00221A60002301931FE01F49019A8A
:1015A00013465B0013449B000B4400221A601B4946
:1015B000019A13465B0013449B000B44083300223E
:1015C0001A801649019A13465B0013449B000B4492
:1015D000083300225A80019B01330193019B012BA8
:1015E000DCD90F4B00221A700E4B00221A600E4BF2
:1015F00000221A600D4B00221A600B4B1B6843F04F
:101600000403094A13600023184602B010BD00BF4E
:10161000A02F0020A42F0020B42F0020BC2F0020DA
:10162000A82F0020B82F0020DC2F0020D42F00206E
:1016300030B585B0019000915A4B1B6803F004034C
:10164000002B01D10823A9E0019B002B01D10E231F
:10165000A4E0009B002B01D10E239FE0019B1B689F
:10166000002B01D10E2399E0019B9C88FFF78EF897
:1016700003469C4203D8019B9B880F2B01D807236C
:101680008CE0019BDB88002B15D0019BDB881A4680
:10169000019B9B8803FB02F31A46434B1B68D4183B
:1016A000FFF77AF803465D1EFFF770F8034603FB69
:1016B00005F39C4201D9072370E0019B9B8803F04E
:1016C00003039BB2002B01D0072367E0374B1B8835
:1016D000022B01D1042361E0344B1B881A46009B86
:1016E0001A60314B1A68009B5A60304B1B881846B1
:1016F000009B5A682E4903465B0003449B000B4441
:101700005A602A4B1B881846019B1A6828490346D1
:101710005B0003449B000B441A60244B1B88194652
:10172000019B9888224A0B465B000B449B001344A4
:10173000083302461A801D4B1B881946019BD88826
:101740001B4A0B465B000B449B00134408330246C4
:101750005A80019B9B881A46019BDB8803FB02F49D
:10176000FFF714F8034623445C1EFFF70FF8034607
:1017700094FBF3F30393FFF709F803461A46039B20
:1017800003FB02F2084B1B681344074A1360074B24
:101790001B8801339AB2054B1A800023184605B006
:1017A00030BD00BFDC2F0020A42F0020A02F002080
:1017B000BC2F002030B486B003900B460192ADF8E8
:1017C0000A30344B1B6803F00403002B01D10823BB
:1017D0005CE0039B002B01D10E2357E0019B002B03
:1017E00001D10E2352E0039B1B68012B0AD8039BF7
:1017F0001A68294913465B0013449B000B441B687D
:10180000002B01D1072341E0039A04AB92E80300C7
:1018100083E803000599BDF80A00039B1A681E4C73
:1018200013465B0013449B00234408331B8803FBCF
:1018300000F30B4405930599049A174813465B007F
:1018400013449B0003445868049A134C13465B00EE
:1018500013449B00234408335B881D46049A0E4CB6
:1018600013465B0013449B00234408331B8803FB8F
:1018700005F30344994201D3072307E0019B1A466D
:1018800004AB93E8030082E803000023184606B087
:1018900030BC7047DC2F0020BC2F002030B587B053
:1018A0000590049111461A460B46ADF80E301346CA
:1018B000ADF80C30504B1B6803F00403002B01D132
:1018C000082395E0049B002B01D10E2390E0059B9B
:1018D000002B01D10E238BE0059B1B68012B0AD83E
:1018E000059B1A68454913465B0013449B000B4453
:1018F0001B68002B01D107237AE0059B5968059BE3
:101900001A683E4813465B0013449B000344586822
:10191000059B1A68394C13465B0013449B00234413
:1019200008335B881D46059B1A68344C13465B00E0
:1019300013449B00234408331B8803FB05F3034433
:10194000994201D3072353E0BDF80E30002B0DD090
:10195000059B1A68294913465B0013449B000B44FE
:1019600008331B88BDF80E209A4201D907233FE0B7
:10197000BDF80E20BDF80C30D118059B1A681F4821
:1019800013465B0013449B00034408331B889942B1
:1019900001DD07232CE00498FEF718FF034683F0CF
:1019A0000103DBB2002B15D1BDF80C301846FEF751
:1019B0000DFF034683F00103DBB2002B0AD1059B28
:1019C0005B681846FEF702FF034683F00103DBB2B3
:1019D000002B01D010230BE0BDF80E40BDF80C30F9
:1019E000009301200599049A2346FFF7A5F90346C1
:1019F000184607B030BD00BFDC2F0020BC2F0020F0
:101A000030B587B00590049111461A460B46ADF8E3
:101A10000E301346ADF80C30504B1B6803F0040336
:101A2000002B01D1082395E0049B002B01D10E234C
:101A300090E0059B002B01D10E238BE0059B1B68DA
:101A4000012B0AD8059B1A68454913465B001344CD
:101A50009B000B441B68002B01D107237AE0059BF8
:101A60005968059B1A683E4813465B0013449B0067
:101A700003445868059B1A68394C13465B001344AD
:101A80009B00234408335B881D46059B1A68344C31
:101A900013465B0013449B00234408331B8803FB5D
:101AA00005F30344994201D3072353E0BDF80E30F8
:101AB000002B0DD0059B1A68294913465B0013447F
:101AC0009B000B4408331B88BDF80E209A4201D9B5
:101AD00007233FE0BDF80E20BDF80C30D118059B60
:101AE0001A681F4813465B0013449B0003440833E5
:101AF0001B88994201DD07232CE00498FEF766FE5F
:101B0000034683F00103DBB2002B15D1BDF80C3086
:101B10001846FEF75BFE034683F00103DBB2002BA1
:101B20000AD1059B5B681846FEF750FE034683F01A
:101B30000103DBB2002B01D010230BE0BDF80E40F7
:101B4000BDF80C30009304200599049A2346FFF752
:101B5000F3F80346184607B030BD00BFDC2F002065
:101B6000BC2F002030B587B00590049111461A466D
:101B70000B46ADF80E301346ADF80C30594B1B68D0
:101B800003F00403002B01D10823A8E0049B002BE1
:101B900001D10E23A3E0059B002B01D10E239EE073
:101BA000049B1B68012B0AD8049B1A684E491346F4
:101BB0005B0013449B000B441B68002B01D10723DF
:101BC0008DE0049B5968049B1A68474813465B00E4
:101BD00013449B0003445868049B1A68424C134604
:101BE0005B0013449B00234408335B881D46049B21
:101BF0001A683D4C13465B0013449B002344083392
:101C00001B8803FB05F30344994201D3072366E0D5
:101C1000BDF80E30002B0DD0049B1A6832491346D4
:101C20005B0013449B000B4408331B88BDF80E2057
:101C30009A4201D9072352E0BDF80E20BDF80C30BE
:101C4000D118049B1A68284813465B0013449B0074
:101C5000034408331B88994201DD07233FE00598C0
:101C6000FEF7B4FD034683F00103DBB2002B15D170
:101C7000BDF80C301846FEF7A9FD034683F00103BA
:101C8000DBB2002B0AD1049B5B681846FEF79EFD71
:101C9000034683F00103DBB2002B01D010231EE0CA
:101CA000BDF80C20049B5B6813441A46BDF80E3047
:101CB000059811461A460EF061F9049B1A680A4904
:101CC00013465B0013449B000B441C68BDF80E30A8
:101CD0000093049802210022059BA0470023184688
:101CE00007B030BDDC2F0020BC2F002030B589B0FC
:101CF00003900B46ADF80A30644B1B6803F00403F5
:101D0000002B01D10823BDE0039B002B01D10E2342
:101D1000B8E0039B1B68012B0AD8039B1A685C4937
:101D200013465B0013449B000B441B68002B01D13E
:101D30000723A7E0039B5968039B1A68544813467E
:101D40005B0013449B0003445868039B1A68504C83
:101D500013465B0013449B00234408335B881D46F5
:101D6000039B1A684A4C13465B0013449B002344B0
:101D700008331B8803FB05F30344994201D307236F
:101D800080E0039B5B681846FEF720FD034683F066
:101D90000103DBB2002B01D0102373E0039B5968D1
:101DA000039B1A683A4813465B0013449B000344A4
