:020000040000FA
:10000000E00D0020150100002F010000310100006B
:1000100000000000000000000000000000000000E0
:10002000000000000000000000000000330100009C
:100030000000000000000000350100003701000052
:100040003901000011080000B10B00003901000067
:1000500039010000000000003901000039010000F2
:1000600039010000F90A0000450B000039010000C9
:100070003901000039010000390100003901000098
:100080003901000039010000390100003901000088
:10009000D1090000390100003901000039010000D8
:1000A00039010000390100000000000000000000DC
:1000B0000000000000000000000000000000000040
:1000C0000348854600F080FA00480047D92B00001D
:1000D000E00D0020401E00BF00BF00BF00BF00BFFA
:1000E00000BF00BF00BF00BF00BF00BF00BFF1D115
:1000F00070470000401E00BF00BF00BF00BF00BF30
:1001000000BF00BF00BF00BF00BF00BF00BFF1D1F4
:10011000704700000321094802680A43026008484A
:1001200002680A4302600748804707480047FEE725
:10013000FEE7FEE7FEE7FEE7FEE7000024050040DD
:1001400054050040590A0000C100000030B50B46BC
:10015000014600202022012409E00D46D5409D42A1
:1001600005D31D469540491B254695404019154627
:10017000521E002DF1DC30BD03460B439B0703D01C
:1001800009E008C9121F08C0042AFAD203E00B785C
:100190000370401C491C521EF9D27047D2B201E0D4
:1001A0000270401C491EFBD270470022F6E710B5D2
:1001B00013460A4604461946FFF7F0FF204610BDD5
:1001C00030B504460020034600E05B1C934203D296
:1001D000E05CCD5C401BF8D030BDF0B51FB40646E6
:1001E000002082B005464024019100901BE0019957
:1001F00022460F46304600F009FA049A059B801A01
:10020000994110D310461946224600F0EFF9361AEC
:100210008F410197224601200021009F00F0E6F95E
:1002200038184D4100902046641E0028DFDC019BF9
:1002300000982946324607B0F0BD0000F0B50746E9
:100240000846584087B0C00F049048000E46590039
:1002500040084908BC1A884105D2384631461E4636
:1002600017460B4602465800400810434CD0300D4C
:10027000039040055900400D490D0590401A029029
:10028000402872DA18030121000B09050843019088
:1002900004980092002805D001995242002088411C
:1002A00000920190029840210A1A0199009800F0EA
:1002B0009DF905460C466B4607CB00F0B8F9C0190E
:1002C0007141039A0E0D0023D71756401A467A4003
:1002D000164344D0049A002A2DD0029A012A039A88
:1002E00015DC1205C01A914101263605001C71412A
:1002F000D20F059ED2070093019202962A4623460A
:1003000000F0B5F907B0F0BD38463146FAE71605FA
:10031000224A0F46B218C01AB74101210905001C34
:100320004F4100187F41114618187941E20F1043E0
:100330006D19644113E0E2076D0815436408C207B4
:100340001443039A01261205C01A91413605001C78
:100350007141CE07400830434908C01851412A4630
:10036000234600F077F9CDE7FFE70498012240002B
:10037000C117121A00238B4104983146C417381A4A
:10038000A141EEE730B40124E407634030BC55E7F7
:1003900030B40124E407614030BC4FE70000E0FFC7
:1003A000F0B51FB488B00B9909980024484009990A
:1003B000C00F490049080991C0070B9900904900F6
:1003C00049080B9109990898A64608431CD00B9937
:1003D0000A98084318D0099801244000420D4800AB
:1003E000410D099824050003000B204309900B9848
:1003F0000003000B20430B9050181C4940180022AA
:1004000001901446104605E0002001460DB0F0BDF5
:10041000032801DA034600E003239C46C11A0AAE12
:100420000AE05F0008ADED5B4F00F75B7D430027FE
:10043000AA187C41491C5B1E6145F2DD410004ABFA
:100440005A522104120C0A43240C401C0828DFDBFA
:10045000019802900099704601910090059B049AC2
:100460000799069800F003F9D0E700000DFCFFFFA4
:10047000F0B50C465C4085B0E40FE40703944C00F3
:100480000026640859009446490802460296224311
:1004900021D062460A431ED06200570D4A000E0367
:1004A0002303550D012402462C492405781B1B0B00
:1004B000360B401823432643614600901C46501AD1
:1004C000B44103D30098401C009002E092180098B9
:1004D0005B41002803DA0020014605B0F0BD002092
:1004E000012109050746864611E064461D46141B96
:1004F000B54106D36546521BB341744607430C43CE
:10050000A646CD0740084908284392185B41054696
:100510000D43EAD11046184313D0604619465040A7
:100520007140084306D06046101AB34106D201223A
:10053000002306E000220123DB0702E00122D24370
:100540005310009874460105381C6141029C039DBC
:100550000019694100F07EF8BFE70000FD030000CC
:100560004A0009030123090B1B0519430A4B10B567
:10057000520D9A4202DA0020014610BD064B343378
:100580009A4203DC9A1A00F041F810BD034BD218CE
:1005900000F02CF810BD0000FF030000CDFBFFFFB2
:1005A00010B5002904DB0124E40740428C412146B8
:1005B000002B04DB1C460123DB075242A341994276
:1005C00000D1904210BD0000064C0125064E05E00A
:1005D000E36807CC2B430C3C98471034B442F7D364
:1005E000FFF772FD80590000A059000010B5202AC5
:1005F00004DB0146203A9140002010BD91402023A9
:100600009C1A0346E3401943904010BD10B5202AC0
:1006100004DB0846203AD040002110BD0B46D340F1
:10062000D0402024A21A91400843194610BD10B5AD
:10063000202A06DBCB170846203A1041C1170B438E
:1006400006E00B461341D0402024A21A91400843F3
:10065000194610BD10B5002B08DA0024401C61417A
:1006600092185B411A4301D14008400010BDF0B51B
:100670001FB482B005460C0003D0084600F0ACFA67
:1006800002E000F0A9FA20300246009021462846F8
:10069000FFF7ACFF049B059A04460F46184311432D
:1006A000084314D0184610431BD0009840210A1A62
:1006B00018460599FFF7AAFF05460E46009A0599C8
:1006C0000498FFF793FF084305D0012004E020467B
:1006D000394607B0F0BD0020C11705430E432C4337
:1006E000374300990E986305401A7905E40A002201
:1006F0000C43FD0A0A3002D500200146E9E7010556
:10070000101969410C9C0D9D00196941FFF7A2FF6A
:10071000DFE710B502F0E0FB10BD0000F7B50746BB
:10072000002401202E490004154688602D4EB07823
:10073000002802D02C48FFF7ECFF002F02D12B48F5
:10074000FFF7E7FF7068002802D02948FFF7E1FFB4
:10075000284677600127274D002820D0012828D07F
:10076000022824D02448FFF7D4FF2448B770002182
:1007700001600199611889B229602E6820494F6093
:100780006D680068002802D01E48FFF7C2FFA6422D
:1007900011D3A54201D3B5421CD31B4818E0184819
:1007A00047606C680760154900200860DDE7AC68A9
:1007B000DBE72C68D9E7B54201D2012000E0002038
:1007C000AC4201D8012100E00021884202D10F484B
:1007D000FFF79FFF012002490004486003B0F0BD0D
:1007E00000A30040740000207300040075000400A2
:1007F0007600040040A500408900040040A10040AC
:1008000040A000409B000400B0000400C9000400A8
:10081000F8B55F4C20696778401C2061607D002836
:1008200002D05C48FFF775FF204622785A4D00241D
:100830005A495B4E032A3FD1CA68002A3CD0012F97
:1008400003D0022F2FD057489EE0074600690328A7
:1008500002D05548FFF75DFF02203870B969491C86
:10086000B96152490C60C11EA960514908604B48EA
:10087000C460046004614460032179707C603C754D
:100880003268117D00290AD04A498B68BB75C46162
:10089000494B01209861494B042098608C60D068D6
:1008A00000283AD1F8BD0069012802D04448FFF77A
:1008B00030FF04F0CFF8F8BD032F64D0012F2ED005
:1008C000022FF6D042783F4B1201D218137B00273B
:1008D000002B03D0CB68002B00D00127927A334B3A
:1008E00002701C60032A48D00022D243AA60304B19
:1008F00002221A60CC60032242700C600C614C60D2
:100900004460047530680069002800D08047002FDB
:10091000D1D0306880680028CDD08047F8BD02690A
:10092000012A18D0022AF9D1CC600C610C601F4951
:100930000C60111FA96008216960032101704460E7
:10094000047530680069002800D0804730688068EE
:100950000028E2D1F8BD0C604C600021C943A960B9
:10096000012169603168097D002902D0134A042100
:1009700051601549C0684860F8BD0822D243AA609A
:1009800008226A60B9E71148FFF7C3FEF8BD00000E
:10099000CC02002090010A0000130040001100402A
:1009A0007C000020A9010A009F010A0000120040FB
:1009B00080E200E0401500400010004000F50140DA
:1009C000A4010A005059000000150040D6010A0099
:1009D000F8B5204D2C468034012080F310886068E3
:1009E000002832D020680C21484340190279310A8E
:1009F000090211434279FF231B02120299431A4054
:100A0000114382791B02120499431A401143C2799F
:100A10000E02360A11060E4381688289C08997B298
:100A2000000407436068401E60602068401C20602E
:100A300020680A2801D300202060002080F310885D
:100A40002B683A4630469847C6E7002080F3108866
:100A5000F8BD0000F002002010B501F0FDFE0028F6
:100A600005D01F491D484860C8131E4988611E48AB
:100A7000018CC9B201290BD1828C120708D1028DD9
:100A80001206120F042A03D1828D1206120F0AD009
:100A9000012921D1818C09071ED1018D0906090F79
:100AA0000A2904D007E0114A01219160F5E7828DFF
:100AB0001206120F05D00D290ED1808D0006000FF1
:100AC0000AD10B480168012904D00A490160016874
:100AD0000129FCD1C021416110BD0000DFFF07C02A
:100AE00000050040006C0040C00F00F00006004010
:100AF00000EC06407593000010B50F480022017805
:100B0000142905D2491CC9B201700A2901D302E097
:100B10000270022101E00121C943084803685B1803
:100B20000360436859184160012141720448026022
:100B300000F061FA10BD00000700002098010020BD
:100B40004091004070B501201349000488601348AB
:100B500000250560124C6068002802D11148FFF79B
:100B6000D8FDA570636810480122656042600F4897
:100B70004168006895031430A94205D20325AD03EE
:100B8000A84201D9627005E0814201D3012000E052
:100B900000206070984770BD00A3004040A1004055
:100BA00074000020EC00040040A0004040A500407C
:100BB00010B504F073FD10BD0FB410B503A9044BBC
:100BC000044A029800F01CFC10BC08BC04B0184792
:100BD000711E00001C0000202021020C01D01021F9
:100BE0001046020A01D010460839020901D0104609
:100BF000091F820801D01046891E420801D0881EB4
:100C00007047081A704702E008C8121F08C1002A7E
:100C1000FAD170477047002001E001C1121F002A7D
:100C2000FBD17047F0B51FB484B007980699020D48
:100C3000014314D04A484B491018484305140F98F3
:100C400001280E981CD0281A401C0024464E474903
:100C5000009401910290002814DA474227E00F988F
:100C6000012443A3012808D0002104980F9A84602E
:100C70000360C260416009B0F0BD0E98C143F4E763
:100C80004042E2E7074612E0F80707D02246334623
:100C900001990098FFF784FB0191009022463346AA
:100CA00010461946FFF77CFB04460E467F10002FC6
:100CB000EAD10298019B0028009A0799069802DA67
:100CC000FFF76EFB01E0FFF7D3FB04460E46002260
:100CD000284BFFF765FC03D80020C043014607E01E
:100CE0000022254B20463146FFF7A8FAFFF738FCD3
:100CF000102409E0002C0ADB0A220023FFF76DFA1A
:100D0000059B30321A55641E02460A43F2D1112265
:100D1000641C059B121B1C190F9B012B03D0012384
:100D200008430ED10AE0084304D011200E900020A1
:100D30000F9084E70E98151A6D1E0BE00E988242F4
:100D400002DD00236D1C03E0824201DA00236D1EE8
:100D5000002BEED004980F998260C16030C08AE702
:100D600001FCFFFF104D0000000024400000F03F98
:100D7000300000000000F0430000E03FF8B50446FA
:100D800000251E461746880404D405E03946202075
:100D9000B0476D1C641EF9D52846F8BDFFB5044662
:100DA000002581B01E46C80301D5302700E020276A
:100DB000880404D505E038460399B0476D1C641ECD
:100DC000F9D5284605B0F0BD10B58268C3689342D6
:100DD00003D000F0FDF8002010BD052010BD002953
:100DE00006D0002A02D0531E134203D009207047B8
:100DF0000E2070470160838000218160C160084639
:100E0000704710B58268C3689A1A83889A4203D8DB
:100E100000F0E8F8002010BD042010BD70B50446B5
:100E2000224888B01E460D0042601CD0A888296860
:100E300082B21F48FFF7D3FF002815D1A889A968FF
:100E400082B21B481030FFF7CAFF00280CD12022C5
:100E500018496846FFF790F9A068069020790028A5
:100E600004D0012103E0072008B070BD00216846CE
:100E7000017506776079002800D00E206946487514
:100E8000E0780290A078039020780190607800903C
:100E90000949684602F0CEF80028E5D102F054F97D
:100EA00002480121401C02F029F9DDE7080000207A
:100EB000A4010020FC580000ED55000010B50146CB
:100EC0000A48FFF79EFF04000ED102F0E3F9002864
:100ED0000AD107490548FFF777FF002804D101210F
:100EE000034802F08BF90446204610BDB4010020EF
:100EF0000800002070B503F063FD1C4C00251C4E5B
:100F00000120256130701B481B490069086304F00B
:100F100023F900281FD004F01FF9032802D0174836
:100F2000FFF7F7FB022003F047FE002003F0BEFEB0
:100F300004F012F9032802D01148FFF7EAFB3078D9
:100F4000012802D00F48FFF7E4FB022030700E4862
:100F50002561E06070BD03F037FF0228E2D304F0A2
:100F600087F960600028DDD10848D9E7A802002091
:100F70006000002058020020001500408005090094
:100F80008805090092050900ED1A00007B0509009B
:100F900010B5034905200870FFF7ACFF10BD000035
:100FA0006000002004280CD2074A1269074B800019
:100FB0001B5C01209840904300D001200870002065
:100FC00070470020FAE7000000050050DC580000E0
:100FD000826883881A4003689A5C0A708168491C99
:100FE00081607047C26883881A4003689954C16859
:100FF000491CC160704770470048704748A00040D6
:10100000FFFFFFFFFFFFFFFFFFFFFFFFFFFFFFFFF0
:10101000FFFFFFFFFFFFFFFFFFFFFFFFFFFFFFFFE0
:10102000FFFFFFFFFFFFFFFFFFFFFFFFFFFFFFFFD0
:10103000FFFFFFFFFFFFFFFFFFFFFFFFFFFFFFFFC0
:10140000FFB597B00646002518E2252877D10024BD
:101410002746FD49049400E00443761C32780120FD
:10142000203A90400842F7D130782A280ED0022284
:10143000307801463039092916D804990A235943CE
:10144000303940181443761C0490F1E7189802C80C
:1014500004911890002904DA012040030443484213
:10146000049002200443761C30782E2814D10420E6
:1014700004437078761C2A2809D11898761C80C8F5
:10148000189009E00A214F43303FC719761C307885
:10149000014630390929F5D930786C2810D006DC9E
:1014A0004C281AD068280ED06A2817D104E0742876
:1014B00013D07A2812D110E00120400504430CE03B
:1014C0000121090501E0032109050C4371788142DE
:1014D00003D1012000052418761C761C3078119069
:1014E00066280BD013DC58287DD009DC00287BD07F
:1014F0004528F6D04628F4D047281AD1A5E118E0AF
:10150000632835D0642870D0652812D19DE17028F9
:101510006CD008DC6728F1D069287BD06E280DD00C
:101520006F2806D1BAE073282ED0752871D078289C
:1015300059D01A9A199990476D1C7EE16002400FAC
:10154000022809D003280DD00428189801680DD06E
:101550000D60001D189070E11898EA1701680D6081
:101560004A60F6E7189801680D80F2E70D70F0E721
:1015700018986A4601781172001D18900020507268
:1015800002A80090012005E0189802C818900020D9
:101590000091C04361070DD5002101E00199491C6C
:1015A0000191B94212DA8142F8DB009A515C0029BC
:1015B000F4D10BE0002101E00199491C0191814225
:1015C000FADB019A0099895C0029F5D10199049808
:1015D0001A9B471A21463846199AFFF7DFFB0199F3
:1015E000401945180BE04FE02CE113E04EE0009865
:1015F00000990078491C00911A9A1999904701980E
:10160000401E0190401CF2D1214638461A9B199A7F
:1016100010E137E00A200021009001916002410FA3
:10162000022907D0189A01CA1892C21794460329B2
:1016300008D00AE01898C01DC108C90005C9189152
:10164000944607E000B2C2179446042902D140B282
:10165000C1178C4600226146944506DA0A460021ED
:10166000404291418C462D2102E0210504D52B21D9
:101670006A461173012103E0E10701D02021F7E759
:10168000029155E00A200AE0102008E010200090A6
:101690000021042004430191082703E008200021D1
:1016A000019100906002410F022907D0189A01CAE7
:1016B000189200229446032908D008E01898C01D0B
:1016C000C108C90005C91891944603E080B20429F5
:1016D00000D1C0B200210291210729D511997029AA
:1016E00006D0009A1021019B4A401A4305D00EE013
:1016F00040216A461173012108E06146014306D08A
:1017000030216A4611731199517302210291009A96
:101710000821019B4A401A430AD16146014301D185
:10172000610705D530216A46117301217F1E0291A0
:101730001199582904D035A10E910DA90D910DE0F4
:1017400037A1F9E76146019B009AFEF746FD0E9B23
:101750008C469B5C0D9A521E0D921370614601439C
:10176000F0D10D9805A9081A20300190600703D523
:1017700001200004844300E001270198874201DD35
:10178000381A00E0002001990090411802980918C9
:101790000498401A0490E00306D421461A9B199A33
:1017A0000498FFF7FBFA4519002706E003A81A9AE8
:1017B000C05D199990476D1C7F1C02988742F5DB2C
:1017C000E0030CD521461A9B199A0498FFF7E6FA14
:1017D000451904E01A9A3020199990476D1C009918
:1017E000481E00900029F5DC08E00D980D9900785E
:1017F000491C0D911A9A199990476D1C0199481E20
:1018000001900029F1DC63E1092801003031323315
:10181000343536373839616263646566000000002C
:101820003031323334353637383941424344454616
:1018300000000000FFF7A2FA4519761C3078002856
:1018400000D0E2E528461BB0F0BD600700D40627B3
:101850001898C01DC108C90048680A680831C30F3C
:10186000DB071891190001D09CA108E0210501D5E2
:101870009BA104E0E10701D09AA100E09AA14300F6
:1018800011985B08109165280CD006DC452809D01A
:1018900046281DD0472841D141E0662818D0672846
:1018A0003CD13CE00021112F01DB112000E0781C2D
:1018B0000191009008A911A8FFF7B4F913990591B7
:1018C0000021119A15927F1C12980197009150E007
:1018D0000120C00703900120019008A9009711A8DA
:1018E000FFF7A0F9139A149905920022119B009218
:1018F00012981593059A0192002901D0104602E032
:10190000791C40180190381A01D5019804E0404232
:10191000401E0090781C0190C01B029043E0012FF4
:1019200000DA01270021112F01DD112000E03846E7
:101930000191009008A911A8FFF774F91399059176
:10194000119A0021129815920091019721070CD449
:101950000599B94201DB019900E00191012904DDFB
:10196000159A491E515C302906D0B84201DA011D92
:1019700005DA0121029115E00199491EEDE70028E1
:1019800005DC0099411800910199091A03E0019AB8
:10199000411C914200DD01910099401A401C0290C7
:1019A0000120C0070390200706D4029901988142C4
:1019B00002DB0020C043029000206946C87707AFD1
:1019C000012103980337C907884224D002201190CF
:1019D0002B201290039800280CDA404203902D200F
:1019E000129007E00A210398FEF7B0FB30317F1E0A
:1019F000039039701199481E11900029F2DC039868
:101A00000028EFD1791E1298087030782021084004
:101A10004530BF1E387006A8C01BC01D039010982B
:101A20000078002800D00120019941180298C017C1
:101A30000918039809180498401A401E0490E003FE
:101A400006D421461A9B199A0498FFF7A7F945195D
:101A500010980078002803D01A9A199990476D1CA5
:101A6000E00324D521461A9B199A0498FFF796F9AA
:101A700045191CE00098002807DB0099059888426A
:101A800003DD1598405C199901E0199930201A9AE4
:101A9000904700986D1C401C00900298401E0290D8
:101AA000002804D11A9A2E20199990476D1C01998B
:101AB000481E01900029DDDC05E038781A9A7F1C69
:101AC000199990476D1C0399481E03900029F4DC76
:101AD00021461A9B199A0498ACE600002D000000DC
:101AE0002B0000002000000000000000F0B5494875
:101AF0008BB003684849494A012B02D04B6B002B3D
:101B000005D153681B78202B01D8012300E0002366
:101B1000434D03242C700024404A002B146057D0FE
:101B200084688268CA623D4A03A901920091C26832
:101B300001232146184603F095F9002824D00128F6
:101B400005D0022824D003284FD036484BE0039814
:101B5000002802D03448FEF7DCFD204603F0F6FAF8
:101B6000002802D13148FEF7D4FD68680222817D49
:101B70006846002602700196068146814470817095
:101B8000C67003F0E5F830E02948FEF7C2FD2CE00E
:101B90000398002802D12748FEF7BBFD204603F03A
:101BA000D5FA002802D12448FEF7B3FD6868022266
:101BB000817D039E6846027000236A460196138168
:101BC0005381447001278170C77003F0C1F80CE0A5
:101BD00000200090034602460146019003F042F9BE
:101BE000042802D01548FEF794FD0C4C206800280C
:101BF00007D00120607512482061042028700BB0C6
:101C0000F0BD02F0DDFE002060752061FFF772F983
:101C10000BB0F0BD0014004000150040A8020020E9
:101C200060000020C8050900B8050900B9050900D1
:101C3000BD050900C0050900C1050900CF0509005F
:101C4000910F00003FB50146002089070FD5094CD0
:101C50006D461ECC1EC50021074D6C460C238A0024
:101C6000A258920052191360491C0429F7D304B0FA
:101C700030BD0000EC58000000070050F0B54548AA
:101C800085B00068012803D04348406B002806D186
:101C9000424840680078202801D8012500E000254E
:101CA0003F4C01266069002804D101F0AFFD0028F7
:101CB00000D1666103F050FA012802D03948FEF7DE
:101CC00028FD39484068007D002802D03748FEF7DB
:101CD00020FD02F075FE002D57D00121084603F0CB
:101CE0008BF9052840D201007944097949188F44BD
:101CF00002381D383800002703F01CFA0390A6892B
:101D0000E58903F01DFA0246274869464068837D4D
:101D10000F700399019169460E814D814A70002030
:101D20008B70C870684603F013F81DE0002703F0BD
:101D300001FA0390A689E58903F002FA02461A48DF
:101D400069464068837D0F700399019169460E8151
:101D50004D814A7001208B70C870684602F0F8FF10
:101D600002E01348FEF7D5FC01F0ECF820611148C1
:101D70001149426962602378022B01D0002A06D003
:101D8000C0680860002001F011F905B0F0BD80685E
:101D9000F7E700000014004000150040A8020020F2
:101DA0008C020020A806090060000020A906090096
:101DB000C806090058020020C002002070B5174C68
:101DC00001256078227901466840104000260028ED
:101DD00004D0267112A0FEF7EFFE02E0002900D029
:101DE00025712078E27801466940114204D0E670FE
:101DF00013A0FEF7E1FE02E0002800D0E570A07815
:101E0000627901466840104204D0667112A0FEF764
:101E1000D3FE70BD0029FCD0657170BD00000020AC
:101E200053797374656D2061646472657373206E99
:101E30006F742072656365697665640A000000004E
:101E4000486F7374204944206E6F74207265636517
:101E5000697665640A00000044796E204B6579203C
:101E60006E6F742072656365697665640A000000B0
:101E700010B50446C0B2FFF721F8204610BD00009F
:101E800030B5234D83B0687E00283AD001F05EFC67
:101E9000002401280CD001F0A3FC1E48007F00287C
:101EA00002D1012081074860002003F085FA6C60B0
:101EB00002F086FDAC706C760521684601700194D5
:101EC0000481448144708470C47002F041FF124860
:101ED000124904700320886003F03EF9012812D0F3
:101EE000022810D003280CD1002300941A4619466A
:101EF0001846019402F0B6FF042802D00848FEF705
:101F000008FC03B030BD0021084603F075F8F3E784
:101F10008C020020580200206000002000F50140E3
:101F2000E801090010B503220149FEF725F910BDAB
:101F30003C590000F0B58BB020270026099701F02E
:101F400095FD044601F0B2FD0A9001F065FFC8203E
:101F500001F006FF052001F033FF002001F058FDDD
:101F600001F00AFD002069460870054600220121A3
:101F7000684600F093FB002806D0002001F05AFFCD
:101F80006D1CEDB2642DF1D3C82000F021F90120C1
:101F90006946087001460022684600F07FFB002871
:101FA00023D01F48007800281FD0002001F062FDD8
:101FB00000281EDD09AA01A90020099701F0ECFC08
:101FC000002816D068460079082812D1144801ADBF
:101FD00004220938691CFEF7CFF8681C00F0C4FB26
:101FE000002000F061FA012603E0FF202D3000F010
:101FF000EFF8FF205F3000F0EBF801F00DFF00205C
:1020000001F006FD002001F013FD204601F0A8FEBE
:102010000A9801F0D5FE01F0AFFC30460BB0F0BDE0
:1020200032000020002207E00378401CFF2B01D083
:1020300000207047521CD2B28A42F5D3012070476B
:10204000F0B50746204889B0007815460E460028AE
:1020500013D0012814D0022834D110221B4904A81F
:10206000FEF78AF81A490D2204A8FEF785F8002029
:10207000154B6C465B1C02460DE010221349F3E73A
:102080001022124904A8FEF777F804A800F0E2F83D
:10209000EDE7052802D2195C215400E02254401CCF
:1020A000C0B21028F5D301F027F904A801F036F9E1
:1020B0006946084601F0F6F82B466A46314638462E
:1020C00000F0BAFB09B0F0BD200000203F5900002D
:1020D0003002002070B50C4605460D2912D800F0DC
:1020E0002FF8002801D0012070BD07480078002893
:1020F00008D100F095F9002804D02146284600F0C8
:102100001FF870BD002070BD260000200149087036
:10211000704700002000002010B501460D22024843
:10212000FEF72AF810BD00003002002010B501466D
:1021300005220248FEF720F810BD00002100002013
:10214000F0B50746081D89B00D46C6B2062069469F
:10215000087404AC601CFFF7E5FE2A463946201DD2
:10216000FEF70AF8194D2878002801D0002000E079
:102170000220FFF7CBFF701EC2B2611C601CFFF78C
:102180005FFF01200090002301AA314604A800F05F
:102190009DFA002803D1684600790B2802D0002060
:1021A00009B0F0BD01ACA01D03220146FFF748FFB6
:1021B000A01D00F033FB0028F2D02878002802D1BF
:1021C000601CFFF7B3FF0120EAE7000026000020B3
:1021D00010B5044601F066FC60434000FDF77AFF4D
:1021E00010BDF7B5064682B0144611464E20FDF7E5
:1021F000ADFF00900220307030194F212038C17798
:102200000398002811D00125671E0CE0A907039848
:10221000890F405C0099FDF799FF00986843081802
:1022200070556D1CEDB2BD42F0DB012105230CE0C1
:1022300070182038725CC07F101AC0B2052802D214
:10224000181A10187054491CC9B2A142F0D305B035
:10225000F0BD000010B505220149FDF78DFF10BD4E
:102260002D00002010B5012088B0C043002102AA33
:10227000FF235354491C09B20529FADB1049832373
:102280005B01CA18927FFF2A14D014090F2C00D1C9
:102290001440214604A800F0FCF8052202A905A874
:1022A000FDF78EFF002802D0204608B010BD0020A8
:1022B000C043FAE7491E09B20029E2DAF5E7000057
:1022C00081030000F0B5324D87B028780026012741
:1022D00001AC002817D0032069460871601CFFF785
:1022E00021FE0020FFF712FF0322611C601CFFF794
:1022F000A7FE002303AA042101A8009700F0E6F935
:10230000002815D018E00220694608710521601CDC
:1023100000F092F90122062101A800F0BFF900287F
:102320000AD0601CFFF702FF2F70002007B0F0BD3D
:102330006846007B092802D02E700320F6E703AC24
:10234000601C09220146FFF77BFE601C00F066FA64
:10235000002819D06846007C002804D0012805D048
:10236000022800D12E706846007CDFE7601D00F077
:102370007FF90D21074800F05FF90648FFF7CCFE12
:10238000012000F091F8EDE72E700220CEE700006A
:10239000260000203D0200209F204001C07FFF2832
:1023A00001D00120704700207047000008488322B8
:1023B00052018118897FFF2904D008090F2800D114
:1023C00008407047401E00B20028F2DA0E20704725
:1023D000810300000EB5114900200870FFF7DCFFF3
:1023E000002815D183204001807FFF2810D0FFF7FF
:1023F000DDFF01460E280BD2684600F04AF8074878
:1024000004226946C01CFDF7B7FE01A800F030F9B0
:102410000248C01C00F0A8F90EBD000026000020F4
:1024200010B58AB004206946087401200146009066
:10243000002301AA04A800F049F9002827D1684622
:1024400000790A2823D101A80130FFF76FFE05208B
:102450006946087404AC601CFFF764FD0D21201D63
:1024600000F0EAF8201DFFF757FE0120FFF74EFEAF
:102470001022611C601CFFF7E3FD0122112104A85A
:1024800000F00CF9002802D001200AB010BD002095
:10249000FBE7CA0089180122120310B58918092226
:1024A000FDF76AFE10BD0000F0B5002785B03C4680
:1024B0000397002861D000256E4629466846FFF73D
:1024C000E8FF042259496846FDF77AFE002807D143
:1024D00056490522091D301DFDF772FE002810D057
:1024E0006D1CEDB20E2DE8D3002529466846FFF796
:1024F000D0FF04224D496846FDF762FE002802D055
:102500000FE02C4634E00521301DFFF78BFD00283D
:1025100007D046490522091D301DFDF72DFE2C462A
:102520004BE06D1CEDB20E2DDFD300252946684629
:10253000FFF7AFFF09216846FFF774FD002805D0BB
:1025400004223A496846FDF717FEE2E76D1CEDB23A
:102550000E2DEBD30398002808D0E00001222018AC
:10256000120380186946092202F06EFC002F5AD02F
:10257000FFF712FF002827D055E0002421466846C7
:10258000FFF787FF042229496846FDF719FE002856
:10259000EED0641CE4B20E2CF0D300242146684631
:1025A000FFF777FF04216846FFF73CFD002806D0BF
:1025B00004221E496846FDF7DFFD0127CDE7641CB4
:1025C000E4B20E2CEAD32EE0FFF7F0FEA0422AD0B0
:1025D0000E2C28D083225201154B0020917F5D1CC8
:1025E00003E08118897F98421AD0CE4336070DD078
:1025F0000E090F2E0ED0401C00B2A842F1DB0D4A8E
:10260000801802F003FC012005B0F0BD09090901A2
:102610002143F4E70907090F22011143C9B2EEE78C
:10262000E0212143EBE70020EEE700002900002035
:10263000810300007E100000F0B50A4B00271F60E8
:10264000094D01242C603A4608E01E68002EFCD09B
:10265000064EB66886541F60521CD2B28A42F4D32A
:102660006C60F0BD00D1004000D0004000D50040BB
:1026700010B5014605220248FDF77EFD10BD0000A1
:102680002D00002010B5044601F046F9640000E07A
:1026900030BF01F001FAA042FAD310BD70B5054673
:1026A000094C002013466070A0700A46294618465F
:1026B00001F0D8F8002801D170BD30BF6078002843
:1026C000FBD0A07870BD000026000020FFB583B0CD
:1026D0000A200C9D009016460F46284601F0AAFBE2
:1026E000012401F03DF901F099FA0028FBD101F035
:1026F000CFF902901E2001F043FB01F03DF92A467C
:1027000039460398FFF7CAFF00281FD00224284645
:1027100001F090FB0720694608710A20FFF7B2FF1D
:102720002A46012101A8FFF7B9FF00280ED028464C
:1027300001F0A0F9002809D0202000906A46314617
:10274000284601F029F9002800D0002401F008F9FA
:1027500001F064FA0028FBD1029801F011FB01F0AE
:102760000BF9204607B0F0BDF0B585B0054601F085
:1027700055FA294C0646002D4BD069782878090275
:102780004018A978EA78090412068918471801F058
:1027900043FB204601F080FA00280CD000210846B7
:1027A00001F064FA002806D0384601F085FA0028C6
:1027B00001D0012403E0012409E0002F07D02146C5
:1027C000084601F053FA002801D0012700E0002755
:1027D000641CE4B2082CF0D301F042F90446C2B202
:1027E00029466846FFF7FDFC002F0FD021466846BA
:1027F00001F072FA002809D00120002E04D001F067
:10280000BBF8002805D0012005B0F0BD0020002E47
:10281000FAD00020F8E700000405070B10B50322EA
:102820000449FDF7CDFC002801D0002010BD012097
:1028300010BD00003C59000070B5002408E00D7880
:102840001678641C75400570401C491CE4B2521C8B
:102850009C42F4D370BD00001048018CC9B201291C
:1028600017D1818C090714D1018D09060A0F03D1F4
:10287000828D1206120F0ED0090F012903D1828D0D
:102880001206120F07D0032903D1808D0006000F16
:1028900001D000207047012070470000C00F00F0F9
:1028A0000022027002214254491CC9B20829FAD3FD
:1028B0007047002202700421817003214254491C98
:1028C000C9B20829FAD37047F8B5AA4D002068614B
:1028D0000326AE60A849C8630120C863A74C60699D
:1028E000891588436061606900090001801D60618D
:1028F00060690F2109048843310440186061A069B0
:10290000012149068843A061A06949100843A061DC
:10291000A069000A00022030A061A069FF2109021D
:102920008843A061964902200860FEF765FBE861D4
:102930009448A8616E60944802F014F99349486085
:102940009348A269417F07231B049A4309040A4361
:10295000A2610021036A0A461827D6001846F040F3
:10296000C0B28507C407ED0F240EAD01254344070F
:10297000E40F64012C430507ED0F2D012543C40628
:10298000E40FE4002C438506ED0FAD00254344061B
:10299000E40F64002C43C0092043BC1BA040521C20
:1029A0000143D2B2042AD8D37448C16178480021C7
:1029B000436A0A46D6001846F040C0B2C407250E46
:1029C0008407E40FA4012C434507ED0F6D01254357
:1029D0000407E40F24012C43C506ED0FED00254349
:1029E0008406E40FA4002C434506ED0F6D0025433B
:1029F000C0092843BC1BA040521C0143D2B2042A88
:102A0000D8D35E4D2962624E002430192030007AFE
:102A1000082C4ED2A107C90EFF228A40D243042CB3
:102A200023D26B6A13406B62C207130E8207D20F68
:102A300092011A434307DB0F5B0113430207D20FD6
:102A400012011A43C306DB0FDB0013438206D20FC9
:102A500092001A434306DB0F5B001343C00918437F
:102A60008840696A0843686226E0AB6A1340AB623B
:102A70008307C207DB0F120E9F0117434207D20FD5
:102A800053010207D20F3B4312011A43C306DB0F67
:102A9000DB0013438206D20F97004206D20F52008A
:102AA0001F433A43C00910438840A96A0843A862FB
:102AB00002E03848FDF72DFE641C082CA5DB364CDF
:102AC000207CE860607C696B090A09026963002860
:102AD0001CD001281DD0022825D003282BD02F4838
:102AE000FDF717FEA07C2E4B2E492F4C2F4A0028B5
:102AF0002AD0012832D0022807D128618C622C48C4
:102B00004B62C8622B484A630863F8BD686B686310
:102B1000E8E7686B012108436863FF20E863FF2052
:102B20000830A863DEE7686B022108436863224827
:102B3000E863224806E0686B032108436863204885
:102B4000E8630020A863CDE7002028618C621D485F
:102B50004B62C8621C484A630863F8BD01202861C3
:102B60008C621A484B62C862194808631948486366
:102B7000F8BD000000F50140C01F004000150040F6
:102B800080E200E004110040A80200206000002064
:102B9000580200203903090078020020C20309000E
:102BA00000500078001700404E0000543E420F8253
:102BB00008800C6088647200FFFF00002110010093
:102BC000FFFFFF0003800C602264720002800C6033
:102BD00011646600DEC08F8270B53F4888B007C8B8
:102BE0006B4607C33D48012411C33D4805902002B0
:102BF000069003233B4A03A96846FEF70FF900221B
:102C000011460220FFF71EF837A0FDF7D5FF01207F
:102C100000F098F8054600F08DF8002000F06AFFFB
:102C20000540962001F09CF80540002001F07CF85A
:102C30000540FF20F93001F0B3F828400646002097
:102C400001F09EF805463540FFF70CFB23490022B2
:102C5000891F801C03D0012804D00C7003E00A7087
:102C60004A7001E00A704C70FFF7B4FB00F084FE7C
:102C700028402ED003A90120FEF794F96846007B76
:102C8000002819D000F050F8002815D005A800F051
:102C90008DF8002810D0022000F0C8FF0028FAD0DC
:102CA000042205A9022000F0DDFD002801D015A0B6
:102CB00000E018A0FDF780FF04A90020FEF772F9DC
:102CC0006846007C002801D002F092FBFFF776F8FE
:102CD000D0E708B070BD0000D0580000060000200A
:102CE00098000020E95500004465736B746F7020F4
:102CF000656D756C61746F72206578616D706C655F
:102D00000A0000004D6F7573652073656E74204F67
:102D10004B0A00004D6F7573652073656E74204615
:102D200041494C45440A00000148407A7047000080
:102D30009801002002480121C16001607047000035
:102D400000900040124A00211160516051721172CE
:102D5000104A01215160D1600F4A8B1E93600B0411
:102D600053600E4A11600E4A042111610C49403132
:102D7000002802D07D20800101E07D204001086014
:102D80000120084940020860074908600120704797
:102D90009801002000900040009300400092004005
:102DA0000095004080E200E000E100E010B50C4931
:102DB0004A7A002A11D0022202708A8842700C8856
:102DC00012052301120F134383702211C2700020D9
:102DD000086048604872012010BD002010BD00004E
:102DE00098010020F8B503041B0E0E460093C3B2F1
:102DF000010E000200160024170C404295B2062B6B
:102E00005BD21A007A44127992189744021427422E
:102E10003F3C002900D001210C4629043D46000416
:102E200005430C43304601F097F82A4621460098A6
:102E300000F088FDF8BD23488068407E002802D15C
:102E40002148FDF766FC304601F086F8214628044B
:102E500001433A46009800F065FDF8BD002900D016
:102E600001210C4600040443002907D0002E02D1A2
:102E70001648FDF74EFC304601F06EF821460098EA
:102E800000F036FEF8BD00F076FDF8BD00F0CCFE97
:102E9000F8BD0F484168491C416001780029F7D00E
:102EA0008168002902D0491E8160F8BD01F048F90F
:102EB0000028E8D100F0D6FFF8BD0648FDF729FC50
:102EC000F8BD000040000020B5030500C303050065
:102ED0004C020020E303050002490F220A70C8607B
:102EE000704700004000002009480A4A4168491C18
:102EF000416012681368994208D300234360016857
:102F0000491C01605268914200D303607047000081
:102F10006C0000206800002070B5084D064C296840
:102F200020684968884202D30548FDF7F2FB28680B
:102F300021688068405C70BD6C0000206800002043
:102F4000B200010001480068704700006C000020DA
:102F500001484068704700006C00002010B5040074
:102F600002D10548FDF7D5FB044800210460044860
:102F70000160416010BD00002A00010068000020CF
:102F80006C00002010B50446054800684068A04267
:102F900002D80448FDF7BDFB0348046010BD0000E3
:102FA00068000020B90001006C00002010B5044644
:102FB000054800680068A04202D80448FDF7A9FB54
:102FC0000348446010BD000068000020C5000100F7
:102FD0006C0000208207D30EFF229A408907090E59
:102FE00010B5994000280BDA03071B0F083B9C081B
:102FF0000C4BA400E318DC6994430C43DC6107E04C
:103000008408094BA400E418236893430B4323600E
:10301000C106C90E012088400449086004490860BF
:1030200010BD000000ED00E000E400E080E200E000
:1030300000E100E0F3B52A4C0746E07E81B00028AD
:1030400001D00820FEBD002F00D1264F0126387880
:103050003146814024488160386800F0F8FB002147
:10306000786800F0EBFB214DB8696862787D397DA6
:103070000843E86603CFE8606961387B083F0128B0
:103080000FD10021B86800F0D9FB387B3146814070
:1030900015488160F86800F0DAFBF968B868A96043
:1030A0002861029860603969216000280ED0FF23F2
:1030B0000F481D33397F0022C250FF234533C250D1
:1030C0000D4A0C4850600220FFF784FF042028605E
:1030D0000020E0752076A075E676A076FEBD0000A3
:1030E000C40100201C5900000005005000250040CC
:1030F000002000408000020000230040F8B5104B83
:1031000081245E680022A4000E4D002E00D0AC6029
:10311000DF7D002F0BD01A7E002A04D0002E00D0B5
:103120006C601120F8BD18610122197604E0D97590
:103130000024D8605C761C7600F012F8F8BD000020
:10314000C40100200023004010B5044CA07E0028DC
:1031500003D102F0E3F90120A07610BDC4010020E4
:10316000F8B5234DA87E104301D102F0D7F9686865
:10317000204C002805D081201F4980004860002095
:10318000F8BDFF20453000212150FF212531204688
:1031900002F020F90546FF210931204602F01AF914
:1031A0000746FF214531204602F014F9064639460C
:1031B00031432943E9D02846304306D102F084F94F
:1031C0000B48C17D407E8142DFD800210848002D98
:1031D000C17501D00320F8BD002E01D00F20F8BD2D
:1031E000817E0120002901D02060C8E76060C6E729
:1031F000C4010020002000400023004010B5034619
:1032000000F048F8002801D0112010BD034A00202A
:1032100091759360908200F003F810BDC401002006
:10322000F8B50026194FFF251D357E510120B860E5
:1032300002F0B4F9164C6168002910D022E0FF2793
:1032400001372946114802F0C5F8002802D1A08AAA
:10325000B842F6D1A08AB84201D002F09FF9A08A04
:10326000A17D8842EBD3A18AC81FF9380CD0074F43
:103270002946384602F0AEF80028F9D00120F8605F
:103280000020A0753046F8BD0F26F9E70020004069
:10329000C40100200248807D002800D00120704732
:1032A000C401002070B5114D06460124686824064B
:1032B000814202D01022FCF75FFF0D490020086018
:1032C0000C4B01221A6001E0641E0CD00A68002A2F
:1032D000FAD00860A9688E4203D010223046FCF76D
:1032E0004BFF012070BD002070BD000010000020C9
:1032F00000E1004000E00040054906480A4610325F
:1033000006C010320260044841600120704700008E
:10331000E00100201000002000E50040014610B54B
:10332000024810220068FCF727FF10BD10000020A3
:10333000F0B583B00546102802D33548FDF7E9F90A
:1033400028460C21484333494018019068002E1844
:10335000314830180090102D02D33048FDF7D9F9CC
:103360002D49885D002851D00098019A83789B00F0
:10337000D4588278521C82708278801C032A01D330
:1033800000220270885D401E8855002C3ED02448E3
:10339000844202D12348FDF7BCF9234F3868062840
:1033A00002D32248FDF7B5F91F490020096800291A
:1033B0000CD91F4A8300D358A34203D11D48FDF7FF
:1033C000A8F90EE0401CC0B28842F3D31A4800218D
:1033D00022224A431318A34206D0491CC9B2062927
:1033E000F6D31648FDF795F90F48114F0068800095
:1033F00039580B48814202D01148FDF78AF90A4832
:1034000001688A00BC50491C0160A4E703B0F0BD0C
:10341000D70003003C0400200C040020A600030099
:10342000ADDEADDEDB00030094000020850003006C
:10343000FC040020F60003001405002086000300B1
:103440008800030070B51B4C05462068062802D38F
:103450001948FDF75EF921680020184E00290BD9A4
:103460008200B258AA4203D11548FDF752F90EE086
:10347000401CC0B28842F3D31248002122224A43A2
:103480001318AB4206D0491CC9B20629F6D30E4820
:10349000FDF73FF920680D4980003058884202D07E
:1034A0000B48FDF736F9206881007550401C2060FC
:1034B00070BD00009400002085000300FC04002083
:1034C000F60003001405002086000300ADDEADDE2B
:1034D0008800030001480068704700009400002045
:1034E00010B50446102802D30348FDF712F9600016
:1034F00002492018085C10BDC80003000C0400201D
:1035000070B400201F4A01464300C3189C18617024
:10351000A170D154401C1028F6D300211A4D1B4B2A
:10352000DE240A46222042438E0050199851AC54A2
:1035300044708470C470047144718471C4710472E5
:1035400044728472C472047344738473C4730474C5
:1035500044748474C474047544758475C4750476A5
:1035600044768476C476047744778477C4772030B1
:103570000470491C44700629D3D30549062008600D
:1035800070BC70470C04002014050020FC040020CF
:103590009400002070B500250446102802D30F487F
:1035A000FDF7B7F860000E492218885C002813D098
:1035B0000C2044430B48231850188478A4001D594C
:1035C0008478641C84708478801C032C01D30023CD
:1035D0000370885C401E8854284670BDA600030016
:1035E0000C0400203C040020F8B50D4604461029C8
:1035F00002D32048FDF78DF81F49002009680646D0
:1036000000290CD91D4A8300D358A34203D11C487A
:10361000FDF77FF80EE0401CC0B28842F3D3194892
:103620000022222151430B18A34206D0521CD2B2D1
:10363000062AF6D31448FDF76CF86800134A2918D7
:10364000505C032814D20C20454311482B188818CD
:103650004578AD005C514478641C44704478401C4B
:10366000032C00D30670505C401C50540120F8BD60
:103670000020F8BD8F00030094000020FC0400200F
:10368000F600030014050020900003000C04002045
:103690003C04002010B50446102802D30948FDF769
:1036A00038F8600021180848425C002A08D00C2233
:1036B0005443064AA218081880788000105810BD9C
:1036C000002010BDB70003000C0400203C040020C3
:1036D00070B5164900240A68002A25D09000144BC2
:1036E000144DC0188038C46F521EC5670A6000218F
:1036F000002A0BD988001D58A54203D10E48FDF7BA
:1037000008F80EE0491CC9B29142F3D30B480021DE
:1037100022224A431318A34206D0491CC9B20629E3
:10372000F6D30748FCF7F5FF204670BD9400002053
:10373000FC040020ADDEADDEF60003001405002021
:103740007D0003000048704740A100400148007818
:10375000704700007400002070B5114801254560D5
:10376000C560104E0024B4600F4845600F484068A3
:10377000002802D00E48FCF7CCFF00200D49C043C2
:1037800088600D480460042030610C484460057076
:103790004470847008150A4908600A49086070BDC1
:1037A00000A0004000A5004040A0004040A500400F
:1037B0003500040000A3004040A100407400002038
:1037C00080E200E000E100E00349012008600349D5
:1037D000002008707047000000A000407400002026
:1037E00010B4074801214160C16000220548064C21
:1037F000426042708B0223608270017010BC70477F
:1038000000A000407400002080E200E00148407801
:10381000704700007400002030B552000A43990040
:10382000039C0A432102049D0A4329040A430249D6
:1038300080004018026030BD000700501CB5002217
:103840000B46009211460192FFF7E6FF1CBD1CB526
:10385000002100910B46012201911146FFF7DCFF88
:103860001CBD0000F7B52A4D16460746082804D3AC
:1038700004202870002003B0F0BD0198002806D075
:10388000202E09D906202870002003B0F0BD0320A7
:103890002870002003B0F0BD384600F081FB0328FB
:1038A00004D309202870002003B0F0BD384600F092
:1038B00067FB032804D30A202870002003B0F0BD62
:1038C00000F054FB022804D208202870002003B026
:1038D000F0BD00F069FC0446067040780121084301
:1038E00060703246A01C0199FCF746FCF8B22146F4
:1038F00000F03AFC002802D0012003B0F0BD0548DA
:10390000FCF707FF0F202870002003B0F0BD000077
:1039100040000020DD00050001490020486070479C
:103920004C02002007B5082201A90548FCF724FC39
:10393000034801210C384170002181700EBD000048
:103940003200002007B5082201A90448FCF714FC46
:10395000024801210C38417081700EBD32000020F8
:1039600010B500F0EDFB002802D000F004F810BD07
:1039700000F078FA10BD704706488168002903D12D
:10398000022101700020704710B500F081FA01207B
:1039900010BD000040000020F8B516460F46044652
:1039A00000F0EEFA184D00280CD0002F0ED0204663
:1039B00000F0F6FB0078316881420BD206202870B7
:1039C0000020F8BD0B2028700020F8BD03202870CF
:1039D0000020F8BD204600F0BDFB04000CD0A01C68
:1039E0000AD02278A11C38463260FCF7C5FB20467D
:1039F00000F0B2FA0120F8BD0448FCF78AFE0F205F
:103A000028700020F8BD00004000002005010500DE
:103A100010B5082804D3054904200870002010BD03
:103A2000C0B200F075FA012010BD00004000002077
:103A300010B50A498A68527E002A03D00C2008700B
:103A4000002010BD082803D304200870002010BDFA
:103A5000C0B200F067FA012010BD00004000002055
:103A600001484068704700004000002010B500F099
:103A700081FA10BD10B5082804D304490420087049
:103A8000401F10BD00F07CFA10BD00004000002077
:103A900010B500F079FA10BD014840687047000089
:103AA0004C02002010B500F075FA10BD10B50124CD
:103AB00000F07AFAF02816D006DC002816D0042888
:103AC00009D0EC2812D110E0F4280AD0F82806D04A
:103AD000FC280BD101E0002408E0022406E00324C6
:103AE00004E0042402E0052400E00624204610BD82
:103AF00070470000F1B5454D82B000242C70444859
:103B0000EC60046044608460424800F053FAA860AE
:103B10000125002874D03D4F407E3F4902267A6837
:103B2000012817D0102A17D8100015D00846FCF726
:103B300023FB3948796800F057FB01200090029878
:103B400000280DD001280FD002280FD00520387092
:103B500000200FE03E7001E0072038700020EDE704
:103B6000012000F0ABFB04E0022000E0002000F0A8
:103B7000A5FB0120009908400090042000F01EFBE6
:103B8000224900208968497E002903D01F48274622
:103B9000067002E000F022FB2F461C49009889685D
:103BA0000740497E0020002903D0184806702046AF
:103BB00002E000F063FC2846074014488068407E1D
:103BC000002803D011480670204603E0012000F0D1
:103BD00025FB28460D4907408A680020527E002AAE
:103BE00001D00E7002E000F053FC2C463C40012056
:103BF00000F07CF9002C03D0012003B0F0BDFFE7FA
:103C000002480570002003B0F0BD00004000002015
:103C10004C020020E52D0000500000200148806883
:103C2000407E7047400000207047000010B50446F9
:103C3000082804D30C4904200870002010BD00F0AF
:103C4000AFF903280DDA204600F09AF9032808DAC4
:103C500000F08CF90621081A081A022801D3012065
:103C600010BD002010BD00004000002010B5094A22
:103C700093685B7E002B03D002201070002010BDE3
:103C8000082803D304201070002010BD00F09AFB18
:103C9000012010BD4000002010B506498A68527E00
:103CA000002A03D002200870002010BD00F01EFB87
:103CB000012010BD4000002010B506498A68527EE0
:103CC000002A03D002200870002010BD00F044FB41
:103CD000012010BD4000002010B5114CA268527E9A
:103CE000012A11D0102913D8002911D0002813D08F
:103CF0000A46616001460B48FCF73EFA09486168D4
:103D000000F072FA012010BD02202070002010BDCA
:103D100007202070002010BD03202070002010BD5F
:103D2000400000205000002010B50C4902468B686E
:103D300000205B7E002B03D002200870002010BD05
:103D4000002A06D0012A03D00E200870002010BDE2
:103D5000012000F043FA012010BD000040000020C7
:103D600010B506498A68527E002A03D002200870E6
:103D7000002010BD00F09CFA012010BD4000002082
:103D800010B506498A68527E002A03D002200870C6
:103D9000002010BD00F066FB012010BD4000002097
:103DA00010B506498A68527E002A03D002200870A6
:103DB000002010BD00F05CFB012010BD4000002081
:103DC00010B5144902468B6800205B7E002B03D09F
:103DD00002200870002010BD072A17D213007B4470
:103DE0001B79DB189F44030E0507090B0D00042007
:103DF00008E0FC2006E0F82004E0F42002E0F020D7
:103E000000E0EC2000F03AFB012010BD0E2008700D
:103E1000002010BD4000002010B5FFF7FFFE002875
:103E200006D0FFF79DFD30BFFFF7F8FE0028FBD15D
:103E300010BD000038B50446012181F3108820250B
:103E400005E06A46064920460095FFF7A5FD204695
:103E5000FFF710FE0028F4DC002080F3108838BD46
:103E60001002002010B5012080F310880748417E21
:103E7000002906D08178002903D10121817001F049
:103E80005BFB002080F3108810BD00008C02002036
:103E900070B5114C607E00281CD1FEF715FD0F4D4A
:103EA000A868002802D10E48FCF733FC6868002897
:103EB00002D10C48FCF72DFC01F06AFA002802D070
:103EC0000948FCF726FC002001F076FA0120607614
:103ED00001F032FB70BD00008C020020C002002007
:103EE0005E0209005F0209006602090010B504467F
:103EF00004484068002802D10348FCF70AFC034844
:103F0000047510BD60000020F6030900A80200201F
:103F100010B5012181F3108801F0DCF8002080F356
:103F2000108810BD10B50446012181F3108808499E
:103F30000878002805D0487E002802D00548FCF704
:103F4000E8FB204601F0CCF8002080F3108810BD7B
:103F50008C020020FA02090010B5012181F31088BB
:103F600001F0DAF8002080F3108810BD10B501F0E0
:103F7000D7F810BD0148408B704700005802002060
:103F800010B501F0E3F810BD01484069704700002A
:103F90005802002001484068704700005802002085
:103FA00010B501F0DFF810BD0148007C704700003B
:103FB00078020020F8B50646012080F31088544CA2
:103FC0000025607003202070A5706560A560A58144
:103FD000E5812561656125764E4865760560456019
:103FE0008560C560056105754B4F1830BD60456043
:103FF000FFF7B2FB304600F0EFFE01F0B7F800200B
:1040000001F0D2F93846FEF7A9FF454A4349106846
:10401000FF2633049843106008681A129043086022
:10402000404801684022B14311430160012080F300
:1040300010882178012905D06070607E00285ED04C
:1040400001F07AFA002080F310883046364E0422C0
:1040500030617277354830623548706235480121E9
:1040600001720221417203238372C272052202731C
:1040700006224273072282730822C27305744174B8
:10408000012282741E2070614B20C000F1607060BC
:104090002278022A02D06068002833D039600F20CD
:1040A000B060022A02D06268002A2ED03960002057
:1040B00070830120307670760020307701F0D2F8DE
:1040C000692030606078012802D01B48FCF721FB92
:1040D00001202070A5706560A560A581E58125613E
:1040E000656125766576FEF7EFFB012113488902AD
:1040F00001608902016085F310880548F8BD01F070
:1041000061FB9FE7B0683860C9E73860CFE700001F
:104110008C020020A8020020C002002000E400E081
:1041200008E400E014E400E05802002004070A0D4F
:1041300005080B0E780200203C02090080E200E036
:104140000348407E002801D00020704701207047BE
:104150008C02002010B5012181F3108801F03CF899
:10416000002181F3108810BD10B5012282F3108860
:1041700001F037F800280DD008488178002904D1D3
:10418000407E002801D001F0D7F9002080F310888C
:10419000012010BD002080F3108810BD8C0200208B
:1041A00010B501F031F810BD10B5012080F3108872
:1041B00001F02FF8002181F3108810BD05494877E0
:1041C00005498A6907231B049A43000402438A6154
:1041D0007047000058020020001500400149087691
:1041E000704700005802002070B50C00054602D14F
:1041F0000748FCF78EFA002D02D10648FCF789FA31
:104200000548856044600020FEF7BCFE70BD0000DC
:104210004803090049030900C002002030B41749CF
:10422000174C8874174B1849184A194D00280DD09F
:10423000012816D0022807D120614B6215488A62F6
:10424000C86215484D63086330BC70470020206188
:104250004B6212488A62C86211484D63086330BCE1
:104260007047012020614B620E488A62C8620E4886
:1042700008630E48486330BC704700007802002095
:104280000015004000500078001700404E00005418
:104290003E420F8208800C608864720003800C60CC
:1042A0002264720002800C6011646600DEC08F829E
:1042B00001494883704700005802002010B50121D1
:1042C00081F3108808490A78824205D04870487EF8
:1042D000002805D001F030F9002080F3108810BDCF
:1042E00001F070FAF8E700008C020020F0B41849E1
:1042F000086200210B461826DD000246EA40D2B2D1
:10430000D407270E9407E40FA4013C435707FF0F7F
:104310007F0127431407E40F24013C43D706FF0F16
:10432000FF003C439706FF0FBF0027435406E40FEE
:1043300064003C43D2092243741BA2405B1C11431E
:10434000DBB2042BD8D30348C161F0BC7047000036
:104350005802002000150040F0B4184948620021BE
:104360000B461826DD000246EA40D2B2D407270EDB
:104370009407E40FA4013C435707FF0F7F01274335
:104380001407E40F24013C43D706FF0FFF003C4312
:104390009706FF0FBF0027435406E40F64003C4319
:1043A000D2092243741BA2405B1C1143DBB2042BD5
:1043B000D8D303480162F0BC7047000058020020C7
:1043C00000150040F8B5082841D2234A12182032BF
:1043D00011728207D60EFF22B240D7438B07CA075D
:1043E000DB0F120E9B0113434A07D20F52011A43EF
:1043F0000B07DB0F1B019C46CB06DB0FDD008B069A
:10440000DB0F9C004B06DB0F5B00C9090428134837
:104410000ED2406A3840114F78626046104305431F
:104420002C4323431943786AB14001437962F8BDB4
:10443000806A3840094FB8626046104305432C43F8
:1044400023431943B86AB1400143B962F8BD044837
:10445000FCF75FF9F8BD000058020020001500408D
:1044600039030900014948617047000058020020E3
:104470000149486070470000580200200249087452
:104480000249C86070470000780200200015004013
:1044900001490877704700005802002070B51248A3
:1044A000124C4068407D002805D0012000F0FEFB42
:1044B000A089401CA08100260D4930464E610D495F
:1044C0004A680968551A00F077FF6069A84202D36C
:1044D0000948FCF71EF960690122291A0748FCF710
:1044E0001DF9666170BD0000600000208C02002094
:1044F00000F50140580200204D06090075530000E8
:10450000F0B5FA48FA4C4069FA4EFB4F87B00028E4
:1045100003D1FFF77BF9002816D0F44D6868002816
:1045200001D0401E68602878022802D069680029FE
:1045300079D0F1682160A978002975D0FEF7D4FC04
:10454000FDF79EFC07B0F0BDE84800250078012883
:1045500002D0022805D009E000F0A0FB002805D019
:10456000B9E1387804287DD003287BD0FEF7BCFC65
:10457000DE484168002901D0491E416001780229C6
:1045800002D04168002919D0F16821600446807882
:10459000002815D0FDF774FC00F016FC022870D33B
:1045A0000326684600240670019404814481447007
:1045B0008570C57000F0CCFB07B0F0BDB168E4E7D2
:1045C00001F000F9002811D00020766800F0F4FE18
:1045D0006069B04202D3C948FCF79BF860690122C8
:1045E000311AC748FCF79AF86561D5E720780028AA
:1045F0007ED0012819D002287BD0C248FCF789F868
:10460000707E0128C8D120780228C5D061680029B1
:10461000C2D10127BF0700286CD001286BD0BA484F
:10462000FCF777F8B8E77FE180E100F0C9F900F026
:1046300093FD002826D0708B00287CD0A189814270
:1046400079D30121002000F0D7FC012700F072FD92
:104650000590A2890492E289039200F071FD6946F7
:104660000F7000E037E1059901916946049A0A81CB
:10467000039A4A8148708D70CD70684600F068FBDF
:10468000A7E023E100F0A0FB02287DD320780228D8
:1046900002D06068002804D0FEF75AFC002832D00F
:1046A00097E02069FEF76EFC0020FEF77FFC00F02B
:1046B00003FE002868D0A581E58100F041FD934903
:1046C000C86200F03DFD012181409048016300F087
:1046D00031FD8F49086000F027FD8D4948608D4805
:1046E000C860FEF719FC8949886000F035FD03E0D9
:1046F000BEE09FE0DCE0C6E0012872D000F02CFDB7
:1047000002285CD058E0307E002828D000F0D4FD8C
:1047100000285ED0A581E58100F012FD7B49C862CA
:1047200000F00EFD012181407848016300F002FD98
:104730007749086000E055E000F0F6FC74494860F5
:104740007448C860FEF7E8FB7049886000F004FD1B
:10475000012865D000F000FD02285FD02CE0FEF7B4
:10476000F1FB2169884234D100F0A6FD002830D049
:10477000A581E58100F0E4FC6449C86200F0E0FC3A
:1047800001218140614800E023E0016300F0D2FC98
:104790005F49086000F0C8FC5D4948605D48C8603A
:1047A000FEF7BAFB5949886000F0D6FC012837D0E3
:1047B00000F0D2FC022831D05748FBF7AAFF2DE0C9
:1047C00000F0FAF9FEF7BEFF5449086178684068C6
:1047D00048610120376800F0EFFD6069B84221D3DD
:1047E0004DE01DE0FFF712F8002802D04C48FBF71F
:1047F00090FFFEF791FB45498968884202D0E08925
:10480000401CE081FEF788FB4049886000F0A4FC72
:10481000012805D000F0A0FC0228CDD10020CFE770
:104820000120CDE760690122391A3548FBF776FF90
:104830006561E5E600200090FEF76EFB334989686C
:10484000884201D1009805E0FEF766FB2F49886099
:10485000012000903978401E084201D1FCF74AFB44
:104860000020776800F0A8FD6069B842DAD306E05E
:104870000020776800F0A0FD6069B842D2D31F48DD
:10488000FBF747FFCEE700F067FC002800D083E687
:1048900000F06AFD0028FAD1FEF758FF0128F6D093
:1048A000FEF79EFF307F00280BD10120786008E0E2
:1048B000FEF74CFF0128EAD0FEF792FF307F002878
:1048C000F3D0002000F078FD656065E61548FBF741
:1048D00020FF07B0F0BD7068012241080348416124
:1048E0000748FBF71BFF07B0F0BD00008C0200205B
:1048F000C002002058020020600000204D06090080
:1049000075530000580409007204090000150040A6
:10491000A80200207D1C00001E06090000F50140D1
:104920000A0509008C040900B16803E6022809D0D1
:10493000FEF7DAFA0020746800F03EFD6869A042D4
:1049400023D31FE03878042829D0032827D0FEF786
:10495000CBFA0024FEF7E0FA154FB968884203D07D
:10496000FEF7DAFAB86001241248641E00780442A7
:1049700001D1FCF7BFFA0020746800F01DFD6869E2
:10498000A04202D30C48FBF7C4FE68690122211A39
:104990000A48FBF7C3FE0020686107B0F0BD7068ED
:1049A0000122410805486961FBF7B8FE07B0F0BD78
:1049B00000150040600000204D06090075530000FE
:1049C000F8B51C48022707601B49401788601B4840
:1049D00007601B48002404601A4E34611A49012004
:1049E00008618861194D287801281CD002281ED042
:1049F00003281CD00120FBF77DFB346110482C708C
:104A0000046000200C49C04388600C480760F460D3
:104A1000032068703460346174606C602C750C48DD
:104A20006C750760F8BD0620FBF764FBE5E7022024
:104A3000E1E7000080E100E00013004080E200E0D8
:104A4000001200400011004000100040CC02002085
:104A500000E100E0F8B53348354A06690327324BD8
:104A60000025324C1168012E05D0022E48D0314865
:104A7000FBF74FFEF8BD042606708669761C86613A
:104A80001F602D4E02233360E5602560256165605F
:104A90002A4B08265E60097D002910D0284EB16897
:104AA000284F81753868400702D42748FBF731FE4C
:104AB000E5612649012088610420B860B56020685E
:104AC000002802D02248FBF724FEE068002802D02C
:104AD0002048FBF71EFE20480068800702D51F48CB
:104AE000FBF717FE124C2068C068002800D08047F2
:104AF0002068417D0029BDD0194900684860F8BD93
:104B0000E5602561256065601D6000230B4A057026
:104B1000DB43936047704560057508690028EED057
:104B20008047F8BDCC020020001200400011004078
:104B30007C000020E7020A0080E200E00013004051
:104B40004015004000F50140AD020A000010004091
:104B5000B6020A00B7020A0000E200E0B8020A004A
:104B60000015004010B50D49022408600C4804608F
:104B70000D480C4941620D490162FFF721FF0021F8
:104B80000B4803220170427041600161017541755B
:104B9000817508480460064810BD00007C000020B4
:104BA00080E100E01410004000F5014004110040D5
:104BB000CC02002000E100E0F8B505462A490001DA
:104BC0002A4C4718207D002802D02948FBF7A1FD78
:104BD0000026002D2AD0012D28D0022D26D02548D0
:104BE000FBF797FD2448FBF794FD002123486675E9
:104BF000C94381602249022008602248657000682C
:104C0000032D0168A16040682661A661E0603A68F2
:104C100062601BD21C4B3A7A1A60FB7A1B4A002B4B
:104C200008D05060506800280DD109E02078002895
:104C3000DBD0D7E751605068002804D1144800E069
:104C40001448FBF766FD0D48797A41600D4800680D
:104C5000007D002805D0022D03D10F49A675042040
:104C6000486001206075F8BD50590000CC0200205A
:104C7000DB000A00F9020A00DD000A000013004010
:104C800080E200E07C00002000120040001500409F
:104C900000010A0005010A0000F5014002484068D1
:104CA000012800D00020704700110040F8B51E4CCC
:104CB000074665781D4928014618607D012802D005
:104CC0001B48FBF726FD207D002802D01948FBF782
:104CD00020FD0120002120756175032D0AD2002FCF
:104CE00001D131680860022D01D0012D05D1B07AC3
:104CF000207002E01048FBF70CFD10480068007DB2
:104D000000280FD0022D0DD10D484068400702D475
:104D10000C48FBF7FEFC0C484068002802D10B4809
:104D2000FBF7F7FCF8BD0000CC0200205059000052
:104D300021010A0022010A003A010A007C00002039
:104D400000F5014040010A000015004041010A0041
:104D500070B5184D04462868002802D11648FBF7A4
:104D6000D8FC164E70680A2802D31548FBF7D1FC10
:104D7000E86F0C2148434119207808716078487128
:104D8000A0788871E078C87160688860208988811F
:104D90006089C8817068401C7060E86F401CE867DB
:104DA000E86F0A2801D30020E867012005490005C3
:104DB000086070BDF002002034000B00700300207A
:104DC00035000B0000E200E0024840680A21081AA2
:104DD000C0B270477003002010B5040002D107482C
:104DE000FBF797FC06490C600020C867054908607E
:104DF0004860012004490005086010BD29000B002F
:104E0000F00200207003002000E100E0820710B5EE
:104E1000920F9043D200FF24944003689140A34333
:104E2000CA18074B0121596006490C68002CFCD0B8
:104E3000026008680028FCD00020586010BD000007
:104E400000E5014000E40140F0B515460E46074676
:104E5000002404E0315D3819FFF7D8FF641CAC4230
:104E6000F8D3F0BDFFB55A4885B0C06F03250027C1
:104E70000F9E0C46002802D15648FBF74AFC5448C6
:104E80000078032802D05448FBF743FC5048C06F19
:104E900041785248CA070190002A1ED1807C002820
:104EA0001BD000200090059800286ED00798490775
:104EB0000002890F000A464B09060843A200D118D8
:104EC000896B00220E9B88421A60326003905ED08C
:104ED0003F4FF86F002805D101E00120E2E740488C
:104EE000FBF717FC3A482146C06F08310291FEF7E4
:104EF0007BFB002804D0002035490127C86700E06B
:104F00000027009838400090002F40D00298810080
:104F10002F4809180398886108990F4236D0314804
:104F2000005D002832D02046FEF7DAFA002802D1D0
:104F30002D48FBF7EEFB2046FEF72CFB02900028E5
:104F400011D001982546007C002805D02048006932
:104F5000A84201D100F062F91D49002049198031B1
:104F60000870204948550E99029808600E9900294A
:104F700009D0002802D11D48FBF7CBFB00211948BE
:104F80000225015503E01A48F6E712E001250098D2
:104F900000280AD02046FEF77DFB3060002803D0B1
:104FA00010480121015501E012483060002F01D066
:104FB00006E00425064CE06FFEF744FA0020E067A7
:104FC00003490020087000F029F9284609B0F0BD17
:104FD000780300205B010C005C010C00F80300204A
:104FE0006F020C008000002091010C0096010C0063
:104FF0009A010C00D0030020F8B52D4C064620780D
:105000000D46012804D0022802D02A48FBF781FB74
:10501000002E28D02078012802D02748FBF779FB02
:10502000E068002802D12548FBF773FBE0680078B0
:10503000002804D0E06F6668002805D101E0002751
:1050400012E01F48FBF765FB31460831E06FFEF7C1
:10505000CBFA002802D00020E06702E01948FBF7F5
:1050600058FB022700E00427002D1AD06568284667
:10507000FEF790FA06000ED01348007C002804D0FA
:105080002069A84201D100F0C9F8002061198031DF
:1050900008700E494855A068B04202D00C48FBF792
:1050A00038FB0020207000F0B9F83846F8BD000049
:1050B00078030020FC000C0002010C0003010C002E
:1050C0006F020C000E010C00F8030020800000208D
:1050D0001E010C0010B50830FEF72AF910BD0000C3
:1050E00070B5044609480A4D007C002804D029699F
:1050F000A14201D100F092F8291900208031054A1F
:10510000087010552046FEF713F970BDF803002013
:10511000780300208000002010B5FEF793F910BD41
:1051200010B5FEF7D7F910BD0148C0687047000000
:105130007803002001488068704700007803002051
:1051400001484068704700007803002010B508301F
:10515000FEF7C6F910BD0000014800787047000056
:105160007803002010B5FEF7BBF910BD70B5FEF74F
:10517000C7F90022144C154E104601069300014356
:105180001B199961134605060146083329439D0002
:105190002D19A961A11880310870E11880310870BB
:1051A000B054521C082AE8D320706060A060E06010
:1051B0002061074960610874064A48741076E06708
:1051C0000120887470BD000078030020800000205A
:1051D000F8030020B803002010B50830FEF7DAF914
:1051E00010BD70B50E4604460025FEF773F9002881
:1051F00008D021463046FEF7F7F9002802D000F02B
:105200000DF80125284670BD10B50830FEF742FAAA
:1052100010BD10B5FEF75CFA10BD0000F8B50F4CDC
:105220002078002819D10E4E307C002815D1082591
:1052300001276069FEF754F9002802D037746069CD
:1052400020616069401C6061082801D10020606114
:10525000307C002801D16D1EEBD1F8BD7803002011
:10526000F80300200149887470470000F80300200B
:1052700070B50F4D2878002802D00E48FBF749FA88
:10528000E86F002802D1FEF723FAE86704000CD08B
:10529000FF2020706078062108436070FF222021E3
:1052A000A01CFAF77BFF03202870204670BD000089
:1052B000780300203B010C0070B5264C20780028B4
:1052C00002D02548FBF725FA244D0026287C00282B
:1052D00025D020696060FEF7DDF9A060002802D1CA
:1052E0001F48FBF716FAA0684078C00705D1A87CD4
:1052F000002802D00220E6600FE060680830FEF768
:10530000EFF803280BD2E06F002802D1FEF7E0F996
:10531000E067E060002802D00120207002E02078E1
:10532000002816D0A068002802D10E48FBF7F1F93A
:105330002069606080000119C87EF923401CC8768E
:10534000A26880075178400F1940014351702E74B4
:10535000012070BD78030020C3000C00F80300207A
:10536000C9000C00E7000C000148007C70470000F9
:10537000F8030020044801788170417801708800AA
:105380000249085800470000880000208C000020D7
:1053900001480078704700008800002001484078EC
:1053A000704700008800002002498870487008702B
:1053B000704700008800002010B50446022802D380
:1053C0000248FBF7A6F90248447010BD2A000D0000
:1053D000880000204058002800D001207047032298
:1053E000120280184068084000D001207047000079
:1053F000FEB56846FDF75DFA274C207861780843D2
:1054000002D1FCF797FD607060782178012688430F
:10541000002500280BD0FCF755FF012832D00228C8
:1054200001D0032801D1257065700028F3D02078C1
:10543000A178884306D008216846FCF74BFE002877
:1054400023D0A6702078A17808421AD00821684697
:10545000FCF740FE00281AD010A0FBF7ADFB02A914
:105460000020FBF79FFD6846007A0028F7D16846C8
:10547000FDF716FA08216846FCF72CFE002800D13B
:10548000A570FEBD26706670D1E72570DAE708A02A
:10549000FBF792FBF4E70000000000204B65796207
:1054A0006F6172642073656E74204F4B0A000000B8
:1054B0004B6579626F6172642073656E742046413A
:1054C000494C45440A00000030B50A48FF21C57D1B
:1054D0000022094C0931094B002D625007D099690F
:1054E000437EC268D154417E491C417630BD9869E3
:1054F00030BD0000C4010020002000400025004015
:105500001FB501236A46137010720348019106C843
:10551000684690471FBD0000C4010020FF220548D7
:10552000253200218150FF22093281500121016082
:10553000704700000020004010B5FEF707F9012871
:1055400020D1FFF72BFF002802D00F48FBF7E1F82E
:1055500000221E210D48FBF7E1F80D48007F0028CE
:105560000ED10C48012141610B48002202608205E6
:10557000116000BF00BF00BF00BF01680029FCD060
:10558000FEF722F910BD00002C060900755300003B
:10559000580200200005004000010040FF2107489C
:1055A0001D31002242500648828A8168895C828AC5
:1055B000521C82820348C1617047000000200040F5
:1055C000C4010020002500401FB500216A4611706B
:1055D0001072044882680192817506C86846904737
:1055E0001FBD0000C4010020704700007CB5017899
:1055F000284D01290AD002292FD000292CD1294673
:105600002548FBF7E1FB002833D036E040680178FD
:1056100021481038FBF7F5FB1F4C103C002805D043
:1056200001216A4611700190684608E0A068E168AF
:10563000081A012805D10020694608706846696883
:105640008847A068E168081AA188884204D81148F0
:105650000121401CFDF752FD7CBD02216A461170FC
:10566000C06801900B480121401CFDF747FD6846CA
:105670000CE001210748FDF7C1FD07488168C068BB
:105680008842E9D1032069460870684669688847FE
:105690007CBD000008000020B4010020F0B5454D9D
:1056A000012185B049022846FFF799FE012700260F
:1056B000414C002824D0FF2125312846FFF78AFEDF
:1056C00000281DD0FF2025302E5081203B4980002E
:1056D0008860A07E002800D16F60022168460170BA
:1056E0003749086808600390E17D68460172E06808
:1056F0000190E675267606CC6846083C90472BE07C
:1057000004212846FFF76BFE002825D0FF21093130
:105710002846FFF75FFE00281ED0FFF7D5FEE07D8C
:10572000617E884218D1207E002808D0627EE16820
:10573000E0752069E0602676667610460AE0A07E75
:10574000002800D16F6081201C4980008860E675C8
:10575000607EE168FFF7D4FEFF211D312846FFF788
:1057600039FE00280DD0A18AA07D814202D2FFF728
:1057700015FF06E0FF211D316E50002801D0FFF714
:1057800023FFFF2145312846FFF724FE00280ED0D5
:10579000FF2045302E50A07E002800D02F60E07DF5
:1057A000002804D0E675607EE168FFF7A9FE05B029
:1057B000F0BD000000200040C40100200023004094
:1057C00080240040F0B53B4E83B030787178884239
:1057D0006DD0002801D1FDF777F87078364D0024A0
:1057E00000281CD10320A860FFF7B6FC012804D0D4
:1057F000022802D0032812D104E000210846FFF756
:10580000FBFB07E0002300941A4619461846019452
:10581000FFF728FB042802D02848FAF77AFF6C61CA
:10582000FFF7CEF8264D274F2C606C602C61AC60E2
:10583000EC603078012802D0022809D01CE0FFF784
:105840008BFC002815D000210846FFF7D5FB10E09F
:10585000FFF7B6F81C482C610470FFF77DFC0328A5
:1058600007D1002300941A46194618460194FFF701
:10587000F9FA3078022802D07068002813D0134853
:10588000F96801607078307004256846002305705F
:1058900001930381438143708470C470FFF758FA09
:1058A000012003B0F0BD0948B9680160EAE70020B3
:1058B00003B0F0BD8C02002000F50140E8010900B2
:1058C000A80200205802002060000020C002002032
:1058D0000B09080A0100000000E0D70111000000D8
:1058E000120000001300000014000000110000006E
:1058F0001200000013000000140000000900000066
:105900000B0000000A00000008000000000000007A
:105910000000000000E0D7010300000009000000C3
:105920000B0000000A00000008000000000000005A
:105930000000000000E0D7010300000032536601C0
:10594000172D2D1A440C4023490D171A2D0B4D000D
:105950000010004010110040031000000100000082
:1059600000100040000000000B02040000000000D6
:1059700004100040000000000708030100000000C0
:10598000A05900000000002098000000060C000054
:10599000385A000098000020480D0000160C000046
:1059A00000000001010100000000000000000000F4
:1059B00000000000000000000000000000000000E7
:1059C00000000000000000000000000000000000D7
:1059D0000000000000000000000000000024F400AF
:1059E00000000000050000000000000000000000B2
:1059F00004192A3F4D0000000000000000000000D4
:105A00000000000000000000000000000000000096
:105A10000000000000000000000000000000000086
:105A20000000000000000000000000000145000030
:085A30009D440000000000008D
:04000005000000C136
:00000001FF
