:020000021000EC
:10C0000000000120710D0300990D03009B0D03003A
:10C010009D0D03009F0D0300A10D03000000000013
:10C02000000000000000000000000000A30D03005D
:10C03000A50D030000000000A70D0300A90D0300DB
:10C04000AB0D0300AB0D03000537020011700200B9
:10C05000AB0D0300AB0D030089240200AB0D030000
:10C060000D880200258802003D880200ED91020043
:10C07000AB0D0300AB0D0300AB0D0300AB0D0300D4
:10C08000AB0D0300810F0200AB0D0300AB0D0300ED
:10C09000C10F0200AB0D030059610200AB0D03009C
:10C0A000AB0D0300AB0D0300558802006D88020044
:10C0B000AB0D0300AB0D030000000000000000000A
:10C0C000AB0D0300AB0D0300AB0D0300AB0D030084
:10C0D000AB0D0300AB0D0300AB0D0300000000002F
:10C0E0000000000000000000000000000000000050
:10C0F0000000000000000000000000000000000040
:10C10000000000000000000000000000000000002F
:10C11000000000000000000000000000000000001F
:10C4000010B5054C237833B9044B13B10448AFF38E
:10C4100000800123237010BD602100200000000077
:10C42000047E0300084B10B51BB108480849AFF360
:10C4300000800848036803B910BD074B002BFBD0F0
:10C44000BDE81040184700BF00000000047E030054
:10C45000642100205C21002000000000154B002B0F
:10C4600008BF134B9D46A3F5803A00218B460F462B
:10C470001348144A121A00F065F80F4B002B00D035
:10C4800098470E4B002B00D0984700200021040055
:10C490000D000D48002802D00C48AFF3008000F0DA
:10C4A0002BF82000290007F017FB00F011F800BF5F
:10C4B0000000080000000120000000000000000053
:10C4C000602100208C3900200000000000000000E6
:10C4D00008B5074B044613B10021AFF30080054BAC
:10C4E0001868836A03B19847204603F0B1FD00BF86
:10C4F000000000004C4B030070B50E4B0E4CE41ACC
:10C50000A41000251E46A54204D056F825309847B1
:10C510000135F8E718F00CFB084C094BE41AA4109D
:10C5200000251E46A54204D056F82530984701350F
:10C53000F8E770BD5421002054210020582100202C
:10C540005421002002440346934202D003F8011B09
:10C55000FAE770472DE9FF4755EC104B0D9FDDF8CA
:10C5600030A0002D0E4691461946B8BF22462B46F4
:10C5700027F02007BBBF05F100431D4600232D23F4
:10C58000B8BF1446462F0B7003D0452F03D1013698
:10C5900001E0032100E0022102AB009303AB019311
:10C5A00045EC104B3246534601F0EAFD472F8046DA
:10C5B00002D119F0010F26D0462F08EB060911D140
:10C5C00098F80030302B0AD120462946002200235B
:10C5D00016F0D4FF18B9C6F10106CAF80060DAF8FF
:10C5E00000309944204629460022002316F0C6FF59
:10C5F00008B1CDF80C90039B4B4504D25A1C039212
:10C6000030221A70F7E7039B0E9AC8EB03034046EB
:10C61000136004B0BDE8F08773B503460029B8BFC6
:10C62000494203F8022BB4BF2D222B220929427064
:10C6300019DD0DF1070426460A2291FBF2F502FBF3
:10C6400015113031092D04F8011D2946F4DC303173
:10C65000651E04F8011CB5421A460AD215F8012BD2
:10C6600003F8012BF7E730241A46214402F8024B65
:10C670005970101A02B070BD2DE9F04F8BB08B4687
:10C6800015461E46149F044602F046FED0F800A050
:10C69000504600F003FE002308933B6805900733E3
:10C6A00023F0070303F108029BF818803A60D3E9EE
:10C6B0000023CBE912239BED120B00F099FD01281A
:10C6C0001BD1DBE912010022002316F061FF10B13B
:10C6D0002D238BF84330B54BB54FB8F1470F88BFCA
:10C6E0001F460323CBF81030DBF8003023F004039F
:10C6F000CBF800304FF000099FE09BED120B00F0EB
:10C7000077FDDBF8002068B9AA4BAB4F22F004029A
:10C71000B8F1470F88BF1F460323CBF81030CBF882
:10C720000020E7E7DBF804104F1C9BED120B01D152
:10C73000062309E0B8F1670F02D0B8F1470F05D121
:10C74000002940F0C1810123CBF8043007AB8DE80C
:10C75000080108AB42F48062029300230393CBF8F4
:10C7600000200DF11B032046DBF80410FFF7F2FE5A
:10C7700008F0DF03472B07460AD1079BD81C03DBD1
:10C78000DBF80420934237DDA8F102085FFA88F84D
:10C79000B8F1650F079915D8013942460BF15000E1
:10C7A0000791FFF739FF089A8318012A8146CBF8D1
:10C7B000103003DCDBF80020D10738D50133CBF88B
:10C7C000103034E0B8F1660F18D10029DBF80430DE
:10C7D00009DDCBF810101BB9DBF80020D20721D5FA
:10C7E00001330B441CE01BB9DBF80020D00701D556
:10C7F000023315E0012313E04FF06708079B089A06
:10C80000934207DBDBF80020CBF81030D10709D5C5
:10C81000013305E0002BD4BFC3F10203012313440D
:10C82000CBF81030079BCBF858304FF000099DF83B
:10C830001B3013B12D238BF8433000962046594608
:10C8400009AA2B4600F056F9013002D14FF0FF3013
:10C850004CE1DBF800305A0505D4204629463A461B
:10C86000DBF8103008E1B8F1650F40F2D080DBE969
:10C8700012010022002316F081FE50B32046294603
:10C880004E4A0123B0470130E0D0089B079A9A42F4
:10C8900009DBDBF80030D80705D4DBF800309F0750
:10C8A00000F1108107E1204629465246059BB0471A
:10C8B0000130CBD00027089B013B9F42EDDA204698
:10C8C00029460BF11A020123B0470130BED00137CF
:10C8D000F1E7079B002B29DC20462946374A012334
:10C8E000B0470130B2D0079B2BB9089B1BB9DBF8CE
:10C8F0000030D907D1D5204629465246059BB0477E
:10C900000130A3D04FF00008079B5B4298452046BA
:10C91000294608DA0BF11A020123B047013095D0FD
:10C9200008F10108F0E73A46089BA5E0DBF858203B
:10C93000089B9A42A8BF1A46002A914602DC4FF093
:10C94000000812E0204629463A464B46B0470130DF
:10C95000F5D17BE7204629460BF11A020123B047A7
:10C9600001303FF473AF08F10108DBF85830B9F13A
:10C97000000FACBFC9EB03021A469045EADB07EB98
:10C980000308079A089B9A421ADBDBF80030DA07A3
:10C9900016D4089A1744C8EB0703079FD21B93428B
:10C9A000A8BF1346002B1F4612DC18E0544B0300AF
:10C9B000504B03005C4B0300584B0300FE7D03000B
:10C9C000204629465246059BB0470130E1D13DE75C
:10C9D000204629464246B04701303FF437AF4FF07A
:10C9E00000080AE0204629460BF11A020123B0474D
:10C9F00001303FF42BAF08F10108079A089B002F84
:10CA0000A3EB0203A8BFDB1B9845EBDB45E7089AC5
:10CA1000012A01DCDB0736D5204629463A460123A8
:10CA2000B04701303FF412AF204629465246059BDD
:10CA3000B04701303FF40AAFDBE9120100220023C6
:10CA400016F09CFDE8B9089B204629467A1C013B5C
:10CA50001DE0204629460BF11A020123B0470130A0
:10CA60003FF4F4AE0137089B013B9F42F1DB2046C7
:10CA700029460BF150024B46B04701307FF40DAF11
:10CA8000E4E60027EFE7204629463A460123B0476F
:10CA90000130ECD1DAE6204629460BF119020123D8
:10CAA000B04701303FF4D2AE0137DBF80C30099AC1
:10CAB0009B1A9F42EFDBDBF80C00099B9842B8BF42
:10CAC000184613E00027F0E707AB8DE8080108AB34
:10CAD00042F48062029300230393CBF800202046A7
:10CAE0000DF11B03FFF736FD074646E60BB0BDE828
:10CAF000F08F00BF2DE9F84391461F468A680B6905
:10CB0000DDF820809342B8BF1346C9F8003091F891
:10CB1000432006460C4612B10133C9F800302368A1
:10CB2000990642BFD9F800300233C9F800302568B1
:10CB300015F006051CD094F843302268003318BF66
:10CB4000012392061FD5E1185A1C302081F84300BA
:10CB5000224494F8451082F84310023313E0304623
:10CB6000394604F119020123C047013007D00135CD
:10CB7000E368D9F800209B1A9D42F0DBDBE74FF019
:10CB8000FF30BDE8F8833046394604F14302C04720
:10CB90000130F4D02268D9F80050E36802F00602B0
:10CBA000042A08BF5D1B2269A3680CBF25EAE5754E
:10CBB00000259342C4BF9B1AED184FF00009A94508
:10CBC0000ADA3046394604F11A020123C04701301F
:10CBD000D5D009F10109F2E70020BDE8F883000093
:10CBE0002DE9FF410C461746227E6E2A98460646DE
:10CBF0000A9B01F1430100F0AF8012D8632A23D0D1
:10CC00000AD8002A00F0BC80582A40F0CB8084F873
:10CC10004520DFF804E257E0642A1ED0692A1CD0C0
:10CC2000C0E0732A00F0B08009D86F2A2ED0702A95
:10CC300040F0B880226842F0200222603FE0752A6E
:10CC400024D0782A3BD0ADE01A68111D1960136812
:10CC500084F8423004F14205A8E020681A6810F018
:10CC6000800F02D0101D186008E010F0400F02F194
:10CC70000400186002D0B2F9003000E01368002B05
:10CC80003EDA2D225B4284F8432039E020681A689E
:10CC900010F0800F02D0101D186007E010F0400F58
:10CCA00002F10400186001D0138800E01368227EAE
:10CCB000DFF864E16F2A0CBF08220A221CE0782208
:10CCC000DFF858E184F845202268186812F0800FD8
:10CCD00000F104051D6003D1550601D5038800E06D
:10CCE0000368D00744BF42F0200222601BB92268CB
:10CCF00022F0200222601022002084F8430002E08B
:10CD0000DFF814E10A226568A560002DA2BF206843
:10CD100020F00400206003B965B10D46B3FBF2F0CA
:10CD200002FB10331EF8033005F8013D03460028CE
:10CD3000F4D100E00D46082A0BD12368DA0708D5A4
:10CD4000236962689A42DEBF302305F8013C05F191
:10CD5000FF35491B21612EE025681A68606915F0CE
:10CD6000800F03D0151D1D60136808E015F0400FFB
:10CD700002F104051D60136801D0188000E01860FE
:10CD8000002323610D4616E01A68111D196015680D
:10CD900062682846002102F0CBFA08B1401B6060AF
:10CDA000636804E004F1420584F842200123236112
:10CDB000002384F84330CDF800803046214603AA92
:10CDC0003B46FFF797FE013002D14FF0FF301FE0E6
:10CDD000304639462A462369C0470130F5D02368DA
:10CDE0009B0705D4E068039B9842B8BF18460FE044
:10CDF0000025E368039A9B1A9D42F3DA30463946D0
:10CE000004F119020123C0470130DED00135F0E7FB
:10CE100004B0BDE8F08100BF604B0300714B03001C
:10CE20002DE9F04F99468B6815465A1EB2F5AE7F34
:10CE300081BF6FF4AE7203EB020C40F25D138B60A6
:10CE40000B680F4643F4F06387B047F81C3B4FF084
:10CE5000000B06460C4698BF4FF0000CB8465A46E9
:10CE6000CDF80CB0CDF808B0DA46CDF804B0A16822
:10CE7000002900F0EC802B681B78492B70D016D865
:10CE8000392B0DD8312B40D22D2B46D002D82B2B4D
:10CE900043D0DCE02E2B00F09280302B23D0D6E064
:10CEA000452B00F09580462B77D0412B0CE0652B6D
:10CEB00000F08E800AD8542B75D002D84E2B34D077
:10CEC000C5E0592B75D0612B46D0C0E06E2B2CD01D
:10CED00004D8662B61D0692B42D0B8E0742B62D0A5
:10CEE000792B66D0B3E0206810F4807F0DD020F05D
:10CEF000800020600AF1010ABCF1000F00F08A8076
:10CF000001310CF1FF3CA16084E012EB0B0F40F00B
:10CF10009E80216821F4C07105E02168080640F177
:10CF2000968021F08001216070E06AB9BAF1000FAB
:10CF30000CD1216801F4E060B0F5E06F06D121F476
:10CF4000F0612160012261E0022A5ED0BBF1010F95
:10CF50001ED0BBF1040F1AE0012A78D1022255E05D
:10CF6000BBF1000F0ED1BAF1000F73D1216801F4AB
:10CF7000E060B0F5E06F71D121F4F06121604FF015
:10CF8000010B43E0BBF1030F02D0BBF1050F5ED1F3
:10CF90000BF1010B5FFA8BFB38E0BBF1020F56D1AE
:10CFA0004FF0030B32E0BBF1060F50D14FF0070BEF
:10CFB0002CE0BBF1070F4AD14FF0080B26E02168A7
:10CFC000880544D521F420712160CDF804A01DE02E
:10CFD000216801F4A060B0F5806F04D0480536D513
:10CFE000BAF1000F3AD088055CBF0198CDF80C80EB
:10CFF00021F4F06158BFC0EB0A0041F4C07158BF82
:10D00000029021604FF0000A00E0032288F800300F
:10D0100008F10108A368013BA36023690133236180
:10D020006B68013B002B6B6003DD2B6801332B60C9
:10D030001DE7D4F88031059230462946CDF810C05E
:10D040009847DDF810C0059A00283FF410AFBAF1F8
:10D05000000F03D0236823F480732360013A012A70
:10D060000ED8B8450AD9D4F87C3118F8011D3046DD
:10D070002A4698472369013B2361F2E70125B0E086
:10D080000BF1FF33062B22D8BBF1020F12D9ABF103
:10D09000030B5FFA8BFBCBEB080BD84517D0D4F80A
:10D0A0007C3118F8011D30462A4698472369013B18
:10D0B0002361F2E7B845E1D9D4F87C3118F8011DB5
:10D0C00030462A4698472369013B2361F2E72368EB
:10D0D000DA052CD55B050CD5B845CFD9D4F87C3111
:10D0E00018F8011D30462A4698472369013B236101
:10D0F000F2E718F8011C2369652903F1FF3308F1F1
:10D10000FF3B23610DD045290BD0D4F87C3130464C
:10D110002A469847236918F8021C013BA8F1020B24
:10D120002361D4F87C3130462A469847D846256892
:10D1300015F0100554D188F80050236803F4C0633B
:10D14000B3F5806F05D1019BC3EB0A035A426BB95B
:10D1500016E0029BA3B1039B2A46591C30460A23C2
:10D1600000F0F8FE029BDDF80C80C21A04F26F1387
:10D17000984528BF04F5B77840461C4900F06AF886
:10D1800030463946002200F0C3F82268D9F8003052
:10D1900012F0020F57EC106B03D01A1DC9F80020D3
:10D1A00006E012F0040F03F10402C9F8002003D0D6
:10D1B0001B68C3E900670FE0D3F8008000F018F89F
:10D1C00020B900F041F888ED000A05E03046394604
:10D1D00016F04EFAC8F80000E3680133E36000E09F
:10D1E0000025284607B0BDE8F08F00BF824B030042
:10D1F00053EC102B33F0004210B510EE100A1BD088
:10D200000F49A3F580148C4210D903F1FF430C4958
:10D2100003F5E0038B4209D9B2F5801F08D3094B0F
:10D220009A4207D1B0FA80F0400910BD042010BD29
:10D23000032010BD002010BD0028E6D1022010BD43
:10D24000FFFFDF7F0000F07F9FED010A704700BF06
:10D250000000C07F0EB400B59CB04FF40271ADF871
:10D2600014106FF00041049107914FF6FF711DAB50
:10D27000ADF81610084953F8042B02900690086880
:10D28000019302A902F06EFD029B00221A701CB0ED
:10D290005DF804EB03B07047E0200020034613F86C
:10D2A000012B002AFBD1181A0138704730B50368EA
:10D2B00011F8014B01334CB11A78A2F14105192D37
:10D2C00098BF2032A242F3D0002030BD036001207D
:10D2D00030BD70B504460D4645EC104B164602F0C5
:10D2E0000FFB51EC100B7EB1C5F30A53C3F16B0376
:10D2F000002B09DD1B0503F17F55002405F54015C2
:10D3000022462B4615F0D2FE70BD00000000000042
:10D310002DE9F04F9FB0002304468B4616921A93D6
:10D320004FF000084FF000091991199B1A780D2A47
:10D3300005D8092A13D2002A00F0C28112E02B2A54
:10D3400006D02D2A02D0202A0CD108E0012200E0CC
:10D35000002209925A1C19925B782BB9B0E1013373
:10D360001993E2E700230993199D2B78302B5CD1A8
:10D370006B78582B01D0782B4CD11AAB0093099BBA
:10D380000193204619A9B34A1BAB01F004FD10F02C
:10D390000707064600F0AB85062F05D101350023AF
:10D3A0001995099300F0A3BD1A9A3AB11CA835212A
:10D3B00002F099FB20461A9902F009F81B9A062FF1
:10D3C00021D8DFE807F0040D08171C0D04004FF00A
:10D3D0000009C84617E0DDF87080DDF8749012E0AF
:10D3E0001D9BDDF8708002F2334223F4801343EA80
:10D3F000025908E0DFF860924FF0000803E06FF098
:10D4000000494FF0FF38310740F1718549F000497C
:10D4100000F06DBD199B5A1C19925B78302BF9D026
:10D42000002B00F06485012300E000230027039314
:10D43000199B0593BA463E46199D95F800C0ACF17C
:10D440003003DAB2092A0CD8082E4FF00A0205F18F
:10D450000105D4BF02FB0A3A02FB073701361995D2
:10D46000EAE72046CDF810C001F056FF01680291AE
:10D47000204601F051FF0068FFF710FF02990246B5
:10D48000284602F071FD38B1DDF810C00020634677
:10D490003546029086465BE00290204601F03CFF54
:10D4A0000068FFF7FBFE199B02991A1819921B5C82
:10D4B000002E44D13046302B05D1199B5A1C1992AD
:10D4C00001305B78F7E7A3F13102082A46D8199AB0
:10D4D0000290002005920546303B00F1010128D062
:10D4E000029A0A44029200EB050E2946714511D0BA
:10D4F000013101F1FF3CBCF1080F04DC4FF00A0CD4
:10D500000CFB0AFAF2E71029DCBF4FF00A0C0CFB07
:10D5100007F7EBE72844082800F1010503DC0A219E
:10D5200001FB0A3A04E0102DDCBF0A2101FB07379A
:10D530000021199B581C19905B78084602E035467B
:10D5400008460291A3F130010929C5D94FF0010E17
:10D55000652B01D0452B64D17DB906E0652B40F0E9
:10D56000D484002302934FF0010E28B9039B002BB3
:10D5700000F0A680054600E00025DDF864B00BF160
:10D58000010319939BF801302B2B06D02D2B02D0D1
:10D5900000210A4608E0012300E000231A460BF1AF
:10D5A000020319939BF80230A3F13001092936D800
:10D5B0001946302904D1199B591C19915978F8E75B
:10D5C000A1F1310CBCF1080F0B462AD8A1F13003B0
:10D5D0000493199B0693199B03F1010CCDF864C0C9
:10D5E0005B78A3F13001092908D804994FF00A0C9F
:10D5F0000CFB0131A1F130030493ECE70699C1EB78
:10D600000C0CBCF1080F44F61F6C04DC0499614556
:10D61000A8BF614600E0614622B1494202E0CDF870
:10D6200064B00021002D55D1002840F06084039A99
:10D63000002A40F05C84BEF1000F41D14E2B20D077
:10D6400002DC492B0AD03BE0692B07D06E2B18D0A7
:10D6500036E000BFC84B03000000F07F19A8A849BE
:10D66000FFF724FE60B3199BA649013B19A8199343
:10D67000FFF71CFE10B9199B01331993DFF89C9238
:10D680001AE019A8A049FFF711FEC8B1199B1B7831
:10D69000282B0FD119A89D491CAA01F0B3FD05281C
:10D6A00008D11D9BDDF8708043F0FF4949F4E00983
:10D6B00000F01DBCDFF868924FF0000800F017BCC6
:10D6C000169BCDF864B0002B00F01C840023099356
:10D6D00000F00FBC029B002E14BFB346AB46CB1A22
:10D6E000102D50462E460493A8BF102615F068FC56
:10D6F000092E8046894613DD854B03EBC60353E9AB
:10D70000122315F0D3FC80463846894615F058FCA4
:10D7100002460B464046494615F016FB80468946B0
:10D720000F2D37DC049B002B00F0E18324DD162B4A
:10D7300007DC774A02EBC302D2E900014B464246BE
:10D7400015E0049AC5F125039A4223DC704CC5F11B
:10D750000F0504EBC503D3E9000142464B4615F023
:10D76000A5FC049B5D1B04EBC504D4E9002315F064
:10D770009DFC80468946BAE3049B13F1160F09DB32
:10D78000634AA2EBC30240464946D2E9002315F0A2
:10D79000B7FDEEE7049BAE1B1E44002E57DD16F0CE
:10D7A0000F020AD05A4B03EBC203D3E900014246F1
:10D7B0004B4615F07BFC8046894636F00F0600F09C
:10D7C000B580B6F59A7F0ADD0025AA460595039532
:10D7D00022232360DFF844914FF0000885E1494699
:10D7E000DFF84091361140460027CC46012E0EDD71
:10D7F000F20707D5D9E90023CDF808C015F056FC8B
:10D80000DDF808C00137761009F10809EEE7804617
:10D81000A1F154790CEBC70742464B46D7E900010A
:10D8200015F044FC21F0004389460A461B0D394996
:10D830001B058B428046C7D8A1F580118B4286BF5D
:10D84000DFF8E4904FF0FF3802F154796EE06DD0CC
:10D85000764216F00F020AD02D4B03EBC20340466E
:10D860004946D3E9002315F04BFD80468946361121
:10D870005CD01F2E04DD0025AA46059503952EE1F8
:10D8800016F0100F0CBF00236A23234F029340466B
:10D890004946002E08DDF30703D5D7E9002315F02C
:10D8A00005FC76100837F4E7029B80468946EBB109
:10D8B000C1F30A53C3F16B03002B0A4616DD1F2B7D
:10D8C0000EDD342BDEBF203B4FF0FF3101FA03F3B6
:10D8D0004FF00008CCBF4FF05C7903EA020905E085
:10D8E0004FF0FF3202FA03F303EA000840464946CC
:10D8F0000022002315F042FE0028BCD118E000BF32
:10D90000554B0300E04C03005D4B0300884B0300C4
:10D91000F84C03000000A07CA04B03000000F07F47
:10D920000000F8FFC04D0300FFFFEF7F00230293CC
:10D93000CDF800A0204605995A462B4601F09CFDE3
:10D94000059000283FF440AF049A049B002AC3F1DD
:10D9500000034FF00005A8BF00231293AA46059BC1
:10D960002046596801F0FEFC039000283FF430AFD8
:10D97000059B1A69059B023203F10C0192000C30E1
:10D9800001F0E5FC204649EC108B1BA91CAACDE94F
:10D990000A8902F02CF81A9000283FF419AF2046AB
:10D9A000012101F0F6FD824600283FF411AF049BEF
:10D9B00002991C9E23EAE37308931B9B002BADBFC7
:10D9C000129A089A129FD718B8BFD21AA3EB010374
:10D9D00033446FF47F71A8BF089A8B42C6F13606B4
:10D9E00080F28880C91A1F29A6EB0106C8BFB54975
:10D9F0004FF0010BD5BF0BFA01F3C91A13930BFAC1
:10DA000001F3D9BF002306930693CDF84CB007EB82
:10DA1000060B029BBB4516441E445A46A8BF3A4615
:10DA2000B242A8BF3246129B002AC2BFC2EB0B0B08
:10DA3000B61ABF1A002B62D1BBF1000F78DC089B2D
:10DA4000002B7FD1002E00F38780002F00F38E8003
:10DA500020461A99039A01F0F4FE054600283FF487
:10DA6000B7AEC36808930023C360514601F0CDFEF2
:10DA7000002880F28980089B002B40F01282B8F1C8
:10DA8000000F40F00E82C9F31303002B40F009820F
:10DA900029F000431B0D1B05B3F1D66F40F2018244
:10DAA0006B69002B6CD029460122204601F05AFEFA
:10DAB0005146054601F0A9FE002840F3F28129F005
:10DAC0000043029A1B0D1B05002A00F08C80B3F165
:10DAD000D66F00F38880B3F15C7F00F3E4812223EA
:10DAE0004FF000084FF000092360059B002B40F029
:10DAF000EA81FCE1002306930123139387E7514653
:10DB000020461A4601F0E0FD824600283FF460AE50
:10DB1000204651461A9A01F045FD179000283FF41F
:10DB200057AE20461A9901F052FC179A1A9283E7D1
:10DB300020461A995A4601F015FE1A9000287FF4E3
:10DB40007EAF45E620460399089A01F0BDFD03909B
:10DB500000287FF477AF3BE620460399324601F078
:10DB600001FE039000287FF470AF31E65146204655
:10DB70003A4601F0F7FD824600287FF469AF27E6B8
:10DB80002B69012B8FDC8CE162D1089AC9F3130356
:10DB900022B34D498B424A462ED1029B414663B186
:10DBA0004A4B1340B3F1D46F07D81B0DC3F16B037D
:10DBB0004FF0FF3000FA03F301E04FF0FF339942DA
:10DBC0001AD1434B9A4202D101313FF401AE3F4B8F
:10DBD000134003F580194FF0000862E163B9B8F112
:10DBE000000F09D16BE7A3F580136FEA13596FEAB1
:10DBF00009594FF0FF3854E1069B13B113EA090F9E
:10DC000002E0139B13EA080F00F04B81089B029A75
:10DC10004046494653B1FFF75CFB02460B46DDE93F
:10DC20000A0115F091F8804689463AE1FFF751FB69
:10DC300002460B46DDE90A0115F084F800220023B4
:10DC40008046894615F09AFC00287FF448AF28E109
:10DC50002846514601F01DFF57EC106B10EE100ADC
:10DC6000394600224FF0804315F09CFC002840D03C
:10DC7000089B13B10022174B0FE0B8F1000F03D13E
:10DC8000C9F313033BB90DE0B8F1010F03D1B9F1AA
:10DC9000000F3FF424AF104B0022CDE906230026ED
:10DCA0000C4F3BE03046394600220A4B15F070FC21
:10DCB000B0B9304639460022084B15F0F7F9064650
:10DCC0000F460FE0E3FBFFFFFFFF0F000000F07FB8
:10DCD000FFFFEF7F0000F03F0000F0BF0000E03FDB
:10DCE000974F002607F1004314961593DDE914239E
:10DCF00012E030463946924B002215F0D7F9089BC6
:10DD000006460F4623B901F100430E900F9301E040
:10DD1000CDE90E67DDE90E23CDE9062329F0004B9E
:10DD20004FEA1B5B874B4FEA0B5B9B4531D1DDE92B
:10DD30000A23DDE90601A9F1547949EC108BCDE9FC
:10DD40000C23CDE9060101F0DBFDDDE9060153EC12
:10DD5000102B15F0ABF902460B464046494614F02D
:10DD6000F3FF21F000431B0D774A1B0593428046C9
:10DD70000CD9764B0D9A9A4203D10C9B01333FF498
:10DD800027ADDFF8C8914FF0FF3879E001F1547901
:10DD90003EE0029B43B3BBF1D46F25D830463946F1
:10DDA0005FA3D3E9002315F0FDFBB8B13946304637
:10DDB00015F03EFC002808BF012015F001F9089B72
:10DDC00006460F4623B901F100431090119301E07C
:10DDD000CDE91067DDE91023CDE90623079B03F1A8
:10DDE000D663CBEB030307939DED0A0BDDE90689B0
:10DDF00001F086FD404653EC102B494615F056F9CC
:10DE000002460B46DDE90A0114F09EFF8046894672
:10DE1000029BABBB29F000431B0D1B059B452FD17B
:10DE200039463046CDF8189015F0DAFB15F0D8F8E1
:10DE30000B4602463946304614F084FF089BDDF855
:10DE400018C006460F462BB9B8F1000F02D1CCF32B
:10DE500013037BB13046394633A3D3E9002315F0D1
:10DE600097FB80BB3046394631A3D3E9002315F038
:10DE7000ADFB04E030A3D3E9002315F089FB10BB10
:10DE800020461A9901F0A3FA2046039901F09FFA5F
:10DE90002046514601F09BFA2046294601F097FAA8
:10DEA0005DE5029B7BB12A4B0D9300230C9340460A
:10DEB0004946DDE90C2315F0F9F88046894611B989
:10DEC00008B92223236020461A9901F080FA2046DF
:10DED000039901F07CFA2046514601F078FA204679
:10DEE000059901F074FA2046294601F070FA169B54
:10DEF00013B1169A199B1360099B1BB1424609F195
:10DF0000004308E042464B4605E0002502954FF0ED
:10DF1000010EFFF71FBB43EC102B1FB0BDE8F08FC5
:10DF20000000C0FFFFFFDF419535A094FFFFDF3FFA
:10DF300035E5AF350000E03F9535A094FFFFCF3FBA
:10DF40000000E03F0000E07FFFFF9F7CFFFFEF7FCE
:10DF5000000050392DE9F047404CD4F800900F46AE
:10DF60003D4615F801EB09EB0E04667806F008044F
:10DF700004F0FF060CB12F46F2E774462D2C03D1B6
:10DF8000BD1C7C78012603E02B2C04BF7C78BD1CD3
:10DF900013B1102B0AD15AE0302C56D12C7804F052
:10DFA000DF04582C4CD16C7810230235002E14BF9E
:10DFB0004FF000486FF000480027B8FBF3FABE4668
:10DFC00003FB1A8809EB040C9CF801C01CF0040F39
:10DFD00001D0303C0BE01CF0030C1BD0BCF1010F56
:10DFE0000CBF4FF0370C4FF0570CCCEB04049C42A5
:10DFF00010DAB7F1FF3F0AD0D64506D801D1444523
:10E0000003DC03FB0E4E012701E04FF0FF3715F84C
:10E01000014BD7E77C1C73460AD1002E4FF022013A
:10E0200014BF4FF000436FF0004301602AB911E0C4
:10E030000EB1CEF100036AB107B1691E116009E0AB
:10E040003024002BB2D10823B0E70A23AEE7302CEE
:10E05000ACD1A3E71846BDE8F08700BFE42000205C
:10E060002DE9F74F03690C69A3428046C0F2818015
:10E07000013C01F114074FEA840E00F1140657F831
:10E08000245006EB0E030193013556F82430B3FB00
:10E09000F5F507EB0E09C5B34FF0000A3846B44654
:10E0A000D34650F8043B9AB21B0C02FB05A26B430B
:10E0B00003EB124392B2C2EB0B02BCF800B04FEA82
:10E0C000134A12FA8BF21FFA83FBDCF80030CBEB19
:10E0D000134303EB224392B242EA034248454FEA1C
:10E0E000234B4CF8042BDCD956F80E306BB9019B4E
:10E0F000043BB3421A4602D8C8F8104005E0126843
:10E10000043B002AF8D1013CF3E7404601F07DFBD7
:10E1100000282CDB013530464FF0000E57F8041B69
:10E12000D0F800C08AB2C2EB0E03090C13FA8CF3CC
:10E13000C1EB1C4202EB23429BB243EA02434F4530
:10E140004FEA224E40F8043BE8D956F8242006EB6B
:10E15000840362B9043BB3421A4602D8C8F810409F
:10E1600005E01268043B002AF8D1013CF3E7284699
:10E1700000E0002003B0BDE8F08F000000000000C8
:10E180002DE9F04F456A97B0824608910B921293A1
:10E19000209C8DED000B45B9102001F0C1F8CAF8A4
:10E1A0002400456085600560C560DAF82430196890
:10E1B00059B15A684A60012393408B60504601F080
:10E1C00006F9DAF8243000221A60019B9E4A002BDF
:10E1D000BFBF01232360019B23F00043B2BF019323
:10E1E00000232360019C24F000431B0D1B05934278
:10E1F0001DD1129A42F20F731360009B43B9934AE8
:10E20000934BC4F31300002814BF1846104600E0D7
:10E210008F48219B002B00F06D85C37813B100F16E
:10E22000080300E0C31C219A136000F063BDDDE920
:10E230000089002240464946002315F09FF9054613
:10E2400058B1129A01231360219B002B00F04085E6
:10E2500080481860013800F04DBD504649EC108BE5
:10E2600015A914AA01F0C3FBC4F30A56049056B1D1
:10E27000C9F3130343F07F51404641F44011A6F225
:10E28000FF3613951DE0159B149E1E446FF48263A8
:10E290009E42ADBF009A704B009A06F21243A3BF94
:10E2A00022FA03F06D4B9B1B9B1BAABF9C4002FAFA
:10E2B00003F0204314F084FE0123A1F1F871013E24
:10E2C00013930022664B14F03DFD59A3D3E90023BC
:10E2D00014F0ECFE58A3D3E9002314F035FD0446F6
:10E2E00030460D4614F07CFE55A3D3E9002314F00C
:10E2F000DDFE02460B462046294614F025FD044665
:10E300000D4615F06DF9294683460022204600236C
:10E3100015F03EF958B1584614F062FE02460B461D
:10E320002046294615F02AF908B90BF1FF3BBBF14D
:10E33000160F0DD84B4B03EBCB03D3E90001DDE9FE
:10E34000002315F043F930B10BF1FF3B002300E04F
:10E3500001230D9300E00D90149B9E1B731E0793E9
:10E3600045BF5B420693002300234CBF07930693EF
:10E37000BBF1000F07DB079BCDF830B05B44079380
:10E380000023099308E0069BCBEB03030693CBF134
:10E390000003099300230C93089B092B28D8052B15
:10E3A000C4BF043B0893089BA3F10203CCBF002524
:10E3B0000125032B21D8DFE803F0020E041000230F
:10E3C00000E001230A930B9B002B20DC0123039325
:10E3D00002931A4619E0002300E001230A930B9BE5
:10E3E0005B4403930133012B0293B8BF012311E077
:10E3F0000125002308930A9501E001230A934FF0B9
:10E40000FF3303930293002212230B9202E00B9B33
:10E4100003930293DAF8244000226260042101F1A0
:10E4200014029A4220D86268013262604900F6E71D
:10E4300061436F63A787D23FB3C8608B288AC63F0A
:10E44000FB799F501344D33F0000F07FDD4C030065
:10E45000E64C0300FF7D0300EEFBFFFF0EFCFFFF19
:10E460000000F83FF84C03005046616800F07AFF66
:10E47000DAF8243020601B680593029B0E2B00F213
:10E480004B81002D00F048819DED007BBBF1000F1A
:10E490008DED107B31DDB34A0BF00F034FEA2B17E4
:10E4A00002EBC303F806D3E900450CD5AE4B51ECA3
:10E4B000170BD3E9082314F023FF07F00F07CDE96A
:10E4C0000001032600E00226DFF89C8277B1F907FD
:10E4D00008D520462946D8E9002314F0E7FD013687
:10E4E00004460D467F1008F10808EFE7DDE900015A
:10E4F00022462B4614F004FF1BE0CBF10004DCB1F4
:10E50000984B994D04F00F0203EBC203DDE91001B3
:10E51000D3E9002314F0CAFD241102264CB1E2070E
:10E5200004D5D5E90023013614F0C0FD6410083588
:10E53000F4E7CDE9000100E002260D9BDBB1DDE947
:10E540000045002220462946884B15F021F890B15D
:10E55000029B83B1039B002B40F3DA8029462046BF
:10E560000022834B14F0A2FD0BF1FF37CDE900012F
:10E570000136039D01E0029D5F469DED007B304624
:10E580008DED0E7B14F02CFDDDE90E2314F08EFDD5
:10E590000022784B14F0D8FB8046A1F15079CDB918
:10E5A0000022754BDDE90E0114F0CCFB42464B46D0
:10E5B000CDE9000115F00AF8002840F046824246F5
:10E5C00009F10043DDE9000114F0E2FF002840F00A
:10E5D00036829DE0634B0A996A1E03EBC203002951
:10E5E00049D0D3E900230020644914F089FE424653
:10E5F0004B4614F0A7FBDDE90E89CDE90001059C2F
:10E600004946404614F0ECFF064614F0E9FC024689
:10E610000B464046494614F095FB303604F8016B32
:10E62000DDE900238046894614F0B2FF002840F05F
:10E63000408342464B4600204C4914F083FBDDE901
:10E64000002314F0A5FF002840F0D380059BE31AB7
:10E65000AB425DDADDE900010022454B14F026FDF6
:10E660000022CDE90001424B4046494614F01EFD10
:10E6700080468946C4E7D3E9000142464B4614F080
:10E6800015FD059BCDE90001DDE90E895C191D46EC
:10E690004946404614F0A4FF064614F0A1FC30366B
:10E6A00002460B464046494614F04CFB05F8016B08
:10E6B000A5428046894624D10022304BDDE9000185
:10E6C00014F042FB02460B464046494614F07EFFDA
:10E6D000002840F08E80DDE900230020274914F057
:10E6E00031FB02460B464046494614F051FF78B1D3
:10E6F00014F8013C302B04F1FF3240F0DA8214466A
:10E70000F6E700221A4B14F0D1FC80468946BFE799
:10E71000DDE91023CDE90023159B002BC0F28B808F
:10E72000BBF10E0F00F387800E4B03EBCB03D3E955
:10E7300000670B9B002B23DA029B002B20DC40F0B0
:10E740007D81304600220C4B394614F0AFFCDDE9E8
:10E75000002314F031FF029D2E46002840F0708106
:10E7600075E100BFF84C0300C04D03000000F03F0E
:10E770000000244000001C40000014400000E03F66
:10E78000DDE90089059C32463B464046494614F087
:10E79000B7FD14F025FF054614F022FC32463B4637
:10E7A00014F084FC0B4602464946404614F0CAFA6F
:10E7B00005F1300E059B04F801EBC3EB040E029B40
:10E7C0009E452BD102460B4614F0BEFA32463B461C
:10E7D0008046894614F0FAFE70B9404649463246F2
:10E7E0003B4614F0CBFE002800F06482EB0703D414
:10E7F00060E2BB4600E01C4614F8012C392A04F103
:10E80000FF3307D1059A9342F5D1302313700BF1F2
:10E81000010B13461A7801321A704BE20022A44B06
:10E8200014F044FC002200238046894614F0A6FE22
:10E830000028A8D03EE20A9A002A32D0089A012A7B
:10E840000ADC139A12B103F2334302E0149BC3F1C2
:10E850003603099D069C18E0029B5D1E099BAB4296
:10E86000BFBF099B0995EA1A0C9BB6BF9B185D1B9D
:10E870000C93029BB8BF0025002BB9BF069B029AE0
:10E88000069C029BBCBF9C1A0023069A1A4406925F
:10E89000079A50461A440121079200F07AFE064674
:10E8A00002E0099D069C0A9E64B1079B002B09DDCE
:10E8B000A342069AA8BF2346D21A0692079AE41AE0
:10E8C000D31A0793099B002B20DD0A9BC3B1002DAF
:10E8D00010DD31462A46504600F0F6FE0646314627
:10E8E000049A504600F05EFE04990746504600F038
:10E8F0006EFD0497099B5A1B08D05046049902E00C
:10E900000499099A504600F0DFFE04905046012118
:10E9100000F03FFE0C9B002B05460ADD29461A46F7
:10E92000504600F0D1FE089B012B054604DD002770
:10E930001BE0089B012B13DC009B8BB9019BC3F3ED
:10E9400013037BB9019B23F000473F0D3F0557B1EF
:10E95000069B01330693079B01330793012702E0CF
:10E96000002700E0009F0C9B43B12B6905EB83035C
:10E97000186900F0C1FDC0F1200000E00120079BF4
:10E98000184410F01F0008D0C0F12003042B02DD52
:10E99000C0F11C0002E008D018461C30069B03445E
:10E9A0000693079B034404440793069B002B05DD55
:10E9B000504604991A4600F0D5FE0490079B002BA0
:10E9C00005DD294650461A4600F0CCFE05460D9B53
:10E9D000EBB10498294600F018FF002817DA00234D
:10E9E000504604990A2200F009FD0A9B04900BF19D
:10E9F000FF3B002B00F070813146002350460A2275
:10EA000000F0FCFC039B002B064633DC6DE1029B0F
:10EA1000002B26DC089B022B23DD029B0393039B28
:10EA200073B929460522504600F0E8FC0546294600
:10EA3000049800F0EAFE002809DC01E000252E46DB
:10EA40000B9B059C6FEA030B08E0BB462E46059B1B
:10EA5000059A5C1C312313700BF1010BB1460026A3
:10EA600014E10A9B23B9029B0393059F049CCCE00D
:10EA7000029B0393002C05DD31465046224600F0F0
:10EA800071FE0646B7B17168504600F06BFC326902
:10EA90000232044606F10C0192000C3000F057FCE3
:10EAA00050462146012200F05DFE814603E000BF92
:10EAB00000002440B146059F049C29462046FFF7EC
:10EAC000CFFA3146069000F13008204600F09DFE56
:10EAD0004A4602902946504600F0B3FEC2680346FB
:10EAE0003AB919462046049300F08FFE049B024673
:10EAF00000E0012250461946049200F068FC049A96
:10EB0000A2B9089B93B9009B03F0010373B9B8F154
:10EB1000390F3B46049440D0029B002BC8BF069B94
:10EB200007F10104C8BF03F131083DE0029B002B4F
:10EB300004DA002AC446049408DC21E024D1089BAE
:10EB400013BB009B03F00103F3B9F2E72146012256
:10EB500050460297CDF8008000F004FE294604904C
:10EB600000F053FE0028DDF800C0029B03DC07D153
:10EB700018F0010F04D0B8F1390F0ED008F1010CD4
:10EB80007C1C87F800C081E0002A07F101020EDD3D
:10EB9000B8F1390F3B46049403D1392201371A707A
:10EBA00057E0144608F1010887F800806EE0059BE5
:10EBB00002F8018CD31A1746039A93423AD02146A1
:10EBC0000A220023504600F019FC4E450446314607
:10EBD00050464FF00A024FF0000304D100F00EFC43
:10EBE0000646814669E700F009FC494606460A22C6
:10EBF0005046002300F002FC81465EE72146504665
:10EC00000A22002300F0FAFB044620462946FFF7BB
:10EC100027FA00F1300807F8018B059B039AFB1ACD
:10EC20009342EBDB059B012AACBF9B180133B14635
:10EC30001F46002621460122504600F093FD29463A
:10EC4000049000F0E2FD002803DC16D118F0010F5B
:10EC500013D03C4614F8013C392B04F1FF3209D1A2
:10EC6000059B9A4204D10BF1010B3123059A02E076
:10EC70001446EFE70133137008E03C4614F8013CFA
:10EC8000302B04F1FF3201D11446F7E750462946F4
:10EC900000F09DFBB9F1000F0CD02EB14E4503D012
:10ECA0005046314600F093FB5046494600F08FFB3A
:10ECB00000E0BB465046049900F089FB0023129AFD
:10ECC00023700BF101031360219B1BB11C6001E059
:10ECD0000A480FE005980DE0039B002B3FF7C5AEF7
:10ECE000089B022B3FF79BAEBFE6089B022B3FF72A
:10ECF00096AEBFE617B0BDE8F08F00BFFE7D030003
:10ED0000F0B506694B11B34200F1140527DA11F092
:10ED10001F0105EB860605EB830201D1294616E0AB
:10ED2000141D55F82320C1F1200ECA402B46B442D1
:10ED300009D2276807FA0EF73A4343F8042B54F830
:10ED4000042BCA40F3E71A6052B1043308E0B24220
:10ED50000B4605D252F8043B41F8043BF7E72B463B
:10ED60005B1B9B10036103B94361F0BDA0F130034D
:10ED7000092B01D820380AE0A0F16103052B01D846
:10ED8000473804E0A0F14103052B02D82738C0B270
:10ED90007047002070472DE9F04F89B08A469146B0
:10EDA0000493019000F0B8FA036802931846FEF746
:10EDB00075FA029B00900344002613F8013C05936A
:10EDC000DAF800300233984613F8010B302801D1ED
:10EDD0000136F8E7FFF7CAFF0446E8B94046029952
:10EDE000009A01F0C1F8002837D1009B18F8030001
:10EDF00008EB0307FFF7BAFF88B33B4618783028C3
:10EE0000984603F10103F9D0FFF7B0FF3C46B0FA92
:10EE100080F501266D0901E000252C46C3465F46BA
:10EE20000BF1010B3878FFF7A1FF0028F7D1384626
:10EE30000299009A01F098F858B95CB9009BFC1847
:10EE4000A3465F460BF1010B3878FFF78FFF0028D0
:10EE5000F7D134B1E41BA40003E0474600E00446C8
:10EE600001253B78502B01D0702B30D17B782B2B98
:10EE700006D02D2B02D07A1C002303E0012300E0F2
:10EE80000023BA1C107806930392FFF76FFF411E10
:10EE9000C9B21829039A069B19D8A0F1100B12F8D1
:10EEA000010F069303920792FFF760FF411EC9B25C
:10EEB0001829039A069B05D80A2101FB0B0BABF11D
:10EEC000100BECE70BB1CBF1000B5C4400E03A46D1
:10EED000CAF8002025B1002E14BF002006207CE1D6
:10EEE000C8EB0703013B2946072B02DD01315B100C
:10EEF000FAE7019800F036FA4FF0000A00F1140B1F
:10EF000005465E46D446474537D97B1E0393059A8E
:10EF100017F8013C934209D0BCF1200F1AD1C6F872
:10EF200000A04FF0000A0436D44613E0009B039A79
:10EF3000C3F1010313444345EED318460299009AE6
:10EF4000CDF81CC0069301F00FF8069BDDF81CC03D
:10EF500088B1E1E717F8010CCDF818C0FFF706FFFC
:10EF6000DDF818C0039B00F00F0000FA0CF04AEA2D
:10EF7000000A0CF1040C1F46C5E746F804ABCBEBC6
:10EF80000606B01028614701504600F0B5FAD9F8DE
:10EF90000060381AB04226DD871B3946284600F04B
:10EFA000BCFDC8B17B1E5A1103F01F014FF00108D0
:10EFB0005BF8222008FA01F111420ED0434502DC31
:10EFC0004FF0020809E02846B91E00F0A6FD00280F
:10EFD000F6D04FF0030800E0804628463946FFF798
:10EFE0008FFE3C440CE009DA371A294601983A466C
:10EFF00000F0B8FBE41B054600F1140B4FF00008CD
:10F00000D9F808309C4208DD0198294600F0DFF964
:10F01000129A00231360A320DFE0D9F80400844291
:10F0200053DA041BB4422EDBD9F80C30022B1AD071
:10F03000032B1CD0012B1DD1B4421BD1012E0BDCA4
:10F04000049AD9F80430136001232B61CBF8003007
:10F05000129B62201D60C0E02846711E00F05DFD1D
:10F060000028EDD106E0139B002BE9D002E0139BB2
:10F07000002BE5D10198294600F0A9F9129A002346
:10F0800013605020A9E0671EB8F1000F07D1002FD0
:10F0900007DD2846394600F040FD804601E04FF08C
:10F0A00001087A11012307F01F075BF82220BB40FB
:10F0B00013422146284618BF48F00208361BFFF7C6
:10F0C0001FFE0227D9F8044000E00127B8F1000F25
:10F0D0007ED0D9F80C30022B0ED0032B10D0012B90
:10F0E00074D118F0020F71D0DBF8000048EA000874
:10F0F00018F0010F07D169E0139BC3F101031393CB
:10F10000139B002B62D0D5F810A005F114034FEA31
:10F110008A0803EB08011A68501C02D001321A60F9
:10F1200021E0002243F8042B8B42F4D3AB689A45CC
:10F1300012DB69680198013100F014F92A69023282
:10F1400005F10C01834692000C3000F000F92946CD
:10F15000019800F03CF95D462B695A1C05EB8303CE
:10F160002A6101225A61022F05F1140210D1D9F847
:10F170000030013B9E4226D17111012306F01F068B
:10F1800052F82120B34013420CBF022701271AE096
:10F190002B6953450ADD28460121FFF7B1FDD9F857
:10F1A000083001349C423FF72FAF0BE016F01F06EA
:10F1B00008D09044C6F1200658F8040C00F09CF9E1
:10F1C000B042E8DB012747F0200701E047F01007D5
:10F1D000129B1D60049B38461C6009B0BDE8F08F8F
:10F1E000C2F10802920070B5C2F1200643680568BA
:10F1F00003FA06F42C43D340046040F8043F8842ED
:10F20000F4D370BD2DE9F04F0E68D0F800A0751151
:10F2100002EB850516F01F0385B018BF0435A5F174
:10F220000409174600228346019345F8042CC8467A
:10F230004C46009216461AF8011F00293AD008469B
:10F2400003920291FFF792FD0299039AE8B92029EF
:10F2500014D8009BB342EEDA444505D2072A03DCFA
:10F2600020464146FFF7BCFFBC4221D9A4F1040867
:10F27000002244F8042C00964446DCE7292945D1B5
:10F280000AF10103CBF8003014E00132082A06F13C
:10F29000010606DDBC42CED9002244F8042C043C11
:10F2A0000122216800F00F0040EA01102060C2E74F
:10F2B0000822C0E756B3444505D2072A03DC20469E
:10F2C0004146FFF78DFFBC420CD93B4654F8042B56
:10F2D00043F8042B4C45F9D9002243F8042B4B4545
:10F2E000FAD90BE0019B4BB1C3F1200655F8042C71
:10F2F0004FF0FF33F340134045F8043C55F8043D0C
:10F3000033B9BD42FAD101232B6001E0042000E0B3
:10F31000052005B0BDE8F08F00487047E8200020C8
:10F32000024B0146186800F06DBC00BFE0200020D1
:10F3300010B5C9B202449042034606D01C788C42F4
:10F3400000F10100F7D1184610BD002010BD10B526
:10F35000431E0A44914204D011F8014B03F8014FB7
:10F36000F8E710BD70B5456A04460E463DB9102059
:10F37000FFF7D6FF6062456085600560C560656A1D
:10F38000EB6843B1636ADB6853F8260078B1026822
:10F3900043F8262017E020460421212200F0DFFB5D
:10F3A000636AE860DB68002BECD1002070BD0121AE
:10F3B00001FA06F56A1D2046920000F0D0FB0028F5
:10F3C000F3D04660856000230361C36070BD70B5F3
:10F3D000446A06460D463CB91020FFF7A1FF706253
:10F3E000446084600460C4603DB1736A6A68DB682D
:10F3F00053F82210296043F8225070BD2DE9F041E6
:10F400000F69984606460C4601F1140E0023DEF8FB
:10F41000000085B2010C02FB0585514301EB15414B
:10F420000133ADB24FEA1148BB4205EB01414EF842
:10F43000041BECDBB8F1000F1BD0A3689F4212DB6A
:10F44000616830460131FFF78DFF2269023204F115
:10F450000C01054692000C30FFF779FF214630463B
:10F46000FFF7B5FF2C4604EB87030137C3F8148080
:10F4700027612046BDE8F0812DE9F8430C4615468A
:10F48000984609220833074693FBF2F20021012334
:10F490009A4202DD5B000131FAE73846FFF762FF6E
:10F4A000089B4361092D4FF001030146036110DD04
:10F4B00004F10906B1462C4419F8013B38460A22EA
:10F4C000303BFFF79BFFA1450146F5D17419083C7D
:10F4D00001E00A34092526462B1B3344434508DA4C
:10F4E00016F8013B38460A22303BFFF787FF0146FA
:10F4F000F2E70846BDE8F883030C1B0413B90004C7
:10F50000102300E0002310F07F4F04BF00020833F7
:10F5100010F0704F04BF0001043310F0404F04BFDF
:10F5200080000233002803DB420003D5581C7047DB
:10F530001846704720207047036813F007020BD06D
:10F54000D90722D49A074BBF5B089B08036003606E
:10F550004CBF01200220704799B209B91B0C102240
:10F5600013F0FF0F04BF1B0A0832190704BF1B0961
:10F570000432990704BF9B080232D90702D45B0802
:10F5800005D00132036010467047002070472020EC
:10F59000704710B50C460121FFF7E4FE01224461DB
:10F5A000026110BD2DE9F74F14460A6923699A429A
:10F5B000B8BF0B468846BCBFA0461C46D8F81070A2
:10F5C000D4F81090D8F80830D8F8041007EB0906E2
:10F5D0009E42C8BF0131FFF7C5FE00F1140505EBDF
:10F5E000860C2B46634503D2002243F8042BF9E72F
:10F5F00004F1140208F1140102EB890301EB8707FF
:10F600000093009B01929A4257D2B2F800B0BBF12E
:10F61000000F23D08946AE464FF0000859F8044B3E
:10F62000BEF800A0A3B20BFB03A34FEA144ADEF816
:10F63000004043444FEA14480BFB0A8404EB134494
:10F64000F2469BB243EA04434F454FEA14484AF856
:10F65000043B01D9D646E1E7CEF80480019BB3F81C
:10F6600002A00432BAF1000F21D02B682C46894643
:10F670004FF00008B9F800E0B4F802B00AFB0EBE83
:10F68000F044A3469BB243EA08434BF8043B59F8C5
:10F69000043BB4F804E01B0C0AFB03E303EB184340
:10F6A000B9454FEA134801D25C46E3E7636004358D
:10F6B000A7E75CF8043D13B9013E002EF9DC0661B2
:10F6C00003B0BDE8F08F000012F003032DE9F04114
:10F6D00006460F46154607D0013B214A52F8232023
:10F6E0000023FFF78BFE0746AD1035D0746A3CB996
:10F6F0001020FFF715FE7062446084600460C460EF
:10F70000D6F82480D8F808407CB9304640F2712100
:10F71000FFF73FFF0023C8F808000446036004E039
:10F720006D1019D0206870B10446EB07F8D5394642
:10F7300022463046FFF736FF394680463046FFF70F
:10F7400046FE4746ECE7304621462246FFF72AFFB1
:10F75000002320600360E7E73846BDE8F08100BF82
:10F76000E84D03002DE9F0470C464FEA621A236981
:10F7700049680AEB0309A3680746164609F1010523
:10F780009D4202DD01315B00FAE73846FFF7EAFDF2
:10F790000023804600F11401534504DA002241F8A9
:10F7A00023200133F8E72AEAEA73206901EB830397
:10F7B00016F01F0204F1140101EB800E14D0C2F107
:10F7C000200C00200E68964030439A4643F8040B04
:10F7D00051F8040B714520FA0CF0F3D3CAF8040079
:10F7E00048B109F1020506E0043B51F8042B43F847
:10F7F000042F7145F9D3013D3846C8F81050214611
:10F80000FFF7E5FD4046BDE8F08703690A699B1AEA
:10F8100010B511D192001430143183180A4453F8F2
:10F82000044D52F8041D8C4202D007D3012010BDB4
:10F830008342F4D8002010BD184610BD4FF0FF30B1
:10F8400010BD2DE9F84307460C46084611461546FB
:10F85000FFF7DBFF061E08D138463146FFF782FD71
:10F86000012303614661BDE8F883BCBF23462C46F3
:10F8700038466168BABF1D4601260026FFF772FDB3
:10F880002B69C660266905F11409143404EB860758
:10F8900009EB830800F114054FF0000C54F8043B09
:10F8A00059F8042B1CFA83F11FFA82FE120CCEEBDE
:10F8B0000101C2EB134303EB214389B24FEA234C0E
:10F8C000C84541EA0343A64645F8043BE6D8BE4591
:10F8D0000ED25EF8042B1CFA82F4120C02EB2442C6
:10F8E000A4B24FEA224C44EA024245F8042BEEE768
:10F8F00055F8043D0BB9013EFAE70661BDE8F8830F
:10F90000124B10EE902A1A40A2F15073002B02DD28
:10F910000020194616E05B421B15132B4FF0000028
:10F920004FF0000104DC4FF4002242FA03F109E039
:10F93000322B4FF00102DABFC3F1330302FA03F3B3
:10F940001346184641EC100B704700BF0000F07FD3
:10F950002DE9F041056900F1140707EB850588469C
:10F9600055F8044C2046FFF7C7FDC0F120030A28D4
:10F97000A5F10406C8F8003011DCC0F10B0E24FA22
:10F980000EF1BE4241F07F538CBF55F8081C002198
:10F99000153043F4401321FA0EF184401BE0BE42BF
:10F9A00086BFA5F1080655F8081C0021B0F10B052B
:10F9B00014D0AC40C0F12B0044F07F5444F4401408
:10F9C00021FA00FEBE4244EA0E038CBF56F8044CF6
:10F9D0000024C440A94044EA010204E044F07F53FB
:10F9E00043F440130A4643EC102BBDE8F0812DE9A7
:10F9F000F3410F46012155EC104B1646FFF7B2FCC0
:10FA0000C5F31303C5F30A5580460DB143F48013C3
:10FA10000193ECB102A840F8084DFFF78DFD009B63
:10FA200050B1019AC0F1200102FA01F10B43C2402A
:10FA3000C8F81430019201E0C8F81430019BC8F8EE
:10FA40001830002B14BF02240124C8F8104009E02C
:10FA500001A8FFF771FD0124019BC8F81430C8F814
:10FA60001040203035B1A5F2334505443D60C0F16A
:10FA7000350009E008EB8403A0F2324038601869D1
:10FA8000FFF73AFDC0EB44103060404602B0BDE8DD
:10FA9000F0812DE9F743884669468146FFF758FF14
:10FAA000404601A957EC106BFFF752FF019A009BEB
:10FAB000D8F810109B1AD9F81020521A55EC104B98
:10FAC00003EB4213002BCCBF07EB0357A5EB035509
:10FAD0003046394622462B4613F012FC41EC100BFF
:10FAE00003B0BDE8F083013910B549111469013143
:10FAF00002F1140300EB810103EB8404A3420246EC
:10FB000004D253F8042B40F8042BF7E78A4203D2BF
:10FB1000002342F8043BF9E710BD00F1140200692C
:10FB20004B11834210B50CDC0CDA11F01F0109D027
:10FB300052F8234024FA01F000FA01F1A1420CD15D
:10FB400000E0034602EB8303934204D953F8041DFB
:10FB50000029F9D001E0002010BD012010BD38B50A
:10FB600002FB01F4214600F04DF8054618B10021D2
:10FB70002246FCF7E7FC284638BD000030B50029D6
:10FB80003DD051F8042C0B1F1D49002AB8BF9B180B
:10FB90000A680C4612B95A600B6030BD93420DD210
:10FBA00019685818904201BF5A5852181A60426892
:10FBB0005A60236030BD994203D80A465168002933
:10FBC000F9D1146815199D420AD11B682344D01835
:10FBD0008842136013D10868034413604B680DE03A
:10FBE00002D90C23036030BD1C681819884204BF79
:10FBF00008684968596004BF00191860536030BD37
:10FC00008021002070B5CC1C24F0030408340C2C97
:10FC100038BF0C24002C064603DA0C233360002086
:10FC200070BD8C42F9D3204A136810461946A1B121
:10FC30000A68121B0ED40B2A03D90A608B188C5049
:10FC40001FE08B420DBF5A684A685A60026018BFB5
:10FC50000B4616E00B464968E9E7144D2B681BB9C3
:10FC6000304600F071F928603046214600F06CF90A
:10FC7000421C0346D1D0C51C25F0030585420AD19C
:10FC80001C6003F10B001A1D20F00700821A0AD035
:10FC90005142995070BD3046E91A00F055F90130D3
:10FCA000BBD02B46ECE770BD802100207C210020DA
:10FCB0002DE9F0478E68B34282460C46904699463D
:10FCC00040D38A8912F4906F3AD0256809696F1A77
:10FCD0006569022305EB450595FBF3F57B1C4B4459
:10FCE0009D4238BF1D4653050FD52946FFF78AFFB1
:10FCF000064698B121693A46FFF729FBA38923F408
:10FD0000906343F08003A38113E02A4600F061F979
:10FD1000064670B950462169FFF730FF0C23CAF838
:10FD20000030A38943F04003A3814FF0FF30BDE8CA
:10FD3000F087266165613E44ED1B2660A5604E4656
:10FD4000B14500D24E4632462068414600F026F9C1
:10FD5000A3689B1BA36023681E4426600020BDE8A7
:10FD6000F08700002DE9F0439DB0064603938B8990
:10FD70001C060D4690460CD50B6953B94021FFF780
:10FD800041FF2860286110B90C233360CCE0402388
:10FD90006B610023099320238DF8293030238DF8DF
:10FDA0002A3043461C4613F8012B1AB9B4EB080954
:10FDB0000FD002E0252AF5D1F8E730462946424621
:10FDC0004B46FFF775FF013000F0A980099B4B44BB
:10FDD00009932378002B00F0A28000234FF0FF321C
:10FDE00004930793059206938DF853301A9304F108
:10FDF00001084446DFF84891217848460522FFF77C
:10FE000097FA08F10108049B30B1C9EB0000012208
:10FE1000824013430493ECE7D80644BF20228DF8B8
:10FE20005320190744BF2B228DF8532022782A2A09
:10FE300002D0079923460EE0039A111D1268039120
:10FE4000002ABBBF524243F0020307920792B8BF99
:10FE5000049301340AE01C4601332278303A092A1F
:10FE600003D80A2000FB0121F5E7079123782E2B08
:10FE70001AD163782A2B0AD1039B1A1D1B6803929F
:10FE8000002BB8BF4FF0FF33023405930CE0611C28
:10FE900000220C4601312378303B092B03D80A207D
:10FEA00000FB0232F5E70592DFF8988021784046A2
:10FEB0000322FFF73DFA38B1049AC8EB0000402353
:10FEC000834013430493013421781A488DF8281095
:10FED000062204F10108FFF72BFA88B1164B33B95B
:10FEE000039B073323F007030833039313E003ABAB
:10FEF0000093304604A92A46104BFCF7BDFB07E0EF
:10FF000003AB0093304604A92A460C4BFCF768FE6D
:10FF1000421C074603D0099B3B44099341E7AB8948
:10FF20005B0601D4099801E04FF0FF301DB0BDE839
:10FF3000F08300BFFE4D030079C60100B1FC010053
:10FF4000F44D0300FA4D030038B5064C0023054676
:10FF50000846236000F06EF8431C02D1236803B109
:10FF60002B6038BD2839002070B5AAB1451E013973
:10FF70006B7811F8014FA34205F1010606D16FF02D
:10FF80000104641B1444E04202D11C46181B70BDDE
:10FF90003546002BECD1F8E7104670BD814210B514
:10FFA00001EB020301D3421E0BE09842FBD2811801
:10FFB000D21AD34204D013F8014D01F8014DF8E7ED
:10FFC00010BD994204D011F8014B02F8014FF8E737
:10FFD00010BDF8B5074615460E4621B91146BDE8D5
:10FFE000F840FFF70FBE1AB9FFF7C8FD2846F8BD65
:10FFF00000F015F8A8420ED238462946FFF702FE57
:020000022000DC
:10000000044650B131462A46FFF7A1F93846314639
:10001000FFF7B4FD01E03046F8BD2046F8BD51F8C9
:10002000040C0028BEBF091851F8043CC01804385D
:1000300070470000044A05491368002B08BF0B46AF
:100040001844106018467047842100209039002021
:10005000FEE700BF80B586B000AF78600023BB81AB
:1000600000233B617B687B6107F10C0344F20100D4
:1000700000211A4600F018F81837BD4680BD00BFB1
:1000800080B400AFBFF34F8F0549054BDB6803F425
:10009000E062044B1343CB60BFF34F8F00BFFDE71B
:1000A00000ED00E00400FA0580B584B000AFF86010
:1000B000B9607A60FFF7E4FF1037BD4680BD00BF2E
:1000C00080B485B000AF78607B689B68FB607B681C
:1000D000DA68FB68D31A18461437BD465DF8047B0E
:1000E000704700BF80B483B000AF78600B46FB70F0
:1000F0007B681A687B68DB68796889880B401344E1
:10010000FA781A707B68DB685A1C7B68DA600C37F7
:10011000BD465DF8047B704780B485B000AFF860E1
:100120000B467A607B81FB681A68FB6899687B895B
:100130000B44F96889880B4013441A787B681A705D
:100140001437BD465DF8047B704700BF80B582B0B0
:1001500000AF78603960786800213A68FFF7DCFF0B
:100160007B689B685A1C7B689A600837BD4680BDD7
:1001700080B485B000AFF860B9601346FB80BB68FF
:10018000002B01D10E2319E0FB88002B05D0FB8842
:100190005A1EFB881340002B01D009230EE0FB6898
:1001A000BA681A60FB88013B9AB2FB689A80FB68C8
:1001B00000229A60FB680022DA6000231846143798
:1001C000BD465DF8047B704780B582B000AF7860B3
:1001D0000B46FB707868FFF773FF02467B689B88CD
:1001E0009A4206D8FB7878681946FFF77BFF002310
:1001F00000E0042318460837BD4680BD80B582B0B4
:1002000000AF786039607868FFF75AFF0346002B2B
:1002100005D078683968FFF799FF002300E00523CF
:1002200018460837BD4680BD80B483B000AF786003
:100230007B68DA687B689A60002318460C37BD46F5
:100240005DF8047B704700BF80B483B000AF034605
:10025000FB71084997F907305B09FA7902F01F0230
:10026000012000FA02F241F823200C37BD465DF868
:10027000047B704700E100E080B483B000AF034628
:10028000FB71094997F907305B09FA7902F01F02FF
:10029000012000FA02F2203341F823200C37BD463A
:1002A0005DF8047B704700BF00E100E080B483B0DC
:1002B00000AF0346FB71094997F907305B09FA79EA
:1002C00002F01F02012000FA02F2403341F823201D
:1002D0000C37BD465DF8047B704700BF00E100E0CD
:1002E00080B483B000AF0346FB71094997F907302A
:1002F0005B09FA7902F01F02012000FA02F2603372
:1003000041F823200C37BD465DF8047B704700BFE1
:1003100000E100E080B483B000AF03463960FB71B8
:1003200097F90730002B0BDA0D49FB7903F00F0327
:10033000043B3A68D2B25201D2B20B441A7609E0B9
:10034000084997F907303A68D2B25201D2B20B4449
:1003500083F800230C37BD465DF8047B704700BF6F
:1003600000ED00E000E100E080B483B000AF0346A0
:10037000FB7197F90730002B0ADA0D4AFB7903F07D
:100380000F03043B13441B7EDBB25B09DBB208E0C6
:10039000084A97F90730134493F80033DBB25B093E
:1003A000DBB218460C37BD465DF8047B704700BFD2
:1003B00000ED00E000E100E080B483B000AF7860C1
:1003C0007B6803F00303002B0CBF01230023DBB287
:1003D00018460C37BD465DF8047B704780B584B085
:1003E00000AFEFF305837B607B68C3F30803FB601A
:1003F000FB68002B0BD0FB68103BBB60BB68DBB21B
:100400005BB21846FFF7B0FF0346DBB200E00F23F4
:1004100018461037BD4680BD80B582B000AF786009
:10042000054A7B68C2F8083511200621FFF772FFE4
:100430000837BD4680BD00BF0010014080B582B0C6
:1004400000AF2C4B4FF48032C3F84423294B4FF4B8
:100450008032C3F804231120FFF742FF1120FFF779
:10046000F3FE244B01221A602F237B607B68184621
:10047000013800BF00BF00BF00BF00BF00BF00BF0A
:1004800000BF00BF00BF00BF00BF00BF00BF00BF74
:1004900000BF00BF00BF00BF00BF00BF00BF00BF64
:1004A00000BF00BF00BF00BF00BF00BF00BF00BF54
:1004B00000BF00BF00BF00BF00BF00BF00BF00BF44
:1004C00000BF00BF00BF00BF00BF00BF00BF00BF34
:1004D00000BF00BF00BF00BF00BF00BF00BF00BF24
:1004E00000BF00BF00BFC3D1034B01221A70083701
:1004F000BD4680BD00100140A821002080B582B01B
:1005000000AF1120FFF7B8FE4C4B4FF48032C3F818
:1005100048234A4B4FF48032C3F80823474B01224B
:100520005A602F233B603B681846013800BF00BF6C
:1005300000BF00BF00BF00BF00BF00BF00BF00BFC3
:1005400000BF00BF00BF00BF00BF00BF00BF00BFB3
:1005500000BF00BF00BF00BF00BF00BF00BF00BFA3
:1005600000BF00BF00BF00BF00BF00BF00BF00BF93
:1005700000BF00BF00BF00BF00BF00BF00BF00BF83
:1005800000BF00BF00BF00BF00BF00BF00BF00BF73
:1005900000BF00BF00BF00BF00BF00BF00BF00BF63
:1005A000C3D1264B01229A60254B00221A602F23CB
:1005B0007B607B681846013800BF00BF00BF00BFEA
:1005C00000BF00BF00BF00BF00BF00BF00BF00BF33
:1005D00000BF00BF00BF00BF00BF00BF00BF00BF23
:1005E00000BF00BF00BF00BF00BF00BF00BF00BF13
:1005F00000BF00BF00BF00BF00BF00BF00BF00BF03
:1006000000BF00BF00BF00BF00BF00BF00BF00BFF2
:1006100000BF00BF00BF00BF00BF00BF00BF00BFE2
:1006200000BF00BF00BF00BF00BF00BFC3D1054B6C
:1006300000221A700837BD4680BD00BF001001407F
:1006400094210020A821002080B400AF034BD3F8F0
:1006500004351846BD465DF8047B70470010014024
:1006600080B483B000AF786039607A683B68D31A91
:1006700023F07F4318460C37BD465DF8047B704776
:1006800080B483B000AF7860044A7B68C2F840351C
:100690000C37BD465DF8047B704700BF0010014079
:1006A00080B487B000AF7860294B1B68002B03D162
:1006B000274A7B68136045E07B681A68244B1B68F7
:1006C0001B689A4210D8224B1B68214A1268116895
:1006D0007A6812688A1A1A601D4B1A687B68DA6198
:1006E0001B4A7B6813602DE07B681B68FB60184B1E
:1006F0001B687B61164B1B683B6109E03B691B680B
:10070000FA68D31AFB603B697B613B69DB693B613B
:100710003B69002B04D03B691A68FB689A42EDD311
:100720003B69002B05D03B691A68FB68D21A3B690C
:100730001A607B68FA681A607B683A69DA617B69DB
:100740007A68DA611C37BD465DF8047B704700BFEC
:100750009021002080B487B000AF7860224B1B68E6
:100760007B617B693B6109E03A697B689A4200D111
:1007700007E03B697B613B69DB693B613B69002BBF
:10078000F2D13B69002B00D128E07A693B699A429B
:1007900011D1154B1B68DB69134A1360124B1B68A0
:1007A000002B08D1114B01229A60114B00221A60D4
:1007B000104B01221A703B691B68FB603B69DA69C8
:1007C0007B69DA617B69DB693B613B69002B05D0A2
:1007D0003B691A68FB681A443B691A601C37BD46BE
:1007E0005DF8047B704700BF90210020001001409D
:1007F00094210020A921002080B500AF1120FFF72F
:1008000055FD80BD80B500AF1420FFF74FFD80BDC2
:1008100080B584B000AF7860104B1B68002B13D0FC
:100820000E4B1B687A6851697A68926908461146CE
:100830009847F860FB68BB60BB68002B03D0B868C2
:10084000FFF708FC06E005E07B685B697A6892695F
:10085000104698471037BD4680BD00BFA421002038
:1008600080B584B000AF2A4B1B68002B4DD000230D
:100870007B60FFF7E9FE0246264B1B6810461946CF
:10088000FFF7EEFEB860224B1B68FB601EE0FB68C2
:100890001A68BB689A4200D91BE0FB681B68BA68FB
:1008A000D31ABB60FB681B687A6813447B60FB68E3
:1008B0003B60FB68DB69FB603B681B7C002B05D061
:1008C0003B6800221A743868FFF7A2FFFB68002B10
:1008D000DDD1114B1A78114B1B789A420CD10F4B7A
:1008E0001B780133DAB20D4B1A700C4B1B78022BBC
:1008F00002D10A4B00221A70084B1B781946084A8D
:100900007B6842F82130FFF77DFF1037BD4680BD80
:100910009021002094210020A0210020A12100206E
:100920009821002080B483B000AF7860194B1A780A
:10093000194B1B789A4223D0164B1B780133DAB23D
:10094000144B1A70134B1B78022B02D1114B00224F
:100950001A70104B1B781A46104B53F822207B68F4
:100960001A607B681A680E4B1B6813440C4A1360AC
:100970000B4B1B6823F07F43094A1360012303E0FC
:100980007B6800221A60002318460C37BD465DF8CC
:10099000047B7047A0210020A12100209821002085
:1009A0009421002080B586B000AF2B4B1B683B61C3
:1009B0002A4B1B78FB753EE0294B1A68FB7DDB0058
:1009C0001344FB60FB681B78BB752FE0FB6859681C
:1009D000BA7D13465B001344DB000B44BB60BB7D58
:1009E0000133BB75FB689B78BA7D9A4201D1002325
:1009F000BB75BB681B78022B02D0032B10D014E010
:100A0000BB685B681846FFF7A5FE0FE0124B1B683A
:100A10007B607B6800221A747B68DB690E4A136076
:100A20000D4B1B68002BF1D100E000BFFB685B7829
:100A3000BA7D9A42CAD1FB7D5A1EFA75002BBBD1F2
:100A4000054B1A683B699A4214BF01230023DBB2AD
:100A500018461837BD4680BD90210020882100200F
:100A60008C21002080B489B000AFF860B9607A6052
:100A70000023FB6138E0214B1B68BB61BB691A682E
:100A8000FB689A4206D9BB691A68FB68D21ABB692F
:100A90001A602DE0BB691B68FA68D31AFB60BB695A
:100AA0001B68FA691344FB61BB6900221A60134B8F
:100AB0001B687B61BB69DB69104A1360BB69DB683B
:100AC000002B11D0BA68FB69134423F07F42BB6945
:100AD0005A60BB69DA68BB699A607B681A68BB694F
:100AE000DA617B687A691A60044B1B68002BC2D1FB
:100AF0002437BD465DF8047B704700BF902100207D
:100B000080B588B000AF7860584B1B687B61584B4C
:100B10001B78FB7797E0574B1A68FB7FDB00134489
:100B20003B6185E07B68002B05D07B68BB61BB69BE
:100B3000DB697B603CE03B695A683B691B7819467E
:100B40000B465B000B44DB001344FB603B691B78E6
:100B50000133DAB23B691A703B691A783B699B78BA
:100B60009A4202D13B6900221A70FB685B68BB6144
:100B7000FB681B78012B03D1BB691B7C002B00D0C9
:100B800056E0FB689A68BB695A60FB68DA68BB6923
:100B90009A60FB681A69BB69DA60FB685A69BB69CD
:100BA0009A61354B1B78002B02D0BB6900225A603A
:100BB000BB695A68314B1B68D31A23F07F43304A14
:100BC00093420ED8BB695A682C4B1B6810461946D5
:100BD000FFF746FD0246BB699B681A44BB691A6071
:100BE00017E0264B1A68BB695B6810461946FFF789
:100BF00037FDB860BB699A68BB689A4206D9BB6981
:100C00009A68BB68D21ABB691A6002E0BB6900220D
:100C10001A60BB6900225A60BB6900229A60BB69F6
:100C200001221A74BB690022DA61B869FFF738FD46
:100C30007B68002B7FF476AF3B691A783B695B7861
:100C40009A427FF46FAFFB7F5A1EFA77002B7FF436
:100C500062AF064B1A687B699A4214BF01230023D6
:100C6000DBB218462037BD4680BD00BF9021002072
:100C7000882100208C210020A9210020942100201F
:100C8000FEFF7F0090B589B000AF7860464B1B68CF
:100C9000002B00F08380444B1B681B68FB61FFF74F
:100CA000D3FCB861414B1B687B61B8697969FFF778
:100CB000D7FC034603333B613D4B1B7883F00103B4
:100CC000DBB2002B01D0FFF7B9FB3A69FB69934215
:100CD00038BF13467A6913447B617B6923F07F43F5
:100CE0007B617869FFF7CCFCFFF7AEFCF860F86831
:100CF000B969FFF7B5FC0346DC1C7869B969FFF7F1
:100D0000AFFC03469C4248D9FFF79EFC03461846B9
:100D1000FFF7B6FC2F23BB60BB681846013800BF45
:100D200000BF00BF00BF00BF00BF00BF00BF00BFCB
:100D300000BF00BF00BF00BF00BF00BF00BF00BFBB
:100D400000BF00BF00BF00BF00BF00BF00BF00BFAB
:100D500000BF00BF00BF00BF00BF00BF00BF00BF9B
:100D600000BF00BF00BF00BF00BF00BF00BF00BF8B
:100D700000BF00BF00BF00BF00BF00BF00BF00BF7B
:100D800000BF00BF00BF00BF00BF00BF00BF00BF6B
:100D900000BFC3D1FFF730FD02E001E0FFF7AEFB7B
:100DA0002437BD4690BD00BF902100209421002033
:100DB000A821002080B586B000AF00237B60184BCF
:100DC0001B683B61174B1B68FB603B461846FFF7EF
:100DD000A9FD0346FB72FFF7E5FD0346FB75FB7AB1
:100DE000002B08D03A683B1D104639691A46FFF7B8
:100DF00039FE0123FB757B681846FFF781FE034629
:100E0000002B01D00123FB75FB7D002B02D0F8687D
:100E1000FFF738FF044B00221A701837BD4680BD1B
:100E20009421002090210020A921002080B483B0CB
:100E300000AF78600B46FB707B68FA785A700C370D
:100E4000BD465DF8047B704780B485B000AF786024
:100E500039607B685B780133FB737B689B78FA7B36
:100E60009A4201D10023FB737B681B78FA7B9A427C
:100E700001D100230EE03B68FA7B1A707B685A6848
:100E80007B685B7819460B465B000B44DB00134420
:100E9000BB60BB6818461437BD465DF8047B7047DD
:100EA00080B586B000AFF860B9607A603B601B4BDC
:100EB0001A68FB68DB001A4407F113031046194651
:100EC000FFF7C2FF78617B69002B01D1042320E08A
:100ED0007B6901221A707B69BA685A60FFF7B4FB1C
:100EE00002467B699A607B697A68DA607B693A6856
:100EF0001A617B693A6A5A61084B1A68FB68DB0021
:100F00001A44FB7C10461946FFF790FFFFF77AFC66
:100F1000002318461837BD4680BD00BF8C21002035
:100F200080B584B000AF78603960144B1A687B6874
:100F3000DB001A4407F10B0310461946FFF784FF44
:100F4000F860FB68002B01D1042312E0FB68022249
:100F50001A70FB683A685A60084B1A687B68DB00B5
:100F60001A44FB7A10461946FFF760FFFFF74AFC68
:100F7000002318461037BD4680BD00BF8C210020DD
:100F800080B500AF0D4B0022C3F840210B4B00226F
:100F9000C3F84421094B0022C3F84821074B002223
:100FA000C3F84C21054B0022C3F80021034B00225B
:100FB000C3F80421FFF754FC80BD00BF00100140BE
:100FC00080B500AFFFF7F6FE80BD00BF80B586B0EC
:100FD00000AFF8607A603B600B46FB727868FFF701
:100FE000EBF9034683F00103DBB2002B01D00723AA
:100FF00055E07B68002B04D12B4B00221A6007239D
:101000004DE0FFF77BFA294A3B681360284B032227
:101010001A70254A7B6813607B6818337B60002355
:101020007B611DE0204B1A687B69DB0013443B6148
:101030003B6900221A703B6900225A703B69FA7AB8
:101040009A703B697A685A60FA7A13465B001344D7
:10105000DB001A467B6813447B607B6901337B614C
:101060007B69022BDEDD134B00221A60124B00223B
:101070001A70124B00221A701420FFF731F9142055
:101080000621FFF747F91420FFF7DEF8F868FFF7AD
:10109000C3F9FFF7D9FA0246094B1A600023184634
:1010A0001837BD4680BD00BF8C210020A421002040
:1010B0008821002090210020A0210020A1210020D3
:1010C0009421002080B487B000AFF8600B467A60AE
:1010D000FB72154B1B68002B01D108231DE07B68B8
:1010E000002B01D1072318E0FB68002B01D1072357
:1010F00013E0FB681B681B7C002B01D008230CE06D
:10110000FB681B687B617B6900221A747B69FA7A31
:101110005A747B697A685A61002318461C37BD46A9
:101120005DF8047B704700BF8C21002080B582B041
:1011300000AFFFF753F90346022B02D0062B03D072
:1011400005E000237B6005E001237B6002E00223D1
:101150007B6000BF7B6818460837BD4680BD00BF76
:1011600080B588B002AFF860B9607A60FB687B61D7
:10117000164B1B68002B01D1082323E0FB68002BD2
:1011800001D108231EE0BB68042B01D8072319E016
:101190007B695B69002B01D1082313E07B695B7CD1
:1011A000012B01D1BB6800E000233B61FFF7BEFFCC
:1011B00002467B68009310467969BA683B69FFF77D
:1011C0006FFE034618461837BD4680BD8C210020AF
:1011D00080B584B000AF78607B68FB600E4B1B6805
:1011E000002B01D1082313E07B68002B03D0FB68A0
:1011F0005B69002B01D108230AE0FB6800221A7406
:10120000FFF794FF03461846F968FFF789FE034687
:1012100018461037BD4680BD8C21002080B582B0B5
:1012200000AF7860FFF710FA02467B681A6000236F
:1012300018460837BD4680BD80B584B000AFF86061
:10124000B9607A60F868B968FFF70AFA02467B6805
:101250001A60002318461037BD4680BD80B483B0A5
:1012600000AFEFF310833B603B687B6072B67B6836
:1012700018460C37BD465DF8047B704780B400AF5C
:1012800062B6BD465DF8047B704700BF80B584B090
:1012900000AF7860FFF7E2FFF860164B9B68002B09
:1012A0001BD1144B01229A60134BD3F88020134BAF
:1012B0001340104A1360104B104AC3F880200E4BA5
:1012C000D3F884300B4A53600B4B4FF0FF32C3F816
:1012D00084207B6800221A7002E07B6801221A7069
:1012E000FB68002B01D1FFF7C9FF00231846103718
:1012F000BD4680BD2C39002000E100E0FC06FFBCAB
:1013000080B584B000AF0346FB710F4B9B68002B88
:1013100015D0FB79002B12D1FFF7A0FFF8600B4A24
:10132000094B1B681360094A074B5B685360064B07
:1013300000229A60FB68002B01D1FFF79FFF00237A
:1013400018461037BD4680BD2C39002000E100E072
:1013500080B582B000AF78607868FFF797FF0837F4
:10136000BD4680BD80B582B000AF0346FB71FB79FE
:101370001846FFF7C5FF0837BD4680BD80B483B06F
:1013800000AF78607B68002B01D1032304E0054B9C
:101390005A6D7B681A60002318460C37BD465DF80D
:1013A000047B7047AC21002080B586B000AFF860A8
:1013B000B9607A6000237B6109E0BB685A1CBA609F
:1013C0001B78184600F074F97B6901337B617A69F8
:1013D0007B689A42F1DB7B6818461837BD4680BDB2
:1013E00080B584B000AFF860B9607A6000BFB868BB
:1013F00000F03AF90346052BF9D0012318461037BF
:10140000BD4680BD80B485B000AF78607B689B68C6
:10141000FB607B68DA68FB68D31A18461437BD4650
:101420005DF8047B704700BF80B586B000AF786080
:1014300039607B681B78012B31D17B685B681B7836
:1014400031481946FEF7C0FE78617B69002B0AD04F
:1014500001233B737B693B612C4B1B6807F10C023A
:10146000104698470DE02848FFF7CCFF0346012BB4
:1014700007D100233B73254B1B6807F10C02104674
:1014800098472148FFF7BEFF02461F4B9B889A42B0
:1014900004D81F48012101F0DBFE31E030E07B6819
:1014A0001B78022B0FD102233B737B68DB683B6107
:1014B0001748012101F0CCFE144B1B6807F10C0208
:1014C000104698471CE07B681B78002B18D1114808
:1014D0001149FEF793FE0346002B03D10E4801216C
:1014E00001F044FD0B48FFF78DFF0346002B07D1A9
:1014F00003233B73054B1B6807F10C02104698470A
:101500001837BD4680BD00BF1022002004220020F5
:101510000C2200202022002008220020B0B58EB02E
:1015200000AFF860B9607A60FB703A4A7B6813607C
:10153000BB68002B01D1072367E0BB681A68BB6852
:101540005B689BB2344811461A46FEF711FE786379
:101550007B6B002B01D07B6B57E0BB689A68BB6844
:10156000DB689BB22D4811461A46FEF701FE7863F0
:101570007B6B002B01D07B6B47E0294B07F11404F8
:101580001D460FCD0FC495E80F0084E80F00FB68DF
:101590009B68FB62FB681B79002B14BF01230023AF
:1015A000DBB287F82830FB7887F83030FB685B794E
:1015B000002B01D00E2300E0002387F82930FB68C0
:1015C000DB78FB61FB689B783B62FB681B78BB6147
:1015D000FB685B787B6107F114031846114901F041
:1015E000B7FB78637B6B002B01D07B6B0DE097F82A
:1015F000313083F00103DBB2002B01D001F0A4FEF7
:101600000948012101F024FE034618463837BD463B
:10161000B0BD00BF042200201022002020220020A4
:10162000084E0300291402000C22002080B582B06D
:1016300000AF0B48FEF7F8FD78607B68002B01D007
:101640007B6809E00748FEF7EFFD78607B68002BB8
:1016500001D07B6800E0002318460837BD4680BDF6
:10166000102200202022002080B584B000AF7860D6
:101670000D48FFF7C7FE02460B4B9B889A4209D1E3
:101680000A48012101F0E4FDF860FB68002B01D05D
:10169000052304E004487968FEF7B0FD03461846C8
:1016A0001037BD4680BD00BF102200200C22002054
:1016B00080B584B000AF0346FB71FB791048194632
:1016C000FEF782FDF860FB68002B13D101F082FC6D
:1016D000034683F00103DBB2002B0BD00848094915
:1016E000FEF78CFD0346002B04D10648012101F0D2
:1016F0003DFCF860FB6818461037BD4680BD00BF52
:10170000202200200822002080B485B000AF78603D
:1017100043E07B68013B7B6040F2E733FB60FB68A2
:101720001846013800BF00BF00BF00BF00BF00BFA8
:1017300000BF00BF00BF00BF00BF00BF00BF00BFB1
:1017400000BF00BF00BF00BF00BF00BF00BF00BFA1
:1017500000BF00BF00BF00BF00BF00BF00BF00BF91
:1017600000BF00BF00BF00BF00BF00BF00BF00BF81
:1017700000BF00BF00BF00BF00BF00BF00BF00BF71
:1017800000BF00BF00BF00BF00BF00BF00BF00BF61
:1017900000BF00BF00BF00BFC3D17B68002BB8D122
:1017A0001437BD465DF8047B704700BF80B483B03A
:1017B00000AF0346FB71084997F907305B09FA79D6
:1017C00002F01F02012000FA02F241F823200C3738
:1017D000BD465DF8047B704700E100E080B483B053
:1017E00000AF0346FB71094997F907305B09FA79A5
:1017F00002F01F02012000FA02F2603341F82320B8
:101800000C37BD465DF8047B704700BF00E100E087
:1018100080B483B000AF03463960FB7197F907309D
:10182000002B0BDA0D49FB7903F00F03043B3A68F8
:10183000D2B25201D2B20B441A7609E0084997F9A4
:1018400007303A68D2B25201D2B20B4483F8002377
:101850000C37BD465DF8047B704700BF00ED00E02B
:1018600000E100E080B582B000AF03460A46FB719C
:101870001346BB71BB7997F9072010461946FFF74D
:10188000C7FF97F907301846FFF7A8FF97F9073009
:101890001846FFF78BFF0837BD4680BD80B483B084
:1018A00000AF0346FB71FB7903F1804303F5C043AE
:1018B00018460C37BD465DF8047B704780B582B092
:1018C00000AF0346FB80FB88184600F023F8034670
:1018D0001B68012B0CBF01230023DBB2184608371D
:1018E000BD4680BD80B584B000AF0346FB80FB8859
:1018F000184600F00FF803461A4600231360FB88D1
:10190000184600F007F803461B68FB60FB681037B9
:10191000BD4680BD80B483B000AF0346FB80FB882A
:1019200003F1804303F5C04318460C37BD465DF80C
:10193000047B704780B483B000AF7860044A7B6852
:10194000C2F804330C37BD465DF8047B704700BF16
:101950000060004080B483B000AF7860044A7B68C8
:10196000C2F808330C37BD465DF8047B704700BFF2
:101970000060004080B483B000AF7860054BD3F8BE
:1019800004237B68134018460C37BD465DF8047B82
:10199000704700BF0060004080B483B000AF786043
:1019A0000949094A7B6803F5A27352F8233043F0D2
:1019B00001027B6803F5A27341F823200C37BD4672
:1019C0005DF8047B704700BF0060004080B483B0C6
:1019D00000AF78600949094A7B6803F5A27352F8A1
:1019E000233023F001027B6803F5A27341F8232022
:1019F0000C37BD465DF8047B704700BF00600040B7
:101A000080B485B000AFF860B9601346FB7115492A
:101A1000144AFB6803F5A27352F8233023F44733CA
:101A200023F44073FA6802F5A27241F822300D489F
:101A30000C4AFB6803F5A27352F82320BB681B0213
:101A400003F4F851FB791B0403F440330B431A43AE
:101A5000FB6803F5A27340F823201437BD465DF8F8
:101A6000047B70470060004080B483B000AF7860B2
:101A7000074A7B6803F5A27352F8233003F4F85346
:101A80001B0A18460C37BD465DF8047B704700BF43
:101A90000060004080B483B000AF7860074A7B6884
:101AA00003F5A27352F8233003F440331B0CDBB26E
:101AB00018460C37BD465DF8047B70470060004057
:101AC00080B485B000AF7860104A7B6803F5A273DC
:101AD00052F8233043F00303FB600C49FB6843F4E6
:101AE000F8527B6803F5A27341F8232000BF00BFC2
:101AF00000BF06497B6803F5A273FA6841F823200A
:101B00001437BD465DF8047B704700BF006000409D
:101B100080B485B000AFF860B96011461A460B4634
:101B2000FB711346BB711849174AFB6803F5A27392
:101B300052F8233023F4981323F4F853FA6802F58B
:101B4000A27241F8223010480F4AFB6803F5A273D5
:101B500052F82320BB681B0203F4F851FB791B04E5
:101B600003F440331943BB791B0503F480130B4383
:101B70001A43FB6803F5A27340F823201437BD46CF
:101B80005DF8047B704700BF0060004080B483B004
:101B900000AF78600B46FB700B490B4A7B6803F57E
:101BA000A27352F8233023F48012FB781B0503F450
:101BB00080131A437B6803F5A27341F823200C3786
:101BC000BD465DF8047B70470060004080B483B080
:101BD00000AF7860054A7B6803F5A273002142F8E4
:101BE00023100C37BD465DF8047B70470060004051
:101BF00080B483B000AF7860084611461A460346A9
:101C0000FB700B46BB7013467B704FF0A041FA7817
:101C1000BB785B001A437B789B001A433B7C1B021A
:101C20001A433B7D1B041A437B6803F5E07341F8BC
:101C300023200C37BD465DF8047B704780B584B027
:101C400002AF78600023009300230193786801219C
:101C500001220023FFF7CCFF0837BD4680BD00BF3F
:101C600090B585B002AF78600B46FB70FC7800231E
:101C70000093002301937868002100222346FFF798
:101C8000B7FF0C37BD4690BD80B584B002AF786019
:101C90000023009300230193786800210122002390
:101CA000FFF7A6FF0837BD4680BD00BF80B485B0F2
:101CB00000AF78604FF0A0427B6803F5E07352F804
:101CC000233023F00203FB604FF0A0417B6803F553
:101CD000E073FA6841F823201437BD465DF8047BB1
:101CE000704700BF80B483B000AF78600B46FB70D4
:101CF0004FF0A0414FF0A0427B6803F5E07352F82B
:101D0000233023F440327B6803F5E07341F823204D
:101D10004FF0A0414FF0A0427B6803F5E07352F80A
:101D20002330FA7812041A437B6803F5E07341F814
:101D300023200C37BD465DF8047B704780B483B028
:101D400000AF78604FF0A0427B68012101FA03F3F5
:101D5000C2F808350C37BD465DF8047B704700BFFC
:101D600080B483B000AF78604FF0A0427B6801215F
:101D700001FA03F3C2F80C350C37BD465DF8047B5D
:101D8000704700BF80B483B000AF78604FF0A043CD
:101D9000D3F810257B6822FA03F303F001031846F9
:101DA0000C37BD465DF8047B704700BF80B400AFC0
