:020000040000FA
:10000000A0100020350100004F0100005101000048
:1000100000000000000000000000000000000000E0
:10002000000000000000000000000000530100007C
:100030000000000000000000550100005701000012
:10004000590100005901000079090000BD080000B5
:10005000590100000000000049070000590100009C
:100060005901000059010000590100005901000028
:100070005901000059010000590100005901000018
:10008000590100009D0800005901000059010000BD
:10009000D108000059010000590100005901000079
:1000A000590100005901000000000000000000009C
:1000B0000000000000000000000000000000000040
:1000C0000348854600F09AFA00480047492100009D
:1000D000A0100020401E00BF00BF00BF00BF00BF37
:1000E00000BF00BF00BF00BF00BF00BF00BFF1D115
:1000F00070470000401E00BF00BF00BF00BF00BF30
:1001000000BF00BF00BF00BF00BF00BF00BFF1D1F4
:1001100070470000401E00BF00BF00BF00BF00BF0F
:1001200000BF00BF00BF00BF00BF00BF00BFF1D1D4
:10013000704700000321094802680A43026008482A
:1001400002680A4302600748804707480047FEE705
:10015000FEE7FEE7FEE7FEE7FEE7000024050040BD
:1001600054050040D9080000C100000030B50B461E
:10017000014600202022012409E00D46D5409D4281
:1001800005D31D469540491B254695404019154607
:10019000521E002DF1DC30BD03460B439B0703D0FC
:1001A00009E008C9121F08C0042AFAD203E00B783C
:1001B0000370401C491C521EF9D27047D2B201E0B4
:1001C0000270401C491EFBD270470022F6E710B5B2
:1001D00013460A4604461946FFF7F0FF204610BDB5
:1001E00030B504460020034600E05B1C934203D276
:1001F000E05CCD5C401BF8D030BD0321001D401EEB
:10020000037812021A43491EF9D510467047F0B51B
:100210001FB40646002082B005464024019100909C
:100220001BE0019922460F46304600F009FA049A75
:10023000059B801A994110D310461946224600F0BA
:10024000EFF9361A8F410197224601200021009FC5
:1002500000F0E6F938184D4100902046641E002851
:10026000DFDC019B00982946324607B0F0BD000054
:10027000F0B507460846584087B0C00F04904800C4
:100280000E46590040084908BC1A884105D2384634
:1002900031461E4617460B4602465800400810439A
:1002A0004CD0300D039040055900400D490D05908C
:1002B000401A0290402872DA18030121000B090548
:1002C0000843019004980092002805D001995242F9
:1002D0000020884100920190029840210A1A019959
:1002E000009800F09DF905460C466B4607CB00F0E0
:1002F000B8F9C0197141039A0E0D0023D717564063
:100300001A467A40164344D0049A002A2DD0029A05
:10031000012A039A15DC1205C01A914101263605FF
:10032000001C7141D20F059ED207009301920296E4
:100330002A46234600F0B5F907B0F0BD38463146ED
:10034000FAE71605224A0F46B218C01AB741012132
:100350000905001C4F4100187F41114618187941CA
:10036000E20F10436D19644113E0E2076D08154375
:100370006408C2071443039A01261205C01A91416A
:100380003605001C7141CE07400830434908C018AB
:1003900051412A46234600F077F9CDE7FFE704985C
:1003A00001224000C117121A00238B4104983146E4
:1003B000C417381AA141EEE730B40124E4076340C2
:1003C00030BC55E730B40124E407614030BC4FE74E
:1003D0000000E0FFF0B51FB488B00B990998002425
:1003E00048400999C00F490049080991C0070B9975
:1003F0000090490049080B9109990898A6460843BE
:100400001CD00B990A98084318D009980124400081
:10041000420D4800410D099824050003000B2043BC
:1004200009900B980003000B20430B9050181C49B7
:100430004018002201901446104605E000200146B5
:100440000DB0F0BD032801DA034600E003239C460B
:10045000C11A0AAE0AE05F0008ADED5B4F00F75B22
:100460007D430027AA187C41491C5B1E6145F2DDD3
:10047000410004AB5A522104120C0A43240C401CC4
:100480000828DFDB019802900099704601910090E6
:10049000059B049A0799069800F003F9D0E700003D
:1004A0000DFCFFFFF0B50C465C4085B0E40FE4079F
:1004B00003944C00002664085900944649080246FB
:1004C0000296224321D062460A431ED06200570D95
:1004D0004A000E032303550D012402462C4924052E
:1004E000781B1B0B360B40182343264361460090B4
:1004F0001C46501AB44103D30098401C009002E0FF
:10050000921800985B41002803DA0020014605B0EC
:10051000F0BD0020012109050746864611E064462A
:100520001D46141BB54106D36546521BB3417446A4
:1005300007430C43A646CD074008490828439218B4
:100540005B4105460D43EAD11046184313D060467F
:10055000194650407140084306D06046101AB34116
:1005600006D20122002306E000220123DB0702E07D
:100570000122D2435310009874460105381C614192
:10058000029C039D0019694100F07EF8BFE700005E
:10059000FD0300004A0009030123090B1B05194351
:1005A0000A4B10B5520D9A4202DA0020014610BDE6
:1005B000064B34339A4203DC9A1A00F041F810BD1E
:1005C000034BD21800F02CF810BD0000FF03000010
:1005D000CDFBFFFF10B5002904DB0124E4074042F6
:1005E0008C412146002B04DB1C460123DB075242D1
:1005F000A341994200D1904210BD0000064C012554
:10060000064E05E0E36807CC2B430C3C98471034BA
:10061000B442F7D3FFF758FDA03E0000C03E0000F3
:1006200010B5202A04DB0146203A9140002010BD7D
:10063000914020239C1A0346E3401943904010BD8B
:1006400010B5202A04DB0846203AD040002110BD16
:100650000B46D340D0402024A21A914008431946AB
:1006600010BD10B5202A06DBCB170846203A1041F2
:10067000C1170B4306E00B461341D0402024A21AB9
:1006800091400843194610BD10B5002B08DA00242C
:10069000401C614192185B411A4301D1400840005F
:1006A00010BDF0B51FB482B005460C0003D008465B
:1006B00000F070F902E000F06DF920300246009081
:1006C00021462846FFF7ACFF049B059A04460F46D7
:1006D00018431143084314D0184610431BD0009808
:1006E00040210A1A18460599FFF7AAFF05460E464B
:1006F000009A05990498FFF793FF084305D001205D
:1007000004E02046394607B0F0BD0020C11705437C
:100710000E432C43374300990E986305401A790520
:10072000E40A00220C43FD0A0A3002D500200146EB
:10073000E9E70105101969410C9C0D9D00196941FB
:10074000FFF7A2FFDFE70000F0B50025FF248BB024
:10075000013401262F460195204602F0EDF90028CC
:1007600008D047484068304204D04648002120184D
:1007700035430160241D76007F1CA4B2042FEBD307
:10078000FF207D3002F0D8F9002807D03E48002134
:100790000160400705433D48006901903C4C280733
:1007A00012D0012700262F420AD03A48B200111871
:1007B00008690969C004C00E8903A258890F9047CF
:1007C0007F00761C042EEED3002D57DA0020059012
:1007D000401E4DE0A119403108788506AD0E42B2A9
:1007E000521C39D00121A940089A0091114233D0FE
:1007F00080090390284601F053FA800020580490A5
:10080000002802D10398032826D1039800990328D1
:1008100002D10598084305901F4AA8008018006877
:10082000019A8003800F114202D0022802D013E007
:10083000032811D10399032907D102281CD00221D2
:10084000284602F061F97F1CFFB20498002803D00B
:10085000049A284603999047761C042EBAD3002F99
:100860000CD00A4800690199884207D00190059888
:1008700000273E460890ADE70321E1E70BB0F0BD4D
:1008800000630040006000407C61004000050050B3
:10089000E8050020006500400007005010B506493B
:1008A0000020086048608860C860034940390860DB
:1008B000486002F0C5FA10BD4011014010B5024970
:1008C000024801F0CEFA10BD300600200030004092
:1008D00010B502F04BFA10BD10B501F019FB00285D
:1008E00005D01F491D484860C8131E4988611E482D
:1008F000018CC9B201290BD1828C120708D1028D5B
:100900001206120F042A03D1828D1206120F0AD08A
:10091000012921D1818C09071ED1018D0906090FFA
:100920000A2904D007E0114A01219160F5E7828D80
:100930001206120F05D00D290ED1808D0006000F72
:100940000AD10B480168012904D00A4901600168F5
:100950000129FCD1C021416110BD0000DFFF07C0AB
:1009600000050040006C0040C00F00F00006004091
:1009700000EC06407593000010B503F0C3F810BDFD
:1009800010B5024B024A00F0E5F810BDBF1D000093
:10099000840000202021020C01D010211046020A00
:1009A00001D010460839020901D01046091F8208FB
:1009B00001D01046891E420801D0881E7047081ACF
:1009C000704730B47446641E2578641CAB4200D274
:1009D0001D46635D5B00E31830BC184702E008C8A1
:1009E000121F08C1002AFAD170477047002001E0A9
:1009F00001C1121F002AFBD170470000F0B51FB4DF
:100A000084B007980699020D014314D04A484B4917
:100A10001018484305140F9801280E981CD0281A66
:100A2000401C0024464E4749009401910290002842
:100A300014DA474227E00F98012443A3012808D085
:100A4000002104980F9A84600360C260416009B07D
:100A5000F0BD0E98C143F4E74042E2E7074612E0DA
:100A6000F80707D02246334601990098FFF7B2FCF9
:100A7000019100902246334610461946FFF7AAFC22
:100A800004460E467F10002FEAD10298019B0028F1
:100A9000009A0799069802DAFFF79CFC01E0FFF73D
:100AA00001FD04460E460022284BFFF793FD03D8B4
:100AB0000020C043014607E00022254B2046314676
:100AC000FFF7D6FBFFF766FD102409E0002C0ADBD8
:100AD0000A220023FFF79BFB059B30321A55641E48
:100AE00002460A43F2D11122641C059B121B1C19F9
:100AF0000F9B012B03D0012308430ED10AE00843CA
:100B000004D011200E9000200F9084E70E98151A43
:100B10006D1E0BE00E98824202DD00236D1C03E087
:100B2000824201DA00236D1E002BEED004980F994B
:100B30008260C16030C08AE701FCFFFF104D0000F9
:100B4000000024400000F03F300000000000F043AF
:100B50000000E03FFFB597B00646002518E22528C3
:100B600077D100242746FD49049400E00443761C15
:100B700032780120203A90400842F7D130782A2874
:100B80000ED00222307801463039092916D804994E
:100B90000A235943303940181443761C0490F1E776
:100BA000189802C804911890002904DA0120400323
:100BB00004434842049002200443761C30782E28D7
:100BC00014D1042004437078761C2A2809D118987F
:100BD000761C80C8189009E00A214F43303FC7199E
:100BE000761C3078014630390929F5D930786C28DF
:100BF00010D006DC4C281AD068280ED06A2817D1ED
:100C000004E0742813D07A2812D110E001204005A6
:100C100004430CE00121090501E0032109050C430F
:100C20007178814203D1012000052418761C761CBE
:100C30003078119066280BD013DC58287DD009DC61
:100C400000287BD04528F6D04628F4D047281AD172
:100C5000A5E118E0632835D0642870D0652812D14A
:100C60009DE170286CD008DC6728F1D069287BD022
:100C70006E280DD06F2806D1BAE073282ED07528C3
:100C800071D0782859D01A9A199990476D1C7EE135
:100C90006002400F022809D003280DD004281898BC
:100CA00001680DD00D60001D189070E11898EA17CA
:100CB00001680D604A60F6E7189801680D80F2E758
:100CC0000D70F0E718986A4601781172001D1890AF
:100CD0000020507202A80090012005E0189802C878
:100CE000189000200091C04361070DD5002101E05C
:100CF0000199491C0191B94212DA8142F8DB009A4C
:100D0000515C0029F4D10BE0002101E00199491C5C
:100D100001918142FADB019A0099895C0029F5D1A1
:100D2000019904981A9B471A21463846199A00F0EF
:100D300097FA0199401945180BE04FE02CE113E0B8
:100D40004EE0009800990078491C00911A9A199970
:100D500090470198401E0190401CF2D12146384630
:100D60001A9B199A10E137E00A20002100900191A6
:100D70006002410F022907D0189A01CA1892C217BF
:100D80009446032908D00AE01898C01DC108C9007C
:100D900005C91891944607E000B2C2179446042989
:100DA00002D140B2C1178C4600226146944506DA52
:100DB0000A460021404291418C462D2102E0210546
:100DC00004D52B216A461173012103E0E10701D00C
:100DD0002021F7E7029155E00A200AE0102008E000
:100DE000102000900021042004430191082703E013
:100DF00008200021019100906002410F022907D0D4
:100E0000189A01CA189200229446032908D008E0D3
:100E10001898C01DC108C90005C91891944603E07F
:100E200080B2042900D1C0B200210291210729D546
:100E30001199702906D0009A1021019B4A401A434B
:100E400005D00EE040216A461173012108E0614699
:100E5000014306D030216A46117311995173022162
:100E60000291009A0821019B4A401A430AD1614627
:100E7000014301D1610705D530216A461173012173
:100E80007F1E02911199582904D035A10E910DA908
:100E90000D910DE037A1F9E76146019B009AFFF73C
:100EA000B6F90E9B8C469B5C0D9A521E0D921370E8
:100EB00061460143F0D10D9805A9081A2030019030
:100EC000600703D501200004844300E00127019856
:100ED000874201DD381A00E0002001990090411896
:100EE000029809180498401A0490E00306D4214699
:100EF0001A9B199A049800F0B3F94519002706E0E7
:100F000003A81A9AC05D199990476D1C7F1C02981E
:100F10008742F5DBE0030CD521461A9B199A049809
:100F200000F09EF9451904E01A9A3020199990476B
:100F30006D1C0099481E00900029F5DC08E00D9812
:100F40000D990078491C0D911A9A199990476D1CBA
:100F50000199481E01900029F1DC63E10928010094
:100F6000303132333435363738396162636465661F
:100F700000000000303132333435363738394142E1
:100F8000434445460000000000F05AF94519761C1C
:100F90003078002800D0E2E528461BB0F0BD60079D
:100FA00000D406271898C01DC108C90048680A68FF
:100FB0000831C30FDB071891190001D09CA108E08C
:100FC000210501D59BA104E0E10701D09AA100E031
:100FD0009AA1430011985B08109165280CD006DC9B
:100FE000452809D046281DD0472841D141E0662830
:100FF00018D067283CD13CE00021112F01DB1120E3
:1010000000E0781C0191009008A911A8FFF7F6FCF8
:10101000139905910021119A15927F1C129801973E
:10102000009150E00120C00703900120019008A921
:10103000009711A8FFF7E2FC139A14990592002279
:10104000119B009212981593059A0192002901D0E4
:10105000104602E0791C40180190381A01D5019819
:1010600004E04042401E0090781C0190C01B02909A
:1010700043E0012F00DA01270021112F01DD1120AB
:1010800000E038460191009008A911A8FFF7B6FCCE
:1010900013990591119A00211298159200910197C8
:1010A00021070CD40599B94201DB019900E00191B7
:1010B000012904DD159A491E515C302906D0B84239
:1010C00001DA011D05DA0121029115E00199491E9D
:1010D000EDE7002805DC0099411800910199091AF3
:1010E00003E0019A411C914200DD01910099401AF0
:1010F000401C02900120C0070390200706D40299EB
:101100000198814202DB0020C04302900020694622
:10111000C87707AF012103980337C907884224D055
:10112000022011902B201290039800280CDA4042E4
:1011300003902D20129007E00A210398FFF716F87C
:1011400030317F1E039039701199481E119000298B
:10115000F2DC03980028EFD1791E129808703078DD
:10116000202108404530BF1E387006A8C01BC01D96
:10117000039010980078002800D0012001994118B0
:101180000298C0170918039809180498401A401EBD
:101190000490E00306D421461A9B199A049800F0A3
:1011A0005FF8451910980078002803D01A9A199909
:1011B00090476D1CE00324D521461A9B199A049888
:1011C00000F04EF845191CE00098002807DB009954
:1011D0000598884203DD1598405C199901E019993A
:1011E00030201A9A904700986D1C401C009002987D
:1011F000401E0290002804D11A9A2E201999904777
:101200006D1C0199481E01900029DDDC05E038784D
:101210001A9A7F1C199990476D1C0399481E0390D8
:101220000029F4DC21461A9B199A0498ACE60000C8
:101230002D0000002B000000200000000000000036
:10124000F8B5044600251E461746880404D405E078
:1012500039462020B0476D1C641EF9D52846F8BDDC
:10126000FFB50446002581B01E46C80301D53027CE
:1012700000E02027880404D505E038460399B047EC
:101280006D1C641EF9D5284605B0F0BD10B50848A0
:1012900001F0A6FA00231A461946054801F034FA6F
:1012A000002803D1024801F01FFA002010BD000001
:1012B0002C3D000010B5002000F0C2F910BD000068
:1012C00070B50446144D022028707D22D200012101
:1012D000284600F091F900280DD10D21284600F094
:1012E000F5F8002807D106220C49681CFEF778FFA4
:1012F000002801D0052070BDE87900022060297A1D
:10130000084300022060697A084300022060A97A3D
:1013100008432060002070BD48050020263D0000E5
:10132000F8B51D468F1C16460346402F46D8287830
:101330000A30402842D82C4C402222702B4AA01C54
:10134000127D62700A461946FEF726FFF9B27D2724
:10135000FF003A46204600F04FF900282FD13846CA
:1013600000F08EF9002829D028780A30C1B2204632
:1013700000F0ACF8002822D16946087021780B20D3
:1013800000291CD16178002919D1A178FF2916D133
:10139000E1782379CA43521CD2B293420FD16279C9
:1013A000D52A01D0D42A0AD168460170D52A05D1A0
:1013B000A079412802D1E079800601D00320F8BD50
:1013C000C91EC8B2694608702978814201D26846B0
:1013D0000170684602780449144608313046FEF729
:1013E000DBFE2C700020F8BD480500203D000020E9
:1013F00038B5174D2978814301D0002038BD144CF1
:10140000641C607D002801D0032038BDFFF73EFF3B
:101410000028FAD12079002101F05AFB60790021DF
:1014200001F056FB642001F005F96846FFF748FF1C
:101430000028EAD1012000F0B5F80028E5D1FF200E
:1014400000F0EAF80028E0D101202870D5E700007C
:101450003C0000200548064900790969C140C807D9
:10146000C00F01D000207047012070473D000020D0
:10147000000500501CB504236A4613713023137015
:1014800050700A4601AB02216846FFF749FF1CBDB8
:101490001CB50621684600F019F8002812D17D23FA
:1014A0000022DB00FFF7D6FF002803D0521C92B2C7
:1014B0009A42F7D3062204496846FEF791FE0028B7
:1014C00000D003201CBD0000203D000070B5054683
:1014D0000C46642000F0D4F8002803D00D48407D6D
:1014E000002801D0032070BD601C402801D90720CE
:1014F00070BDC3B2084A2421084801F04DF9002804
:10150000F6D105492246491C2846FEF745FE002033
:1015100070BD00003D000020880500202C3D00002B
:10152000F8B51F4615460E0003D0002D01D0002847
:1015300001D00720F8BD194C4A21217001216170AA
:10154000A07064220321204600F056F80028F1D153
:10155000642F00D26427384600F092F800280AD0A1
:1015600016210E48FFF7B2FF0028E3D1E0790128E9
:1015700003D00B20F8BD0320F8BD2878227B9042D1
:1015800001D20920F8BD2A700549207A087503495F
:1015900030460D31FEF700FE0020F8BD4805002062
:1015A0003D00002010B5012807D0022805D00328EF
:1015B00003D0042801D0072010BD0E4C1421217047
:1015C0006070A1700120E0707D22D20004212046CD
:1015D00000F012F80028EFD109212046FFF776FF2E
:1015E0000028E9D1A079152801D0052010BD0020E0
:1015F00010BD00004805002010B5144600F050F85A
:10160000002806D1204600F03BF8002802D0FFF762
:101610003FFF10BD032010BD10B5084932220A70EB
:1016200005224A70FF228A700122CA7008717D2249
:10163000D20005210148FFF7DFFF10BD480500205B
:1016400010B5012803D0002801D0072010BD0B4998
:1016500032220A7001224A7088707D22D200032152
:101660000648FFF7C9FF0028F0D1642000F008F811
:10167000002801D0002010BD032010BD4805002027
:1016800070B50546002404E0641CA4B2012000F0FB
:10169000D1FFFFF7DFFE002801D1AC42F4D370BDCB
:1016A000F3B51C4881B0407D0C46002801D00320D2
:1016B000FEBD26460836402E01D90720FEBD164F36
:1016C00000253D707D70FF21B970611CF970C94320
:1016D000491C3971D42179712246B81D0199FEF750
:1016E0005BFDD421002005E0019A125C5118401CDA
:1016F000C9B2C0B2A042F7D3C8433919401C88719F
:10170000CD71F3B2044A24210448009501F056F843
:10171000FEBD00003D000020880500202C3D00009B
:1017200010B5FFF7C7FD002803D004A2D32100F0B5
:101730001BF87D20000100F07DFF10BD2E2E5C2ED9
:101740002E5C6D61696E2E630000000070B5064668
:1017500014460D460C2000F099F9224629463046E1
:1017600000F010F870BD00000EB56B4619800192B4
:1017700002906A4600210248FFF7E8FF0EBD000014
:101780000140000018B501246B461C701B78144BF7
:10179000186059609A601349401807D001280FD18A
:1017A000DA60D86800889861D86807E01A6118691B
:1017B0008068586118690088986118694068D86124
:1017C000186858689868D868186958699869D86915
:1017D00072B6684600780028FBD162B618BD0000DA
:1017E00074060020FFBFFFFF10B58268C3689342F4
:1017F00003D000F0D1FA002010BD052010BD002953
:1018000006D0002A02D0531E134203D0092070478D
:101810000E2070470160838000218160C16008460E
:10182000704710B58268C3689A1A83889A4203D8B1
:1018300000F0BCFA002010BD042010BDFEB50D461E
:101840001B4917468968044600292AD0002C28D055
:10185000052D01D20720FEBD6069002821D0607CE3
:10186000012820D0002602F0E1F9C00010490190C3
:1018700089684018694602F003FA002815D0012152
:1018800001700C49446049680830E2C00849019879
:101890008968411868460078487001F0A9FA00206C
:1018A000FEBD0820FEBD2E46DDE70420FEBD000083
:1018B0005C00002000150140F8B5134D0446A968EE
:1018C00000291CD0002C1AD06069002817D00026EF
:1018D000267402F0ABF9C700A8686946381802F010
:1018E000CFF900280DD0022101704460A868391892
:1018F00068460078487001F07BFA3046F8BD082051
:10190000F8BD0420F8BD00005C00002010B500F018
:10191000EBFB10BD70B50446224888B01E460D0092
:1019200042601CD0A888296882B21F48FFF767FF71
:10193000002815D1A889A96882B21B481030FFF78A
:101940005EFF00280CD1202218496846FEF724FCCF
:10195000A06806902079002804D0012103E0072028
:1019600008B070BD002168460175067760790028CF
:1019700000D00E2069464875E0780290A078039068
:1019800020780190607800900949684600F056FF81
:101990000028E5D100F0DCFF02480121401C00F0E6
:1019A000B1FFDDE754000020C8050020343D0000F1
:1019B000553A000010B501460A48FFF732FF04000F
:1019C0000ED101F06BF800280AD107490548FFF74E
:1019D0000BFF002804D10121034801F013F804464D
:1019E000204610BDD805002054000020F8B5074659
:1019F0000024234802E0641C042C1AD2A20082585E
:101A0000BA42F8D1042C14D21D481E4E0C380029BD
:101A100029D001290ED002290BD16000201880198D
:101A20004578002D05D018480169002901D02846C5
:101A30008847F8BD61006118755C8E1971780029BE
:101A40000CD011490A224968806851430E4A521C41
:101A5000FFF7F4FE002801D10B4847700A48B1781F
:101A600014300155DDE78068FFF726FF0648610066
:101A7000611814308919005D8D78A842D1D0F8BD65
:101A8000F03C00001C0500202400002010B5054A91
:101A90000146127A0020D20702D0084600F004F86E
:101AA00010BD000024000020FEB57A4D0722EB682F
:101AB00092059A4302936B6800939C0006461B199B
:101AC00000200121019349050746734C3300FEF7BE
:101AD00078FF180D1515374755677C887F8891DE8C
:101AE0009E9E9E9E9EC8CED1D8DEDE140F21029A05
:101AF00049059143A160E7602F70FEBDA260E760D9
:101B000060680F2252055040800209D5A160E7604D
:101B1000022E02D1E120C0000AE07D20400107E052
:101B2000E160A760022E01D1C82001E0FF209130C2
:101B30002E706421FEF71AFB0099414300223FE01A
:101B4000A260E76060680F2252055040800204D511
:101B5000A160E76019204001EAE7E160A760E3E7E0
:101B6000A260E76060680F2252055040800202D5F3
:101B7000A160E760D1E7E160A760D7E7A260E76016
:101B800060680F2252055040800202D5A160E760D4
:101B900001E0E160A7602E700098410000220FE094
:101BA000A260E76060680F2252055040800202D5B3
:101BB000A160E76001E0E160A7602E70009900225B
:101BC00036480068FFF73AFEFEBDA260E7601BE002
:101BD00061680120800502468A43A2600140E160FD
:101BE00010E06068012189050A468243A26008402E
:101BF000E060E3E76068012189050A468243A2604C
:101C00000840E0600199C9E7E160A7602DE0234842
:101C10004068FFF751FE11218A1B01D0002807D030
:101C20000F22E96852051140A160E760EF60FEBD38
:101C30000121C905E960012A0CD91046C821484391
:101C40006421FEF793FA6968002241431348406813
:101C5000FFF7F4FD0F22E96852051140E160A7602B
:101C6000FEBD0F214905A160E7602E70FEBD072271
:101C70009205AAE70D214905A160E76001218905C8
:101C8000C2E70321C905A160E7608910BCE70F2105
:101C90004905B9E72400002000050050E43C00009D
:101CA000024909182020085670470000E805002066
:101CB000F8B52348C16800293ED00E6821494C6818
:101CC0000769C078E11B0D022D0AED1C002814D114
:101CD00001201D4A000450601B4A403A50601B49D5
:101CE000400008601A4908601A49012008602F2046
:101CF000FEF710FA12490120C870B54200D23546ED
:101D0000E81900020F4B000A403318600D4A516871
:101D1000001B091B0902090A0002000AC91C8142B2
:101D200009D9506818602F20FEF7F4F901200749FF
:101D3000400480390860F8BD00F01AFFF8BD0000CB
:101D40005C000020001501404013014080E200E0EB
:101D500000E100E00010014010B50E4900234A7870
:101D60008C78A24212D0521CD2B24A70022A00D100
:101D70004B704A78074B920018339A5802600869F2
:101D800010180002000A0861012010BD0360002045
:101D900010BD00005C000020826883881A40036840
:101DA0009A5C0A708168491C81607047C2688388A8
:101DB0001A4003689954C168491CC160704710B546
:101DC0000446C0B2FFF7F6FD204610BDF7B5054644
:101DD00084B0002014680290686803901646AF68CB
:101DE0003BE002A80090029401AA3946059B0398A3
:101DF00000F026FB002822D12A6890680028684657
:101E0000007904D0002806D0402828D103E080289B
:101E100001D0C02823D13946104600F0FDFB002830
:101E20000DD1029968460079641A402809D0C0286B
:101E300007D0286882684068824207D1042007B032
:101E4000F0BD3068001B30600020F8E705984018AE
:101E500005900398083018370390002CC1D10B204F
:101E6000EDE77FB50C460D462035064669782878A3
:101E70000191009022462632D11E3046E36901F0DE
:101E8000E6F8002819D1E87800281DD1207B022827
:101E900001D0032818D12269E169914214D1626905
:101EA000E261E37B2B70217E8906C90F69700328EC
:101EB00004D03146204601F06DF87FBD00913146D7
:101EC000204601F047F97FBD20460C3007C801AB22
:101ED00007C3E878002100280ED00920C00132187D
:101EE000506C5064820701D5012002E0400705D5FF
:101EF00002206A46107001E0684601702971207E58
:101F00004007E0D422686846616890477FBD0000C2
:101F10001048018CC9B2012917D1818C090714D14D
:101F2000018D09060A0F03D1828D1206120F0ED001
:101F3000090F012903D1828D1206120F07D0032940
:101F400003D1808D0006000F01D0002070470120D2
:101F500070470000C00F00F0F8B52C49C8680A6946
:101F60000C780F7989688646944600913EE0009986
:101F7000E20055182A7836E0182353436968521C4A
:101F8000C918AB78D2B2934200D100220B78022B51
:101F900002D0032B27D123E04E680346014603E01D
:101FA000B14204D00B46C96900291CD0F8E70029CA
:101FB00019D08B4208D1C069002805D1144F0126E1
:101FC000BE600026B44601270E68C969D9610029A0
:101FD00009D00B689B190B6005E00174C06900E033
:101FE00000210028F9D169789142C5D12146641EAB
:101FF000E4B20029BBD1054962460A61C8600F718D
:10200000704501D00120F8BD0020F8BD5C00002023
:1020100000100140F8B5044631480026C16800911F
:1020200007784EE02E48F90080680D1843E0002C38
:1020300002D02046E4691FE02878182141436A68ED
:10204000401CC0B251182870AA78904200D12E705E
:102050000A784868012A30D1027C002A2DD18A688A
:102060004260CA6882600A69C260496981611C492C
:102070000979002900D04660194943680A699C46DD
:10208000991A0902174B090A994202D282688918E3
:1020900007E06146511A09028268090A8A4202D998
:1020A000511A016000E006604660012186600174FB
:1020B000C66100F0A5FE002CB9D128786978884265
:1020C000BAD138467F1EFFB20028ABD10448C168A0
:1020D0000098814201D00120F8BD0020F8BD000029
:1020E0005C000020FFFF7F0030B50E4C87B02078E9
:1020F000002802D0002007B030BD0B4A04AB07CA4D
:1021000007C308480125401C009008480290680257
:10211000039001950323064A694604A8FFF7FAFBDA
:102120002570E8E77C000020B03D00009406002008
:10213000013A00000FB410B503A90298FEF720FC85
:1021400010BC08BC04B0184701F0AEFD0020FFF73A
:102150004FF9002803D014A2E221FFF705FB012468
:10216000A4022146144800F0A7FD00280BD0042843
:102170000DD005280DD006280FD010A0FFF7DAFFEC
:10218000FFF798F8EDE70C4800F04CFD08E012A0CE
:1021900004E01EA0FFF7CEFFE3E720A0FFF7CAFF91
:1021A000FFF7BEFADDE700002E2E5C2E2E5C6D617F
:1021B000696E2E6300000000DC0000204572726F23
:1021C0007220647572696E67207461672072656140
:1021D000642E0D0A000000004465636C6172656442
:1021E0002062756666657220697320746F20736D56
:1021F000616C6C20746F2073746F726520746167FA
:1022000020646174612E0D0A000000004E6F20549E
:10221000616720666F756E642E0D0A005461672039
:102220006E6F7420737570706F727465642E0D0A12
:102230000000000000B5FF21DFB075310191017889
:1022400003290FD14188009142686B4601A902A879
:1022500000F08AF8002802D003A0FFF76BFF02A865
:1022600000F090F85FB000BD4572726F7220647527
:1022700072696E672070617273696E672061204EAB
:10228000444546206D6573736167652E0D0A000035
:10229000F7B584B000200090019002900498174692
:1022A0000D46002847D0002403E025A0FFF742FF99
:1022B000641CBC42F9D3002427E0002C10D0600736
:1022C0000ED169461FA0FFF735FF002603E01CA0D2
:1022D000FFF730FF761CBE42F9D30A2000F0AAF9BE
:1022E00029781BA0FFF726FF2878014621395D29B0
:1022F00004D86207520F6946885404E02E21620711
:10230000520F68468154641C6D1C04988442D4D3D7
:102310006407640F01D0254605E0082405E00EA0FF
:10232000FFF708FF6D1C082DF9D3002069460855FA
:102330000AA0FFF7FFFE0BA0FFF7FCFE07B0F0BD01
:10234000200000002020202025730D0A000000003E
:10235000253032582000000020202000202020209E
:10236000257300000D0A00003EB515461C466A465E
:1023700000F040F8002804D1224629466846FFF7BD
:1023800025FD3EBD70B50546642000F053F90DA053
:10239000A968FFF7CFFEA868012802D912A0FFF7AD
:1023A000C9FE12A0FFF7C6FE002406E02868A100BF
:1023B0004158204600F0ACF8641CA868A042F5D84B
:1023C00070BD00004E444546206D657373616765BE
:1023D00020636F6E7461696E73202564207265637B
:1023E0006F72642873290000730000000D0A0D0A43
:1023F00000000000F8B50646086815460F4630286C
:1024000001D20420F8BD24213038FDF7AFFE401C76
:1024100034460C34810009192E60C20069608918A5
:10242000A9603460296848602A68002191601822F8
:10243000A96850430818801B38600020F8BD0000D0
:10244000FFB583B00C9F032638680D4603283BD3A5
:1024500018784007400F2870072801D10520287000
:1024600018788009800110701878019058782872C7
:1024700000909B1C01981C46C00602D520785C1C6D
:102480000CE03868062606281ED31846FDF7B5FE70
:1024900000BA000AE17800020843241D01990907E7
:1024A00007D53968761CB1420ED321786970641C57
:1024B00002E00021697069606978009A3318521847
:1024C000D2183B68934202D2092007B0F0BD009BAE
:1024D000002B03D0EC60009B1C1901E00023EB6093
:1024E000002901D06C600C1900280AD003990C60F7
:1024F00003994860039868610448286100203A60A5
:10250000E3E7039B00211960F2E70000F5250000D6
:1025100010B50C4601461DA0FFF70CFE22A0FFF7E8
:1025200009FE2078224980000858FFF703FE606802
:10253000002807D01FA0FFF7FDFD60780222616828
:10254000FFF7A6FEE068002807D01CA0FFF7F2FD09
:10255000207A0222E168FFF79BFE1A49206988422F
:1025600010D164692068002809D017A06168FFF7BE
:10257000E1FD022221686068FFF78AFE02E019A0EF
:10258000FFF7D8FD16A0FFF7D5FD10BD4E44454618
:10259000207265636F726420256420636F6E7465BA
:1025A0006E743A0D0A000000544E463A20000000B6
:1025B000903D000049443A0D0A00000074797065AE
:1025C0003A0D0A00F52500005061796C6F616420B6
:1025D0006461746120282564206279746573293AE6
:1025E0000D0A00004E6F207061796C6F61640D0AF6
:1025F0000000000070B504461546106862680B467E
:10260000904201D2042070BD18462168FDF7C4FD38
:1026100060682860002070BD436882689A4201D3D8
:10262000042070470368920099508168491C8160BA
:102630000020704731B5054C04E0401E0090204654
:10264000FDF748FD00980028F7D138BDE7030000EA
:102650008207D30EFF229A408907090E10B59940D0
:1026600000280BDA03071B0F083B9C080C4BA40047
:10267000E318DC6994430C43DC6107E08408094BF0
:10268000A400E418236893430B432360C106C90EDA
:1026900001208840044908600449086010BD00001A
:1026A00000ED00E000E400E080E200E000E100E096
:1026B0000179282251430B4A03238A18016800201C
:1026C000C0431B02CB189860C81DFF30FA30036866
:1026D0000023036005200002081803600120203257
:1026E0009070704730060020017928225143054A36
:1026F0000068891805221302C018026002202031E8
:102700008870704730060020F8B507460C460079FF
:1027100028211D4D41434D192E462036B178002900
:1027200001D00820F8BD002C02D11849000144183E
:102730000CC5002028607071307121463846083D74
:1027400000F0DCFB20681249820012481218116068
:102750006268920010180160052338681B0206CCDD
:10276000C0188160C260216841622868083C002866
:1027700005D03868217B000B40B2FFF769FF0120CC
:10278000B0700020F8BD000030060020543D00006D
:102790000C060000000700503EB5074D2C69AD69DE
:1027A000009402956C466170A37001920022694604
:1027B00000F030F83EBD0000543D00003EB500255D
:1027C000069C009502956D466970AB700192002CD5
:1027D00001D0202200E00022294600F01BF83EBD77
:1027E00010B5017928225143084A8C182168002924
:1027F00006D00168C903CA0E01219140044A116044
:10280000FFF756FF00202034A07010BD30060020D6
:1028100080E100E070B50D46017928235943064B4D
:10282000CC18910701D0062070BD134601682A46D6
:10283000204600F0D5FC70BD30060020F3B52A4CD0
:102840000746E07E81B0002801D00820FEBD002FA1
:1028500000D1264F012638783146814024488160D6
:10286000386800F046F90021786800F039F9214D08
:10287000B8696862787D397D0843E86603CFE8600F
:102880006961387B083F01280FD10021B86800F04A
:1028900027F9387B3146814015488160F86800F09F
:1028A00028F9F968B868A9602861029860603969F8
:1028B000216000280ED0FF230F481D33397F0022EE
:1028C000C250FF234533C2500D4A0C4850600220CD
:1028D000FFF7BEFE042028600020E0752076A0757A
:1028E000E676A076FEBD000058060020703D000090
:1028F000000500500025004000200040800002003C
:1029000000230040F8B5104B81245E680022A4002B
:102910000E4D002E00D0AC60DF7D002F0BD01A7E54
:10292000002A04D0002E00D06C601120F8BD186180
:102930000122197604E0D9750024D8605C761C76F3
:1029400000F012F8F8BD00005806002000230040F7
:1029500010B5044CA07E002803D100F055F90120E9
:10296000A07610BD58060020F8B5234DA87E104370
:1029700001D100F049F96868204C002805D0812079
:102980001F49800048600020F8BDFF20453000212D
:102990002150FF212531204600F0DDF80546FF21BA
:1029A0000931204600F0D7F80746FF21453120467F
:1029B00000F0D1F80646394631432943E9D028468C
:1029C000304306D100F0F6F80B48C17D407E8142CD
:1029D000DFD800210848002DC17501D00320F8BDC3
:1029E000002E01D00F20F8BD817E0120002901D0EA
:1029F0002060C8E76060C6E758060020002000405D
:102A00000023004010B5034600F048F8002801D02C
:102A1000112010BD034A002091759360908200F050
:102A200003F810BD58060020F8B50026194FFF2501
:102A30001D357E510120B86000F018FC164C61680D
:102A4000002910D022E0FF2701372946114800F065
:102A500082F8002802D1A08AB842F6D1A08AB842F2
:102A600001D000F003FCA08AA17D8842EBD3A18AAB
:102A7000C81FF9380CD0074F2946384600F06BF8CC
:102A80000028F9D00120F8600020A0753046F8BD7C
:102A90000F26F9E700200040580600200248807DFC
:102AA000002800D0012070475806002030B55200A1
:102AB0000A439900039C0A432102049D0A43290406
:102AC0000A43024980004018026030BD00070050F0
:102AD000024A89008000801801607047000700509A
:102AE0001CB500220B46009211460192FFF7DEFF53
:102AF0001CBD1CB5002100910B460122019111461D
:102B0000FFF7D4FF1CBD00008200064810180268C1
:102B100003231B049A430260026809040A4302600B
:102B2000704700000007005001218140014881608A
:102B30007047000000050050034940180068012854
:102B400000D000207047000000600040405800287E
:102B500000D0012070474058002800D00120704765
:102B60000322120280184068084000D001207047FC
:102B700070B501240B49600408600B49401088605F
:102B8000094940398860094D6C602F20FDF7C2FA71
:102B9000AC60074D00242F202C61FDF7BBFAEC70D0
:102BA00070BD000080E100E04013014000100140D2
:102BB0005C00002030B50A48FF21C57D0022094C89
:102BC0000931094B002D625007D09969437EC268D4
:102BD000D154417E491C417630BD986930BD00001A
:102BE0005806002000200040002500401FB50123AA
:102BF0006A46137010720348019106C868469047F0
:102C00001FBD000058060020FF2205482532002184
:102C10008150FF220932815001210160704700007C
:102C20000020004070B5114D0146284600F0E4FB3D
:102C3000042810D0002802D00DA0FFF77BFA1CA0BA
:102C4000FFF778FA284600F035FC19A0FFF772FA72
:102C50000024EE6906E01748EFE73046FFF7EAFA8E
:102C6000641C0836288CA042F7D870BD00000020F4
:102C70004572726F7220647572696E67207061723E
:102C800073696E672061207461672E205072696ECF
:102C900074696E67207768617420636F756C642750
:102CA0007665206265656E20726561642E0D0A008E
:102CB0000D0A0000BC3D0000FEB5054600200E4692
:102CC00001900290072069460870102E23D30A460F
:102CD0001E4B01A90020FEF723FC002801D005208F
:102CE000FEBD68460078072801D00620FEBD0024FE
:102CF000A00041192046FEF7BDFB002801D0214667
:102D000019E0641CE4B2042CF2D3A87BC000014695
:102D10001031B14201D90420FEBD8005060E002409
:102D200010E0A00010302918201DC0B2FEF7A2FB51
:102D3000002805D0211D06A0FFF7FCF90320FEBDE9
:102D4000641CE4B2B442ECD30020FEBD8813000042
:102D50004661696C656420746F20726561642070DF
:102D60006167652025640D0A00000000FEB51F4C58
:102D700000252769E06802906846FEF7EDFF0190A4
:102D8000FFF7EAF806460198002822D000230098B1
:102D9000E16817E00E680A46864202D9301A0860D8
:102DA00012E0801BF31800261660D668D169B4467D
:102DB000002E07D0FE183602360A56606646966028
:102DC000D56115460029E5D12846E160FFF722F9D3
:102DD00006E02846FFF71EF9002801D1002E02D098
:102DE0000298FEF765FF00202071FEBD5C00002008
:102DF00001200249000508607047000000E200E081
:102E000010B50E4BD968002906D002680C68A242A2
:102E100004D8A21A0A60C161D86010BD0B4604E054
:102E20000B46C969121B002904D00C689442F7D3E1
:102E3000A41A0C600260C161D86110BD5C00002062
:102E4000F8B51E4DEC68002C37D01D4800274068AF
:102E50002969401A0602360A2068B0421BD8361A81
:102E6000C7192246107CE469002812D00020107493
:102E70006B69002B0AD0916950699847002808D0E7
:102E8000FF2110A26631FEF76FFC02E051699069E4
:102E90008847002CE0D16978A878814206D1401C8F
:102EA000C0B2A870022801D10020A8700349000612
:102EB000800D18310F50FFF79BFFF8BD5C0000201C
:102EC000001501402E2E5C2E2E5C2E2E5C2E2E5CCC
:102ED0002E2E5C636F6D706F6E656E74735C6C69C3
:102EE000627261726965735C74696D65725C617050
:102EF000705F74696D65722E63000000F8B50C4652
:102F00000968224D890020484919086061688900D4
:102F1000491908602068FFF707FE6068FFF704FEA4
:102F200019482168401C89004919086061688900B6
:102F3000491908600420FDF7DDF80025144F01262B
:102F400020793969C140C807C00F02D0002D19D0BF
:102F50000FE0207831468140F9600420FDF7CAF87F
:102F60002068FFF7E1FD0420FDF7C4F86D1C092D72
:102F7000E6DB20798640FE600420FDF7BBF8606840
:102F8000FFF7D2FDF8BD00000C060000000700505E
:102F900000050050FFB50027FF2285B00C46053222
:102FA0001E46A750FF222532A750FF221D32A750F0
:102FB000FF220932A75005462035CA1DFF32AF71E6
:102FC000FA32EF70012B0FD001231360012222622D
:102FD00022600268002A09D01049816080680321BC
:102FE00009026118486015E00223EEE70146263128
:102FF0002330039102900020019000962046079B09
:10300000039A029900F023F80028F4D1E878002808
:1030100000D00327384609B0F0BD0000860200004A
:1030200030B51C78039D944208D205221202095D36
:103030008018C1611878401C187006E00121002D2D
:1030400002D0C161002030BD4161012030BDFFB51B
:103050000F46097881B00446012904D0039802780C
:103060000A98824201D1012600E00026FF20253087
:103070000025002907D02550FF201D302550FF20B6
:103080000930255056E0FF2125312046FFF75EFD2F
:1030900000282CD1FF211D312046FFF757FD0028C5
:1030A00014D0FF201D302550FF2125312046FFF789
:1030B0004DFD00281BD10B9800902046039B0A9AD7
:1030C0000499FFF7ADFF002840D033E0FF2109311C
:1030D0002046FFF73BFD00282CD0FF20093025506B
:1030E000FF2125312046FFF731FD002806D0FF20C3
:1030F000253025500120606138701BE003990A9843
:103100000F78049ABC46874214D205231B02E318A9
:103110009B696746D3550A78521CD2B20A70411E89
:103120008A4203D102200102085101E0824201D00B
:1031300001212162002E0BD0FF26053631462046A4
:10314000FFF704FD002803D0A551002005B0F0BD15
:103150000120FBE7FFB5054687B00C460020FF21A4
:10316000109F053105906050FF2125316050FF21EF
:103170001D316050FF2109316050012149022E4666
:1031800008512036B071F07001202062A060B31D9C
:103190000097029320460A9A0999FFF741FF286891
:1031A000002807D00D48A860A8680321090261180B
:1031B000486010E023350A98009001972946204680
:1031C000099B029AFFF743FF0028F4D1F07800280A
:1031D00001D00320059005980BB0F0BD86020000D9
:1031E000F8B5044600250320ED4300020818856069
:1031F000254620352E79002E03D0A168416011208C
:10320000F8BD5807C017401C2871180701D50620C3
:10321000F8BDA361C1CA0C34C1C40C3A90782870BF
:1032200050680B266060F60150788E19B0601078F7
:103230000026183C01280ED0002801D1980601D59F
:10324000012000E0002068700090937852682046CA
:10325000FFF780FF05E06E70937852682046FFF715
:1032600099FE21680029D3D12E71F8BDFF210748AE
:103270001D31002242500648828A8168895C828A18
:10328000521C82820348C161704700000020004048
:1032900058060020002500401FB500216A46117025
:1032A0001072044882680192817506C8684690478A
:1032B0001FBD00005806002070B500250446058497
:1032C00006211230FCF781FF25606560A560E5608E
:1032D00070BD0000FEB50E78054606700C46481C11
:1032E000897802780802104347BA6F80E078287125
:1032F0000190201D0090FCF780FF009900BA000AA1
:10330000C97800020843A860217A2973627A6A7337
:10331000E27AA37A12021A4352BA2A823A0A564031
:10332000FAB288235A4056400302020E1B0E5A403E
:1033300003041B0E5A40C0B242400198B04201D172
:10334000914202D002A0FEF7F5FE0020FEBD000073
:103350005761726E696E672120424343206F662079
:103360007468652073657269616C206E756D626545
:1033700072206973206E6F7420636F72726563745C
:10338000210D0A00002A09D0808A8A181030521EA6
:10339000824203DA102901D30120704700207047D0
:1033A000F8B50D46144611881E4607460122FFF760
:1033B000E9FF002819D02188685CFF2805D07080BB
:1033C0002088401C20800020F8BD03223846FFF7EB
:1033D000D9FF002809D020886D1C41194878097848
:1033E0000002084340BAFF2801D20B20F8BD7080CC
:1033F0002088C01CE6E7000038B50D460446FFF7FC
:103400005BFF29462046FFF765FF002805D12A46C5
:10341000287B0C32E12801D00B2038BD50780109FF
:10342000A17450780107090FE1749078C100A1825E
:10343000D0780109A175D0780107090FE175A07C4A
:10344000012801D0062038BD102069460880684652
:10345000A18A00881031814203D108A0FEF76AFEDC
:103460000AE06A462946204600F06CFA0028EAD1B4
:10347000684600880028EAD1002038BD5761726E86
:10348000696E6721204E6F207465726D696E61747C
:103490006F7220626C6F636B2077617320666F754B
:1034A0006E6420696E2074686520746167210D0A5E
:1034B00000000000F8B504464EA0FEF73BFE218C4C
:1034C00052A0FEF737FE59A0FEF734FE21785DA02A
:1034D000FEF730FE618864A0FEF72CFE21796BA018
:1034E000FEF728FE72A0A168FEF724FE217B79A0DA
:1034F000FEF720FE617B80A0FEF71CFE218A87A0DC
:10350000FEF718FE8EA0FEF715FEA17C95A0FEF733
:1035100011FEE17C9BA0FEF70DFEA18AA1A0FEF7A3
:1035200009FEA17DA7A0FEF705FEE17DAEA0FEF796
:1035300001FE6420FFF77EF8002757E0FD00E069F8
:103540000095415DB1A0FEF7F5FDE069405D0328FF
:1035500025D006DC002826D0012808D0022804D176
:1035600007E0FD281DD0FE281FD0AEA002E0B0A0CD
:1035700000E0B3A0FEF7DEFD009EE069B61C815BB3
:10358000B4A0FEF7D7FDE069805B00282DD0B6A07F
:10359000FEF7D0FD00980025001D00901EE0B6A0AB
:1035A000E8E7B9A0E6E7BCA0E4E7BDA0E2E7009940
:1035B0004058415DBEA0FEF7BDFD01202907000770
:1035C000C1420AD1E069805B401EA84205D0BAA082
:1035D000FEF7B0FD0A20FFF72DF86D1CE069815B56
:1035E000A942E4D808A0FEF7A5FD7F1C208CB842B4
:1035F000A4D8F8BD547970652032205461672063E7
:103600006F6E74656E74733A0D0A00000D0A202007
:103610004E756D626572206F6620544C5620626C48
:103620006F636B733A2025640D0A00000D0A202099
:10363000496E7465726E616C20646174613A0D0A42
:1036400000000000202020204D616E7566616374CB
:10365000757265722049443A20202020202030785D
:10366000253032780D0A0000202020205365726931
:10367000616C206E756D62657220706172742031AC
:103680003A203078253034780D0A000020202020A0
:10369000436865636B206279746520303A2020208E
:1036A0002020202020203078253032780D0A00009C
:1036B0002020202053657269616C206E756D6265F3
:1036C00072207061727420323A2030782530386C64
:1036D000780D0A0020202020436865636B20627902
:1036E000746520313A2020202020202020203078AE
:1036F000253032780D0A000020202020496E7465A4
:10370000726E616C20627974653A2020202020203E
:1037100020203078253032780D0A0000202020202B
:103720004C6F636B2062797465733A2020202020EF
:103730002020202020203078253034780D0A000009
:103740000D0A20204361706162696C6974792043BD
:103750006F6E7461696E657220646174613A0D0AFE
:1037600000000000202020204D616A6F72207665E5
:103770007273696F6E206E756D6265723A20256492
:103780000D0A0000202020204D696E6F72207665A2
:103790007273696F6E206E756D6265723A20256472
:1037A0000D0A0000202020204461746120617265B0
:1037B000612073697A653A2020202020202025642A
:1037C0000D0A00002020202052656164206163639F
:1037D0006573733A2020202020202020202030787C
:1037E000253032580D0A00002020202057726974BD
:1037F00065206163636573733A20202020202020B8
:1038000020203078253032580D0A00000D0A202083
:10381000544C5620626C6F636B20307825303258E0
:103820003A200000556E6B6E6F776E0D0A00000037
:103830004C6F636B20436F6E74726F6C0D0A0000E7
:103840004D656D6F727920436F6E74726F6C0D0AE7
:1038500000000000202020204C656E6774683A202C
:1038600025640D0A000000002020202044617461BE
:103870003A202020000000004E444546204D65734C
:10388000736167650D0A000050726F70726965742C
:103890006172790D0A0000004E756C6C0D0A000013
:1038A0005465726D696E61746F720D0A00000000DC
:1038B00025303258200000000D0A20202020202032
:1038C0002020202020200000F8B5074600201860A6
:1038D00058600E46144611881D4638460122FFF7EF
:1038E00051FD00282BD02188705C28702088401C56
:1038F000208029780020032907D002DC002904D188
:103900001BE0FD2901D0FE2916D02B462246314668
:103910003846FFF745FD002810D16A88002A0CD0F0
:1039200038462188FFF72EFD002808D0208880190E
:10393000686020886988401820800020F8BD0B202E
:10394000F8BD00001CB504466B46FFF7BDFF00281C
:1039500017D16846007802280ED004DC002806D073
:1039600001280FD108E0FD280CD0FE280AD16946B5
:103970004988002904D105E069464988032901D016
:103980000B201CBD032807D002DC002804D116E060
:10399000FD2801D0FE2812D0208C218B884205D131
:1039A000042408A0FEF7C6FB20461CBDE169C00048
:1039B00008180099019A06C0208C401C2084002021
:1039C0001CBD00005761726E696E6721204E6F74D6
:1039D00020656E6F756768206D656D6F7279202048
:1039E000746F20696E7365727420616C6C206F66F1
:1039F0002074686520626C6F636B73210D0A000090
:103A000010B50178022907D0012904D1406804A229
:103A10009C21FDF7A9FE10BD406801A29821F8E79E
:103A20002E2E5C2E2E5C2E2E5C2E2E5C2E2E5C639B
:103A30006F6D706F6E656E74735C6C6962726172CB
:103A40006965735C7574696C5C6E72665F6C6F67D8
:103A50002E6300007CB50178284D01290AD0022987
:103A60002FD000292CD129462548FDF7BDFE00287E
:103A700033D036E04068017821481038FDF7D1FE98
:103A80001F4C103C002805D001216A46117001909E
:103A9000684608E0A068E168081A012805D10020FE
:103AA00069460870684669688847A068E168081A2E
:103AB000A188884204D811480121401CFEF722FF4A
:103AC0007CBD02216A461170C06801900B4801213B
:103AD000401CFEF717FF68460CE001210748FEF77F
:103AE00091FF07488168C0688842E9D10320694690
:103AF00008706846696888477CBD00005400002053
:103B0000D8050020F0B5454D012185B04902284671
:103B1000FFF726F801270026414C002824D0FF217A
:103B200025312846FFF717F800281DD0FF20253043
:103B30002E5081203B4980008860A07E002800D163
:103B40006F60022168460170374908680860039079
:103B5000E17D68460172E0680190E675267606CC44
:103B60006846083C90472BE004212846FEF7F8FF02
:103B7000002825D0FF2109312846FEF7ECFF002858
:103B80001ED0FFF717F8E07D617E884218D1207EB5
:103B9000002808D0627EE168E0752069E060267642
:103BA000667610460AE0A07E002800D16F60812072
:103BB0001C4980008860E675607EE168FFF716F8B2
:103BC000FF211D312846FEF7C6FF00280DD0A18A2F
:103BD000A07D814202D2FFF749FB06E0FF211D31A3
:103BE0006E50002801D0FFF757FBFF2145312846D2
:103BF000FEF7B1FF00280ED0FF2045302E50A07EEA
:103C0000002800D02F60E07D002804D0E675607E9B
:103C1000E168FEF7EBFF05B0F0BD000000200040BA
:103C2000580600200023004080240040EFF3058068
:103C3000C005C00D1AD0103840B2002808DA0107BC
:103C4000090F083989080C4A89008918C96904E0F4
:103C500081080A4A8900891809688007C00EC14096
:103C60000806800F012803D0032803D002207047E4
:103C7000002070470120704700ED00E000E400E004
:103C800042788378521CD2B2934200D1002203784A
:103C9000934201D1002070470A7041684078182291
:103CA000504308187047000070B5002001210B4CEC
:103CB000034603220D468540ED012D0F02D08500FD
:103CC0002D192A60401C2028F4D30F2104484905EF
:103CD0008160C360FDF71AFE70BD00000007005050
:103CE00000050050DC040020FC0400202805002012
:103CF000110000001200000013000000140000007A
:103D000011000300ED19000012000300ED1900007E
:103D100013000300ED19000014000300ED1900006A
:103D20000000FF00FF0000FF06FAD503003000404E
:103D300000000000090000000B0000000A00000065
:103D400008000000000000000000000000E0D701B3
:103D500003000000070000001E00000000006806CD
:103D60000100000001000000000000000000000051
:103D7000090000000B0000000A000000080000001D
:103D8000000000000000000000E0D7010300000078
:103D9000983E0000703E0000003E0000183E00000B
:103DA000343E00008C3E0000583E0000643E00009F
:103DB0000B09080A0100000000E0D7014E6F7420D3
:103DC000656E6F756768206D656D6F727920746FB1
:103DD00020726561642077686F6C65207461672E5E
:103DE000205072696E74696E6720776861742776F7
:103DF00065206265656E20726561642E0D0A0000A3
:103E00004D656469612D74797065202852464320A0
:103E100032303436290D0A004162736F6C75746557
:103E20002055524920285246432033393836290D2F
:103E30000A0000004E464320466F72756D2065787B
:103E40007465726E616C207479706520284E4643EB
:103E500020525444290D0A00556E6368616E6765EF
:103E6000640D0A0052657365727665640D0A000080
:103E70004E464320466F72756D2077656C6C2D6BD6
:103E80006E6F776E20747970650D0A00556E6B6EDB
:103E90006F776E0D0A000000456D7074790D0A0091
:103EA000C03E0000000000208C000000DC09000083
:103EB0004C3F00008C00002014100000EC090000B2
:103EC00000000000000000000000000000000000F2
:103ED00000000000000000000A0000008C0000202C
:103EE00000000000000000000000000000000000D2
:103EF00000000000000000000000000000000000C2
:103F0000000E0F0000000000000000000000000094
:103F100000000000000000000000000000000000A1
:103F20000000000000000000000000000000000091
:103F30000000000000000000000000000000000081
:0C3F400000000000000000000024F4005D
:04000005000000C136
:00000001FF
