:020000040000FA
:1000000078290020050500000D0500000F050000FF
:100010001105000013050000150500000000000098
:1000200000000000000000000000000017050000B4
:1000300019050000000000001B0500001D05000060
:100040001F0500001F050000990C0000ED090000CD
:100050001F0500001F050000850500001F050000AA
:100060001F0500001F0500001F0500001F05000000
:100070001F0500001F0500001F0500001F050000F0
:100080001F050000110700001F0500001F050000EC
:10009000290A00001F0500001F0500001F050000C1
:1000A0001F0500001F0500001F0500001F050000C0
:1000B0001F0500001F0500000000000000000000F8
:1000C0001F0500001F0500001F0500001F050000A0
:1000D0001F0500001F0500001F05000000000000B4
:1000E0000000000000000000000000000000000010
:1000F0000000000000000000000000000000000000
:1001000000000000000000000000000000000000EF
:1001100000000000000000000000000000000000DF
:10040000DFF80CD000F0ACF800480047E91200001B
:1004100078290020401E00BF00BF00BF00BF00BF02
:1004200000BF00BF00BF00BF00BF00BF00BF00BFD4
:1004300000BF00BF00BF00BF00BF00BF00BF00BFC4
:1004400000BF00BF00BF00BF00BF00BF00BF00BFB4
:1004500000BF00BF00BF00BF00BF00BF00BF00BFA4
:1004600000BF00BF00BF00BF00BF00BF00BF00BF94
:1004700000BF00BF00BF00BF00BF00BF00BF00BF84
:1004800000BF00BF00BFC5D170470000401E00BFC5
:1004900000BF00BF00BF00BF00BF00BF00BF00BF64
:1004A00000BF00BF00BF00BF00BF00BF00BF00BF54
:1004B00000BF00BF00BF00BF00BF00BF00BF00BF44
:1004C00000BF00BF00BF00BF00BF00BF00BF00BF34
:1004D00000BF00BF00BF00BF00BF00BF00BF00BF24
:1004E00000BF00BF00BF00BF00BF00BF00BF00BF14
:1004F00000BF00BF00BF00BF00BF00BF00BFC5D12D
:10050000704700000648804706480047FEE7FEE7C0
:10051000FEE7FEE7FEE7FEE7FEE7FEE7FEE7FEE7B3
:100520002D0A00000104000040EA01039B0703D0EC
:1005300009E008C9121F08C0042AFAD203E011F822
:10054000013B00F8013B521EF9D27047034611F8F7
:10055000012B00F8012B002AF9D118467047000042
:10056000064C074D06E0E06840F0010394E8070000
:1005700098471034AC42F6D3FFF746FFCC1B00007F
:10058000EC1B00002DE9FC5F0025DFF83491A84644
:100590004FF4807601242F46304601F04FF838B1F1
:1005A000D9F80403204203D0304601F03DF825433A
:1005B000361D64007F1CB6B2082FEDD34FF4BE7415
:1005C000204601F03BF838B1204601F02DF83D48B7
:1005D00045F00045D0F800803B4E15F0FF0F14D0D9
:1005E000012700242F420CD009EB8401D1F810051B
:1005F000D1F81015C0F3042056F82420C1F30141AE
:1006000090477F00641C082CECD3002D56DA0020A4
:100610000190401E4CE0701910F8501F90F9000036
:1006200021F0C004401C38D0012000FA04FA1AEA74
:10063000090F32D04FEA911B204600F0DDFC56F83E
:100640002000009010B9BBF1030F26D15146BBF139
:10065000030F02D1019808430190A00000F1A040CF
:10066000D0F800071AEA080FC0F3014002D00228B0
:1006700002D012E0032810D1BBF1030F07D10228EA
:100680001AD00221204600F0B8FF7F1CFFB200986C
:1006900018B1009A5946204690476D1C042DBAD3D4
:1006A000002F0BD007480068404507D080460198CE
:1006B000002781463D46AEE70321E3E7BDE8FC9F06
:1006C00000600040100500503800002000F01F02BC
:1006D000012191404009800000F1E020C0F8801223
:1006E000704700F01F02012191404009800000F195
:1006F000E020C0F80011704700F01F020121914076
:100700004009800000F1E020C0F8001270470000AE
:1007100007480021C0F84011C0F84411C0F8481142
:10072000C0F84C11C0F80011C0F8041101F0DCB899
:10073000001001402DE9F047114F0446DDF82090EC
:1007400038781D461646884608B900F0AFFA786931
:10075000A04211D90A4904EB440001EBC00134B1B5
:10076000C1F84880C1E9136500208865486500200C
:10077000C1F85C90BDE8F0874FF0FF30FAE7000069
:10078000FC0800202DE9F047114F0446DDF82090C9
:1007900038781D461646884608B900F087FA386949
:1007A000A04211D90A4904EB440001EBC00134B165
:1007B000C1F81880C1E907650020886248620020FE
:1007C000C1F82C90BDE8F0874FF0FF30FAE7000049
:1007D000FC08002070B5074B0646144618780D46F5
:1007E00008B900F063FA224629463046BDE8704059
:1007F00000F002B8FC08002070B50E46144900EB6A
:10080000400001EBC0051446E86A183520B1012804
:100810000FD0022805D113E0284600F07BFAA04251
:1008200001D2002411E022463146284600F098FB10
:100830000BE0284600F06EFAA042F4D20446F2E73C
:100840003146284600F05FFB0446204670BD00009C
:10085000FC0800202DE9F04198B0064607A8029058
:1008600040200025CDE90305CDE9055690460C460C
:1008700014F8011B002973D0252908D002A800F024
:1008800023FB05980028F3DA18B0BDE8F0810020BA
:100890000122217823291ED02B2919D02D2902D0FD
:1008A000302908D102E040F0010001E040F00200F0
:1008B000641C002AEDD100222178A1F130030A2B1B
:1008C0000CD202EB820201EB4202303A641CF3E7E5
:1008D00040F00400ECE740F00800E9E70023CFB265
:1008E0002E2F0BD114F8011FA1F130070A2F05D2CA
:1008F00003EB830301EB4303303BF3E76C290DD09B
:1009000068290BD0702954D00BDC252916D0582922
:1009100031D063290CD0642913D114E014F8011BE1
:10092000ECE7732934D075291BD0782909D122E04E
:10093000D8F80000011DC8F80010017802A800F0E6
:10094000C3FA641C9DE7D8F800100F1DC8F80070AA
:100950000968CDE900200A2202A800F0E7F9F0E7D3
:1009600033E0D8F800100F1DC8F800700968CDE911
:1009700000200A2208E0D8F800100F1DC8F8007007
:100980000968CDE90020102202A800F033FAD8E768
:10099000D8F80000011DC8F80010076817F8011BFF
:1009A0000029CED002A800F08FFA05980028F5DAC9
:1009B000C7E7D8F80000011DC8F80010016808203A
:1009C000CDE9000503461022DEE7059800287FF7F1
:1009D0005BAF049820B1024607A93046FFF7FAFE44
:1009E000DDE90410084405904EE7000070B50D489D
:1009F0000B4C05464FF48C7100F028FE00280ED0F9
:100A00000026C5F81861A07EFF2801D000F004FE82
:100A100066762671201D2168BDE87040084770BDCC
:100A2000900000200030004000F0FABE70B58D4804
:100A30000023021D0178101D0124062907D1157815
:100A40002D0704D10578C5F30315032D02D006291F
:100A500004D00FE0854E844D75670EE015782D07A4
:100A600008D10578C5F30315032D06D0042D04D055
:100A7000052D02D0062909D010E04FF08055D5F899
:100A800044527B4EC5F34235356002E015782D07A0
:100A900004D10578C5F30315032D02D0062906D02D
:100AA00011E0744D2E6826F080762E600EE01578E9
:100AB0002D0708D10578C5F30315032D06D0042DA5
:100AC00004D0052D02D006290AD011E04FF0804550
:100AD000C5F80C31C5F81031654D2D1F2B6002E0B3
:100AE00015782D0704D10578C5F30315032D02D021
:100AF000062905D00CE05E4A0321643211600AE049
:100B000015782D0704D10578C5F30315032D02D000
:100B100006290DD06AE0584A0521116056497831FE
:100B20000C60554908310B603F21121D116002E035
:100B3000117809075AD10078C0F30310052855D160
:100B40004E4800684E4908604C48001D0068091D69
:100B500008604A4808300068091D086047480C30A2
:100B60000068091D0860454810300068091D0860CC
:100B7000424814300068091D086040481830006879
:100B80003F49203108603D481C300068091D08605D
:100B90003A4820300068091D086038482430006851
:100BA000091D0860354828300068091D0860334871
:100BB0002C300068091D086030483030006830492A
:100BC000403108602D4834300068091D08602B480A
:100BD00038300068091D086028483C300068091D4D
:100BE0000860264840300068091D086021487438B4
:100BF000016841F470010160BFF34F8FBFF36F8F45
:100C00004FF01021D1F80002002803DBD1F80402D4
:100C1000002822DA1B4A14601B480468002CFCD010
:100C20001524C1F800420568002DFCD0C1F804422B
:100C300001680029FCD0136001680029FCD0BFF3D3
:100C40004F8F0C48F0380168104A01F4E0611143FD
:100C50000160BFF34F8F00BFFDE70E490C480860ED
:100C600070BD0000E00F00F00DF0ADBA00C007400D
:100C70003C050040FCED00E010560040040400106C
:100C800020C5004004E5014000E401400400FA05ED
:100C90000090D003340000200348007F08B100F02A
:100CA0000DBF00F087BE0000B000002010B5124C50
:100CB00002202061606111A0A061A4F58260E06162
:100CC0004FF4806020620020A06260620BA1A164EA
:100CD000E062A4F11001E16410212165A065606566
:100CE000E06509A1E01DFFF731FC08A12046FFF7F0
:100CF0002DFC2020A07110BDFC0800205465726DF1
:100D0000696E616C0000000052545400534547471F
:100D1000455200000269C1688A4203D88068401ABF
:100D2000104400E0501A401E704700002DE9FC5F9F
:100D30000E008146DDE90C47C6F100009846934657
:100D4000824600D40846012503E000BF90FBFBF07B
:100D50006D1C5845FADAA84500D9454624B1002E45
:100D600001DB780700D5641EB80702D5B8F1000F83
:100D70000FD0F8070DD164B1A5420AD22021484610
:100D8000641E00F0A1F8D9F80C000028F3DABDE8E1
:100D9000FC9FD9F80C000028F9DB002E02DA564639
:100DA0002D2102E0780707D52B21484600F08CF86A
:100DB000D9F80C000028EADB07F0030002280FD165
:100DC000B8F1000F0CD15CB1A54209D230214846E0
:100DD000641E00F079F8D9F80C000028F3DAD6E7A1
:100DE000CDE9004743465A463146484600F002F8EE
:100DF000CDE700002DE9F84F8246DDE90A4B0126D8
:100E0000984691460D460846374602E0B0FBF9F099
:100E10007F1C4845FAD2B84500D947465FEACB70F7
:100E200017D1B4B15FEA8B7002D5B8F1000F02D0D0
:100E3000202000900BE03020FBE75046641E009914
:100E400000F042F8DAF80C00002838DB0CB1A742B9
:100E5000F3D3DAF80C00002831DB00BFB8F1010F42
:100E600002D9A8F1010803E0B5FBF6F0484502D32A
:100E700006FB09F6F2E7DFF84C8000BFB5FBF6F0A1
:100E800000FB165518F80010504600F01DF8DAF86F
:100E90000C00002803DBB6FBF9F6002EEED15FEA6A
:100EA000CB700CD0002C0AD0A74208D2202150468B
:100EB000641E00F009F8DAF80C000028F2DABDE848
:100EC000F88F0000BC1B000010B50446D4E90130C7
:100ED000421C934205D323681954A260E068401C69
:100EE000E060D4E90102824209D121682069FFF75C
:100EF00071FCA168884203D04FF0FF30E06010BD64
:100F00000020A06010BD2DE9F047C468174689464F
:100F100006464FF000083069A04201D9051B02E0E7
:100F2000B168201A0D1AB0686D1E001BA84200D8C7
:100F30000546BD4200D33D4670682A4620444946D6
:100F4000FFF7F2FAB0687F1B2C44A844A944A042E2
:100F500000D10024F460002FDDD14046BDE8F087C9
:100F60002DE9F041C6680446174688468068851B0F
:100F70006068BD4206D93044FFF7D6FAF019E06048
:100F8000BDE8F0812A463044FFF7CEFA7E1B08EB1D
:100F9000050132466068FFF7C7FAE660F0E702E055
:100FA00008C8121F08C1002AFAD1704770470020F4
:100FB00001E001C1121F002AFBD17047BFF34F8F20
:100FC00005480168054A01F4E06111430160BFF37F
:100FD0004F8F00BFFDE700000CED00E00400FA05B4
:100FE0000EB500210091CDE901106A4644F20100DE
:100FF000FFF7E4FF0EBD00000249084490F93000FD
:1010000070470000380000202DE9F05F2648C168D5
:10101000F1B3DFF898B00E688146DBF8004007694D
:10102000C078E11B21F07F45ED1CB0B9DFF880806E
:101030004FF48030C8F84403C8F804031120FFF7C8
:1010400045FB1120FFF74DFB4FF0010AC8F800A047
:101050002F20FFF71BFA89F803A0B54200D23546CE
:10106000124BE8193C3320F07F401860DBF8001089
:101070005A46091B21F07F41001B20F07F40C91C0C
:1010800081420FD9106818602F20FFF7FFF900E0A8
:1010900004E0BDE8F05F1120FFF72EBBBDE8F05F74
:1010A00000F0EABABDE8F09F1000002004150140EE
:1010B000001001400E4910B54A788C780023A242F6
:1010C00012D0521CD2B24A70022A00D14B70084A88
:1010D0004B78183252F8232002600869104420F03F
:1010E0007F400861012010BD0360002010BD00009A
:1010F000100000202DE9F047DFF8ACA0DAF80C0072
:101100009AF8004080469AF80460DAF80890DAF815
:1011100010703AE009EBC4052A7833E002EB420193
:101120006B68521C03EBC101AB78D2B2934200D181
:1011300000220B78022B02D0032B23D11FE0D1F821
:1011400004C00346014603E0614503D00B46C9696C
:10115000C1B1F9E7B1B18B4205D1C06918B9134FDC
:101160000126BE600027D1F800C0C969D96149B124
:101170000B6863440B6005E00174C06900E0002166
:101180000028F9D169789142C8D1641EE4B2C1D275
:10119000CAE903078AF80460404502D00120BDE88F
:1011A000F0870020FBE70000100000200010014045
:1011B0002DE9F04705462F48002680460778D0F8ED
:1011C0000C904BE0D8F8080000EBC70440E002D0D8
:1011D0002846ED691EE02078616800EB4002401C63
:1011E000C0B201EBC2012070A278904200D12670FB
:1011F0000A784868012A2DD1027C5ABB8A6842606D
:10120000CA6882600A69C2604969816198F80410FD
:1012100001B146604268D8F81030DFF85CC0D11ADE
:1012200021F07F41614502D28268114406E0991A9B
:10123000826821F07F418A4202D9511A016000E0A0
:1012400006604660012186600174C66100F02EFBD5
:10125000002DBCD1207861788842BCD17F1EFFB2BE
:10126000B0D2D8F80C10494502D00120BDE8F08773
:101270000020FBE710000020FFFF7F0038B50D4C79
:10128000207808B1002038BD0125AB020A4A0BA125
:1012900000200095FFF776FA38B900201023094A9C
:1012A00009A10090FFF746FA08B1082038BD257063
:1012B000E8E7000030000020DB0000204E6F726D78
:1012C000616C0000DB040020496E70757400000042
:1012D0000FB408B504A900916A460399FFF7BAFA5A
:1012E00001B05DF814FB00000020012286B003214C
:1012F00002FA00F39B0304D5830003F1A043C3F873
:101300000017401C2028F3D3264F4FF400363E60D0
:1013100007F104080025C8F80050FFF7AFFF08B137
:10132000FFF75EFE20A10020FFF7D2FF224B0DF158
:10133000040C0FCB8CE80F001D208DF807001E4811
:101340001E4A01A9083800F06FF808B1FFF748FEFF
:10135000DFF850A01A4C4FF00709AAF1040AA56063
:10136000A581A5732570164B134808330722D91F92
:101370000838CDF8009000F0E9F818B1FFF730FE1A
:1013800000E020BF20780028FBD0DAF8000026EA31
:101390000001396000F40031C8F80010C82000F0E6
:1013A00011F8DCE708050050535049206578616D5D
:1013B000706C650D0A0000009C1B00000517000002
:1013C0000000002031B540F2E73404E0401E0090F8
:1013D0002046FFF71FF800980028F7D138BD4907CD
:1013E000090E002806DA00F00F0202F1E02282F86E
:1013F000141D03E000F1E02282F8001400F01F0247
:10140000012191404009800000F1E020C0F88012E5
:10141000C0F8001170470121B1EB507F01D10120CC
:1014200070470020704700002DE9FC5F804640793E
:10143000DFF80CB10C460BEB4017397E11B10820D8
:10144000BDE8FC9F14B93F4901EB00143A60207BD2
:1014500001250128DFF8F0A0207804D805FA00F073
:10146000CAF8000001E000F0D7F82178A946890009
:1014700001F1A041C1F8005765784FF0FF36FF2D0C
:1014800007D009FA05F0CAF80000284600F0ABF8CA
:1014900000E03546A0784FF0000AFF2809D000226E
:1014A00006465346CDF800A01146CDF804A000F042
:1014B00089F8E078FF2804D000F0AEF8E07800F07A
:1014C00092F898F80520E1780BEB42108176D8F875
:1014D00000002178C0F80815C0F80C55C0F8106558
:1014E000A168C0F82415227B617B01B10121012A8A
:1014F00004D0022A05D0032A08D105E041F00201F8
:1015000004E041F0040101E041F00601C0F8541587
:101510006179C0F8C015396811B14221C0F80413CF
:101520000721C0F80015386820B1217998F9040026
:10153000FFF755FF87F819A087F8189000207FE77C
:1015400090000020AC1B00000C0500501FB5069C4D
:1015500000918DF8042002938DF80C40002269461A
:1015600000F002F804B010BDF0B413460C46417907
:10157000124A02EB41114A7E12B1F0BC11207047B1
:101580000A6801251AB113F0140F00D14D7694E8C2
:10159000C410083181E8C41011F8152F22F003029D
:1015A00001F81D298A7EFF2A02D09540044A156061
:1015B00000682246F0BC00F0D1B800009000002086
:1015C0000C05005030B541EA4201DDE9034541EA2E
:1015D0008301800041EA042100F1A04041EA054175
:1015E000C0F8001730BD1CB5002100910B46012248
:1015F00001911146FFF7E6FF1CBD800000F5E06099
:1016000000F1A040026822F440320260026842EA1F
:1016100001410160704700000121814001480160E3
:101620007047000008050050034908B50844002130
:1016300001600068009008BD006000400249405809
:10164000012800D00020704700600040405800286A
:1016500000D0012070474058002800D0012070477A
:10166000D0F80403084000D00120704740580028FB
:1016700000D001207047000070B5012670044FF0C3
:10168000E0210025C1F88001084C4010C4F848034F
:10169000C4F8080366602F20FEF7F8FEA660044C2D
:1016A0002F202561FEF7F2FEE57070BD00100140AD
:1016B0001000002009480A490022C37DC1F8082112
:1016C00043B1D1F81815437EC268D154417E491CFC
:1016D00041767047D1F8180570470000B00000202F
:1016E000002000401FB501228DF8080004488DF845
:1016F00000200191D0E90012684690471FBD00000C
:10170000B00000200A4910B50120087009A100208E
:10171000FFF7DEFD064808300078002807D0044AAD
:10172000BDE81040083209A10020FFF7D1BD10BD6F
:1017300000000020205472616E7366657220636F32
:101740006D706C657465642E0D0A0000205265632F
:1017500065697665643A2025730D0A002DE9F04726
:10176000044610681D4617460E464FF0000910B19A
:10177000FFF751FE00B3B86810B1FFF74CFED8B1C7
:1017800038793968C4F84415C4F84805397BB86815
:10179000C4F83405C4F838154FF48C784846C4F8BA
:1017A00018914FF48279C4F80401E9074FF001075A
:1017B00007D0C4F8507506E086F819901020BDE8EF
:1017C000F087C4F85005A90702D5C4F8407501E0B8
:1017D000C4F84005280700D42761306848B145F3B4
:1017E0008000401C4FF0420017D0C4F804030020D2
:1017F000E5E741462046FFF729FF0028F9D0676159
:101800004D4629462046FFF721FF0028F9D0B07E3B
:10181000FF28ECD0FFF700FFE9E7C4F80803E6E78C
:101820002DE9F84F204C00256846D4E903B6FFF7B0
:1018300041FC8046FFF75EFC0746A946B8F1000F61
:1018400025D00023009ACC46E06819E007680146DD
:10185000974202D9BA1A026014E0C1F800C0D1F868
:101860000C80D21BC8693B448A46B8F1000F07D0F0
:10187000F71827F07F47C1E90178CAF81C500D46D8
:101880000028E3D1E0602846FFF792FC04E02846F8
:10189000FFF78EFC00B917B15846FFF7B5FB84F887
:1018A0000490BDE8F88F0000100000200D4B10B52B
:1018B000D96831B102680C68A24204D8A21A0A6041
:1018C000C161D86010BD0B4603E00B46C969121B0D
:1018D00021B10C689442F8D3A41A0C600260C16173
:1018E000D86110BD100000202DE9F0411D4DEC68BD
:1018F000002C35D01C48002700682969B846401ADA
:1019000020F07F462068B04215D82246361A074498
:10191000E469107C68B182F810806B6933B1D2E958
:101920000501984728B1FFF75BFB02E0D2E90510FB
:101930008847002CE6D16978A878814206D1401CFE
:10194000C0B2A870022801D185F802800548A978A4
:10195000183040F82170BDE8F0411420FEF7CCBEED
:10196000BDE8F0811000002004150140064A002067
:10197000C2F81C010548838A8168C95C838A5B1CA4
:101980008382C2F81C15704700200040B000002080
:101990001FB500218DF8080005488DF800108268F9
:1019A00001928175D0E90012684690471FBD000082
:1019B000B00000202DE9FF413E4D4FF40071284654
:1019C000FFF74EFE01273C4C4FF40178002600B390
:1019D0004FF492712846FFF73EFED0B1C5F824615E
:1019E000C5F80883A07E00B96F6002208DF8000062
:1019F000D5F88004C5F880040390E07D8DF80800D8
:101A0000E0680190E6752676D4E9001268469047B2
:101A100024E004212846FFF723FEF8B14FF4847137
:101A20002846FFF718FEC8B1FFF744FEE07D617E4F
:101A3000884213D1227E3AB1607EE168E275226964
:101A4000E2602676667607E0A07E00B96F60C5F892
:101A50000883E675607EE168FFF744FE4FF48E71FF
:101A60002846FFF7F8FD58B1A18AA07D814202D235
:101A7000FFF77CFF04E0C5F81C6108B1FFF788FFA1
:101A80004FF4A2712846FFF7E6FD00280FD0C5F8F5
:101A90004461A07E00B12F60E07D002807D0E6758C
:101AA000607EE16804B0BDE8F041FFF71BBEBDE811
:101AB000FF81000000200040B00000207FB5334CC3
:101AC0004FF492712046FFF7D1FD314D0026B0B1A1
:101AD000C4F8246102208DF80000D4F88004C4F812
:101AE00080040390D4F83C058DF80800E868019064
:101AF000EE752E76D5E90012684690471FE04FF448
:101B000088712046FFF7B2FDC8B1C4F81061D4F85F
:101B10003C05E97DC0B2814211D12A7E5AB1E96803
:101B2000D4F8003223F02003C4F80032EA752A69A1
:101B3000EA602E7601E0EE75E968FFF7D3FD4FF419
:101B4000A2712046FFF792FD50B1C4F84461E87DD0
:101B500030B1EE75D4F83C05E968C0B2FFF7C2FDBC
:101B60004FF490712046FFF781FD00280CD0C4F897
:101B70002061A87D002807D0D4F84C0504B0C0B27D
:101B8000BDE87040FFF704BF7FBD000000200040AB
:101B9000B0000020003000400300010003041CFFDF
:101BA00006FF0000000000400000000003041CFFCE
:101BB00006FF00000000004000000000303132331A
:101BC000343536373839414243444546EC1B000032
:101BD00000000020380000009E0F0000241C0000C0
:101BE0003800002040290000AE0F0000004E6F7248
:101BF00064696300000000000000000000000000B5
:101C000000000000000000000000000000000000D4
:101C100000000000000000000000000000000000C4
:041C20000090D0035D
:0400000500000401F2
:00000001FF
