:020000040000FA
:10000000B825002019050000210500002305000087
:10001000250500002705000029050000000000005C
:100020000000000000000000000000002B050000A0
:100030002D050000000000002F0500003105000024
:100040003305000033050000690A0000E1070000E5
:10005000F107000033050000310600003305000001
:1000600033050000330500003305000033050000B0
:1000700033050000330500003305000033050000A0
:1000800033050000BD070000330500003305000004
:10009000F7070000330500003305000033050000BA
:1000A0003305000033050000330500003305000070
:1000B00033050000330500000000000000000000D0
:1000C0003305000033050000330500003305000050
:1000D0003305000033050000330500000000000078
:1000E0000000000000000000000000000000000010
:1000F0000000000000000000000000000000000000
:1001000000000000000000000000000000000000EF
:1001100000000000000000000000000000000000DF
:10040000DFF80CD000F0E2F800480047F9150000D2
:10041000B8250020401E00BF00BF00BF00BF00BFC6
:1004200000BF00BF00BF00BF00BF00BF00BF00BFD4
:1004300000BF00BF00BF00BF00BF00BF00BF00BFC4
:1004400000BF00BF00BF00BF00BF00BF00BF00BFB4
:1004500000BF00BF00BF00BF00BF00BF00BF00BFA4
:1004600000BF00BF00BF00BF00BF00BF00BF00BF94
:1004700000BF00BF00BF00BF00BF00BF00BF00BF84
:1004800000BF00BF00BFC5D17047000003464FF05A
:10049000000153E8000F43E800128A42F9D1704787
:1004A000401E00BF00BF00BF00BF00BF00BF00BFB5
:1004B00000BF00BF00BF00BF00BF00BF00BF00BF44
:1004C00000BF00BF00BF00BF00BF00BF00BF00BF34
:1004D00000BF00BF00BF00BF00BF00BF00BF00BF24
:1004E00000BF00BF00BF00BF00BF00BF00BF00BF14
:1004F00000BF00BF00BF00BF00BF00BF00BF00BF04
:1005000000BF00BF00BF00BF00BF00BF00BF00BFF3
:1005100000BFC5D170470000064880470648004725
:10052000FEE7FEE7FEE7FEE7FEE7FEE7FEE7FEE7A3
:10053000FEE7FEE7FD0700000104000000487047E9
:10054000B02F000040EA01039B0703D009E008C96F
:10055000121F08C0042AFAD203E011F8013B00F888
:10056000013B521EF9D270472DE9F05F054600208D
:1005700092469B4688460646814640241BE0284614
:1005800041464746224600F042F853465A46C01AB2
:10059000914110D311461846224600F029F82D1A31
:1005A00067EB01084F4622460120002100F020F8A9
:1005B00017EB00094E41201EA4F10104DFDC484680
:1005C00031462A464346BDE8F09F0000064C074DE1
:1005D00006E0E06840F0010394E807009847103413
:1005E000AC42F6D3FFF710FF7030000090300000EF
:1005F000202A04DB203A00FA02F1002070479140E3
:10060000C2F1200320FA03F3194390407047202AD7
:1006100004DB203A21FA02F00021704721FA02F3AC
:10062000D040C2F1200291400843194670470000B3
:100630002DE9FC5F0025DFF83491A8464FF4807661
:1006400001242F46304601F025FF38B1D9F80403C4
:10065000204203D0304601F013FF2543361D6400CD
:100660007F1CB6B2082FEDD34FF4BE74204601F0C4
:1006700011FF38B1204601F003FF3D4845F0004529
:10068000D0F800803B4E15F0FF0F14D00127002456
:100690002F420CD009EB8401D1F81005D1F81015C8
:1006A000C0F3042056F82420C1F3014190477F0095
:1006B000641C082CECD3002D56DA00200190401E5B
:1006C0004CE0701910F8501F90F9000021F0C004A0
:1006D000401C38D0012000FA04FA1AEA090F32D07F
:1006E0004FEA911B204600F081FC56F82000009054
:1006F00010B9BBF1030F26D15146BBF1030F02D154
:10070000019808430190A00000F1A040D0F8000734
:100710001AEA080FC0F3014002D0022802D012E00A
:10072000032810D1BBF1030F07D102281AD00221F0
:10073000204601F08EFE7F1CFFB2009818B1009A8F
:100740005946204690476D1C042DBAD3002F0BD07C
:1007500007480068404507D0804601980027814639
:100760003D46AEE70321E3E7BDE8FC9F00600040A3
:10077000100500500C05002000F01F0201219140DF
:100780004009800000F1E020C0F88012704700F0BE
:100790001F02012191404009800000F1E020C0F8D3
:1007A0000011704700F01F020121914040098000B4
:1007B00000F1E020C0F80012704700000748002157
:1007C000C0F84011C0F84411C0F84811C0F84C11ED
:1007D000C0F80011C0F8041101F044BF001001403E
:1007E0000149024800F0C2BD64050020003000400D
:1007F000002001F049BA01F0D1BE000070B58D486B
:100800000023021D0178101D0124062907D1157847
:100810002D0704D10578C5F30315032D02D0062951
:1008200004D00FE0854E844D75670EE015782D07D6
:1008300008D10578C5F30315032D06D0042D04D087
:10084000052D02D0062909D010E04FF08055D5F8CB
:1008500044527B4EC5F34235356002E015782D07D2
:1008600004D10578C5F30315032D02D0062906D05F
:1008700011E0744D2E6826F080762E600EE015781B
:100880002D0708D10578C5F30315032D06D0042DD7
:1008900004D0052D02D006290AD011E04FF0804582
:1008A000C5F80C31C5F81031654D2D1F2B6002E0E5
:1008B00015782D0704D10578C5F30315032D02D053
:1008C000062905D00CE05E4A0321643211600AE07B
:1008D00015782D0704D10578C5F30315032D02D033
:1008E00006290DD06AE0584A052111605649783131
:1008F0000C60554908310B603F21121D116002E068
:10090000117809075AD10078C0F30310052855D192
:100910004E4800684E4908604C48001D0068091D9B
:1009200008604A4808300068091D086047480C30D4
:100930000068091D0860454810300068091D0860FE
:10094000424814300068091D0860404818300068AB
:100950003F49203108603D481C300068091D08608F
:100960003A4820300068091D086038482430006883
:10097000091D0860354828300068091D08603348A3
:100980002C300068091D086030483030006830495C
:10099000403108602D4834300068091D08602B483C
:1009A00038300068091D086028483C300068091D7F
:1009B0000860264840300068091D086021487438E6
:1009C000016841F470010160BFF34F8FBFF36F8F77
:1009D0004FF01021D1F80002002803DBD1F8040207
:1009E000002822DA1B4A14601B480468002CFCD043
:1009F0001524C1F800420568002DFCD0C1F804425E
:100A000001680029FCD0136001680029FCD0BFF305
:100A10004F8F0C48F0380168104A01F4E06111432F
:100A20000160BFF34F8F00BFFDE70E490C4808601F
:100A300070BD0000E00F00F00DF0ADBA00C007403F
:100A40003C050040FCED00E010560040040400109E
:100A500020C5004004E5014000E401400400FA051F
:100A60000090D0033C0000200348007F08B102F052
:100A700031B902F0ABB80000980500200FB4054B67
:100A800010B503A9044A029800F018F810BC5DF8EC
:100A900014FB0000591300003400002002E008C8D5
:100AA000121F08C1002AFAD170477047002001E0E8
:100AB00001C1121F002AFBD1704700002DE9FF4F32
:100AC0008DB09B460F460446002606E025280BD035
:100AD0005A460F999047641C761C20780028F5D15F
:100AE00011B03046BDE8F08F0025A8460122984994
:100AF00000E0054314F8013F203B02FA03F00842EE
:100B0000F7D120782E2817D114F8010F45F00405ED
:100B10002A280ED06FF02F022078A0F13001092989
:100B20000AD808EB880102EB410100EB0108641CC4
:100B3000F2E757F8048B641C20786C280DD004DC95
:100B40004C2812D06A2811D104E074280DD07A28DC
:100B50000CD10AE045F4001507E0617845F48015F2
:100B6000814202D1641C05F58015641C2278692A33
:100B700045D008DC002AB3D0582A69D0632A10D0A7
:100B8000642A08D13BE0702A67D0732A13D0752AF3
:100B90005CD0782A5CD010465A460F999047761C54
:100BA000D3E017F8040B8DF8000000208DF8010049
:100BB000E946012003E057F8049B4FF0FF30690736
:100BC0004FF0000501D40AE06D1C45450DDA854261
:100BD000FADB19F805100029F6D106E06D1C8542F4
:100BE000FCDB19F805100029F8D12E4404E019F8AF
:100BF000010B5A460F9990476D1EF8D2A5E00A20C6
:100C00000021CDE90801C5F3025002280DD001CF23
:100C1000C117031E71F100030DDA4FF0000CD0EB89
:100C20000C006CEB01012D2308E0FF1D27F00707E6
:100C3000F7E80201EDE72B0504D52B238DF82830CA
:100C400001233BE0EB0739D02023F7E70A2000E03F
:100C500010200021CDE9080107E01020002145F017
:100C60000405CDE908014FF00808C5F30250022839
:100C70000FD001CF00214FF0000A2B071FD5702A9B
:100C80000DD0DDE908C38CF0100C5CEA030C0CD02D
:100C900015E0FF1D27F00707F7E80201EBE7402208
:100CA0008DF828204FF0010A0BE050EA010306D02E
:100CB00030238DF828308DF8292002239A46582AAF
:100CC00004D024A20DF120090B9209E026A2F9E735
:100CD000DDE90823FFF748FC0B9B9B5C09F8013D0D
:100CE00050EA0102F4D1ADEB09002030089068070A
:100CF00001D44FF001080899884502DDA8EB0100F6
:100D000000E000208046002506E00AA85A46405D23
:100D10000F9990476D1C761C5545F6DB04E030209A
:100D20005A460F999047761CB8F10001A8F10108C6
:100D3000F5DC05E019F8010B5A460F999047761C2F
:100D40000899481E08900029F4DC641CC5E60000E0
:100D50000928010030313233343536373839616291
:100D60006364656600000000303132333435363755
:100D7000383941424344454600000000BFF34F8FDD
:100D800005480168054A01F4E06111430160BFF3C1
:100D90004F8F00BFFDE700000CED00E00400FA05F6
:100DA0000EB500210091CDE901106A4644F2010020
:100DB000FFF7E4FF0EBD10B58268C368934203D00D
:100DC00000F0B7FA002010BD052010BD29B112B106
:100DD000531E134203D0092070470E207047016054
:100DE000838000218160C1600846704710B5826829
:100DF000C3689A1A83889A4203D800F0A4FA0020A4
:100E000010BD042010BD000010B5040003D10CA1DA
:100E1000932000F0DFF819488168C2688088511A71
:100E2000814206D10121164801F0DAF808B1052007
:100E300010BD2146BDE810401048FFF7BCBF0000C0
:100E40002E2E5C2E2E5C2E2E5C2E2E5C2E2E5C63A7
:100E50006F6D706F6E656E74735C6C6962726172D7
:100E60006965735C756172745C6170705F756172E5
:100E7000745F6669666F2E6300000000EC0400205A
:100E80000900002070B50446234888B01E460D00B6
:100E9000426035D0A888296882B22048FFF796FFC3
:100EA00000282ED1A889A96882B21C481030FFF70B
:100EB0008DFF002825D1202219496846FFF742FB03
:100EC000A0680690207900B101208DF814008DF8FB
:100ED0001C60607900B10E208DF81500E07802905A
:100EE000A078039020780190607800900D496846C2
:100EF00001F02CF8002804D19DF81D0018B104E081
:100F0000072008B070BD01F0E3F803480121401C40
:100F100001F066F8F5E7000008000020EC0400206E
:100F2000B82E0000252B000010B501460948FFF738
:100F30005DFF04000CD101F04FFA48B9064905489D
:100F4000FFF739FF20B90121034801F08BF904466E
:100F5000204610BDFC040020080000202DE9F041CF
:100F600004460078184F012606FA00F03860206821
:100F700001F065FA0021606801F058FA1348144D39
:100F8000007FA069C5F82405607D217D0843C5F870
:100F90006C05D4E90001C5F80C05C5F81415207DD1
:100FA00001280FD10021A06801F040FA207B864083
:100FB0003E60E06801F043FAD4E90201C5F8081583
:100FC000C5F81005BDE8F08108050050980500201F
:100FD000002000401CB56A46ADF8000001910021D8
:100FE00044F20200FFF7CAFE1CBD0000024908449B
:100FF00090F93000704700000C0500202DE9F05FEB
:101000002648C168F1B3DFF898B00E688146DBF876
:1010100000400769C078E11B21F07F45ED1CB0B9A5
:10102000DFF880804FF48030C8F84403C8F8040328
:101030001120FFF7A1FB1120FFF7A9FB4FF0010AD8
:10104000C8F800A02F20FFF72BFA89F803A0B542BB
:1010500000D23546124BE8193C3320F07F4018602F
:10106000DBF800105A46091B21F07F41001B20F0DD
:101070007F40C91C81420FD9106818602F20FFF7EC
:101080000FFA00E004E0BDE8F05F1120FFF78ABB33
:10109000BDE8F05F01F01EBABDE8F09F140000202B
:1010A0000415014000100140F0B587B0002401276D
:1010B00001AE8DF8144001AD012305AA50211A4854
:1010C000009700F04FFC28B910232A4650211648FB
:1010D00000F036FC20B11548FFF7D0FC07B0F0BD9A
:1010E000214613A0FFF7CAFC002513A0715DFFF78E
:1010F000C5FC6D1C102DF8D3202001F03DFA2020F6
:1011000001F03AFA0025705D01F036FA6D1C102DE1
:10111000F9D30BA0FFF7B2FC1034802CC9D30948D7
:10112000002000BFDAE70000C42D0000981700007F
:10113000252E32783A200000252E3278200000003B
:101140000A0D000034000020F0B5A1B0002523A056
:10115000FFF794FC6C468026FFF7F0F90746274816
:1011600000F001F902463868805C10F03E0F0BD0A9
:1011700004F8012B2249104601F0A9F9204800206B
:1011800000BF761EEBD103E00A2A01D00D2AE6D17A
:10119000002020701A490A2001F099F9184800200F
:1011A00000BF6E46701908220146002403E0521E5B
:1011B00004F1010403D010F8013B002BF7D14CB12E
:1011C0002246284600F06AF830B10EA0FFF756FC20
:1011D00021B0F0BD11A0F9E72544E3E75761697438
:1011E000696E6720666F7220737472696E6720740F
:1011F0006F2077726974653A0A0D0000380000208C
:1012000034000020436F6D6D756E69636174696FA2
:101210006E206572726F720A0D0000004F4B0A0D4E
:101220000000000001480078704700000000002026
:1012300010B5034800F066FC024A0021117010BD91
:10124000AC2D00000000002010B586B014220F491C
:101250006846FFF777F980210D4A0020491EC9B280
:101260001154401C8028F9D30A4900200A4A4860DA
:1012700006486946001F00F065FC040003D10348DE
:10128000001F00F0E7FB06B0204610BDB02D0000A7
:101290004000002000000020392A00001FB514463D
:1012A000082A02D9092004B010BD0219C308521E31
:1012B000B3EBD20F01D01020F5E78DF804002246E1
:1012C0000DF10500FFF73EF90020641C0090E3B229
:1012D00001AA5021014800F045FBE4E7C42D0000BD
:1012E0000E4910B54A788C780023A24212D0521CC5
:1012F000D2B24A70022A00D14B70084A4B78183299
:1013000052F8232002600869104420F07F400861F1
:10131000012010BD0360002010BD0000140000205B
:1013200008B56846FFF770FD0528FAD09DF8000063
:1013300008BD826883881A4003689A5C0A708168D5
:10134000491C81607047C26883881A4003689954B9
:10135000C168491CC160704710B50446C0B2FFF7B0
:10136000E3FD204610BDFFF7DBBF00007FB505465B
:1013700008680C4620B92EA14FF45F70FFF72AFED3
:1013800094F8211094F82000CDE9000104F1260220
:10139000D11E2846E36901F051FA002823D194F8C0
:1013A000230008BB207B022801D003281CD122691E
:1013B000E169914218D16269E261E37B84F82030EF
:1013C000217E0328C1F3401184F8211006D004B017
:1013D00029462046BDE8704001F0DEB9009129465B
:1013E000204601F0A4FA7FBD04F10C0001AB07C850
:1013F00083E8070094F82300002168B1D5F8C404FD
:10140000C5F8C404820701D5012002E0400705D5D4
:1014100002208DF8000001E08DF8001084F82410FF
:10142000207E4007DFD4D4E90021684690477FBD85
:101430002E2E5C2E2E5C2E2E5C2E2E5C2E2E5C63B1
:101440006F6D706F6E656E74735C647269766572D1
:10145000735F6E72665C7477695F6D6173746572D9
:101460005C6E72665F6472765F7477692E630000EB
:101470002DE9F047DFF8ACA0DAF80C009AF800404C
:1014800080469AF80460DAF80890DAF810703AE0CA
:1014900009EBC4052A7833E002EB42016B68521C69
:1014A00003EBC101AB78D2B2934200D100220B789A
:1014B000022B02D0032B23D11FE0D1F804C0034636
:1014C000014603E0614503D00B46C969C1B1F9E7A4
:1014D000B1B18B4205D1C06918B9134F0126BE6066
:1014E0000027D1F800C0C969D96149B10B686344CC
:1014F0000B6005E00174C06900E000210028F9D10B
:1015000069789142C8D1641EE4B2C1D2CAE9030726
:101510008AF80460404502D00120BDE8F087002031
:10152000FBE7000014000020001001402DE9F04707
:1015300005462F48002680460778D0F80C904BE0EF
:10154000D8F8080000EBC70440E002D02846ED6957
:101550001EE02078616800EB4002401CC0B201EB45
:10156000C2012070A278904200D126700A784868A3
:10157000012A2DD1027C5ABB8A684260CA68826007
:101580000A69C2604969816198F8041001B1466036
:101590004268D8F81030DFF85CC0D11A21F07F41E2
:1015A000614502D28268114406E0991A826821F0EE
:1015B0007F418A4202D9511A016000E0066046600C
:1015C000012186600174C66101F02EF8002DBCD1A6
:1015D000207861788842BCD17F1EFFB2B0D2D8F8A3
:1015E0000C10494502D00120BDE8F0870020FBE740
:1015F00014000020FFFF7F0088B00020012103229B
:1016000001FA00F313F4F01F04D0830003F1A043A8
:10161000C3F80027401C2028F2D348494FF4F010AB
:1016200008600020091D0860454C04AB04F1680007
:1016300007C883E8070043480090202001904148F4
:101640000623203002904FF4806003903E4A6946A2
:1016500004A8FFF717FC08B1FFF7A2FBFFF7F4FDA2
:1016600008B1FFF79DFB583494E80F008DE80F0098
:10167000334800231A466946803800F019F950B102
:10168000FFF78EFB3148FFF7F9F92D4930A0783983
:10169000FFF7F4F94EE02A48803800F0CFF8F1E780
:1016A0006846FFF7B1FB0028FAD19DF800107029B9
:1016B00015D006DC0A2936D00D2934D0632904D18F
:1016C00013E077290ED0782927D022A0FFF7D6F98A
:1016D00025A0FFF7D3F91A491DA0783921E0FFF7BB
:1016E000E3FC20E0FFF730FD1DE0FF208DF8040053
:1016F0000024012201A92046FFF7D0FD18B126A041
:10170000FFF7BCF90FE0641C802CF2D328A0FFF790
:10171000B5F92B48002000BF05E0FFF789FD014621
:1017200028A0FFF7ABF9FFF77DFD0028B8D02948C6
:10173000FFF7A4F92248002000BFB1E708050050D8
:10174000442E0000C9000020112B000008300000CA
:1017500025730000596F752073656C65637465644B
:101760002025630A00000000556E6B6E6F776E20B7
:10177000636F6D6D616E642C20747279206F6E657D
:10178000206F662074686520666F6C6C6F77696E79
:10179000673A0A0D00000000436F6D6D756E696356
:1017A0006174696F6E206572726F720A0D000000BD
:1017B0004D656D6F7279206572617365640A0D0005
:1017C000340000204572726F7220776F72643A2085
:1017D00025780A00B42F0000054A00EB400002EB18
:1017E00080004268002A01D0084610477047000078
:1017F0008C0500204907090E002806DA00F00F02C8
:1018000002F1E02282F8141D03E000F1E02282F8E8
:10181000001400F01F02012191404009800000F1F6
:10182000E020C0F88012C0F8001170470121B1EB30
:10183000507F01D1012070470020704770B50546E8
:1018400000790A4900EB800001EBC00494F8220003
:10185000012803D006A1FA20FFF7BCFB2868052168
:10186000C0F80015022084F8220070BD6405002035
:101870002E2E5C2E2E5C2E2E5C2E2E5C2E2E5C636D
:101880006F6D706F6E656E74735C6472697665728D
:10189000735F6E72665C7477695F6D617374657295
:1018A0005C6E72665F6472765F7477692E630000A7
:1018B00070B5064600790D461F4C00EB800104EB25
:1018C000C10494F8221009B1082070BD15B91B4954
:1018D00001EB00150020C4E90023A06084F8250076
:1018E00084F824002946304600F0FEFE296840F2C4
:1018F0000C60890001F1A041C1F800076968890006
:1019000001F1A041C1F80007D5E900123068C0F824
:101910000815C0F80C25A968C0F82415206828B15E
:101920003068297B000B40B2FFF764FF012084F888
:101930002200002070BD000064050020D82E0000A9
:101940003EB5074D2C69AD6900948DF801100192E8
:1019500002958DF802300022694600F015F83EBD70
:10196000D82E00003EB500250095069C8DF801108C
:1019700002958DF8023001920CB1202200E0002285
:10198000694600F001F83EBD2DE9F04106460D46DE
:101990000079144900EB800001EBC0041746206871
:1019A000002811D12878022806D10FA140F2D220B8
:1019B000FFF710FB206838B92878032804D10AA162
:1019C00040F2D320FFF706FBB80702D00620BDE89F
:1019D000F0813B462A4620463168BDE8F04100F0E0
:1019E000E4BF0000640500202E2E5C2E2E5C2E2EFF
:1019F0005C2E2E5C2E2E5C636F6D706F6E656E7448
:101A0000735C647269766572735F6E72665C74771C
:101A1000695F6D61737465725C6E72665F64727625
:101A20005F7477692E630000A1F580718A08012137
:101A30009140014201D001207047002070471CB541
:101A400000220621CDE9001213460122002100F0F8
:101A5000CBFC1CBD70B50078174951F8204000EB55
:101A60004001164800EB810510F82100012804D040
:101A700013A140F29920FFF7ADFA4FF482710020D4
:101A800008514FF4927108514FF4A6710851091D85
:101A900008514FF4B2710851091D0851696811B11C
:101AA0001749C4F804130921C4F80015A8600221DD
:101AB0002970687070BD0000F42E00008C050020B5
:101AC0002E2E5C2E2E5C2E2E5C2E2E5C2E2E5C631B
:101AD0006F6D706F6E656E74735C6472697665723B
:101AE000735F6E72665C747769735F736C61766541
:101AF0005C6E72665F6472765F747769732E6300E2
:101B00000202180610B50178064A01EB410002EB0B
:101B10008004084600F06CF804F10800BDE81040AD
:101B2000FEF7B4BC8C05002042181068002310B1E9
:101B30000120136000E01846A1F5807189088840F3
:101B4000704700002DE9F04707782648DFF89890A5
:101B500007EB470850F8274019F8280092460D4631
:101B6000002610B10820BDE8F0872DB91D4907EB0C
:101B70008700091D01EB8005204600F0A7F9A86841
:101B8000FFF75DFFE868FFF75AFFD5E9000150EA6B
:101B9000010224D000B1012609B146F00206200B53
:101BA00040B2297CFFF726FED5E90201C4F80805FA
:101BB000C4F80C152878C4F888052879C4F88C0571
:101BC000C4F894650948002109EB8802C155517099
:101BD000C2F804A0012209F828200846C3E701261C
:101BE000DDE70000F42E00008C050020100000202E
:101BF000054A00EB400102EB81014968002901D14F
:101C000000F042B8704700008C0500201CB50AB9EE
:101C10004FF480728DF80010064900EB400301EB91
:101C2000830101928B6813438B606946FFF7D4FDF3
:101C30001CBD00008C05002070B50D4600781049D1
:101C4000164651F820400F4900EB400011F82000E3
:101C5000022801D0082070BD2846FFF7E7FD18B123
:101C6000300A03D0092070BD102070BDF0B2C4F856
:101C70003455C4F8380501202063002070BD0000F1
:101C8000F42E00008C0500202DE9FC5F06468C48F0
:101C9000815D002968D14FF0010B824600F806B043
:101CA000884806EB460150F82650874800EB810033
:101CB000814644784FF482712846FFF735FF80460D
:101CC0004FF492712846FFF72FFF40EA08074FF4C0
:101CD000A6712846FFF728FF40EA07084FF4A871CD
:101CE0002846FFF721FF40EA08074FF4B271284663
:101CF000FFF71AFF40EA07084FF4B4712846FFF7D0
:101D000013FF40EA08074FF0000827E0052C70D2C7
:101D1000DFE804F0034C6888A4004FF48271384671
:101D2000FFF782FE10B127F0020717E04FF4B471FD
:101D30003846FFF779FEC8B18DF800804FF4A871DE
:101D40003846FFF771FE08B102241FE0012421E0AC
:101D500069463046FFF740FD27F0C367002FD5D115
:101D600089F801400AF80680BDE8FC9F4FF4B27183
:101D70003846FFF759FE80B103208DF800004FF47C
:101D8000A6713846FFF750FE18B104248DF8048080
:101D9000DEE703248DF804B0DAE7D5F8D024C5F8DF
:101DA000D02406213046FFF731FFD9E74FF4A87160
:101DB0003846FFF739FE88B94FF4B2713846FFF75D
:101DC00033FE58B94FF4B4713846FFF72DFE28B9E9
:101DD0004FF482713846FFF727FE58B1022437F4DA
:101DE0008017BDD04FF4B2713846FFF71DFEA0B981
:101DF00006E060E0D5F8D024C5F8D024022155E0F3
:101E00004FF4B4713846FFF70FFE30B94FF48271CA
:101E10003846FFF709FE0028ECD08DF800B0D5F861
:101E20004C0532E04FF4A6713846FFF7FDFD88B946
:101E30004FF4B2713846FFF7F7FD58B94FF4B4715B
:101E40003846FFF7F1FD28B94FF482713846FFF7A5
:101E5000EBFD30B3042437F4002781D04FF4B27186
:101E60003846FFF7E1FD58B94FF4B4713846FFF733
:101E7000DBFD28B94FF482713846FFF7D5FD80B1FC
:101E800004208DF80000D5F83C056946C0B20190E9
:101E90003046FFF7A1FC002437F002077FF43DAF86
:101EA0005EE7D5F8D024C5F8D02405213046FFF7E9
:101EB000ADFE002454E70024002FEFD150E70000CE
:101EC00010000020F42E00008C05002010B5002129
:101ED000C0F80015491EC0F80815C0F80C15020B13
:101EE00052B202F01F040123A3405209920002F1F2
:101EF000E022C2F88031C0F8081310BD70B50D465D
:101F000000781049164651F820400F4900EB400078
:101F100011F82000022801D0082070BD2846FFF7E4
:101F200085FC18B1300A03D0092070BD102070BDA7
:101F3000F0B2C4F84455C4F848050120606300209D
:101F400070BD0000F42E00008C0500202DE9F0414A
:101F50001E4C07460D46E07E10B10820BDE8F0811A
:101F600007B91B4F787F20773846FEF7F7FF65608B
:101F7000386920602800174E4FF0000516D0397FD1
:101F8000207F48B1C6F81051C6F82051C6F8245138
:101F9000C6F84451104804E0C6F81C51C6F8445134
:101FA0000E48C6F804030220FFF724FC207F08B186
:101FB000082000E00420C6F80005E5752576A57523
:101FC0000120E076A5760020C8E7000098050020F3
:101FD0000C2F0000002000401003020080000200CF
:101FE0002DE9F041294C06460D46E07E012804D03B
:101FF00027A140F2FB10FEF7EDFF25B924A14FF415
:10200000FE70FEF7E7FF207F38B14FF40051B1EBCF
:10201000164F02D01020BDE8F081D4F804C0002291
:102020002A494FF404734FF40177BCF1000F05D037
:1020300010B1C1F8083301E0C1F8087394F817E053
:10204000BEF1000F10D0227E52B1BCF1000F05D0BE
:1020500010B1C1F8043301E0C1F804731120DAE7CC
:1020600026610122257604E0E5750021E6606176AF
:10207000217600282946304603D0BDE8F04100F023
:10208000A9B8BDE8F04100F057B80000980500205D
:102090002E2E5C2E2E5C2E2E5C2E2E5C2E2E5C6345
:1020A0006F6D706F6E656E74735C64726976657265
:1020B000735F6E72665C756172745C6E72665F648B
:1020C00072765F756172742E63000000002000401C
:1020D00010B5094C207F30B1BDE8104007A140F297
:1020E0004320FEF777BFA07E002803D100F038FA26
:1020F0000120A07610BD0000980500202E2E5C2E39
:102100002E5C2E2E5C2E2E5C2E2E5C636F6D706FFF
:102110006E656E74735C647269766572735F6E72FD
:10212000665C756172745C6E72665F6472765F7510
:102130006172742E630000002DE9F05F234DA87ECC
:10214000104301D100F00CFA214C686830B14FF413
:102150000170C4F804030020BDE8F09F4FF00009AF
:102160004FF4A27AC4F844914FF4927BA8465946A2
:10217000204600F09CF905464FF48471204600F09B
:1021800096F907465146204600F091F9064647EA7F
:1021900006012943EBD055EA060007D100F0B8F953
:1021A00098F8171098F819008142E0D888F817902D
:1021B0000DB10320D0E70EB10F20CDE798F81A102B
:1021C000012009B12060C6E76060C4E798050020DF
:1021D000002000402DE9F05F204C00264FF488736A
:1021E000C4F810614FF4A275C4F84461C4F8340512
:1021F000C4F838158AB1D4F8000240F02000C4F8C1
:102200000002DFF85C80D8F8040048B14FF4047095
:10221000C4F804030020BDE8F09F01202060F0E72F
:102220009A46A9464FF4927B5146204600F04AF95F
:1022300005464946204600F045F9074659462046DE
:1022400000F040F93D430543EED088F8176008B12F
:102250000320E0E7002FDDD00F20DCE70020004066
:10226000980500202DE9F0472A4C06460F46E07EEF
:10227000012804D028A14FF4AB70FEF7ABFE27B9BC
:1022800025A140F25710FEF7A5FE4FF4AC781EB919
:1022900021A14046FEF79EFE207F38B14FF400504A
:1022A000B0EB164F02D01020BDE8F08700F094F894
:1022B00008B11120F8E7A7750021A660A182207F50
:1022C00018B3244D89464FF490708A46C5F8201102
:1022D000C5F85811C5F84465C5F848750121A960CD
:1022E000616881B907463946284600F0EBF8064692
:1022F0004146284600F0E6F80643F4D008B14FF016
:102300000F0984F816A04846CEE7BDE8F04700F074
:1023100023B80000980500202E2E5C2E2E5C2E2E59
:102320005C2E2E5C2E2E5C636F6D706F6E656E740E
:10233000735C647269766572735F6E72665C7561F8
:1023400072745C6E72665F6472765F756172742E11
:1023500063000000002000402DE9F05F1C4F0025C5
:102360004FF48E7A2E46C7F81C514FF00108C7F87B
:10237000088000F0A9FB174CB815616879B123E01B
:102380005F465146484600F092F810B9A08AB8421C
:10239000F7D1A08AB84204D000F096FB01E0834652
:1023A000B946A08AA17D8842EAD3A08A584501D1C6
:1023B0000F2508E04F465146384600F078F80028CF
:1023C000F9D0C7F80C80A6752846BDE8F09F00003C
:1023D00000200040980500200248807D002800D0A1
:1023E000012070479805002030B541EA4201DDE93F
:1023F000034541EA8301800041EA042100F1A04045
:1024000041EA0541C0F8001730BD30B541EA42014C
:10241000DDE9034541EA8301800041EA042100F13E
:10242000A04041EA0541C0F8001730BD1CB50022AC
:102430000B46009211460192FFF7E7FF1CBD1CB549
:10244000002100910B46012201911146FFF7DDFFAB
:102450001CBD800000F5E06000F1A040026822F49D
:1024600040320260026842EA0141016070470000A8
:1024700001218140014801607047000008050050BB
:10248000034908B50844002101600068009008BDB8
:102490000060004002494058012800D000207047E9
:1024A000006000404058002800D00120704740588C
:1024B000002800D001207047D0F80403084000D065
:1024C000012070474058002800D001207047FEF7D7
:1024D00043BF000070B5012670044FF0E0210025D5
:1024E000C1F88001084C4010C4F84803C4F8080340
:1024F00066602F20FDF7D4FFA660044C2F202561D5
:10250000FDF7CEFFE57070BD001001401400002003
:1025100009480A490022C37DC1F8082143B1D1F816
:102520001815437EC268D154417E491C41767047DC
:10253000D1F81805704700009805002000200040E1
:102540001FB501228DF8080004488DF80020019184
:10255000D0E90012684690471FBD00009805002092
:1025600004480021C0F82411C0F8081101210160BD
:10257000704700000020004010B50446FDF7DEFF64
:102580000068005D10F03E0F00D12E242046BDE80B
:1025900010400149FFF79BBF340000202DE9F84FA0
:1025A000204C00256846D4E903B6FEF799FE804624
:1025B000FEF75EFF0746A946B8F1000F25D00023BD
:1025C000009ACC46E06819E007680146974202D9B4
:1025D000BA1A026014E0C1F800C0D1F80C80D21B16
:1025E000C8693B448A46B8F1000F07D0F71827F0B6
:1025F0007F47C1E90178CAF81C500D460028E3D195
:10260000E0602846FEF792FF04E02846FEF78EFFC2
:1026100000B917B15846FEF7F1FC84F80490BDE804
:10262000F88F0000140000200D4B10B5D96831B1AF
:1026300002680C68A24204D8A21A0A60C161D8607C
:1026400010BD0B4603E00B46C969121B21B10C6893
:102650009442F8D3A41A0C600260C161D86110BD25
:10266000140000202DE9F0411D4DEC68002C35D000
:102670001C48002700682969B846401A20F07F46A8
:102680002068B04215D82246361A0744E469107C07
:1026900068B182F810806B6933B1D2E905019847BF
:1026A00028B1FEF77DFB02E0D2E905108847002C37
:1026B000E6D16978A878814206D1401CC0B2A870E2
:1026C000022801D185F802800548A978183040F821
:1026D0002170BDE8F0411420FEF764B8BDE8F08138
:1026E00014000020041501402DE9F0410C46096852
:1026F00040F20C60890001F1A041C1F80007616857
:10270000890001F1A041C1F800072068FFF7B0FE81
:102710006068FFF7ADFE216840F20D60890001F1AD
:10272000A041C1F800076168890001F1A041C1F82A
:1027300000070420FDF76EFEDFF858800025012613
:10274000A8F104072079D8F80010C14011F0010F5A
:1027500002D0002D1BD00FE0207806FA00F0386080
:102760000420FDF757FE2068FFF782FE0420FDF7E6
:1027700051FE6D1C092DE5DB207986403E6004206A
:10278000FDF748FE6068BDE8F041FFF771BEBDE8A7
:10279000F0810000100500502DE9FC5F0027054680
:1027A0001E4693460C463846C1F80471C1F82471A0
:1027B000C1F81C71C1F8087185F8267085F823707E
:1027C000012B0FD05FF00101C4F80012012121623A
:1027D0002160296841B140F28620A860A868C4F849
:1027E000040314E00221EFE7804605F1260A05F113
:1027F0002309CDE900685B4652464946204600F071
:102800001DF80028F5D195F8230000B103273846BC
:10281000BDE8FC9F30B51C78039D944206D2095D4B
:10282000C0F81C151878401C187005E0012115B17E
:10283000C161002030BD4161012030BD2DE9FF4F55
:1028400081B004460878DDF8389092460F4601289A
:1028500003D09AF800204A4501D1012600E0002665
:102860004FF49271002530B1C4F82451C4F81C51C2
:10287000C4F808514CE08B462046FFF713FE4FF09A
:10288000010820BB4FF48E712046FFF70BFE88B184
:10289000C4F81C5159462046FFF704FEB8B90F98FA
:1028A000009053464A4620460499FFF7B3FF00289C
:1028B00038D02DE04FF484712046FFF7F3FD38B394
:1028C000C4F8085159462046FFF7ECFD30B1C4F872
:1028D0002451C4F8148087F8008019E09AF8003079
:1028E0004846049A5146834212D2D4F81875D754F8
:1028F0000A78411E521CD2B28AF800208A4203D1C3
:102900000220C4F8000201E04A4501D0C4F820804A
:102910005EB14FF482712046FFF7C4FD28B1C4F8C0
:102920000451002005B0BDE8F08F0120FAE72DE941
:10293000FC5F00260C9F984692460C460546C1F85F
:102940000461C1F82461C1F81C61C1F80861C1F8D3
:10295000006285F8266080F82360012008628860A4
:1029600005F126039B464246514620460097FFF755
:1029700051FF286830B140F28620A860A868C4F8EA
:1029800004030FE005F12309CDE9008753465A46B9
:1029900049462046FFF752FF0028F5D195F823005D
:1029A00000B103263046BDE8FC9FF8B504464FF061
:1029B000FF30C1F8080394F8240020B1A068C1F8E2
:1029C00004031120F8BD43F38000401C84F8240068
:1029D000180701D50620F8BDA36192E8610004F153
:1029E0000C0787E86100907884F820005068E06167
:1029F0005078C1F888051078002501280ED008B954
:102A0000980601D5012000E0002084F82100009004
:102A1000937852682046FFF78AFF06E084F8215039
:102A2000937852682046FFF7B7FE21680029D2D17B
:102A300084F82450F8BD0000F0B420490478204BFD
:102A40004A68072C35D2DFE804F004143617213623
:102A50003600007900282CD0802A01D2104601E0EF
:102A600000204860F0BCC0F1800219181548FFF73B
:102A700045BA406810441BE00079002819D0F0BC2A
:102A80000F49092280310F48FFF7D6B84468002C5F
:102A90000FD00B4D803501222878486006E0AE5CEF
:102AA000802800D300201E54401C521CA242F6D3A2
:102AB0004860F0BC704701200870FAE70000002071
:102AC00040000020AC2D0000064A0020C2F81C0186
:102AD0000548838A8168C95C838A5B1C8382C2F84B
:102AE0001C15704700200040980500201FB50021EC
:102AF0008DF8080005488DF80010826801928175F4
:102B0000D0E90012684690471FBD000098050020DC
:102B10000178022901D0012902D14068FEF740B9AD
:102B2000704700007CB50178264D012909D00229A3
:102B30002CD0002929D129462348FEF73CF980B33F
:102B400034E04068017820481038FEF74FF91E4CF9
:102B5000103C20B101218DF80010019007E0A06821
:102B6000E168081A012805D100208DF80000696885
:102B700068468847A068E168081AA188884204D896
:102B800010480121401CFFF72BFA7CBD02218DF873
:102B90000010C06801900B480121401CFFF720FA8B
:102BA0000CE0FFE701210748FFF75CFB064881685E
:102BB000C0688842E9D103208DF800006968684642
:102BC00088477CBD08000020FC0400202DE9FF415F
:102BD0003E4D4FF400712846FFF76EFC01273C4C38
:102BE0004FF40178002600B34FF492712846FFF7A6
:102BF0005EFCD0B1C5F82461C5F80883A07E00B999
:102C00006F6002208DF80000D5F88004C5F88004BC
:102C10000390E07D8DF80800E0680190E675267667
:102C2000D4E900126846904724E004212846FFF7C3
:102C300043FCF8B14FF484712846FFF738FCC8B163
:102C4000FFF766FCE07D617E884213D1227E3AB1B7
:102C5000607EE168E2752269E2602676667607E0CA
:102C6000A07E00B96F60C5F80883E675607EE168F4
:102C7000FFF766FC4FF48E712846FFF718FC58B139
:102C8000A18AA07D814202D2FFF71EFF04E0C5F8B1
:102C90001C6108B1FFF72AFF4FF4A2712846FFF725
:102CA00006FC00280FD0C5F84461A07E00B12F605B
:102CB000E07D002807D0E675607EE16804B0BDE8DD
:102CC000F041FFF73DBCBDE8FF810000002000405F
:102CD000980500207FB5334C4FF492712046FFF7E2
:102CE000F1FB314D0026B0B1C4F8246102208DF80B
:102CF0000000D4F88004C4F880040390D4F83C05A4
:102D00008DF80800E8680190EE752E76D5E900127E
:102D1000684690471FE04FF488712046FFF7D2FBCA
:102D2000C8B1C4F81061D4F83C05E97DC0B2814255
:102D300011D12A7E5AB1E968D4F8003223F0200379
:102D4000C4F80032EA752A69EA602E7601E0EE7571
:102D5000E968FFF7F5FB4FF4A2712046FFF7B2FBDD
:102D600050B1C4F84461E87D30B1EE75D4F83C054B
:102D7000E968C0B2FFF7E4FB4FF490712046FFF71B
:102D8000A1FB00280CD0C4F82061A87D002807D042
:102D9000D4F84C0504B0C0B2BDE87040FFF7A6BE41
:102DA0007FBD0000002000409805002000000000CA
:102DB00050000000000000001F0000001E00000086
:102DC00002000000003000400000000020202070C1
:102DD000202D205072696E7420746865204545501E
:102DE000524F4D20636F6E74656E747320696E2050
:102DF0006120666F726D3A20616464726573732C32
:102E00002038206279746573206F6620636F646573
:102E10002C20415343494920666F726D2E0A0D20C4
:102E2000202077202D205772697465207374726991
:102E30006E67207374617274696E672066726F6D5D
:102E4000206164647265737320302E0A0D20202087
:102E500063202D20436C65617220746865206D6568
:102E60006D6F727920287772697465203078666694
:102E7000290A0D20202078202D20476574207472A7
:102E8000616E736D697373696F6E206572726F72B4
:102E900020627974652E0A0D000000000300000016
:102EA0000400000000006806020000000806050794
:102EB0000100000000E0D70106000000080000004B
:102EC00007000000050000000000000000000000F6
:102ED0000000D601060000001B0000001A000000E0
:102EE0000000980102000000010000000000000046
:102EF0000000000000400040000000000000000052
:102F000000000000010000000200000006000000B8
:102F1000080000000700000005000000000000009D
:102F2000000000000000D601060000000040404004
:102F3000404040404040414141414140404040408C
:102F40004040404040404040404040404005020238
:102F500002020202020202020202020202202020F7
:102F60002020202020202002020202020202909053
:102F70009090909010101010101010101010101051
:102F800010101010101010100202020202028888A5
:102F900088888888080808080808080808080808B1
:102FA0000808080808080808020202024000000099
:102FB0002D2F00005741524E494E473A204545506B
:102FC000524F4D207472616E736D697373696F6EC9
:102FD000206572726F722064657465637465642E17
:102FE0000A5573652027782720636F6D6D616E64C5
:102FF00020746F2072656164206572726F72207731
:103000006F72642E0A0D0000546869732069732082
:103010005457495320616E64205457492075736199
:103020006765206578616D706C650A596F752063FE
:10303000616E206163636573732073696D756C6184
:1030400074656420454550524F4D206D656D6F721B
:1030500079207573696E6720666F6C6C6F77696E27
:103060006720636F6D6D616E64733A0A0D00000036
:103070009030000000000020400000009C0A00008A
:10308000D03000004000002078250000AC0A00008D
:103090000000000000000000000000000000000030
:1030A0000000000000000000000000000000000020
:1030B0000000000000000000000000000000000010
:1030C0000000000000000000000000000090D0039D
:0400000500000401F2
:00000001FF
