:020000040000FA
:1000000080240020150400001D0400001F040000CF
:10001000210400002304000025040000000000006B
:1000200000000000000000000000000027040000A5
:1000300029040000000000002B0400002D04000033
:100040002D0D00002F0400000D1000002F040000F3
:100050002F040000C10900002F0400002F0400003D
:100060002F0400002F0400002F0400002F040000C4
:100070002F0400002F0400002F0400002F040000B4
:100080002F0400002F0400002F0400002F040000A4
:100090002F0400002F0400002F0400002F04000094
:1000A0002F0400002F0400002F040000F90F0000AF
:1000B0002F0400002F0400000000000000000000DA
:1000C0002F0400002F0400002F0400002F04000064
:1000D0002F0400002F0400002F0400000000000087
:1000E0000000000000000000000000000000000010
:1000F0000000000000000000000000000000000000
:1001000000000000000000000000000000000000EF
:1001100000000000000000000000000000000000DF
:10040000DFF80CD000F03CFA00480047A51E0000C1
:10041000802400200648804706480047FEE7FEE7A4
:10042000FEE7FEE7FEE7FEE7FEE7FEE7FEE7FEE7A4
:100430008D0D00000104000040EA01039B0703D07A
:1004400009E008C9121F08C0042AFAD203E011F813
:10045000013B00F8013B521EF9D27047D2B201E0D5
:1004600000F8012B491EFBD270470022F6E710B5B9
:1004700013460A4604461946FFF7F0FF204610BD12
:1004800030B50B46014600202022012409E021FA64
:1004900002F59D4205D303FA02F5491B04FA02F561
:1004A0002844151EA2F10102F1DC30BD2DE9F05FF8
:1004B0000546002092469B468846064681464024D3
:1004C0001BE0284641464746224600F0FAF95346CB
:1004D0005A46C01A914110D311461846224600F0E0
:1004E000E1F92D1A67EB01084F4622460120002151
:1004F00000F0D8F917EB00094E41201EA4F10104C9
:10050000DFDC484631462A464346BDE8F09F2DE9E8
:10051000FE4F804681EA0300C00F0C46009021F098
:10052000004123F00045B8EB0200A94105D2404646
:10053000214690461C460B46024623F000401043DD
:1005400047D0270DC7F30A00C3F30A510290401A9F
:10055000019040286BDAC3F3130040F4801B00982D
:10056000924620B10023D2EB030A63EB0B0B0198F8
:100570005946C0F14002504600F094F906460D4637
:1005800050465946019A00F0ACF910EB0800614161
:10059000002487EA115284EAE7731A4340D0009A94
:1005A00062B3019A012A4FEA075215DC001B61EB86
:1005B00002014FF0004202EA0752CDE90042001C5E
:1005C00041F5801132462B4600F0ACF903B0BDE88E
:1005D000F08F40462146F9E7001B61EB0201001C49
:1005E00041F5801300185B412018A2F5001747EB76
:1005F000030140EAD570B6196D4111E06D084FEA6C
:10060000360645EAC0754FEA0752001B61EB02014E
:10061000001C41F5801149084FEA30000019514192
:1006200032462B4603B0BDE8F04F00F06CB900989D
:10063000012240000023D0EB020263EBE07300983C
:1006400021464FEAE074B8EB000061EB0401E9E7F2
:1006500083F000435BE781F0004158E72DE9FE4F4E
:1006600081EA030404F0004421F0004100944FF0BB
:10067000000B23F0004350EA01045ED052EA030469
:100680005BD0C3F30A54C1F30A552C44A4F2F334EB
:100690000194A0FB0254C1F3130141F48011C3F390
:1006A000130343F4801301FB024400FB034E840A4E
:1006B000970A44EA815447EA8357A4FB07680295E6
:1006C0008D0A05FB07854FEA932C04FB0C54270584
:1006D000029D4FEA065847EA1637B5EB08056EEB60
:1006E000070C870E920E47EA811742EA8312A7FB96
:1006F0000201B6EB0B0164EB00042B0D43EA0C3353
:100700005E1844EB1C50DA465146E7FB0201C5F384
:1007100013044FEA0B3343EA14534FEA0432019CAB
:1007200043EA0603A4F10C040294009CCDE900B452
:1007300000F0F8F803B0BDE8F08F00200146F9E7BB
:100740002DE9F04D81EA030404F0004B21F000454F
:1007500014464FF0000A23F0004150EA050220D071
:1007600054EA01021DD0C5F30A570246C5F313032C
:10077000C1F31300C1F30A5640F4801543F480130B
:10078000A7EB0608101BD64608F2FD3873EB0500F0
:1007900002D308F1010801E092185B41B8F1000FA3
:1007A00003DA00200146BDE8F08D00204FF48011EF
:1007B000064684460EE0171B73EB050705D3121B94
:1007C00063EB050306434CEA010C49084FEA30008D
:1007D00092185B4150EA0107EDD152EA030012D0B2
:1007E00082EA040083EA0501084305D0101BAB41EF
:1007F00006D20122002306E000224FF0004302E06F
:100800006FF0010253101AEB06004CEB085110EB8D
:100810000A0041EB0B01BDE8F04D00F074B8C1F3E4
:100820000A52C1F3130140F2FF3341F480119A429E
:1008300002DA00200146704740F233439A42A2F2A6
:10084000334202DC524200F03CB800F02BB800000A
:1008500030B5041E71F1000404DB4FF00044404247
:1008600064EB0101141E73F1000405DB1C464FF01C
:100870000043524263EB0403994208BF904230BDEB
:10088000064C074D06E0E06840F0010394E80700DD
:1008900098471034AC42F6D3FFF7B6FDAC2D0000FC
:1008A000CC2D0000202A04DB203A00FA02F10020BF
:1008B00070479140C2F1200320FA03F3194390409E
:1008C0007047202A04DB203A21FA02F00021704709
:1008D00021FA02F3D040C2F12002914008431946A8
:1008E0007047202A06DBCB17203A41FA02F043EA90
:1008F000E07306E041FA02F3D040C2F120029140D9
:1009000008431946704710B5141E73F1000408DA45
:10091000401C41F1000192185B411A4301D120F0C3
:10092000010010BD2DE9F04D92469B4611B1B1FA80
:1009300081F202E0B0FA80F220329046FFF7B2FF77
:1009400004460F4640EA0A0041EA0B0153465A4664
:10095000084313D0114653EA010019D0C8F14002F0
:100960005046FFF7AEFF05460E46504659464246F2
:10097000FFF798FF084305D0012004E020463946E0
:10098000BDE8F08D0020054346EAE0762C4337436E
:100990000A986305E40AA0EB08000022FD0A44EA75
:1009A00047540A3002D500200146E9E70105101935
:1009B0006941DDE9084500196941BDE8F04DA2E74C
:1009C0002DE9F05F794C00272079DFF8E4813E467D
:1009D000012530B12671C8F82050022775A001F01A
:1009E00057FA607938B1667127B30327C8F8085001
:1009F00077A001F04DFA17B1384601F0AFFFD8F8F3
:100A00001801DFF8E4A130B3D8F80003400622D57E
:100A100076480068C0F3C800A0F10209744801F0EC
:100A200097FF9AF800105046302905D000785028DA
:100A30000AD00AE00127D9E7A76847B14B466A4ABE
:100A400002216069B84702E02570C8F81C50A67002
:100A500068A001F01DFAD8F81001E8B1D8F8000339
:100A6000C00619D56248083801F072FF1020C8F896
:100A700008035E4A143AC2F800A0111D0860C8F8C5
:100A80001C50A76827B100231A4603216069B847A4
:100A9000A6705EA001F0FCF9D8F8140148B15448E2
:100AA000001F01F055FFA07800B9A5705DA001F00E
:100AB000EFF9D8F80C0148B14D480C3801F048FF67
:100AC000A07800B9A5705DA001F0E2F9D8F84C015A
:100AD000DFF880B14FF00D0968B3D8F800030003C8
:100AE00029D54348343001F033FF414801F030FF4D
:100AF0003F48103001F02CFF3C491439C1F800A0E8
:100B00001020091D0860C8F81C504FF48860C8F810
:100B10000403CBF800904F490839C1F80090022037
:100B2000E060A76827B100231A4619466069B847F4
:100B300049A001F0ADF9D8F8280180B1D8F8000338
:100B400040050CD5DBF80070DA462948103001F07A
:100B5000FFFE394646A001F09BF9CAF80090D8F88C
:100B60001C0100281FD0D8F8000300061BD5DFF8B1
:100B7000E480A8F10808D8F800701D48001D01F0B5
:100B8000E7FEF80707D0207828B1C8F80050267093
:100B90003EA001F07DF937F0010102D043A001F041
:100BA00077F9C8F80090BDE8F09F00001800002019
:100BB000005000405B4E46435F48414C5D3A206622
:100BC00069656C6464657465637465640D0A00002E
:100BD0005B4E46435F48414C5D3A206669656C64F4
:100BE0006C6F73740D0A0000F3030020245500405D
:100BF000185100405B4E46435F48414C5D3A2072BD
:100C0000785F66656E640D0A000000005B4E464327
:100C10005F48414C5D3A2074785F66656E640D0AEA
:100C2000000000005B4E46435F48414C5D3A207235
:100C3000785F6673746172740D0A00005B4E464300
:100C40005F48414C5D3A2074785F667374617274DA
:100C50000D0A00000C5400405B4E46435F48414C77
:100C60005D3A2073656C65637465640D0A0000006D
:100C70005B4E46435F48414C5D3A20727865727224
:100C80006F72202830782578290D0A005B4E464384
:100C90005F48414C5D3A206572726F722028534C58
:100CA000505F524551290D0A000000005B4E46433B
:100CB0005F48414C5D3A206572726F72202830782F
:100CC0002578290D0A00000000F01F020121914043
:100CD0004009800000F1E020C0F88012704700F069
:100CE0001F02012191404009800000F1E020C0F87E
:100CF0000011704700F01F0201219140400980005F
:100D000000F1E020C0F8001270474907090E0028E2
:100D100006DA00F00F0000F1E02080F8141D7047A3
:100D200000F1E02080F80014704700002DE9F04148
:100D30004FF48077384601F087FB0124124EA50757
:100D400050B1384601F087FB0120C5F808037472E2
:100D50000021301D00F0CAFE4FF48277384601F0C2
:100D600073FB00280DD0384601F075FB0220C5F852
:100D70000803B472BDE8F04103480121103000F0CF
:100D8000B5BEBDE8F0810000B401002070B58D480B
:100D90000023021D0178101D0124062907D11578B2
:100DA0002D0704D10578C5F30315032D02D00629BC
:100DB00004D00FE0854E844D75670EE015782D0741
:100DC00008D10578C5F30315032D06D0042D04D0F2
:100DD000052D02D0062909D010E04FF08055D5F836
:100DE00044527B4EC5F34235356002E015782D073D
:100DF00004D10578C5F30315032D02D0062906D0CA
:100E000011E0744D2E6826F080762E600EE0157885
:100E10002D0708D10578C5F30315032D06D0042D41
:100E200004D0052D02D006290AD011E04FF08045EC
:100E3000C5F80C31C5F81031654D2D1F2B6002E04F
:100E400015782D0704D10578C5F30315032D02D0BD
:100E5000062905D00CE05E4A0321643211600AE0E5
:100E600015782D0704D10578C5F30315032D02D09D
:100E700006290DD06AE0584A05211160564978319B
:100E80000C60554908310B603F21121D116002E0D2
:100E9000117809075AD10078C0F30310052855D1FD
:100EA0004E4800684E4908604C48001D0068091D06
:100EB00008604A4808300068091D086047480C303F
:100EC0000068091D0860454810300068091D086069
:100ED000424814300068091D086040481830006816
:100EE0003F49203108603D481C300068091D0860FA
:100EF0003A4820300068091D0860384824300068EE
:100F0000091D0860354828300068091D086033480D
:100F10002C300068091D08603048303000683049C6
:100F2000403108602D4834300068091D08602B48A6
:100F300038300068091D086028483C300068091DE9
:100F40000860264840300068091D08602148743850
:100F5000016841F470010160BFF34F8FBFF36F8FE1
:100F60004FF01021D1F80002002803DBD1F8040271
:100F7000002822DA1B4A14601B480468002CFCD0AD
:100F80001524C1F800420568002DFCD0C1F80442C8
:100F900001680029FCD0136001680029FCD0BFF370
:100FA0004F8F0C48F0380168104A01F4E06111439A
:100FB0000160BFF34F8F00BFFDE70E490C4808608A
:100FC00070BD0000E00F00F00DF0ADBA00C00740AA
:100FD0003C050040FCED00E0105600400404001009
:100FE00020C5004004E5014000E401400400FA058A
:100FF0000090D0036000002010B500F02FFE0249E1
:101000000020C1F8400110BD00B001400348007F3E
:1010100008B101F02BBE01F0A5BD0000C801002001
:10102000014B024A00F0C6B82D1B0000140000203E
:1010300002E008C8121F08C1002AFAD170477047A1
:10104000002001E001C1121F002AFBD170470000FF
:101050002DE9FF5FDDE90220010DDDF838B0024324
:1010600018D044F61050A1F2FF3141430D140F98EF
:10107000012820D0A5EB0B00401C5FEA000A4FF0CE
:101080000004474EDFF81C91A046504616D5CAF121
:10109000000728E00F98012443A2012808D000216E
:1010A00000980F9BC0E90021C0E90243BDE8FF9F03
:1010B0006FEA0B01F4E7CBF10000DEE7074612E030
:1010C000F80707D02246334640464946FFF7C6FA9E
:1010D000804689462246334610461946FFF7BEFA37
:1010E00004460E467F10002FEAD1DDE90201BAF175
:1010F000000F42464B4602DAFFF7B0FA01E0FFF775
:101100001FFB04460E460022284BFFF7A1FB03D825
:101110004FF0FF30014607E00022254B20463146C4
:10112000FFF7F5F9FFF77BFB102409E0002C0ADB41
:101130000A220023FFF7BAF9019B30321A55641EC8
:1011400050EA0102F2D1641C019AC4F11103144463
:101150000F9A012A03D0012208430DD10AE0084367
:1011600004D000204FF0110B0F9080E7A3EB0B058C
:101170006D1E0DE05B4504DD4FF0000205F1010539
:1011800004E003DA4FF00002A5F10105002AECD0DB
:1011900000980F99C0E90231C0E9004586E70000D8
:1011A000000024400000F03F300000000000F04349
:1011B0000000E03F2DE9FF4F95B09B46894606466B
:1011C00000250FE2252877D100242746F84A01217F
:1011D000059400E0044316F8013F203B01FA03F0B8
:1011E0001042F7D130782A2811D06FF02F033078D1
:1011F000A0F13002092A16D8059A44F0020402EB45
:10120000820203EB42021044761C0590EFE759F886
:10121000042B0592002A03DA504244F4005405904E
:1012200044F00204761C30782E2816D116F8010FEF
:1012300044F004042A280DD06FF02F023078A0F17A
:101240003003092B09D807EB870302EB4303C718C8
:10125000761CF3E759F8047B761C30786C280FD0A5
:1012600006DC4C2817D068280DD06A2814D104E079
:10127000742810D07A280FD10DE044F400140AE04D
:1012800044F4801401E044F440147278824202D1A4
:1012900004F58014761C761C307866280BD013DC9D
:1012A000582877D009DC002875D04528F6D0462884
:1012B000F4D047281AD19DE118E0632835D064287E
:1012C00079D0652812D195E1702873D008DC6728A1
:1012D000F1D069286FD06E280DD06F2806D1B5E007
:1012E00073282CD0752875D0782874D05A46179951
:1012F00090476D1C75E1C4F30250022809D0032801
:101300000DD0D9F8001004280DD00D6009F10409A2
:1013100067E1D9F80010EA17C1E90052F6E7D9F8F9
:1013200000100D80F2E70D70F0E719F8041B8DF83E
:10133000001000208DF80100EA46012003E059F872
:1013400004AB4FF0FF3061074FF0000102D40DE015
:1013500008F101018846B9420FDA8045F8DB1AF836
:1013600008100029F4D108E008F101018846814203
:10137000FADB1AF808100029F6D105985B46A0EBB5
:10138000080721463846179A00F094FA284400EBE3
:10139000080507E04DE029E10DE01AF8010B5A4677
:1013A00017999047B8F10108F7D25B4621463846B5
:1013B000179A13E142E00A220092C4F302524FF05E
:1013C000000A022A08D059F804CB032A4FEAEC712C
:1013D0000AD00DE029E02AE009F1070121F0070217
:1013E000F2E802C1914609E00FFA8CFC4FEAEC7179
:1013F000042A03D14FFA8CFC4FEAEC71002907DA7A
:101400000A460021DCF1000C61EB02012D2202E012
:10141000220504D52B228DF80420012203E0E207E7
:1014200001D02022F7E7904659E00A2102E010227D
:101430000DE010214FF0000A00910BE010224FF058
:10144000000A44F004040827009203E008224FF049
:10145000000A0092C4F30252022A05D059F804CBC4
:101460000021032A08D009E009F1070121F0070251
:10147000F2E802C1914605E01FFA8CFC042A01D172
:101480000CF0FF0C4FF00008220728D5702806D07A
:10149000009B83F0100353EA0A0305D00EE04022BC
:1014A0008DF80420012208E05CEA010206D0302217
:1014B0008DF804208DF8050002229046009B83F0F1
:1014C000080353EA0A030AD15CEA010201D1620768
:1014D00005D530228DF804204FF001087F1E5828D2
:1014E00004D034A003900EA802900DE036A0F9E7D6
:1014F00053466046009AFEF7D9FF84460398825C03
:101500000298401E029002705CEA0100F0D102983D
:1015100006A9081A00F1200A600702D524F48034D5
:1015200000E00127574502DDA7EB0A0000E000209C
:1015300000EB0A01009005984144401A0590E00331
:1015400006D45B462146179A059800F0B3F9054486
:10155000002706E001A85A46C05D179990476D1C08
:101560007F1C4745F6DBE0030CD55B462146179A06
:10157000059800F09FF9054404E030205A46179979
:1015800090476D1C0099481E00900029F5DC08E08A
:10159000029802995A460078491C0291179990477F
:1015A0006D1CBAF10001AAF1010AF1DC65E100004D
:1015B0000928010030313233343536373839616229
:1015C00063646566000000003031323334353637ED
:1015D00038394142434445460000000000F058F9C4
:1015E0000544761C307800287FF4ECAD19B028460D
:1015F000BDE8F08F620700D4062709F1070222F048
:10160000070CFCE80223E14603F000485FEA080CFF
:1016100002D00FF2702C0DE05FEA045C02D50FF2ED
:10162000682C07E05FEAC47C02D00FF2602C01E076
:10163000AFF2700C4FF0FF3823F00043CDF850C0EC
:1016400065280CD006DC452809D046281DD047283F
:101650003DD13DE0662818D067287ED138E00021D2
:10166000112F01DB112000E0781CCDE9000106A953
:101670000EA8FFF7EDFCDDE90F010E9A03910021A2
:10168000009207F1010A04914DE04FF000400097ED
:10169000CDE9011006A90EA8FFF7DAFCDDE90F027B
:1016A00003920E9B11990022DDF80CA00093049286
:1016B00011B9791C00EB010AB7EB0A0004D4C0F1A0
:1016C000FF3007F1010A0490AAEB0700019044E003
:1016D000012F00DA01270021112F01DD112000E088
:1016E0003846CDE9000106A90EA8FFF7B1FCDDE9F7
:1016F0000F010E9A0391002104910092BA4621072E
:101700000CD40399514500DA8A46BAF1010F05DD80
:10171000009AAAF10101515C302908D0B84202DADE
:1017200010F1040F06DA0121CDE9011015E0AAF14C
:101730000101E9E7002805DC049901440491AAEBC2
:10174000000102E0411C514500DD8A460499401A1F
:10175000401C01904FF000400290200704D40198F3
:10176000504501DBCDF8048000208DF84F00029831
:101770000DF14F07B0F1004F25D02B200E900298AD
:101780004FF0020800280CDA404202902D200E9003
:1017900007E00A210298FEF773FE3031029007F845
:1017A000011DB8F10001A8F10108F2DC029800283F
:1017B000EFD1791E0E980870307800F0200040F0CC
:1017C000450007F8020D12A8C01B00F10708149885
:1017D000007800B1012000EB0A01019801EBE071F3
:1017E00005984144401A401E0590E00306D45B462C
:1017F0002146179A059800F05DF805441498007882
:1018000018B15A46179990476D1CE00324D55B46E2
:101810002146179A059800F04DF805441CE00498FD
:10182000002807DBDDE90301884203DD0098405C06
:10183000179901E0179930205A469047049805F10E
:101840000105401C04900198401E019004D12E20F7
:101850005A46179990476D1CBAF10001AAF1010A86
:10186000DDDC05E017F8010B5A46179990476D1C0F
:10187000B8F10001A8F10108F4DC5B462146179A93
:101880000598ABE62D0000002B00000020000000B2
:101890002DE9F041044600251E461746880404D46D
:1018A00005E039462020B0476D1C641EF9D5284656
:1018B000BDE8F0812DE9F041044600251E46904622
:1018C000C80301D5302700E02027880404D505E0AF
:1018D00041463846B0476D1C641EF9D52846BDE820
:1018E000F0810000BFF34F8F05480168054A01F4FD
:1018F000E06111430160BFF34F8F00BFFDE70000BF
:101900000CED00E00400FA050EB500210091CDE9D0
:1019100001106A4644F20100FFF7E4FF0EBD10B566
:101920008268C368934203D000F0EDF8002010BD38
:10193000052010BD29B112B1531E134203D0092056
:1019400070470E2070470160838000218160C16074
:101950000846704710B58268C3689A1A83889A420D
:1019600003D800F0DAF8002010BD042010BD0000FC
:1019700070B50446234888B01E460D00426035D03D
:10198000A888296882B22048FFF7D4FF00282ED10A
:10199000A889A96882B21C481030FFF7CBFF002845
:1019A00025D1202219496846FEF746FDA068069019
:1019B000207900B101208DF814008DF81C60607949
:1019C00000B10E208DF81500E0780290A078039009
:1019D00020780190607800900D49684600F0C6FDBF
:1019E000002804D19DF81D0018B104E0072008B0BC
:1019F00070BD00F04BFE03480121401C00F000FECA
:101A0000F5E700000000002094010020542D0000A4
:101A1000BD2A000010B501460948FFF79BFF0400EE
:101A20000CD100F061FF48B906490548FFF777FF80
:101A300020B90121034800F0CFFE0446204610BD26
:101A4000A40100200000002000F002B800F008B857
:101A500072B602480168491C016070470800002006
:101A600003490868401E086000D162B67047000054
:101A7000080000202DE9F04104460078184F0126A7
:101A800006FA00F03860206800F050FF002160681E
:101A900000F043FF1348144D007FA069C5F82405EA
:101AA000607D217D0843C5F86C05D4E90001C5F8C7
:101AB0000C05C5F81415207D01280FD10021A06860
:101AC00000F02BFF207B86403E60E06800F02EFF98
:101AD000D4E90201C5F80815C5F81005BDE8F08184
:101AE00008050050C80100200020004070B50D46D8
:101AF00004462068002805D0016821604168284616
:101B00008847F6E770BD826883881A4003689A5C4C
:101B10000A708168491C81607047C26883881A40D6
:101B200003689954C168491CC160704710B50446E8
:101B3000C0B2FFF76FFF204610BD000070B5254C06
:101B4000A0421ED1F1B1012936D0022928D00329A3
:101B500017D1072000F01EFA002812D194F868006F
:101B600094F8691088420CD194F86A00002808D1D2
:101B70000023D4E901501A460321A847012084F824
:101B80006A0070BD052000F005FA0028F9D1A068B0
:101B900064680023A446BDE870401A4601216047EE
:101BA00010461900EDD00028EBD00278302AE8D199
:101BB000BDE8704000F00EBA082000F0EBF928B93B
:101BC000A068002364681A460221A047BDE870405F
:101BD00000F09ABA10040020F0B51C490B68091DEA
:101BE00009681C4A1A4CC2F804432824C2F804436A
:101BF000DAB2C3F30724C3F30743027082EA040591
:101C000083F08806447075408370C57001710D0AB9
:101C10000E0C45710F0E867169407E40C771714090
:101C200001720321417211040B4A41EA0421194354
:101C300011604168C07909BA21F0FF010143101F0A
:101C40000160054944200C310860F0BD50040010CB
:101C500080000800005000409455004078B41648B9
:101C6000002202600260144834300068012300F052
:101C7000030412480146C5780969491C4DB1BCB935
:101C80000161072915D90261437141790091C27040
:101C90000AE014F0010F0BD00161072909D9026194
:101CA000037101790091C37078BC0520FFF722B859
:101CB000026178BC70470000085400401800002002
:101CC00070B50C00054616D00C4800F041FE0C48DB
:101CD00005600B4940F6FF700C3100EAC400086053
:101CE00008481021C0F804130121C16006A000F0CB
:101CF000CFF8002070BD022070BD000010510040E0
:101D000010550040005000405B4E46435F48414C38
:101D10005D3A2073656E640D0A000000FEB5234A2B
:101D2000516190606846FFF757FF0A21684600F04E
:101D30000FFA1E481E4918300025C0E9005100F076
:101D4000DFFB1C490646052008603F20091D08608E
:101D50000124081D046017487830046016480560A7
:101D6000001D0460144904200C31086012496420ED
:101D70003C310860114DC5F800422004C5F8040349
:101D80001B20FEF7A1FF06211B20FEF7BEFF1B2034
:101D9000FEF7A5FF2C600AA000F07AF81EB1852E90
:101DA00001D00120FEBD0020FEBD00001800002073
:101DB000412900001056004004B5014000B0014028
:101DC0005B4E46435F48414C5D3A20696E697469D9
:101DD000616C697A650D0A000A4910B50D2008602A
:101DE0000520FEF771FF06210520FEF78EFF052076
:101DF000FEF775FF04490120886004A000F048F850
:101E0000002010BD04540040005000405B4E46438B
:101E10005F48414C5D3A2073746172740D0A000092
:101E2000044910B501200860012000F01DFB0028C6
:101E3000FAD110BD0400004002680A60002A016067
:101E40007047000030B50E4C87B0207810B10020EC
:101E500007B030BD0B4A04AB012507CA83E8070071
:101E600007480623401CCDE9000507480290680298
:101E70000390064A694604A8FFF77AFD2570E7E754
:101E80000C000020942D0000E8010020A92A000089
:101E90000FB410B503A90298FFF7C2F810BC5DF8A3
:101EA00014FB00001CB5FFF7CDFF08B1FFF72CFDB8
:101EB000002001225FF0030102FA00F39B0304D526
:101EC000830003F1A043C3F80017401C2028F3D37C
:101ED00014494FF4003008600020091D08600146D5
:101EE000114800F06DF908B1FFF70EFD4FF4807056
:101EF000019001A800900D4B0E220D49012000F029
:101F000061FA08B1FFF700FD0848019900F038F9BF
:101F100008B1FFF7F9FC00F07FF908B1FFF7F4FC16
:101F2000FEE7000008050050912200009400002008
:101F3000442D000010B51C46934200D91446224699
:101F4000FEF77AFA204610BD10B51C46934200D920
:101F500014460A462146FEF781FA204610BD0000CD
:101F60000B4900F1100213464A610A6913448B6160
:101F700028B14FF47C73CB614FF4806301E0002300
:101F8000CB61C01C104480080B6281F86900704767
:101F90001004002070B50D4D0D4A00212C7800BFB3
:101FA00001EB4103D65CA6420AD113445B7883421D
:101FB00006D101EB4100104480782870002070BDEC
:101FC000491C0F29ECD3022070BD00001004002032
:101FD0006400002070B50446022920D10620FFF7D6
:101FE000D9FF00281BD10E4964784B69A200204616
:101FF000934208D88D69103D954204D3C968C3EB5C
:102000008400084403E000F017F805483830102138
:10201000FFF756FE2046BDE8704000F00BB970BDDA
:1020200010040020034902684A6242688A620089FB
:1020300088857047100400202DE9F041264F840068
:10204000102529463846FEF710FAA7F138067069C0
:10205000A0420BD9021B31192B4638462431FFF719
:1020600069FFD0F110050444074432D0B069A042A2
:102070000CD970693169201A0A1AF1682B4601449B
:102080003846FFF757FF2D1A04440744002D20D08F
:10209000F069A04209D9021B2B4600213846FFF700
:1020A00053FF2D1A0444074413D0306AA04208D9C4
:1020B000021B2B46FF213846FFF746FF2D1A074427
:1020C00007D02B463846BDE8F0411A460021FFF7FD
:1020D0003BBFBDE8F08100004804002070B50C460D
:1020E0000546914201D9032070BD0120FFF752FF40
:1020F00008B1022070BD05B900240248C0E90354AC
:10210000002070BD1004002070B5002103230A4692
:102110000C460E4801260CE006FA03F50D43E9B221
:102120005B1E05D5831883F8481007230021521C35
:10213000641C90F86950A542EEDC024482F8481015
:10214000002100F8681F817070BD0000100400209D
:1021500010B5040003D00A2901D0032010BD0320CC
:10216000FFF718FF08B1022010BD2CB14FEA0400A0
:10217000FFF758FF002010BD0048F9E7A12D00002F
:1021800010B54FF47772FFF7A9FF040013D10B4885
:102190000322016900F8342FFE2902D84170022081
:1021A00005E0FF2242700A0A8270C1700420FFF726
:1021B000D7FEFFF7A9FF204610BD00001004002045
:1021C00070B50E46050005D00020FFF7E3FE18B1FC
:1021D000022070BD042070BD0C4C0D48C4E90156AE
:1021E0001434FFF71FFFFF20A076E076E120207770
:1021F000112060777C20A0770F20E0770349054805
:10220000FFF78CFD0028E6D0012070BD10040020EF
:10221000A12D00003D1B000010B50420FFF7BAFE01
:1022200008B1022010BDFFF7D7FD0028FAD0012029
:1022300010BD0000F0B5C208514200EBC1010024FE
:10224000124BC1F107010125042813D305FA01F649
:1022500003EB020CF7B29CF848603E4204D0BE4348
:102260008CF848602E4600E0002693F868703E44E3
:1022700083F86860491E01D50721521C401C10F0EC
:10228000FF0002D0641C042CDEDBF0BD1004002033
:1022900010B5074B00201C1F4FF40032012904D059
:1022A000022901D12260186010BD1A60206010BDA3
:1022B0000C0500500021816070472DE9F84300258E
:1022C0009046894607462C4606681CE024B1611CEE
:1022D000884207D1402106E0012801D0802102E098
:1022E000C02100E00021D8F800006B46401B0090A0
:1022F0004A46306800F01DF800280AD10098641C96
:1023000005448144361DB868A042DFD80020C8F8D3
:102310000050BDE8F883D0E901329A4201D304208D
:102320007047036843F822108168491C81600020CF
:1023300070472DE9F84304461F464078237AC618B3
:10234000B61D00B1761C31F0C00002D00720BDE8F8
:10235000F8833868B04201D20420F8E71170207881
:10236000551C01431170207A05F8010BA8466078CE
:102370002D1D28B105F8010B107840F008001070F1
:10238000227A2846E168FEF757F8207A62780544F9
:102390002AB128466168FEF74FF86078054438682E
:1023A0006A46801B0090D4E90430294698470028EB
:1023B000CDD1009801BAC8F80010009830443860B8
:1023C0000020C4E72DE9F04107461E460C4615469D
:1023D0000D48DDF81880FFF76DFF8CB12A462146C5
:1023E000384600F027F801460748FFF794FF002819
:1023F00007D142463146BDE8F0410348FFF75DBFD3
:102400000720BDE8F08100003C00002010B5037AF1
:102410001468A34201D3042010BD5B1C1360027832
:1024200001F8012B0B46027A41681846FEF704F8C2
:10243000002010BD024B187059601A720148704795
:10244000040400204800002000F1804000680028BB
:1024500000D00120704708B500F1804000210160E4
:102460000068009008BD00000549096840F480300C
:1024700001F00111814201D1012070470020704715
:102480000C04004010B50020FFF7DEFA074C20686E
:10249000401E2060206820B9FFF7C2FC0020607257
:1024A0006060BDE810400020FFF7D0BAB401002002
:1024B00070B504460020FFF7C7FA104D687A20B1C6
:1024C0009CB16168002088470FE01CB12146281D9F
:1024D000FFF7B2FC286840B94FF48070FFF7BBFFEC
:1024E00001208107C1F8040308602868401C2860A7
:1024F000BDE870400020FFF7A9BA0000B401002039
:1025000070B50A4C207A08B1852070BD0025656041
:102510002560074825610126E560066006212846FA
:1025200000F008F82672284670BD0000B4010020B3
:10253000180500404907090E002806DA00F00F02CE
:1025400002F1E02282F8141D03E000F1E02282F89B
:10255000001400F01F02012191404009800000F1A9
:10256000E020C0F88012C0F8001170472DE9F0415A
:102570001E4C07460D46E07E10B10820BDE8F081F4
:1025800007B91B4F787F20773846FFF773FA6560ED
:10259000386920602800174E4FF0000516D0397FAB
:1025A000207F48B1C6F81051C6F82051C6F8245112
:1025B000C6F84451104804E0C6F81C51C6F844510E
:1025C0000E48C6F804030220FFF7B4FF207F08B1CD
:1025D000082000E00420C6F80005E5752576A575FD
:1025E0000120E076A5760020C8E70000C8010020A1
:1025F000742D000000200040100302008000020043
:102600002DE9F0411F4B1C7F3CB14FF40052B2EB5F
:10261000104F02D01020BDE8F081D3F804C0002292
:10262000194D4FF404764FF40177BCF1000F05D03B
:1026300014B1C5F8086301E0C5F8087393F817E012
:10264000BEF1000F10D01A7E52B1BCF1000F05D0C0
:1026500014B1C5F8046301E0C5F804731120DAE78A
:1026600018610122197604E0D9750025D8605D76DD
:102670001D761CB1BDE8F04100F066B8BDE8F04140
:1026800000F014B8C80100200020004010B5064C2E
:10269000207F002806D1A07E002803D100F0D4F9C5
:1026A0000120A07610BD0000C80100202DE9F05FD8
:1026B000234DA87E104301D100F0C6F9214C686873
:1026C00030B14FF40170C4F804030020BDE8F09F5E
:1026D0004FF000094FF4A27AC4F844914FF4927B72
:1026E000A8465946204600F077F905464FF4847114
:1026F000204600F071F907465146204600F06CF97B
:10270000064647EA06012943EBD055EA060007D101
:1027100000F072F998F8171098F819008142E0D883
:1027200088F817900DB10320D0E70EB10F20CDE748
:1027300098F81A10012009B12060C6E76060C4E76C
:10274000C8010020002000402DE9F05F204C002649
:102750004FF48873C4F810614FF4A275C4F8446153
:10276000C4F83405C4F838158AB1D4F8000240F032
:102770002000C4F80002DFF85C80D8F8040048B1FB
:102780004FF40470C4F804030020BDE8F09F01205A
:102790002060F0E79A46A9464FF4927B51462046C6
:1027A00000F025F905464946204600F020F9074685
:1027B0005946204600F01BF93D430543EED088F80A
:1027C000176008B10320E0E7002FDDD00F20DCE721
:1027D00000200040C80100202DE9F047204D0246AE
:1027E000287F38B14FF40050B0EB124F02D01020C8
:1027F000BDE8F08700F078F808B11120F8E7A97576
:102800000023AA60AB82287F28B3164C00264FF421
:1028100090709846C4F820314FF4AC73C4F85881D6
:10282000C4F84425C4F848150121A160696881B93C
:10283000824699465146204600F0D9F80746494657
:10284000204600F0D4F80743F4D000B10F2685F8F5
:1028500016803046CCE7BDE8F04700F005B8000030
:10286000C8010020002000402DE9F05F1C4F00252A
:102870004FF48E7A2E46C7F81C514FF00108C7F866
:10288000088000F0EDF8174CB815616879B123E0C5
:102890005F465146484600F09FF810B9A08AB842FA
:1028A000F7D1A08AB84204D000F0DAF801E08346FC
:1028B000B946A08AA17D8842EAD3A08A584501D1B1
:1028C0000F2508E04F465146384600F085F80028AD
:1028D000F9D0C7F80C80A6752846BDE8F09F000027
:1028E00000200040C80100200248807D002800D060
:1028F00001207047C801002030B541EA4201DDE9FE
:10290000034541EA8301800041EA042100F1A0402F
:1029100041EA0541C0F8001730BD1CB500220B4646
:10292000009211460192FFF7E7FF1CBD1CB5002184
:1029300000910B46012201911146FFF7DDFF1CBDFE
:10294000002802D101490120086070470050004072
:1029500008B5002101600068009008BDF1B59DF840
:1029600000000125194C03280AD119480068E168C4
:10297000084203D002208DF8000001E08DF80050DD
:102980009DF80000012809D0022806D1607818B906
:102990000E481830FFF78CFD6570F8BD0D4EB56020
:1029A000FFF770FD002060704FF48860C6F80803E0
:1029B000E560A568002DF0D0606901B0AC46BDE8C7
:1029C000F04000231A460121604700001800002053
:1029D0003C540040005000404058002800D00120E6
:1029E0007047D0F80403084000D0012070474058D9
:1029F000002800D00120704709480A490022C37D01
:102A0000C1F8082143B1D1F81815437EC268D154EA
:102A1000417E491C41767047D1F818057047000087
:102A2000C8010020002000401FB501228DF80800D9
:102A300004488DF800200191D0E9001268469047C3
:102A40001FBD0000C801002004480021C0F8241167
:102A5000C0F808110121016070470000002000400B
:102A6000064A0020C2F81C010548838A8168C95CB7
:102A7000838A5B1C8382C2F81C15704700200040CB
:102A8000C80100201FB500218DF8080005488DF809
:102A90000010826801928175D0E900126846904763
:102AA0001FBD0000C80100200178022901D00129C2
:102AB00002D14068FEF728BF704700007CB501785E
:102AC000264D012909D002292CD0002929D12946D7
:102AD0002348FEF724FF80B334E0406801782048A3
:102AE0001038FEF737FF1E4C103C20B101218DF845
:102AF0000010019007E0A068E168081A012805D1DC
:102B000000208DF80000696868468847A068E16881
:102B1000081AA188884204D810480121401CFFF7F8
:102B20006FFD7CBD02218DF80010C06801900B483C
:102B30000121401CFFF764FD0CE0FFE7012107487D
:102B4000FFF74AFE06488168C0688842E9D1032041
:102B50008DF800006968684688477CBD0000002049
:102B6000A40100202DE9FF413E4D4FF4007128469D
:102B7000FFF737FF01273C4C4FF40178002600B3E4
:102B80004FF492712846FFF727FFD0B1C5F82461B2
:102B9000C5F80883A07E00B96F6002208DF80000A0
:102BA000D5F88004C5F880040390E07D8DF8080016
:102BB000E0680190E6752676D4E9001268469047F1
:102BC00024E004212846FFF70CFFF8B14FF484718C
:102BD0002846FFF701FFC8B1FFF70EFFE07D617ED9
:102BE000884213D1227E3AB1607EE168E2752269A3
:102BF000E2602676667607E0A07E00B96F60C5F8D1
:102C00000883E675607EE168FFF70EFF4FF48E7172
:102C10002846FFF7E1FE58B1A18AA07D814202D289
:102C2000FFF71EFF04E0C5F81C6108B1FFF72AFF9B
:102C30004FF4A2712846FFF7CFFE00280FD0C5F849
:102C40004461A07E00B12F60E07D002807D0E675CA
:102C5000607EE16804B0BDE8F041FFF7E5BEBDE885
:102C6000FF81000000200040C80100207FB5334CE8
:102C70004FF492712046FFF7BAFE314D0026B0B1F5
:102C8000C4F8246102208DF80000D4F88004C4F850
:102C900080040390D4F83C058DF80800E8680190A2
:102CA000EE752E76D5E90012684690471FE04FF486
:102CB00088712046FFF79BFEC8B1C4F81061D4F8B4
:102CC0003C05E97DC0B2814211D12A7E5AB1E96842
:102CD000D4F8003223F02003C4F80032EA752A69E0
:102CE000EA602E7601E0EE75E968FFF79DFE4FF48D
:102CF000A2712046FFF77BFE50B1C4F84461E87D25
:102D000030B1EE75D4F83C05E968C0B2FFF78CFE2F
:102D10004FF490712046FFF76AFE00280CD0C4F8EB
:102D20002061A87D002807D0D4F84C0504B0C0B2BB
:102D3000BDE87040FFF7A6BE7FBD00000020004048
:102D4000C80100206E6F7264696373656D692E63DC
:102D50006F6D000006000000080000000700000082
:102D60000500000000000000000000000000D60187
:102D70000600000006000000080000000700000038
:102D80000500000000000000000000000000D60167
:102D900006000000080605070100000000E0D7015A
:102DA000550001020304050607080900CC2D0000A8
:102DB000000000209400000030100000602E000091
:102DC00094000020EC2300004010000000000000F0
:102DD00000000000000000000000000000000000F3
:102DE00000000000000000000000000000000000E3
:102DF00001000000000000000000000000000000D2
:102E00000000000000000000380000200100000069
:102E100000000000010000000000000001000000B0
:102E2000A02D00000D240000040400200090D00319
:102E30000406050408030409020507040508030540
:102E40000902030504030902000001010301010155
:102E500002020403020A0002010202090200000049
:0400000500000401F2
:00000001FF
