:020000040000FA
:10000000A0080020F50000000F0100001101000011
:1000100000000000000000000000000000000000E0
:1000200000000000000000000000000013010000BC
:100030000000000000000000150100001701000092
:100040001901000019010000190100001901000048
:100050001901000000000000A101000019010000CA
:10006000850300009D030000190100001901000034
:100070001901000019010000190100001901000018
:100080001901000019010000190100001901000008
:1000900019010000190100001901000019010000F8
:1000A000190100001901000000000000000000001C
:1000B0000000000000000000000000000000000040
:1000C0000348854600F05AF80048004791090000AF
:1000D000A0080020401E00BF00BF00BF00BF00BF3F
:1000E00000BF00BF00BF00BF00BF00BF00BFF1D115
:1000F000704700000321094802680A43026008486B
:1001000002680A4302600748804707480047FEE745
:10011000FEE7FEE7FEE7FEE7FEE7000024050040FD
:1001200054050040E5020000C100000030B50B4658
:10013000014600202022012409E00D46D5409D42C1
:1001400005D31D469540491B254695404019154647
:10015000521E002DF1DC30BD03460B439B0703D03C
:1001600009E008C9121F08C0042AFAD203E00B787C
:100170000370401C491C521EF9D27047064C0125E1
:10018000064E05E0E36807CC2B430C3C984710343F
:10019000B442F7D3FFF798FF6C1600008C160000EE
:1001A000F0B50025FF2489B0013401262F460195C2
:1001B000204600F0D1FF002808D043484068304274
:1001C00004D042480021201835430160241D7600E8
:1001D0007F1CA4B2042FEBD3FF207D3000F0BCFFC6
:1001E000002807D03A4800210160400705433948FC
:1001F00000690190384C280712D0012700262F42B1
:100200000AD03648B200111808690969C004C00E46
:100210008903A258890F90477F00761C042EEED3E5
:10022000002D2FDA0020421E264620360590307D14
:1002300000278506AD0E41B2491C23D00121A940FB
:10024000114200911ED080090390284600F026FB41
:10025000800020580490002802D10398032811D16F
:1002600003980099032802D10598084305901C4A79
:10027000A80080180068019A8003800F114203D003
:10028000022803D009B0F0BD0328FBD1039903294C
:1002900006D1022815D00221284600F04DFF012783
:1002A0000498002803D0049A284603999047002F09
:1002B000E8D00848006901998842E3D00190059A86
:1002C000B5E70321E8E7000000630040006000405C
:1002D0007C61004000050050500000200065004097
:1002E0000007005010B500F027FB002805D01F497B
:1002F0001D484860C8131E4988611E48018CC9B258
:1003000001290BD1828C120708D1028D1206120F1F
:10031000042A03D1828D1206120F0AD0012921D19D
:10032000818C09071ED1018D0906090F0A2904D005
:1003300007E0114A01219160F5E7828D1206120F44
:1003400005D00D290ED1808D0006000F0AD10B4873
:100350000168012904D00A49016001680129FCD122
:10036000C021416110BD0000DFFF07C00005004053
:10037000006C0040C00F00F00006004000EC06409A
:100380007593000010B504220249034800F08EFA6C
:1003900010BD0000880000200080004010B504223D
:1003A0000249034800F082FA10BD000094000020CA
:1003B0000090004002E008C8121F08C1002AFAD1CC
:1003C00070477047002001E001C1121F002AFBD1D5
:1003D00070470000BFF34F8F04490348C860BFF364
:1003E0004F8F00BFFDE700000400FA0500ED00E0BC
:1003F0000EB50021029000916A4601910148FFF775
:10040000E9FF0EBD0140000070B5054640680C4E86
:100410000179715C0124FF290ED0FE290DD000F076
:1004200079FD0146686833460079820008339A589E
:10043000914202D1FF2131540024204670BD0000BA
:100440000C00002070B5044600680D46008B642146
:1004500080B25043FFF76AFE82B22946204600F080
:1004600001F870BDF7B50546046801980C214843B2
:1004700007192320005D1646022801D00820FEBD82
:100480007868B04206D1E169002945D068680079F2
:10049000884741E02846FFF7B7FF002801D0112028
:1004A000FEBD69681D4A0979FE205054796800290B
:1004B00002D0A069814210D3002E02D0A069B042C0
:1004C00005D832462846019900F000FF14E0324674
:1004D0002846019900F034FF0EE0002E01D0B04212
:1004E00005D832462846019900F0B2FF04E03246B2
:1004F0002846019901F030F82868C06900280BD01F
:100500006868064A007902214000921C821801980E
:100510001154686800F034FD0020FEBD0C0000207E
:10052000FFB581B006460768029D0C204543232095
:10053000C05DEC19002802D0082005B0F0BD0020F5
:1005400060600498A0722C480068009028463168CA
:100550000A30085C002808D00020694648700398DB
:1005600000F0CEFA002816D101E00120F5E703984B
:1005700078510127039938468840049A1F49002A78
:1005800001D0C86000E0886000256019083000F0E4
:100590005DFB002801D00420CFE76D1CEDB2022DD9
:1005A000F3D3207A00F0A0FB607A00F09DFB206876
:1005B00000F0F2FA05467068029900F0D1FC01469D
:1005C000207A2A4600F070FB206800F0E5FA054624
:1005D0000221706800F0C4FC0146607A2A4600F0EF
:1005E00063FBE7727168064A0979002049008A189E
:1005F00002995054A1E70000601600000005005069
:100600000E000020F8B50768054600246A682046F9
:1006100012790C2148435300174AC61900219A1831
:100620001155F17A00290DD029680A30085C00289C
:1006300020D00021306800F0D1FA306800F0B6FA1E
:1006400000207060641C022CE0D369680A4AFF2015
:100650000979921E505468680121006800F086FDF7
:10066000686800F064FC686800F0A8FC022020378D
:10067000F870F8BD0121DDE70E000020F7B588B065
:100680000E00054609D02C68204620300690C07820
:10069000002804D008200BB0F0BD0B20FBE700F0D1
:1006A0002DFC002803D0852801D00420F3E700F0BA
:1006B0001FFA002805D100F0F1F9002801D003202D
:1006C000E9E70698FF21017006984170069881704D
:1006D000002007460C2141430B19DF72FF221A72DA
:1006E0005A720022D243401CC0B262500228F1D399
:1006F0000027E019203000F0A9FA002809D17F1C5A
:10070000FFB2022FF5D32046223000F08DFB0028E7
:1007100003D0284600F05EFDC7E70027B800325836
:10072000501C12D0F019037A39462846FFF7F8FE1C
:100730000490002804D0284600F04CFD0498AAE755
:10074000002239462846FFF78DFE7F1CFFB2022F9C
:10075000E4D300200922244B316901E04908401C00
:10076000994201D99042F9D3204A51689268029285
:1007700001916946087168681D4A0079029001A9D3
:10078000686800F041FC070004D0284600F022FD14
:10079000384680E7686805220068120280183169CF
:1007A00000690E01C640A661686800F0C0FB012721
:1007B0000097042332460221686800F00DFC0221F4
:1007C000686800F0D4FB0A98E0616868094900791C
:1007D000084A80000D506968FF200979103A50548A
:1007E0000698C770002056E7FF0F00006016000053
:1007F000751200001C00002000B500F005F800BDD7
:1008000000B500F009F800BD72B602480168491C45
:10081000016070472400002003490868401E0860FA
:1008200000D162B670470000240000200003000FD2
:1008300001D0002070470120704700000022D24301
:10084000830004490428CA5002D3081820300274D7
:100850007047000050000020F0B50025ED43002A4D
:1008600002D00023042601E0042305260A4C04E0FC
:100870009F00E7597F1C04D05B1CB342F8D3284685
:10088000F0BD5DB2261835759E00A151002AF6D143
:10089000E11820310874F2E75000002002490918DD
:1008A000142008567047000050000020F7B50025BE
:1008B000164604462F4616E0A80001210904A94067
:1008C000FF3041302258002A0BD003221202A21816
:1008D00052680A4205D02750019A01991268496866
:1008E00090476D1CEDB2B542E6D3FEBD01218140BB
:1008F00003484068014201D0012070470020704742
:10090000040000200121814003484078014201D0C9
:10091000012070470020704704000020014610B5F8
:1009200001208840FFF782FF10BD012181400807A8
:1009300000D00120704700001048018CC9B2012985
:1009400017D1818C090714D1018D09060A0F03D133
:10095000828D1206120F0ED0090F012903D1828D4C
:100960001206120F07D0032903D1808D0006000F55
:1009700001D000207047012070470000C00F00F038
:10098000012181400804000C00D0012070470000C4
:1009900086B014221F496846FFF7DEFB0120694636
:1009A00048721C481C4A0838FFF768FE002801D02E
:1009B000FFF71EFD17480838FFF724FE174D0024E7
:1009C000274601E0142C02D2A000261803E0A00064
:1009D0002018C8210E1A2F700E48B2B20021083814
:1009E000FFF730FD1128F7D028780028FCD00948FF
:1009F000B2B201210838FFF725FD002801D0FFF72A
:100A0000F7FC192000F00CF8641CE4B2282CD6D2B4
:100A1000D8E700003C16000069120000000000202A
:100A200031B5054C04E0401E00902046FFF752FB14
:100A300000980028F7D138BDE70300008207D30EE5
:100A4000FF229A408907090E10B5994000280BDA59
:100A500003071B0F083B9C080C4BA400E318DC6940
:100A600094430C43DC6107E08408094BA400E418BC
:100A7000236893430B432360C106C90E01208840BD
:100A8000044908600449086010BD000000ED00E062
:100A900000E400E080E200E000E100E070B5124D0B
:100AA000687D002801D0082070BD0F490020203942
:100AB000421E0B18401CC0B21A752028F9D300241E
:100AC0002046FFF7BBFE641CE4B2052CF8D30321DB
:100AD0000620FFF7B3FF01200449C007486001204A
:100AE0006875002070BD00007000002000630040A9
:100AF0000248407D002800D001207047700000208F
:100B0000FEB5044620480D46001914214156002622
:100B1000491C01D0082633E0A97800291DD0012204
:100B200000212046FFF798FE411C14D0830017488F
:100B30002A78181869780369154F3B4003610369E7
:100B4000E706FF0C9207920BC907C90A3B430A4309
:100B50001343036104E0042612E00121C943017537
:100B60006A780120A0400B49012A0BD0C8600021FF
:100B700000910B46012201912046114600F0C0FA77
:100B80003046FEBD8860F2E750000020006500405E
:100B9000FFE0ECFF0005005010B5FFF77FFE800678
:100BA0000149000E401810BD0060004009490918B5
:100BB00014200856810008480918086903221043C8
:100BC0001F22120202430A6100BF00BF00BF08617A
:100BD000704700005000002000650040002900D050
:100BE0000121074A121814201056820005481218D5
:100BF000106901231B0598430905084310617047DC
:100C0000500000200065004010B5044600F0CAFA0C
:100C100000280DD02046FFF741FEC0B2FFF70EFEC0
:100C20002046FFF73BFE074A002180008018016143
:100C300005490020C04309190875204600F072FAE2
:100C400010BD00000065004050000020F1B50427F1
:100C5000134E00240020FFF7CFFD0125A5403542AB
:100C600004D02046FFF742FE00280BD00020FFF7FB
:100C7000C7FD002F04D0641CAE43E4B2002EE9D1BE
:100C80003846F8BD074901204A68A0401043486033
:100C90000098002704703846FFF7B2FDF0E7000027
:100CA000FFFF00000400002070B514460D0006464A
:100CB00011D0002C0FD0FFF763FE00280DD0304676
:100CC000FFF714FE00280AD00648F1000818056155
:100CD0004461002070BD0E2070BD072070BD08204B
:100CE00070BD000000F5014010B50446FFF716FE88
:100CF00000280FD02046FFF743FE002804D02046EE
:100D0000FFF7F4FD002807D001200449A0408860C7
:100D1000002010BD072010BD082010BD00F50140C7
:100D200010B50446FFF7FAFD00280FD02046FFF764
:100D300027FE002804D02046FFF7D8FD002807D062
:100D400001200449A0404860002010BD072010BDCC
:100D5000082010BD00F5014070B50546FFF710FEF4
:100D600000280FD001240848AC4084600020FFF721
:100D700043FD06484168A14341600020FFF740FD64
:100D8000002070BD072070BD00F501400400002068
:100D900070B505460C460846FFF7C7FD002819D078
:100DA0002046FFF7AFFD002812D02846FFF73EFD92
:100DB00000280FD00020FFF71FFD0748A1000818EA
:100DC0000168294301600020FFF71AFD002070BD73
:100DD000082070BD072070BD00F8014070B50546C1
:100DE0000C460846FFF7A1FD002819D02046FFF762
:100DF00089FD002812D02846FFF718FD00280FD0E3
:100E00000020FFF7F9FC0748A10008180168A94372
:100E100001600020FFF7F4FC002070BD082070BDC9
:100E2000072070BD00F80140F1B504270F2600240B
:100E30000020FFF7E1FC0125A540354204D0204603
:100E4000FFF760FD00280BD00020FFF7D9FC002F32
:100E500004D0641CAE43E4B2002EE9D13846F8BD9C
:100E6000064901204A78A0401043487000980027A6
:100E700004703846FFF7C4FCF0E7000004000020CF
:100E800010B50446FFF751FD00280BD02046FFF7B0
:100E900039FD002808D0054A0120E10089180860C2
:100EA000002010BD072010BD082010BD00F001403B
:100EB00070B50446FFF739FD002816D02046FFF72D
:100EC00021FD002813D00B490125E00040184560A2
:100ED0000020FFF791FC0848A5404178A9434170E4
:100EE0000020FFF78DFC002070BD072070BD08209A
:100EF00070BD000000F001400400002004480178AB
:100F0000002901D085207047012101700020704721
:100F100004000020152200688900920189184058B9
:100F20007047026888004030C0B2101870470068EF
:100F30000121C160704770B5012424048C40032650
:100F400005683602AD19002B01D06C6000E0AC6082
:100F5000006889000818052109024018026470BD64
:100F600002688800FF30413080B210187047026874
:100F7000012000048840032109025118886070474D
:100F80008A0010B5FF324132036892B200249C50AF
:100F900002680120000488400321090251184860BA
:100FA00010BD000002680121116100790C2250433C
:100FB000014A8018017270478800002001680122F0
:100FC0000A6000790C225043024A02218018017203
:100FD0007047000088000020F0B5FF250235046846
:100FE0008D40FF34FF340234059E2768AF432760ED
:100FF0000468FF34FF34023425681D4325603346FE
:10100000FFF799FFF0BD000070B504460D4600796A
:101010000C21264B4143CE18317A002901D00820FB
:1010200070BD002A02D0002D02D004E0072070BD60
:101030001F49C00045183260686870600020034690
:1010400006E08100FF31226841315350401CC0B29C
:1010500061798142F5D82068E978000B40B2FFF74A
:10106000EDFC05202168000209186A784B68D20758
:101070005B085B00D20F13434B602268A9781218FB
:10108000936889079B089B00890F0B439360216835
:101090002A7808180169120709090901120F11437A
:1010A000016101203072002070BD00008800002026
:1010B0005016000010B503460068C103C90E012098
:1010C00088400D49086019680020FF31C043FF3196
:1010D00002310A6800240C60032219681202891880
:1010E00088601846FFF75EFF18790C2148430349D2
:1010F0004018047210BD000080E100E0880000206C
:1011000030B552000A439900039C0A432102049D12
:101110000A4329040A43024980004018026030BD96
:10112000000700501CB5002100910B4601220191DF
:10113000FFF7E6FF1CBD0000820006481018026899
:1011400003231B049A430260026809040A430260F5
:10115000704700000007005003494018006801284C
:1011600000D000207047000000600040074A904215
:1011700001D1074803E0074A904202D10648C16006
:101180007047064A9042FBD10548F8E700800040CE
:10119000008C004000900040009C004000A00040F7
:1011A00000AC00400449081814214156042901D21A
:1011B00001207047002070475000002010B50068E3
:1011C0000C2251430C18207AFFF78EFD607AFFF74E
:1011D0008BFD10BDF1B582B0029800240568281976
:1011E00020300078FF2801D0FFF7B6FD641CE4B280
:1011F000022CF4D32220405DFF2801D0FFF758FED7
:10120000002420460C214843002647190090B819B5
:101210000190007AFF2804D0FFF79EFD0199FF207E
:101220000872761CF6B2022EF1D300982858411CA1
:1012300005D0FFF7E9FC00210098C94329500020A0
:10124000641CE4B2F872022CDBD302984068FFF70A
:1012500031FFFEBD10B5046820342078FFF744FD4F
:101260006078FFF741FD10BD01490120087070470B
:1012700000000020F8B50D4613480127002449005E
:101280000E18305D002806D0305D401E3055305DB0
:1012900000280FD00027641CE4B2022CF1D3002FE9
:1012A00007D00948A9000E30405802214068FFF7D6
:1012B0005EFEF8BD0448A9000E3040580068C169C0
:1012C00028468847E7E700000E000020FEB50C46E0
:1012D00001680546009120460C2148430099019081
:1012E000471816462846FFF7B5FF21462846FFF760
:1012F00065FF01980A30002E09D000998969B14232
:101300000FD88EB22968085C002804D005E029684F
:10131000085C002801D0002100E001213868FFF7B7
:101320005DFC0023324621466868FFF704FE7E60BC
:101330006968024A0979FF205054FEBD0C00002064
:10134000F7B582B00446056803980C214843471955
:101350002035AE78039800902046FFF77BFF2046AB
:101360000399FFF72BFF00236068049A0099FFF7A9
:10137000E2FD31463348FFF731FD397A012002465C
:101380008A40797A884010433146FFF701FD796839
:101390002D48002934D0F1000E1802216068FFF7B3
:1013A000DFFD014628783246FFF77EFC002301224C
:1013B00003216068FFF7BFFD6068002100798200AB
:1013C0002248815003216068FFF7ABFD06460221E9
:1013D0006068FFF7C5FD014668783246FFF764FC98
:1013E0002878FFF79DFC6878FFF79AFC04987860EE
:1013F0006168164A03200979083A505405B0F0BDD7
:10140000F1000E1860680399FFF7AAFD01462878DD
:101410003246FFF749FC00231A4603216068FFF7B4
:101420008AFD60680399FFF775FD616809798A0094
:101430000649885003216068FFF773FD064660681F
:101440000399C6E7FFFFF0FF00F001401400002001
:10145000F7B5076882B0044603980C214843C219C7
:101460003D4620350092AE782046FFF7F3FE314628
:101470003648FFF7B3FC009A0121127A08469040E3
:10148000009A527A914008433146FFF781FC049953
:101490002F48002938D0398B89B20491F1000E18F9
:1014A00002216068FFF75CFD014628783246FFF7AD
:1014B000FBFB0023012203216068FFF73CFD60680D
:1014C0000021007982002348815003216068FFF7E2
:1014D00028FD064602216068FFF742FD0146687854
:1014E0003246FFF7E1FB2878FFF71AFC6878FFF730
:1014F00017FC0099049848606168164A032009792E
:10150000083A505405B0F0BDF1000E186068039918
:10151000FFF726FD014628783246FFF7C5FB00237A
:101520001A4603216068FFF706FD60680399FFF71C
:10153000F1FC616809798A000649885003216068D6
:10154000FFF7EFFC064660680399C5E7FFFFF0FF71
:1015500004F0014014000020F7B582B0054604688D
:1015600003980C21484307192034A6782846FFF732
:1015700071FE31462B48FFF731FC227801210846E5
:1015800090406278914008433146FFF701FC68685B
:101590000399FFF7C6FC009003216868FFF7E0FCA1
:1015A00001462078009AFFF77FFB686805210068F4
:1015B0000902401800690006000E13D000210498AB
:1015C0000818796888420FD23868FFF7E5FA00906A
:1015D00003216868FFF7C4FC01466078009AFFF7B2
:1015E00063FB07E00121EAE7627801203146904081
:1015F000FFF7F4FB04987860002368680321049ADD
:10160000FFF799FC3046FFF73BFC6968064A097909
:10161000049889005050696803980979083A505431
:1016200005B0F0BDFFFFF0FF140000200090004067
:10163000010400002C0000202C1600001500000002
:1016400016000000000000000200000088130000E7
:101650000000030300000000000000030000000081
:101660000300010000000003000000008C160000D1
:10167000000000202C000000B4030000B816000099
:101680002C00002074080000C403000000000000CB
:10169000000000000000000000000000000000004A
:1016A000000000000000000000000000000000003A
:0816B000000000000024F4001A
:04000005000000C136
:00000001FF
